:020000040000fa
:080000000002040000000000f2
:020000040000fa
:04000800020c0000e6
:020000040000fa
:04000c00020c0000e2
:020000040000fa
:04001000020c0000de
:020000040000fa
:04001400020c0000da
:020000040000fa
:04001800020c0000d6
:020000040000fa
:04001c00020c0000d2
:020000040000fa
:04002000020c0000ce
:020000040000fa
:04002400020c0000ca
:020000040000fa
:04002800020c0000c6
:020000040000fa
:04002c00020c0000c2
:020000040000fa
:04003000020c0000be
:020000040000fa
:04003400020c0000ba
:020000040000fa
:04003800020c0000b6
:020000040000fa
:04003c00020c0000b2
:020000040000fa
:04004000020c0000ae
:020000040000fa
:04004400020c0000aa
:020000040000fa
:04004800020c0000a6
:020000040000fa
:04004c00020c0000a2
:020000040000fa
:04005000020c00009e
:020000040000fa
:04005400020c00009a
:020000040000fa
:04005800020c000096
:020000040000fa
:04005c00020c000092
:020000040000fa
:04006000020c00008e
:020000040000fa
:04006400020c00008a
:020000040000fa
:04006800020c000086
:020000040000fa
:04006c00020c000082
:020000040000fa
:04007000020c00007e
:020000040000fa
:04007400020c00007a
:020000040000fa
:04007800fa02000088
:020000040000fa
:04007c00020c000072
:020000040000fa
:04008000020c00006e
:020000040000fa
:04008400020c00006a
:020000040000fa
:04008800020c000066
:020000040000fa
:04008c00020c000062
:020000040000fa
:04009000020c00005e
:020000040000fa
:04009400020c00005a
:020000040000fa
:04009800020c000056
:020000040000fa
:04009c00020c000052
:020000040000fa
:0400a000020c00004e
:020000040000fa
:0400a400020c00004a
:020000040000fa
:0400a800020c000046
:020000040000fa
:0400ac00020c000042
:020000040000fa
:0400b000020c00003e
:020000040000fa
:0400b400020c00003a
:020000040000fa
:0400b800020c000036
:020000040000fa
:0400bc00020c000032
:020000040000fa
:0400c000020c00002e
:020000040000fa
:0400c400020c00002a
:020000040000fa
:0400c800020c000026
:020000040000fa
:0400cc00020c000022
:020000040000fa
:0400d000020c00001e
:020000040000fa
:0400d400020c00001a
:020000040000fa
:0400d800020c000016
:020000040000fa
:0400dc00020c000012
:020000040000fa
:0400e000020c00000e
:020000040000fa
:0400e400020c00000a
:020000040000fa
:0400e800020c000006
:020000040000fa
:0400ec00020c000002
:020000040000fa
:0400f000020c0000fe
:020000040000fa
:0400f400020c0000fa
:020000040000fa
:0400f800020c0000f6
:020000040000fa
:0400fc00020c0000f2
:020000040000fa
:04010000020c0000ed
:020000040000fa
:04010400020c0000e9
:020000040000fa
:04010800020c0000e5
:020000040000fa
:04010c00020c0000e1
:020000040000fa
:04011000020c0000dd
:020000040000fa
:04011400020c0000d9
:020000040000fa
:04011800020c0000d5
:020000040000fa
:04011c00020c0000d1
:020000040000fa
:04012000020c0000cd
:020000040000fa
:04012400020c0000c9
:020000040000fa
:04012800020c0000c5
:020000040000fa
:04012c00020c0000c1
:020000040000fa
:04013000020c0000bd
:020000040000fa
:04013400020c0000b9
:020000040000fa
:04013800020c0000b5
:020000040000fa
:04013c00020c0000b1
:020000040000fa
:04014000020c0000ad
:020000040000fa
:04014400020c0000a9
:020000040000fa
:04014800020c0000a5
:020000040000fa
:04014c00020c0000a1
:020000040000fa
:04015000020c00009d
:020000040000fa
:04015400020c000099
:020000040000fa
:04015800020c000095
:020000040000fa
:04015c00020c000091
:020000040000fa
:04016000020c00008d
:020000040000fa
:04016400020c000089
:020000040000fa
:04016800020c000085
:020000040000fa
:04016c00020c000081
:020000040000fa
:04017000020c00007d
:020000040000fa
:04017400020c000079
:020000040000fa
:04017800020c000075
:020000040000fa
:04017c00020c000071
:020000040000fa
:04018000020c00006d
:020000040000fa
:04018400020c000069
:020000040000fa
:04018800020c000065
:020000040000fa
:04018c00020c000061
:020000040000fa
:04019000020c00005d
:020000040000fa
:04019400020c000059
:020000040000fa
:04019800020c000055
:020000040000fa
:04019c00020c000051
:020000040000fa
:0401a000020c00004d
:020000040000fa
:0401a400020c000049
:020000040000fa
:0401a800020c000045
:020000040000fa
:0401ac00020c000041
:020000040000fa
:0401b000020c00003d
:020000040000fa
:0401b400020c000039
:020000040000fa
:0401b800020c000035
:020000040000fa
:0401bc00020c000031
:020000040000fa
:0401c000020c00002d
:020000040000fa
:0401c400020c000029
:020000040000fa
:0401c800020c000025
:020000040000fa
:0401cc00020c000021
:020000040000fa
:0401d000020c00001d
:020000040000fa
:0401d400020c000019
:020000040000fa
:0401d800020c000015
:020000040000fa
:0401dc00020c000011
:020000040000fa
:0401e000020c00000d
:020000040000fa
:0401e400020c000009
:020000040000fa
:0401e800020c000005
:020000040000fa
:0401ec00020c000001
:020000040000fa
:0401f000020c0000fd
:020000040000fa
:0401f400020c0000f9
:020000040000fa
:0401f800020c0000f5
:020000040000fa
:0401fc00020c0000f1
:020000040000fa
:04020000020c0000ec
:020000040000fa
:04020400020c0000e8
:020000040000fa
:04020800020c0000e4
:020000040000fa
:04020c00020c0000e0
:020000040000fa
:04021000020c0000dc
:020000040000fa
:04021400020c0000d8
:020000040000fa
:04021800020c0000d4
:020000040000fa
:04021c00020c0000d0
:020000040000fa
:04022000020c0000cc
:020000040000fa
:04022400020c0000c8
:020000040000fa
:04022800020c0000c4
:020000040000fa
:04022c00020c0000c0
:020000040000fa
:04023000020c0000bc
:020000040000fa
:04023400020c0000b8
:020000040000fa
:04023800020c0000b4
:020000040000fa
:04023c00020c0000b0
:020000040000fa
:04024000020c0000ac
:020000040000fa
:04024400020c0000a8
:020000040000fa
:04024800020c0000a4
:020000040000fa
:04024c00020c0000a0
:020000040000fa
:04025000020c00009c
:020000040000fa
:04025400020c000098
:020000040000fa
:04025800020c000094
:020000040000fa
:04025c00020c000090
:020000040000fa
:04026000020c00008c
:020000040000fa
:04026400020c000088
:020000040000fa
:04026800020c000084
:020000040000fa
:04026c00020c000080
:020000040000fa
:04027000020c00007c
:020000040000fa
:04027400020c000078
:020000040000fa
:04027800020c000074
:020000040000fa
:04027c00020c000070
:020000040000fa
:04028000020c00006c
:020000040000fa
:100400006f9326000eff27000e01880000000000f9
:10041000000020000000e000020032000001200087
:100420002002880014000700f80407000000e00024
:1004300003003a0060f5220021002000020037008e
:100440000000200001002000810f70000100320038
:100450000f000700000020000000e0000200320052
:100460000000020000000000c2270200020000009d
:100470000040da000000fe00600120000000e00003
:1004800002003200002020009001880000000600d9
:10049000a1028800800478000000eb001f003700f4
:1004a000e284440054a0b4009905ba00e2844400f8
:1004b00054a0b4009906ba00e284440054a0b400e9
:1004c0000006eb00476fde00fd07b200ae018800ba
:1004d000636ce10003003a000ad801000000eb0061
:1004e0000e003700606ce10008003a00004deb00a0
:1004f0000a05e800020039003420ec000af0a000f0
:100500008b05e900f9ff3e00040037006168e10057
:10051000010032000086eb000b00070019c7ba008b
:100520000e04e0001905ba0003003a000a00e000da
:10053000dbff3a0000000600fe07b200ae028800b2
:100540008a047800f5ff37000cd0a300e20f4d00bd
:100550001c00390089027800354dba000a05e80010
:10056000020039003420ec000af0a0008b05e900fd
:100570000f003200254dba000a05e80002003900dc
:100580003420ec000af0a0008b05e90008003200de
:100590000c00e0000600320015cdba000a05e800a4
:1005a000020039003420ec000af0a0008b05e900bd
:1005b0008984e80054a0b4000b00e000e2ff3a0098
:1005c000000006009902ba00055d78008b05e9007d
:1005d000f7ff3200c82ade00055d78008b05e900d0
:1005e000f3ff32000c00e000f1ff320019ddba0029
:1005f000eeff37003600f800809fbe00829fbe00ed
:10060000849fbe00869fbe001200fa000288a900e7
:1006100000002400da2a02000200000010079800ff
:10062000210798001e019000ae019000f07f20008d
:1006300001002000020278000301780080017800a8
:100640000100780003026200000061008000eb00fe
:10065000c000dd00000020000001be006120b800e5
:1006600000017100818171003207980043079800f2
:100670001e019000ae01900000002000110020003b
:100680000202780003017800800178000100780000
:1006900003026200000061008000eb00c000dd008a
:1006a000000020000001be006120b80000017100c0
:1006b00081817100e00f5100e08f59006802320023
:1006c00010002400da2a02000200000050079800ff
:1006d000610798000000eb00000f78003e019000d9
:1006e000ce01900000f020000100200002027800fe
:1006f00003017800800178000100780003026200a5
:10070000000061006101b800c011dd00020020009e
:100710000200be006121b8000200700083807000fa
:100720000220200003002000820f5000838f580019
:10073000d80132000220200003002000820f500068
:10074000838f580009003e00e00f5000e08f5800f2
:10075000110032000210200003002000820f500020
:10076000838f5800f200320035023700026020000b
:1007700003002000820f5000838f5800cd0132000b
:100780000270200003002000820f5000838f580069
:10079000e60132002a0237003e019000ce019000af
:1007a000000f200001002000020278000301780001
:1007b00080017800010078000302620000006100ff
:1007c0006101b800c011dd00020020000200be007f
:1007d0006121b800020070008380700002032000d5
:1007e00003002000820f5000838f58006000320009
:1007f0000203200003002000820f5000838f580066
:1008000009003e00e00f5000e08f58000c0032005d
:100810000202200003002000820f5000838f580046
:1008200034003200060237000204200003002000da
:10083000820f5000838f580093003200000237006f
:100840003e019000ce019000f00020000100200049
:10085000020278000301780080017800010078002e
:1008600003026200000061008000eb00c000dd00b8
:10087000000020000001be006120b80000017100ee
:10088000818171001000200001002000800f5100c4
:10089000818f590006003200200020000100200056
:1008a000800f5100818f590009003200100037007d
:1008b0005e019000ee019000010021001000200078
:1008c000d42b020002000000000f7800080037005f
:1008d0005e019000ee019000010021002000200048
:1008e000d42b020002000000000f7800000000007e
:1008f0008e0037003e019000ce019000f0002000f5
:1009000001002000020278000301780080017800d5
:100910000100780003026200000061008000eb002b
:10092000c000dd00000020000001be006120b80012
:100930000001710081817100e00f5100e08f5900ca
:1009400001003200090037005e009000ee009000c8
:100950000000780061006000004078000004e000c2
:10096000010032000000fe00000000006f003700b0
:100970003e019000ce019000f00020000100200018
:1009800002027800030178008001780001007800fd
:1009900003026200000061008000eb00c000dd0087
:1009a000000020000001be006120b80000017100bd
:1009b000818171002000200001002000800f510083
:1009c000818f590006003200300020000100200015
:1009d000800f5100818f5900060032002900370036
:1009e0005e009000ee00900010808800218088005a
:1009f00024003700b22b020002000000000f780034
:100a000012808000238080000080eb008080eb005b
:100a1000800f5100818f590008003a008001eb00df
:100a20000001eb000080eb008080eb00ba1d0200ab
:100a3000020000000000fe000f0037006a014700be
:100a400010808000218080008100d1000080d300d0
:100a50008201780042002000e41c02000200000035
:100a6000108080002180800064004000e080480009
:100a70001080880021808800c62b02000200000040
:100a800000000000290037003e019000ce019000d8
:100a9000f00020000100200002027800030178002d
:100aa000800178000100780003026200000061000c
:100ab0008000eb00c000dd00000020000001be004f
:100ac0006120b8000001710081817100e00f5100c8
:100ad000e08f590001003200130037005e019000e2
:100ae000ee0190006000200001002000800f510006
:100af000818f590003003a00100020000080880018
:100b0000090037005e019000ee019000800d20008a
:100b100001002000800f5100818f590002003a002f
:100b20002000200000808800000000004401370001
:100b30003e019000ce019000f00f20000100200047
:100b4000020278000301780080017800010078003b
:100b500003026200000061006101b800c011dd0005
:100b6000020020000200be006121b80002007000f7
:100b7000838070000203200003002000820f5000d9
:100b8000838f5800820032000203200003002000ff
:100b9000820f5000838f580023003e004201200046
:100ba00003002000820f5000838f5800580032004d
:100bb0004201200003002000820f5000838f580064
:100bc00009003e00e00f5000e08f58004000320066
:100bd0000201200003002000820f5000838f580084
:100be0004300320016013700c2012000030020003c
:100bf000820f5000838f58005500320002022000ff
:100c000003002000820f5000838f580058003200ec
:100c10008201200003002000820f5000838f5800c3
:100c20004300320006013700c20820000300200004
:100c3000820f5000838f580075003200c2082000d8
:100c400003002000820f5000838f580010003e00e8
:100c50004208200003002000820f5000838f5800bc
:100c60005b0032008208200003002000820f500049
:100c7000838f58005e00320002082000030020002d
:100c8000820f5000838f580049003200ec0037007b
:100c9000420c200003002000820f5000838f580078
:100ca0006b003200020e200003002000820f500073
:100cb000838f58006e003200020c200003002000d9
:100cc000820f5000838f580059003200dc0037003b
:100cd0005e019000ee0190003e00900001002100b6
:100ce000d42b020002000000000f780068003700db
:100cf0005e019000ee0190003e0090000100210096
:100d0000d42b020002000000000f780060003700c2
:100d10005e019000ee0190003e0090000100210075
:100d2000d42b020002000000000f780058003700aa
:100d30005e019000ee0190003e0090000100210055
:100d4000d42b020002000000000f78005000370092
:100d50005e019000ee0190003e0090000100210035
:100d6000d42b020002000000000f7800480037007a
:100d70005e019000ee0190003e0090000100210015
:100d8000d42b020002000000000f78004000370062
:100d90005e019000ee0190003e00900001002100f5
:100da000d42b020002000000000f7800380037004a
:100db0005e019000ee0190003e00900001002100d5
:100dc000d42b020002000000000f78003000370032
:100dd0005e019000ee0190003e00900001002100b5
:100de000d42b020002000000000f7800280037001a
:100df0005e019000ee0190003e0090000100210095
:100e0000d42b020002000000000f78002000370001
:100e10005e019000ee0190003e0090000100210074
:100e2000d42b020002000000000f780018003700e9
:100e30005e019000ee0190003e0090000100210054
:100e4000d42b020002000000000f780010003700d1
:100e50005e019000ee0190003e0090000100210034
:100e6000d42b020002000000000f780008003700b9
:100e70005e019000ee0190003e0090000100210014
:100e8000d42b020002000000000f780000000000d8
:100e90006b0037005e009000ee0090003e02900074
:100ea0000001be00040078004e2b0200020000008a
:100eb000630037003e019000ce019000f00f20004b
:100ec0000100200002027800030178008001780010
:100ed0000100780003026200000061008000eb0066
:100ee000c000dd00000020000001be006120b8004d
:100ef0000001710081817100f003200001002000d9
:100f0000800f5100818f59004c003e005e0190001f
:100f1000ee0190003e00900001002100d42b020061
:100f200002000000000f7800450037003e019000ed
:100f3000ce019000f00f2000010020000202780096
:100f4000030178008001780001007800030262004c
:100f5000000061008000eb00c000dd000000200008
:100f60000001be006120b8000001710081817100a4
:100f70000008200001002000800f5100818f5900df
:100f8000160032003e019000ce019000f00f2000cc
:100f9000010020000202780003017800800178003f
:100fa0000100780003026200000061008000eb0095
:100fb000c000dd00000020000001be006120b8007c
:100fc00000017100818171001008200001002000e3
:100fd000800f5100818f590010003a005e0190008f
:100fe000ee0190003e00900001002100d42b020091
:100ff00002000000000f78003e00900074300200f4
:10100000020000003e0290000001be0004007800d3
:101010004e2b020002000000090037005e00900025
:10102000ee0090003e0290000001be000400780037
:101030004e2b0200020000000100370000000000fb
:101040001e0078000000e000e7013a006011b800df
:10105000100024004e2b020002000000e2013700c5
:101060006000b80070079800010f98003e019000e2
:10107000ce01900000f02000010020000202780064
:10108000030178008001780001007800030262000b
:10109000000061006101b800c011dd000200200005
:1010a0000200be006121b800020070008380700061
:1010b0000220200003002000820f5000838f580080
:1010c000940132000220200003002000820f500013
:1010d000838f580009003e00e00f5000e08f580059
:1010e000160032000210200003002000820f500082
:1010f000838f5800ca003200b5013700026020001b
:1011000003002000820f5000838f58008d013200b1
:101110000270200003002000820f5000838f5800cf
:10112000a40132000240200003002000820f500082
:10113000838f58007d013200a50137003e019000e9
:10114000ce019000000f2000010020000202780074
:10115000030178008001780001007800030262003a
:10116000000061008000eb00c000dd0000002000f6
:101170000001be006120b800000171008181710092
:10118000e00f5100e08f59000600320000032000fc
:1011900001002000800f5100818f59004c00320067
:1011a0008b0137003e019000ce019000f00020003e
:1011b000010020000202780003017800800178001d
:1011c0000100780003026200000061006101b800c4
:1011d000c011dd00020020000200be006121b80045
:1011e00002007000838070002200200003002000b5
:1011f000820f5000838f580024003200220020000c
:1012000003002000820f5000838f580009003e0029
:10121000e00f5000e08f5800110032001200200053
:1012200003002000820f5000838f5800110032000d
:10123000260037004200200003002000820f5000eb
:10124000838f580017003200820020000300200026
:10125000820f5000838f5800170032001b003700a8
:10126000d00120000100200070079800010f9800b5
:101270001600370010002000743002000200000049
:1012800070079800010f9800100037002000200020
:10129000743002000200000070079800010f9800ef
:1012a0000a0037005001200001002000700798005c
:1012b000010f9800050037001000200001002000f9
:1012c00070079800010f98000000000053003700dd
:1012d0003e019000ce019000f000200001002000af
:1012e0000202780003017800800178000100780094
:1012f00003026200000061006101b800c011dd005e
:10130000020020000200be006121b800020070004f
:10131000838070002200200003002000820f500014
:10132000838f580027003200320020000300200085
:10133000820f5000838f58002700320012002000d7
:1013400003002000820f5000838f580001003200fc
:1013500031003700201020006101b800f00f20009c
:10136000010020000202780003017800800178006b
:101370000100780003026200000061008000eb00c1
:10138000c000dd00000020000001be006120b800a8
:101390000001710081817100c011dd000200200098
:1013a00000002a008000eb0002004000838048001b
:1013b000000040008180480070079800010f9800ed
:1013c0001500370010808000218080007007980091
:1013d000010f9800100037006e0147001080800058
:1013e000218080008100d1000080d300820178003c
:1013f00022002000361c0200020000001080800045
:101400002180800064004000e08048001080880057
:10141000218088000000000000000000ec00370080
:101420003e019000ce019000f00f2000010020004e
:101430000202780003017800800178000100780042
:1014400003026200000061006101b800c011dd000c
:10145000020020000200be006121b80002007000fe
:10146000838070000203200003002000820f5000e0
:10147000838f580076003200020320000300200012
:10148000820f5000838f580023003e00420120004d
:1014900003002000820f5000838f58005400320058
:1014a0004201200003002000820f5000838f58006b
:1014b00009003e00e00f5000e08f5800400032006d
:1014c0000201200003002000820f5000838f58008b
:1014d00041003200be003700c2012000030020009e
:1014e000820f5000838f58004d003200020220000e
:1014f00003002000820f5000838f58004e003200fe
:101500008201200003002000820f5000838f5800ca
:101510003d003200ae003700c2082000030020006a
:10152000820f5000838f580061003200c2082000f3
:1015300003002000820f5000838f580010003e00ef
:101540004208200003002000820f5000838f5800c3
:101550004b0032008208200003002000820f500060
:10156000838f58004c003200020820000300200046
:10157000820f5000838f58003b00320094003700e8
:10158000420c200003002000820f5000838f58007f
:1015900053003200020e200003002000820f500092
:1015a000838f580054003200020c200003002000fa
:1015b000820f5000838f58004300320084003700b0
:1015c0003e00900074300200020000007007980096
:1015d000010f98004e0037003e009000743002006a
:1015e0000200000070079800010f980048003700c3
:1015f0003e00900074300200020000007007980066
:10160000010f9800420037003e0090007430020045
:101610000200000070079800010f98003c0037009e
:101620003e00900074300200020000007007980035
:10163000010f9800360037003e0090007430020021
:101640000200000070079800010f9800300037007a
:101650003e00900074300200020000007007980005
:10166000010f98002a0037003e00900074300200fd
:101670000200000070079800010f98002400370056
:101680003e009000743002000200000070079800d5
:10169000010f98001e0037003e00900074300200d9
:1016a0000200000070079800010f98001800370032
:1016b0003e009000743002000200000070079800a5
:1016c000010f9800120037003e00900074300200b5
:1016d0000200000070079800010f98000c0037000e
:1016e0003e00900074300200020000007007980075
:1016f000010f9800060037003e0090007430020091
:101700000200000070079800010f98000000000020
:101710002f0037003e009000da2a0200020000008d
:1017200070079800010f9800290037003e009000d4
:10173000da2a02000200000070079800010f9800ea
:10174000230037003e019000ce019000f00f2000f2
:101750000100200002027800030178008001780077
:101760000100780003026200000061008000eb00cd
:10177000c000dd00000020000001be006120b800b4
:101780000001710081817100f00320000100200040
:10179000800f5100818f59000c003e003e009000e8
:1017a000743002000200000070079800010f9800da
:1017b000070037003e009000da2a02000200000015
:1017c00070079800010f980001003700000000002a
:1017d0007e0090008e0890000001be0010002400e2
:1017e0004e2b0200020000000080fa004f03be00f2
:1017f0004f02be004f01be004f00be003600f90090
:10180000004006000040da000000fe000000050075
:020000040000fa
:1018100005000000ff7f0000ff7f0000ff7f000049
:10182000ff7f00001810000000000000ffff000014
:0c183000ffff0000ffff0000ffff0000b2
:020000040000fa
:10183c00ff0000004c61000074740000696300003c
:10184c0065000000694300004563000075620000fc
:10185c00653200002032000030310000372e0000cd
:10186c00303800002e3200003739000034300000d0
:10187c000050000061720000743a00002069000002
:10188c0043450000343000004c500000344b000045
:10189c002d4300004d380000310000004461000071
:1018ac00746500003a2000004d61000072200000b9
:1018bc0036200000323000003230000020310000b1
:1018cc00343a0000353900003a32000000ff0000c5
:1018dc00360000007eaa0000997e00005100000036
:1018ec000105000092000000206200000367000068
:1018fc0072010000108200000000000011000000c6
:10190c0001010000000000000000000000000000c9
:10191c0000000000000000000000000000000000bb
:10192c0000000000000000000000000000000000ab
:10193c00000000000000000000000000000000009b
:10194c00000000000000000000000000000000008b
:101bec0000200000000000000000000000000000c9
:101bfc0000000000000000000000000000000000d9
:101c0c0000000000000000000000000000000000c8
:101c1c0000000000000000000000000000000000b8
:101c2c0000000000000000000000000000000000a8
:101c3c000000000000000000000000000000000098
:101c4c000000000000000000000000000000000088
:101c5c000000000000000000000000000000000078
:101c6c000000000000000000000000000000000068
:101c7c000000000000000000000000000000000058
:101c8c000000000000000000000000000000000048
:101c9c0000000000000000000000000005800000b3
:101cac000000000000000000000000000000000028
:101cbc000000000000000000000000000000000018
:101ccc000000000000000000000000000000000008
:101cdc0000000000000000000000000000000000f8
:101ffc000000000000000000008000000000000055
:10200c0000000000000200000000000000000000c2
:10201c0000000000000000000000000000000000b4
:10202c0000000000000000000000000000000000a4
:10203c000000000000000000000000000000000094
:10204c000000000000000000000000000000000084
:10205c000000000000000000000000000000000074
:10206c000000000000000000000000000000000064
:10207c000000000000000000000000000000000054
:10208c000000000000000000000000000000000044
:10209c000000000000000000000000000000000034
:1020ac000000000000000000000000000000000024
:1020bc000000000000000000000000000000000014
:1020cc000000000000000000000000000000000004
:1020dc0000000000000000000000000000000000f4
:1020ec0000000000000000000000000000000000e4
:1020fc0000000000000000000000000000000000d4
:10210c0000000000000000000000000000000000c3
:10211c0000000000000000000000000000000000b3
:10212c0000000000000000000000000000000000a3
:10213c000000000000000000000000000000000093
:10214c000000000000000000000000000000000083
:10215c000000000000000000000000000000000073
:10216c000000000000000000000000000000000063
:10217c000000000000000000000000000000000053
:10218c000000000000000000000000000000000043
:10219c000000000000000000000000000000000033
:1021ac000000000000000000000000000000000023
:1021bc00c000000000000000000000000300000050
:1021cc000000000000000000000000000000000003
:1021dc0000000000000000000000000000000000f3
:1021ec0000000000000000000000000000000000e3
:1021fc0000000000000000000000000000000000d3
:10220c0000000000000000000000000000000000c2
:10221c0000000000000000000000000000000000b2
:10222c0000000000000000000000000000000000a2
:10223c000000000000000000000000000000000092
:10224c000000000000000000000000000000000082
:10225c000000000000000000000000000000000072
:10226c000000000000000000000000000000000062
:10227c000000000000000000000000000000000052
:10228c000020000000000000000000000000000022
:10229c0080000000000200000000000000000000b0
:1022ac000000000000000000000000000000000022
:1022bc000000000000000000000000000000000012
:1022cc000000000000000000000000000000000002
:1022dc0000000000000000000000000000000000f2
:1022ec0000000000000000000000000000000000e2
:1022fc0000000000000000000000000000000000d2
:10230c0000000000000000000000000000000000c1
:10231c0000000000000000000000000000000000b1
:10232c0000000000000000000000000000000000a1
:10233c00000000000004000000000000000000008d
:10234c000000000000000000000000000000000081
:10235c00000000000000000000000000000200006f
:10236c000000000000000000000000000000000061
:10237c000000000000000000000000000000000051
:10238c000000000000000000000000000000000041
:10239c000000000000000000000000000000000031
:1023ac000000000000000000000000000000000021
:1023bc000000000000000000000000000000000011
:1023cc000000000000000000000000000000000001
:1023dc0000000000000000000000000000000000f1
:1023ec0000000000000000000000000000000000e1
:1023fc0000000000000000000000000000000000d1
:10240c0000000000000000000000000000000000c0
:10241c0000000000000000000000000000000000b0
:10242c0000000000000000000000000000000000a0
:10243c00000000000010000001c0000000000000bf
:10244c000000000040000000000000000000000040
:10245c000000000000000000000000000000000070
:10246c000000000000000000000000000000000060
:10247c000000000000000000000000000000000050
:10248c000000000000000000000000000000000040
:10249c000000000000000000000000000000000030
:1024ac000000000000000000000000000000000020
:1024bc000000000000000000000000000000000010
:1024cc000000000000000000000000000000000000
:1024dc0000000000000000000000000000000000f0
:1024ec0000000000000000000000000000000000e0
:1024fc0000000000000000000000000000000000d0
:10250c0000000000000000000000000000000000bf
:10251c0000000000000000000000000000000000af
:10252c00000000000000000000000000000000009f
:10253c00000000000000000000000000000000008f
:10254c00000000000000000000000000000000007f
:10255c00000000000000000000000000000000006f
:10256c00000000000000000000000000000000005f
:10257c00000000000000000000000000000000004f
:10258c00000000000000000000000000000000003f
:10259c00000000000000000000000000000000002f
:1025ac00000000000000000000000000000000001f
:1025bc00000000000000000000000000000000000f
:1025cc0008000000000000000000000000000000f7
:1025dc0000000000000000000000000000000000ef
:1025ec0000000000000000000020000000000000bf
:1025fc00000000000000000080000000000000004f
:10260c0000000000000000000000000000000000be
:10261c0000000000000000000000000000000000ae
:10262c00000000000000000000000000000000009e
:10263c00000000000000000000000000000000008e
:10264c00000000000000000000000000000000007e
:10265c00000000000000000000000000000000006e
:10266c00000000000000000000000000000000005e
:10267c00000000000000000000000000000000004e
:10268c00000000000000000000000000000000003e
:10269c0000000000000000000058000000000000d6
:1026ac00000000000000000000000000000000001e
:1026bc00000000000000000000000000000000000e
:1026cc0000000000000000000000000000000000fe
:1026dc0000000000000000000000000000000000ee
:102e4c001000000000000000000000000000000066
:102e5c000000000000000000000000000000000066
:102e6c000000000000000000000000000000000056
:102e7c000000000000000000000000000000000046
:102e8c000000000000000000000000000000000036
:1032fc0000010000000000000000000000000000c1
:10330c0000000000000000000000000000000000b1
:10331c0000000000000000000000000000000000a1
:10332c000000000000000000000000000000000091
:10333c000000000000000000000000000000000081
:10334c000000000000000000000000000000000071
:10335c000000000000000000000000000000000061
:10336c000000000000000000000000000000000051
:10337c000000000000000000000000000000000041
:10338c000000000000000000000000000000000031
:10339c000000000000000000000000000000000021
:1033ac000000000000000000000000000000000011
:1033bc000000000000000000000000000000000001
:1033cc0000000000000000000000000001000000f0
:1033dc0000000000000000000000000000000000e1
:1033ec0000000000000000000000000000000000d1
:1033fc0000000000000000000000000000000000c1
:10340c0000000000000000000000000000000000b0
:1041ec000000000040000000000000000000000083
:1041fc0000000000000000000000000000000000b3
:10420c0000000000000000000000000000000000a2
:10421c000000000000000000000000000000000092
:10422c000000000000000000000000000000000082
:10447c0000800000000000000000000000000000b0
:10448c000000000000000000000000000000000020
:10449c000000000000000000000000000000000010
:1044ac000000000000000000000000000000000000
:1044bc0000000000000000000000000000000000f0
:1044cc0000000000000000000000000000000000e0
:1044dc0000000000000000000000000000000000d0
:1044ec0000000000000000000000000000000000c0
:1044fc0000000000000000000000000000000000b0
:10450c00000000000000000000000000000000009f
:10451c00000000000000000000000000000000008f
:10452c00000000000000000000000000000000007f
:10453c00000000000000000000000000000000006f
:10454c000000000000000000000000004800000017
:10455c00000000000000000000000000000000004f
:10456c00000000000000000000000000000000003f
:10457c00000000000000000000000000000000002f
:10458c00000000000000000000000000000000001f
:10459c00000000000000000000000000000000000f
:1045ac0000000000000000000000000000000000ff
:1045bc0000000000000000000000000000000000ef
:1045cc0000000000000000000000000000000000df
:1045dc0000000000000000000000000000000000cf
:1045ec0000000000000000000000000000000000bf
:1045fc0000000000000000000000000000000000af
:10460c00000000000000000000000000000000009e
:10461c00000000000000000000000000000000008e
:10462c0000000000000c0000000000000000000072
:10463c00000000000000000000000000000000006e
:10464c00000000000000000000000000000000005e
:10465c00000000000000000000000000000000004e
:10466c00000000000000000000000000000000003e
:10467c00000000000000000000000000000000002e
:10468c00000000000000000000000000000000001e
:10469c00000000000000000000000000000000000e
:1046ac0000000000000000000000000000000000fe
:1046bc0000000000000000000000000000000000ee
:1046cc0000000000000000000000000000000000de
:1046dc0000000000000000000000000000000000ce
:1046ec0000000000000000000000000000000000be
:1046fc0000000000000000000000000000000000ae
:10470c00000100000000000000000000000000009c
:10471c00000000000000000000000000000000008d
:10472c00000000000000000000000000000000007d
:10473c00000000000000000000000000000000006d
:10474c00000000000000000000000000000000005d
:10475c00000000000000000000000000000000004d
:10476c00000000000000000000000000000000003d
:10477c00000000000000000000000000000000002d
:10478c00000000000000000000000000000000001d
:10479c00000000000000000000000000000000000d
:1047ac0000000000000000000000000000000000fd
:1047bc0000000000000000000000000000000000ed
:1047cc0000000000000000000000000000000000dd
:1047dc000000000000000000000000002c000000a1
:1047ec0000000000000000000000000000000000bd
:1047fc0000000000000000000000000000000000ad
:10480c00000000000000000000000000000000009c
:10481c00000000000000000000000000000000008c
:104d1c000000000000020000800000000000000005
:104d2c000000000000000000000000000000000077
:104d3c000000000000000000000000000000000067
:104d4c000000000000000000000000000000000057
:104d5c000000000000000000000000000000000047
:10557c00000000000000000000100000000000000f
:10558c00000000000000000000000000000000000f
:10559c0000000000000000000000000000000000ff
:1055ac0000000000000000000000000000000000ef
:1055bc0000000000000000000000000000000000df
:1055cc0000000000000000000000000000000000cf
:1055dc0000000000000000000000000000000000bf
:1055ec0000000000000000000000000000000000af
:1055fc00000000000000000000000000000000009f
:10560c00000000000000000000000000000000008e
:10561c00000000000000000000000000000000007e
:10562c00000000000000000000000000000000006e
:10563c00000000000000000000000000000000005e
:10564c00000000000000000000000000000000004e
:10565c00000000000000000000000000000000003e
:10566c00000000000000000000000000000000002e
:10567c00000000000000000000000000000000001e
:10568c00000000000000000000000000000000000e
:10569c0000000000000000000000000008000000f6
:1056ac0000000000000000000000000000000000ee
:1056bc0000000000000000000000000000000000de
:1056cc0000000000000000000000000000000000ce
:1056dc0000000000000000000000000000000000be
:105bdc0000010000000000000000000000000000b8
:105bec0000000000000000000000000000000000a9
:105bfc000000000000000000000000000000000099
:105c0c000000000000000000000000000000000088
:105c1c000000000000000000000000000000000078
:105c2c000000000000000000000000000000000068
:105c3c000000000000000000000000000000000058
:105c4c000000000000000000000000000000000048
:105c5c000000000000000000000000000000000038
:105c6c000000000000000000000000000000000028
:105c7c000000000000000000000000000000000018
:105c8c000000000000000000000000000000000008
:105c9c0000000000000000000000000000000000f8
:105cac0000000000000000000000000001000000e7
:105cbc0000000000000000000000000000000000d8
:105ccc0000000000000000000000000000000000c8
:105cdc0000000000000000000000000000000000b8
:105cec0000000000000000000000000000000000a8
:105cfc000000000000000000000000000000000098
:105d0c000000000000000000000000000000000087
:105d1c000000000000000000000000000000000077
:105d2c000000000040000000000000000000000027
:105d3c000000000000000000000000000000000057
:105d4c000000000000000000000000000000000047
:105d5c000000000000000000000000000000000037
:105d6c000000000000000000000000000000000027
:105fbc000080000000000000000000000000000055
:105fcc0000000000000000000000000000000000c5
:105fdc0000000000000000000000000000000000b5
:105fec0000000000000000000000000000000000a5
:105ffc000000000000000000000000000000000095
:10600c000000000000000000000000000000000084
:10601c000000000000000000000000000000000074
:10602c000000000000000000000000000000000064
:10603c000000000000000000000000000000000054
:10604c000000000000000000000000000000000044
:10605c000000000000000000000000000000000034
:10606c000000000000000000000000000000000024
:10607c000000000000000000000000000000000014
:10608c0000000000000000000000000048000000bc
:10609c0000000000000000000000000000000000f4
:1060ac0000000000000000000000000000000000e4
:1060bc0000000000000000000000000000000000d4
:1060cc0000000000000000000000000000000000c4
:1060dc0000000000000000000000000000000000b4
:1060ec0000000000000000000000000000000000a4
:1060fc000000000000000000000000000000000094
:10610c000000000000000000000000000000000083
:10611c000000000000000000000000000000000073
:10612c000000000000000000000000000000000063
:10613c000000000000000000000000000000000053
:10614c000000000000000000000000000000000043
:10615c000000000000000000000000000000000033
:10616c0000000000000800002c00000000000000ef
:10617c000000000000000000000000000000000013
:10618c000000000000000000000000000000000003
:10619c0000000000000000000000000000000000f3
:1061ac0000000000000000000000000000000000e3
:1061bc0000000000000000000000000000000000d3
:1061cc0000000000000000000000000000000000c3
:1061dc0000000000000000000000000000000000b3
:1061ec0000000000000000000000000000000000a3
:1061fc000000000000000000000000000000000093
:10620c000000000000000000000000000000000082
:10621c000000000000000000000000000000000072
:10622c000000000000000000000000000000000062
:10623c000000000000000000000000000000000052
:10624c000001000000000000000000000000000041
:10625c000000000000000000000000000000000032
:10626c000000000000000000000000000000000022
:10627c000000000000000000000000000000000012
:10628c000000000000000000000000000000000002
:106b9c0000000000000000000000000000100000d9
:106bac0000000000000000000000000000000000d9
:106bbc0000000000000000000000000000000000c9
:106bcc0000000000000000000000000000000000b9
:106bdc0000000000000000000000000000000000a9
:10771c00000100000000000000000000000000005c
:10772c00000000000000000000000000000000004d
:10773c00000000000000000000000000000000003d
:10774c00000000000000000000000000000000002d
:10775c00000000000000000000000000000000001d
:10776c00000000000000000000000000000000000d
:10777c0000000000000000000000000000000000fd
:10778c0000000000000000000000000000000000ed
:10779c0000000000000000000000000000000000dd
:1077ac0000000000000000000000000000000000cd
:1077bc0000000000000000000000000000000000bd
:1077cc0000000000000000000000000000000000ad
:1077dc00000000000000000000000000000000009d
:1077ec00000000000000000000000000010000008c
:1077fc00000000000000000000000000000000007d
:10780c00000000000000000000000000000000006c
:10781c00000000000000000000000000000000005c
:10782c00000000000000000000000000000000004c
:10783c00000000000000000000000000000000003c
:10784c00000000000000000000000000000000002c
:10785c00000000000000000000000000000000001c
:10786c00000000000000000000000000000000000c
:10787c0000000000000000000000000000000000fc
:10788c0000000000000000000000000000000000ec
:10789c0000000000000000000000000000000000dc
:1078ac000000000007230000c300000000000000df
:1078bc0000000000000000000000000000000000bc
:1078cc0000000000000000000000000000000000ac
:1078dc00000000000000000000000000000000009c
:1078ec00000000000000000000000000000000008c
:1078fc00000000000000000000000000000000007c
:10790c00000000000000000000000000000000006b
:10791c00000000000000000000000000000000005b
:10792c00000000000000000000000000000000004b
:10793c00000000000000000000000000000000003b
:10794c000200000000000000000000000000000029
:10795c00000000000000000000000000000000001b
:10796c00000000000000000000000000000000000b
:10797c0000000000000000000000000000000000fb
:10798c00003c0000080000000000000000000000a7
:10799c0000000000000000000000000000000000db
:1079ac0000000000000000000000000000000000cb
:1079bc0000000000000000000000000000000000bb
:1079cc0000000000000000000000000000000000ab
:1079dc00000000000000000000000000000000009b
:1079ec00000000000000000000000000000000008b
:1079fc00000000000000000000000000000000007b
:107a0c00000000000000000000000000000000006a
:107a1c00000000000000000000000000000000005a
:107a2c00000000000000000000000000000000004a
:107a3c00000000000000000000000000000000003a
:107a4c00000000000000000000000000000000002a
:107a5c00001800000000000007230000c300000015
:107a6c00000000000000000000000000000000000a
:107a7c0000000000000000000000000000000000fa
:107a8c0000000000000000000000000000000000ea
:107a9c0000000000000000000000000000000000da
:107aac0000000000000000000000000000000000ca
:107abc0000000000000000000000000000000000ba
:107acc0000000000000000000000000000000000aa
:107adc00000000000000000000000000000000009a
:107aec00000000000000000000000000000000008a
:107afc00000000000000000000000000000000007a
:107b0c000000000000000000000000000000000069
:107b1c000000000000000000000000000000000059
:107b2c000000000000000000000000000000000049
:107b3c0000000000003c00000000000000000000fd
:107b4c000000000000000000000000000000000029
:107b5c000000000000000000000000000000000019
:107b6c000000000000000000000000000000000009
:107b7c0000000000000000000000000000000000f9
:107b8c0000000000000000000000000000000000e9
:107b9c0000000000000000000000000000000000d9
:107bac0000000000000000000000000000000000c9
:107bbc0000000000000000000000000000000000b9
:107bcc0000000000000000000000000000000000a9
:107bdc000000000000000000000000000000000099
:107bec000000000000000000000000000000000089
:107bfc000000000000000000000000000000000079
:107c0c0000000000000000000001000095230000af
:107c1c00c300000000000000000000000000000095
:107c2c000000000000000000000000000000000048
:107c3c000000000000000000000000000000000038
:107c4c000000000000000000000000000000000028
:107c5c000000000000000000000000000000000018
:107c6c000000000000000000000000000000000008
:107c7c0000000000000000000000000000000000f8
:107c8c0000000000000000000000000000000000e8
:107c9c0000000000000000000000000000000000d8
:107cac0000000000000000000000000000000000c8
:107cbc0000000000000000000000000000000000b8
:107ccc0000000000000000000000000000000000a8
:107cdc000000000000000000000000000000000098
:107cec000000000000800000803c0000000000004c
:107cfc000000000000000000000000000000000078
:107d0c000000000000000000000000000000000067
:107d1c000000000000000000000000000000000057
:107d2c000000000000000000000000000000000047
:107d3c000000000000000000000000000000000037
:107d4c000000000000000000000000000000000027
:107d5c000000000000000000000000000000000017
:107d6c000000000000000000000000000000000007
:107d7c0000000000000000000000000000000000f7
:107d8c0000000000000000000000000000000000e7
:107d9c0000000000000000000000000000000000d7
:107dac0000000000000000000000000000000000c7
:107dbc0000000000000000000000000000000000b7
:107dcc0005230000c30000000000000010000000ac
:107ddc000000000000000000000000000000000097
:107dec000000000000000000000000000000000087
:107dfc000000000000000000000000000000000077
:107e0c000000000000000000000000000000000066
:107e1c000000000000000000000000000000000056
:107e2c000000000000000000000000000000000046
:107e3c000000000000000000000000000000000036
:107e4c000000000000000000000000000000000026
:107e5c000000000000000000000000000000000016
:107e6c000000000000000000000000000000000006
:107e7c0000000000000000000000000000000000f6
:107e8c0000000000000000000000000000000000e6
:107e9c00000000000000000000000000803c00001a
:107eac0000000000000000000000000000000000c6
:107ebc0000000000000000000000000000000000b6
:107ecc0000000000000000000000000000000000a6
:107edc000000000000000000000000000000000096
:107eec000000000000000000000000000000000086
:107efc000000000000000000000000000000000076
:107f0c000000000000000000000000000000000065
:107f1c000000000000000000000000000000000055
:107f2c000000000000000000000000000000000045
:107f3c000000000000040000000000000000000031
:107f4c000000000000000000000000000000000025
:107f5c000000000000000000000000000000000015
:107f6c000000000000000000000000000000000005
:107f7c000000000007a30000c30000000000000088
:107f8c0000000000000000000000000000000000e5
:107f9c0000000000000000000000000000000000d5
:107fac0000000000000000000000000000000000c5
:107fbc0000000000000000000000000000000000b5
:107fcc0000000000000000000000000000000000a5
:107fdc000000000000000000000000000000000095
:107fec000000000000000000000000000000000085
:107ffc000000000000000000000000000000000075
:10800c000000000000000000000000000000000064
:10801c00280000000000000000000000000000002c
:10802c000000000000000000000000000000000044
:10803c0080000000000000000000000000000000b4
:10804c000000000000000000000000000000000024
:10805c00003c0000000000000000000000000000d8
:10806c000000000000000000000000000000000004
:10807c0000000000000000000000000000000000f4
:10808c0000000000000000000000000000000000e4
:10809c0000000000000000000000000000000000d4
:1080ac0000000000000000000000000000000000c4
:1080bc0000000000000000000000000000000000b4
:1080cc0000000000000000000000000000000000a4
:1080dc000000000000000000000000000000000094
:1080ec000000000000000000440000000000000040
:1080fc000000000000000000000000000000000074
:10810c000000000000000000000000000000000063
:10811c000000000000000000000000000000000053
:10812c00000000000000000007a1000055800000c6
:10813c000000000000000000000000000000000033
:10814c000000000000000000000000000000000023
:10815c000000000000000000000000000000000013
:10816c000000000000000000000000000000000003
:10817c0000000000000000000000000000000000f3
:10818c0000000000000000000000000000000000e3
:10819c0000000000000000000000000000000000d3
:1081ac0000000000000000000000000000000000c3
:1081bc0000000000000000000000000000000000b3
:1081cc00000800000000000000000000000000009b
:1081dc000000000000000000000000000000000093
:1081ec000000000000000000000000000000000083
:1081fc000000000000000000000000000000000073
:10820c00000000000154000000000000000000000d
:10821c000000000000000000000000000000000052
:10822c000000000000000000000000000000000042
:10823c000000000000000000000000000000000032
:10824c000000000000000000000000000000000022
:10825c000000000000000000000000000000000012
:10826c000000000000000000000000000000000002
:10827c0000000000000000000000000000000000f2
:10828c0000000000000000000000000000000000e2
:10829c0000000000000000000000000000000000d2
:1082ac0000000000000000000000000000000000c2
:1082bc0000000000000000000000000000000000b2
:1082cc0000000000000000000000000000000000a2
:1082dc0000000000000000000098000000000000fa
:1082ec000000000000000000000000000000000082
:1082fc000000000000000000000000000000000072
:10830c000000000000000000000000000000000061
:10831c000000000000000000000000000000000051
:10832c000000000000000000000000000000000041
:10833c000000000000000000000000000000000031
:10834c000000000000000000000000000000000021
:10835c000000000000000000000000000000000011
:10836c000000000000000000000000000000000001
:10837c000000000000800000000000000000000071
:10838c0000000000000000000000000000000000e1
:10839c0000000000000000000000000000000000d1
:1083ac0000000000000000000000000000000000c1
:1083bc0000000000100000000000000000000000a1
:1083cc0000000000000000000000000000000000a1
:1083dc000000000000000000000000000000000091
:1083ec000000000000000000000000000000000081
:1083fc000000000000000000000000000000000071
:10840c000000000000000000000000000000000060
:10841c000000000000000000000000000000000050
:10842c000000000000000000000000000000000040
:10843c000000000000000000000000000000000030
:10844c000000000000000000000000000000000020
:10845c0040000000000000000000000000000000d0
:10846c000000000000000000000000000000000000
:10847c0000000000000000000000000000000000f0
:10848c000000000000000000000000000098000048
:10849c0000000000000000000000000000000000d0
:1084ac0000000000000000000000000000000000c0
:1084bc0000010000000000000000000000000000af
:1084cc0000000000000000000000000000000000a0
:1084dc000000000000000000000000000000000090
:1084ec000000000000000000000000000000000080
:1084fc000000000000000000000000000000000070
:10850c00000000000000000000000000000000005f
:10851c00000000000000000000000000000000004f
:10852c00000000000000000000000000000000003f
:10853c00000000000000000000000000000000002f
:10854c00000000000000000000000000000000001f
:10855c00000000000000000000000000000000000f
:10856c0000000000000000001000000000000000ef
:10857c0000000000000000000000000000000000ef
:10858c0000000000000000000000000001000000de
:10859c0000000000000000000000000000000000cf
:1085ac0000000000000000000000000000000000bf
:1085bc0000000000000000000000000000000000af
:1085cc00000000000000000000000000000000009f
:1085dc00000000000000000000000000000000008f
:1085ec00000000000000000000000000000000007f
:1085fc00000000000000000000000000000000006f
:10860c00000000000000000000000000000000005e
:10861c00000000000000000000000000000000004e
:10862c00000000000000000000000000000000003e
:10863c00000000000000000000000000000000002e
:10864c00000000000000000000000000000000001e
:10865c00000000000000000000000000000000000e
:10866c0000000000000000000000000000000000fe
:10867c0000000000000000000000000000000000ee
:10868c0000000000000000000000000000000000de
:10869c0000000000000000000000000000000000ce
:1086ac0000000000000000000000000000000000be
:1086bc0000000000000000000000000000000000ae
:1086cc00000000001000000000000000000000008e
:1086dc00000000000000000000000000000000008e
:1086ec00000000000000000000000000000000007e
:1086fc00000000000000000000000000000000006e
:10870c00000000000000000000000000000000005d
:10871c00000000000000000000000000000000004d
:10872c00000000000000000000000000000000003d
:10873c00000000000000000000000000000000002d
:10874c00000000000000000000000000000000001d
:10875c00000000000000000000000000000000000d
:10876c0000000000000000000000000000000000fd
:10877c0000000000000000000000000000000000ed
:10878c0000000000000000000000000000000000dd
:10879c0000000000000000000000000000000000cd
:1087ac0000000000000000000000000000000000bd
:1087bc0000000000000000000000000000000000ad
:1087cc00000000000000000000000000000000009d
:1087dc00000000000000000000000000000000008d
:1087ec00000000000000000000000000000000007d
:1087fc00000000000000000000000000000000006d
:10880c00000000000000000000000000000000005c
:10881c00000000000000000000000000000000004c
:10882c00000000000020000000000000000000001c
:10883c00000000000000000000000000000000002c
:10884c00000000000000000000000000000000001c
:10885c0000000000000000000000000010000000fc
:10886c0000000000000000000000000000000000fc
:10887c0000000000000000000000000000000000ec
:10888c00000000006002000000000000000000007a
:10889c0000000000000000000000000000000000cc
:1088ac0000000000000000000000000000000000bc
:1088bc0000000000000000000000000000000000ac
:1088cc00000000000000000000000000000000009c
:1088dc00000000000000000000000000000000008c
:1088ec00000000000000000000000000000000007c
:1088fc00000000000000000000000000000000006c
:10890c00100000000000000000000000000000004b
:10891c00000000000000000000000000000000004b
:10892c00000000000000000000000000000000003b
:10893c000000000000080000000000000000000023
:10894c00000000000000000000000000000000001b
:10895c00000000000000000000000000000000000b
:10896c0001c000000000000000000000000000003a
:10897c0000000000000000000000000000000000eb
:10898c0000000000000000000000000000000000db
:10899c0000000000000000000000000000000000cb
:1089ac0000000000000000000000000000000000bb
:1089bc0000000000000000000000000000000000ab
:1089cc00000000000000000000000000000000009b
:1089dc00000000000000000000000000000000008b
:1089ec00000000000000000000000000000000007b
:1089fc00000000000000000000000000000000006b
:108a0c00000000000000000000000000000000005a
:108a1c00000000000000000000000000000000004a
:108a2c00000000000000000000000000000000003a
:108a3c000000000000000000400000000380000067
:108a4c00000000000000000000000000000000001a
:108a5c00000000000000000000000000000000000a
:108a6c0000000000000000000000000000000000fa
:108a7c0000000000000000000000000000000000ea
:108a8c0000000000000000000000000000000000da
:108a9c0000000000000000000000000000000000ca
:108aac0000000000000000000000000000000000ba
:108abc0000000000000000000000000000000000aa
:108acc00000000000000000000000000000000009a
:108adc00000000000000000000000000000000008a
:108aec00000000000000000000000000000000007a
:108afc00000000000000000000000000000000006a
:108b0c000000000000000000000000000000000059
:108b1c0000c0000000000000000000000000000089
:108b2c000000000000000000000000000000000039
:108b3c000000000000000000000000000000000029
:108b4c000000000000000000000000000000000019
:108b5c000000000000000000000000000000000009
:108b6c0000000000000000000000000000000000f9
:108b7c0000000000000000000000000000000000e9
:108b8c0000000000000000000000000000000000d9
:108b9c0000000000000000000000000000000000c9
:108bac0000000000000000000000000000000000b9
:108bbc0000000000000000000000000000000000a9
:108bcc000000000000000000000000000000000099
:108bdc000000000000000000000000000000000089
:108bec000000000000000000000000000000000079
:108bfc00000100008f0600000010000000000000c3
:108c0c000000000000000000000000000000000058
:108c1c000000000000000000000000000000000048
:108c2c000000000000000000000000000000000038
:108c3c000000000000000000000000000000000028
:108c4c000000000000000000000000000000000018
:108c5c000000000000000000000000000000000008
:108c6c0000000000000000000000000000000000f8
:108c7c0000000000000000000000000000000000e8
:108c8c0000000000000000000000000000000000d8
:108c9c0000000000000000000000000000000000c8
:108cac0000000000000000000000000000000000b8
:108cbc0000000000000000000000000000000000a8
:108ccc00000000000000000000000000000f000089
:108cdc000000000000000000000000000000000088
:108cec000000000000000000000000000000000078
:108cfc000000000000000000000000000000000068
:108d0c000000000000000000000000000000000057
:10915c0000400000000000000000000000000000c3
:10916c0000000000000000000000000000000000f3
:10917c0000000000000000000000000000000000e3
:10918c0000000000000000000000000000000000d3
:10919c0000000000000000000000000000000000c3
:1091ac0000000000000000000000000000000000b3
:1091bc0000000000000000000000000000000000a3
:1091cc000000000000000000000000000000000093
:1091dc000000000000000000000000000000000083
:1091ec000001000000000000000000000000000072
:1091fc000000000000000000000000000000000063
:10920c000000000000000000000000000000000052
:10921c000000000000000000000000000000000042
:10922c000000000000000000000000000000000032
:10923c000000000000000000000000000000000022
:10924c000000000000000000000000000000000012
:10925c000001000000000000000000000000000001
:10926c0000000000000000000000000000000000f2
:10927c0000000000000000000000000000000000e2
:10928c0000000000000000000000000000000000d2
:10929c0000000000000000000000000000000000c2
:1092ac0000000000000000000000000000000000b2
:1092bc0001000000000000000000000000000000a1
:1092cc000000000000000000000000000000000092
:1092dc000000000000000000000000000000000082
:1092ec000000000000000000000000000000000072
:1092fc000000000000000000000000000000000062
:10930c000000000000000000000000000000000051
:10931c000000000000000000000000000000000041
:10932c000000000000000000000000000100000030
:10933c000000000000000000000000000000000021
:10934c000000000000000000000000000000000011
:10935c000000000000000000000000000000000001
:10936c0000000000000000000000000000000000f1
:10937c0000000000000000000000000000000000e1
:10938c0000000000000000000002000000000000cf
:10939c0000000000000000000000000000000000c1
:1093ac0000000000000000000000000000000000b1
:1093bc0000000000000000000000000000000000a1
:1093cc000000000000000000000000000000000091
:1093dc000000000000000000000000000000000081
:1093ec0000d00000017a00009580000000400000d1
:1093fc000000000000000000000000000000000061
:10940c000000000000000000000000000000000050
:10941c000000000000000000000000000000000040
:10942c000000000000000000000000000000000030
:10943c000000000000000000000000000000000020
:10944c000000000000000000000000000000000010
:10945c000000000000000000000000000ef0000002
:10946c006000000000000000000000000000000090
:10947c0000000000000000000000000000180000c8
:10948c0000000000000000000000000000000000d0
:10949c0000000000000000000000000000000000c0
:1094ac0000000000000000000000000000000000b0
:1094bc000000000000000000000000001801000087
:1094cc00417c0000000000000000000000000000d3
:1094dc000000000000000000000000000000000080
:1094ec000000000000000000000000000000000070
:1094fc000000000000000000000000000000000060
:10950c00000000000000000000000000000000004f
:10951c00000000000000000000000000000000003f
:10952c00000000000000000000000000000000002f
:10953c000000000000100000f0000000000000001f
:10954c00000000000000000000000000000000000f
:10955c0000000000000000000000000000000000ff
:10956c0000000000000000000000000000000000ef
:10957c0000000000000000000000000000000000df
:10958c0000000000000a00000000000000000000c5
:10959c0000180000000000000000000000000000a7
:1095ac0000000000000000000000000000000000af
:1095bc00000000000000000000000000000000009f
:1095cc00000000000000000000000000000000008f
:1095dc00000000000000000000000000000000007f
:1095ec00000000000000000000000000000000006f
:1095fc00000000000000000000000000000000005f
:10960c000000000000000000060000000000000048
:10961c001ef00000600000000000000000000000d0
:10962c00000000000000000000000000000000002e
:10963c00000000000000000000000000000000001e
:10964c00000000000000000000000000000000000e
:10965c0000000000000000000000000000000000fe
:10966c0000000000000000000000000000000000ee
:10967c00700000000000000000000000000000006e
:10968c0000000000000000000009000000000000c5
:10969c0000000000000000000000000000000000be
:1096ac00038000000000000000000000000000002b
:1096bc00000000000000000000000000000000009e
:1096cc00000000000000000000000000000000008e
:1096dc00000000000000000000000000000000007e
:1096ec00000000000000000000100000f00000006e
:1096fc00000000000000000000000000000000005e
:10970c00000000000000000000000000000000004d
:10971c00000000000000000000000000000000003d
:10972c00000000000000000000000000000000002d
:10973c00000000000000000000000000000000001d
:10974c00000000000000000000000000000000000d
:10975c0000000000000000000000000000000000fd
:10976c0000000000000000000000000000000000ed
:10977c0000000000000000000000000000000000dd
:10978c0000000000000000000000000000000000cd
:10979c0000000000000000000000000000000000bd
:1097ac0000000000000000000000000000000000ad
:1097bc000000000000000000000000000c00000091
:1097cc00000000000000000000000000000000008d
:1097dc00000000000000000000000000000000007d
:1097ec00000000000000000000000000000000006d
:1097fc00000000000000000000000000000000005d
:10980c00000000000000000000000000000000004c
:10981c00000000000000000000000000000000003c
:10982c00000000000000000000000000000000002c
:10983c00000000000000000000000000000000001c
:10984c00000000000000000000000000000000000c
:10985c0000000000000000000000000000000000fc
:10986c0000000000000000000000000000000000ec
:10987c0000000000000000000000000000000000dc
:10988c0000000000000000000000000000000000cc
:10989c0000000000000400000000000000000000b8
:1098ac0000000000000000000000000000000000ac
:1098bc00000000000000000000000000000000009c
:1098cc00000000000000000000000000000000008c
:1098dc00000000000000000000000000000000007c
:1098ec00000000000000000000000000000000006c
:1098fc00000000000000000000000000000000005c
:10990c00000000000000000000000000000000004b
:10991c000000000000000000000000001ba9000077
:10992c0040000000014000000000000000000000aa
:10993c00000000000000000000000000000000001b
:10994c00000000000000000000000000000000000b
:10995c0000000000000000000000000000000000fb
:10996c0000000000000000000000000000000000eb
:10997c0000000000000000000000000000000000db
:10998c0000000000000000000000000000000000cb
:10999c0000000000000000000000000000000000bb
:1099ac0000000000000000000000000000000000ab
:1099bc00000000000000000000000000000000009b
:1099cc00000000000000000000000000000000008b
:1099dc00000000000000000000000000000000007b
:1099ec00000000000000000000000000000000006b
:1099fc000000000000740000154000001000000082
:109a0c0080000000000000000000000000000000ca
:109a1c00000000000000000000000000000000003a
:109a2c00000000000000000000000000000000002a
:109a3c00000000000000000000000000000000001a
:109a4c00000000000000000000000000000000000a
:109a5c0000000000000000000000000000000000fa
:109a6c0000000000000000000000000000000000ea
:109a7c0000000000000000000000000000000000da
:109a8c0000000000000000000000000000000000ca
:109a9c0000000000000000000000000000000000ba
:109aac0000000000000000000000000000000000aa
:109abc004000000000000000000000000100000059
:109acc00000000000000000000000000000000008a
:109adc00000000000000000000000000000000007a
:109aec00000000000000000000000000000000006a
:109afc00000000000000000000000000004000001a
:109b0c000000000000000000000000000000000049
:109b1c000000000000000000040000000000000035
:109b2c000000000000100000000400000000000015
:109b3c0000000000400000000000000000000000d9
:109b4c000a000000000000000000000000000000ff
:109b5c0000000000000000000000000000000000f9
:109b6c0000000000000000000000000000000000e9
:109b7c0000000000000000000000000000000000d9
:109b8c0000000000000000000000000000000000c9
:109b9c0000000000000000000000000000000000b9
:109bac0000000000000000000000000000000000a9
:109bbc000000000000000000000000000000000099
:109bcc000000000000000000000000000000000089
:109bdc000000000000000000000000000000000079
:109bec000000000000000000000000000000000069
:109bfc000000000000000000000000000000000059
:109c0c0000000000380000000000000000400000d0
:109c1c000000000000000000000b0000000000002d
:109c2c000000000000000000000000000000000028
:109c3c000000000000000000000000000000000018
:109c4c000000000000000000000000000000000008
:109c5c0000000000000000000000000000000000f8
:109c6c0000000000000000000000000000000000e8
:109c7c0000000000000000000000000000000000d8
:109c8c0000000000000000000000000000000000c8
:109c9c0000000000000000001000000000000000a8
:109cac000000000020000000000000000000000088
:109cbc000000000000000000000000000000000098
:109ccc000000000000000000000000000220000066
:109cdc000000000000000000000000000000000078
:109cec000000000000000000380000000000000030
:109cfc000000000000000000000000000000000058
:109d0c000000000000000000000000000000000047
:109d1c000000000000000000000000000000000037
:109d2c000000000000000000000000000000000027
:109d3c000000000000000000000000000000000017
:109d4c000000000000000000000000000000000007
:109d5c0000000000000000000000000000000000f7
:109d6c0000000000000000000000000000000000e7
:109d7c0000200000000000000000000000000000b7
:109d8c0000000000000000000000000000000000c7
:109d9c0000000000000000000000000000000000b7
:109dac000000000000000000100000000000000097
:109dbc000000000000000000000000000000000097
:109dcc000000000000000000000000000000000087
:109ddc000000000000000000000000000000000077
:109dec000000000000000000000000000000000067
:109dfc000000000000000000000000000000000057
:109e0c000000000000000000000000000000000046
:109e1c000000000000000000000000000000000036
:109e2c000000000000000000000000000000000026
:109e3c0000000000080e0000000000000000000000
:109e4c000000000000000000000000000000000006
:109e5c0000000000000000000000000000000000f6
:109e6c0000000000000000000000000000000000e6
:109e7c0000000000000000000000000000000000d6
:109e8c0004000000000000000000000000100000b2
:109e9c000004000000000000000000004000000072
:109eac0000000000000000000000000000000000a6
:109ebc000000000000000000000000000000000096
:109ecc000000000000000000000000000000000086
:109edc000000000000000000000000000000000076
:109eec000000000000000000000000000000000066
:109efc000040000000000000000000000001000015
:109f0c00000000000000000000000000040b000036
:109f1c000000000000000000001000000000000025
:109f2c000000000004000000000000000000000021
:109f3c000010000000000000000000000000000005
:109f4c0040000000000000000000000001000000c4
:109f5c0000000000000000000004000000000000f1
:109f6c000000000000000000100000003c00000099
:109f7c000000000000400000000000000000000095
:109f8c0000010000000000000000000000000000c4
:109f9c0000000000000000000000000000000000b5
:109fac0000000000000000000000000000000000a5
:109fbc000000000000000000000000000000000095
:109fcc000000000000000000001000000000000075
:109fdc001000000000000000000000000000000065
:109fec000000000000000000000000000000000065
:109ffc000001000000000000000000000000000054
:10a00c000000000000000000000000000000000044
:10a01c000000000000000000000000000000000034
:10a02c00000000000000000008000000000000001c
:10a03c000000000000000000000000000000000014
:10a04c0000000000002000000000000000000000e4
:10a05c0000000000000000000000000000c0000034
:10a06c0000000000000000000000000000000000e4
:10a07c0000000000000000000000000000000000d4
:10a08c0000000000000000000000000000000000c4
:10a09c0000000000000000000000000000000000b4
:10a0ac00000000001000000000d0000000000000c4
:10a0bc000001000000000000000000000000000093
:10a0cc00040000000000000000000000010000007f
:10a0dc000000000000000000040000000000000070
:10a0ec000000000000100000000000000000000054
:10a0fc000000000040000000000000000000000014
:10a10c000010000000000000000000000000000033
:10a11c000000000000000000000000001000000023
:10a12c0040000000000000000000000000000000e3
:10a13c000000000000000000000000000000000013
:10a14c000000000000000000000000000000000003
:10a15c0000000000000000000000000000000000f3
:10a16c0000000000000000000000000000000000e3
:10a17c0000000000000000000000000000000000d3
:10a18c000080000001f60000d580000000000000f7
:10a19c00665700008f54000000000000000e000005
:10a1ac00723d0000500000000000000000000000a4
:10a1bc00000000000000000073bd00005000000013
:10a1cc000000000003780000f550000000020000c1
:10a1dc000000000000000000000000000002000071
:10a1ec0041af00000600000000000000000000006d
:10a1fc000000000000000000000000000000000053
:10a20c00000000000080000003e0000001000000de
:10a21c000009000060140000000800000018000095
:10a22c000000000000000000000000000000000022
:10a23c000000000000000000000000000000000012
:10a24c000000000000000000000000000000000002
:10a25c0000000000000000000000000010010000e1
:10a26c00ad48000000000000000200001e0a0000c3
:10a27c000000000000000000105400001402000058
:10a28c0000000000000000000000000000000000c2
:10a29c0000740000140000004000000034020000b4
:10a2ac004050000000000000000000000000000012
:10a2bc00000000000000000003c100000f000000bf
:10a2cc00040000000000000000000000000000007e
:10a2dc000000000000000000000000000000000072
:10a2ec0010010000c03c0000400000000003000012
:10a2fc00c000000000200000000000000000000072
:10a30c000000000000000000000000000000000041
:10a31c000000000000000000000000000000000031
:10a32c0000000000000a0000000000000000000017
:10a33c000018000000000000a32a0000a800000084
:10a34c0060020000c0140000ca040000018000007c
:10a35c0000000000000000000000000000000000f1
:10a36c000000000001800000000000000029000037
:10a37c0050060000001c000004000000000000005b
:10a38c000028000000000000000000000060000039
:10a39c0000000000008f0000050000000005000018
:10a3ac00800000000000000006000000000000001b
:10a3bc00000000000018000000000000893b0000b5
:10a3cc00c100000000080000000e000000080000a2
:10a3dc000000000000000000000000000000000071
:10a3ec000000000000000000000000000000000061
:10a3fc000000000000000000000000000000000051
:10a40c000000000000000000000000000000000040
:10a41c00010f0000828000000000000000400000de
:10a42c000c0f000050000000005000000000000065
:10a43c000000000000000000000000000000000010
:10a44c0000000000007000001682000000000000f8
:10a45c0002380000000000000000000000f00000c6
:10a46c00000000000000000000020000400100009d
:10a47c000f000000100000000000000000000000b1
:10a48c0000000000000000000000000000000000c0
:10a49c0000000000000b000002a8000001000000fa
