:020000040000fa
:080000000002040000000000f2
:020000040000fa
:04000800580c000090
:020000040000fa
:04000c00580c00008c
:020000040000fa
:04001000580c000088
:020000040000fa
:04001400580c000084
:020000040000fa
:04001800580c000080
:020000040000fa
:04001c00580c00007c
:020000040000fa
:04002000580c000078
:020000040000fa
:04002400580c000074
:020000040000fa
:04002800580c000070
:020000040000fa
:04002c00580c00006c
:020000040000fa
:04003000580c000068
:020000040000fa
:04003400580c000064
:020000040000fa
:04003800580c000060
:020000040000fa
:04003c00580c00005c
:020000040000fa
:04004000580c000058
:020000040000fa
:04004400580c000054
:020000040000fa
:04004800580c000050
:020000040000fa
:04004c00580c00004c
:020000040000fa
:04005000580c000048
:020000040000fa
:04005400580c000044
:020000040000fa
:04005800580c000040
:020000040000fa
:04005c00580c00003c
:020000040000fa
:04006000580c000038
:020000040000fa
:04006400580c000034
:020000040000fa
:04006800580c000030
:020000040000fa
:04006c00580c00002c
:020000040000fa
:04007000580c000028
:020000040000fa
:04007400580c000024
:020000040000fa
:04007800fa02000088
:020000040000fa
:04007c00580c00001c
:020000040000fa
:04008000580c000018
:020000040000fa
:04008400580c000014
:020000040000fa
:04008800580c000010
:020000040000fa
:04008c00580c00000c
:020000040000fa
:04009000580c000008
:020000040000fa
:04009400580c000004
:020000040000fa
:04009800580c000000
:020000040000fa
:04009c00580c0000fc
:020000040000fa
:0400a000580c0000f8
:020000040000fa
:0400a400580c0000f4
:020000040000fa
:0400a800580c0000f0
:020000040000fa
:0400ac00580c0000ec
:020000040000fa
:0400b000580c0000e8
:020000040000fa
:0400b400580c0000e4
:020000040000fa
:0400b800580c0000e0
:020000040000fa
:0400bc00580c0000dc
:020000040000fa
:0400c000580c0000d8
:020000040000fa
:0400c400580c0000d4
:020000040000fa
:0400c800580c0000d0
:020000040000fa
:0400cc00580c0000cc
:020000040000fa
:0400d000580c0000c8
:020000040000fa
:0400d400580c0000c4
:020000040000fa
:0400d800580c0000c0
:020000040000fa
:0400dc00580c0000bc
:020000040000fa
:0400e000580c0000b8
:020000040000fa
:0400e400580c0000b4
:020000040000fa
:0400e800580c0000b0
:020000040000fa
:0400ec00580c0000ac
:020000040000fa
:0400f000580c0000a8
:020000040000fa
:0400f400580c0000a4
:020000040000fa
:0400f800580c0000a0
:020000040000fa
:0400fc00580c00009c
:020000040000fa
:04010000580c000097
:020000040000fa
:04010400580c000093
:020000040000fa
:04010800580c00008f
:020000040000fa
:04010c00580c00008b
:020000040000fa
:04011000580c000087
:020000040000fa
:04011400580c000083
:020000040000fa
:04011800580c00007f
:020000040000fa
:04011c00580c00007b
:020000040000fa
:04012000580c000077
:020000040000fa
:04012400580c000073
:020000040000fa
:04012800580c00006f
:020000040000fa
:04012c00580c00006b
:020000040000fa
:04013000580c000067
:020000040000fa
:04013400580c000063
:020000040000fa
:04013800580c00005f
:020000040000fa
:04013c00580c00005b
:020000040000fa
:04014000580c000057
:020000040000fa
:04014400580c000053
:020000040000fa
:04014800580c00004f
:020000040000fa
:04014c00580c00004b
:020000040000fa
:04015000580c000047
:020000040000fa
:04015400580c000043
:020000040000fa
:04015800580c00003f
:020000040000fa
:04015c00580c00003b
:020000040000fa
:04016000580c000037
:020000040000fa
:04016400580c000033
:020000040000fa
:04016800580c00002f
:020000040000fa
:04016c00580c00002b
:020000040000fa
:04017000580c000027
:020000040000fa
:04017400580c000023
:020000040000fa
:04017800580c00001f
:020000040000fa
:04017c00580c00001b
:020000040000fa
:04018000580c000017
:020000040000fa
:04018400580c000013
:020000040000fa
:04018800580c00000f
:020000040000fa
:04018c00580c00000b
:020000040000fa
:04019000580c000007
:020000040000fa
:04019400580c000003
:020000040000fa
:04019800580c0000ff
:020000040000fa
:04019c00580c0000fb
:020000040000fa
:0401a000580c0000f7
:020000040000fa
:0401a400580c0000f3
:020000040000fa
:0401a800580c0000ef
:020000040000fa
:0401ac00580c0000eb
:020000040000fa
:0401b000580c0000e7
:020000040000fa
:0401b400580c0000e3
:020000040000fa
:0401b800580c0000df
:020000040000fa
:0401bc00580c0000db
:020000040000fa
:0401c000580c0000d7
:020000040000fa
:0401c400580c0000d3
:020000040000fa
:0401c800580c0000cf
:020000040000fa
:0401cc00580c0000cb
:020000040000fa
:0401d000580c0000c7
:020000040000fa
:0401d400580c0000c3
:020000040000fa
:0401d800580c0000bf
:020000040000fa
:0401dc00580c0000bb
:020000040000fa
:0401e000580c0000b7
:020000040000fa
:0401e400580c0000b3
:020000040000fa
:0401e800580c0000af
:020000040000fa
:0401ec00580c0000ab
:020000040000fa
:0401f000580c0000a7
:020000040000fa
:0401f400580c0000a3
:020000040000fa
:0401f800580c00009f
:020000040000fa
:0401fc00580c00009b
:020000040000fa
:04020000580c000096
:020000040000fa
:04020400580c000092
:020000040000fa
:04020800580c00008e
:020000040000fa
:04020c00580c00008a
:020000040000fa
:04021000580c000086
:020000040000fa
:04021400580c000082
:020000040000fa
:04021800580c00007e
:020000040000fa
:04021c00580c00007a
:020000040000fa
:04022000580c000076
:020000040000fa
:04022400580c000072
:020000040000fa
:04022800580c00006e
:020000040000fa
:04022c00580c00006a
:020000040000fa
:04023000580c000066
:020000040000fa
:04023400580c000062
:020000040000fa
:04023800580c00005e
:020000040000fa
:04023c00580c00005a
:020000040000fa
:04024000580c000056
:020000040000fa
:04024400580c000052
:020000040000fa
:04024800580c00004e
:020000040000fa
:04024c00580c00004a
:020000040000fa
:04025000580c000046
:020000040000fa
:04025400580c000042
:020000040000fa
:04025800580c00003e
:020000040000fa
:04025c00580c00003a
:020000040000fa
:04026000580c000036
:020000040000fa
:04026400580c000032
:020000040000fa
:04026800580c00002e
:020000040000fa
:04026c00580c00002a
:020000040000fa
:04027000580c000026
:020000040000fa
:04027400580c000022
:020000040000fa
:04027800580c00001e
:020000040000fa
:04027c00580c00001a
:020000040000fa
:04028000580c000016
:020000040000fa
:100400006f9326000eff27000e01880000000000f9
:10041000000020000000e000020032000001200087
:100420002002880014000700230507000000e000f8
:1004300003003a0080002300210020000200370062
:100440000000200001002000810f70000100320038
:100450000f000700000020000000e0000200320052
:1004600000000200000000005a2802000200000004
:100470000040da000000fe00600120000000e00003
:1004800002003200002020009001880000000600d9
:10049000a1028800800478000000eb001f003700f4
:1004a000e284440054a0b4009905ba00e2844400f8
:1004b00054a0b4009906ba00e284440054a0b400e9
:1004c0000006eb00476fde00fd07b200ae018800ba
:1004d000636ce10003003a000ad801000000eb0061
:1004e0000e003700606ce10008003a00004deb00a0
:1004f0000a05e800020039003420ec000af0a000f0
:100500008b05e900f9ff3e00040037006168e10057
:10051000010032000086eb000b00070019c7ba008b
:100520000e04e0001905ba0003003a000a00e000da
:10053000dbff3a0000000600fe07b200ae028800b2
:100540008a047800f5ff37000cd0a300e20f4d00bd
:100550001c00390089027800354dba000a05e80010
:10056000020039003420ec000af0a0008b05e900fd
:100570000f003200254dba000a05e80002003900dc
:100580003420ec000af0a0008b05e90008003200de
:100590000c00e0000600320015cdba000a05e800a4
:1005a000020039003420ec000af0a0008b05e900bd
:1005b0008984e80054a0b4000b00e000e2ff3a0098
:1005c000000006009902ba00055d78008b05e9007d
:1005d000f7ff3200c82ade00055d78008b05e900d0
:1005e000f3ff32000c00e000f1ff320019ddba0029
:1005f000eeff37003600f800809fbe00829fbe00ed
:10060000849fbe00869fbe001200fa000288a900e7
:1006100000002400902b0200020000001007980048
:10062000210798001e019000ae019000f07f20008d
:1006300001002000020278000301780080017800a8
:100640000100780003026200000061008000eb00fe
:10065000c000dd00000020000001be006120b800e5
:1006600000017100818171003207980043079800f2
:100670001e019000ae01900000002000110020003b
:100680000202780003017800800178000100780000
:1006900003026200000061008000eb00c000dd008a
:1006a000000020000001be006120b80000017100c0
:1006b00081817100e00f5100e08f5900710232001a
:1006c00010002400902b0200020000005007980048
:1006d000610798000000eb00000f78003e019000d9
:1006e000ce01900000f020000100200002027800fe
:1006f00003017800800178000100780003026200a5
:10070000000061006101b800c011dd00020020009e
:100710000200be006121b8000200700083807000fa
:100720000220200003002000820f5000838f580019
:10073000da0132000220200003002000820f500066
:10074000838f580009003e00e00f5000e08f5800f2
:10075000110032000210200003002000820f500020
:10076000838f5800f40032003e0237000260200000
:1007700003002000820f5000838f5800cf01320009
:100780000270200003002000820f5000838f580069
:10079000e8013200330237003e019000ce019000a4
:1007a000000f200001002000020278000301780001
:1007b00080017800010078000302620000006100ff
:1007c0006101b800c011dd00020020000200be007f
:1007d0006121b800020070008380700002032000d5
:1007e00003002000820f5000838f58006000320009
:1007f0000203200003002000820f5000838f580066
:1008000009003e00e00f5000e08f58000c0032005d
:100810000202200003002000820f5000838f580046
:10082000340032000f0237000204200003002000d1
:10083000820f5000838f5800950032000902370064
:100840003e019000ce019000f00020000100200049
:10085000020278000301780080017800010078002e
:1008600003026200000061008000eb00c000dd00b8
:10087000000020000001be006120b80000017100ee
:10088000818171001000200001002000800f5100c4
:10089000818f590006003200200020000100200056
:1008a000800f5100818f590009003200100037007d
:1008b0005e019000ee019000010021001000200078
:1008c000882c020002000000000f780008003700aa
:1008d0005e019000ee019000010021002000200048
:1008e000882c020002000000000f780000000000c9
:1008f000900037003e019000ce019000f0002000f3
:1009000001002000020278000301780080017800d5
:100910000100780003026200000061008000eb002b
:10092000c000dd00000020000001be006120b80012
:100930000001710081817100e00f5100e08f5900ca
:1009400001003200090037005e009000ee009000c8
:100950000000780061006000004078000004e000c2
:10096000010032000000fe000000000071003700ae
:100970003e019000ce019000f00020000100200018
:1009800002027800030178008001780001007800fd
:1009900003026200000061008000eb00c000dd0087
:1009a000000020000001be006120b80000017100bd
:1009b000818171002000200001002000800f510083
:1009c000818f590006003200300020000100200015
:1009d000800f5100818f5900060032002b00370034
:1009e0005e009000ee00900010808800218088005a
:1009f00026003700662c020002000000000f78007d
:100a000012808000238080000080eb008080eb005b
:100a1000800f5100818f59000a003a008001eb00dd
:100a20000001eb000080eb008080eb00121e020052
:100a3000020000002e240200020000000000fe0060
:100a40000f0037006a01470010808000218080007d
:100a50008100d1000080d300820178004200200094
:100a60003c1d0200020000001080800021808000f8
:100a700064004000e08048001080880021808800e9
:100a80007a2c02000200000000000000290037005c
:100a90003e019000ce019000f000200001002000f7
:100aa00002027800030178008001780001007800dc
:100ab00003026200000061008000eb00c000dd0066
:100ac000000020000001be006120b800000171009c
:100ad00081817100e00f5100e08f59000100320068
:100ae000130037005e019000ee01900060002000ce
:100af00001002000800f5100818f590003003a004f
:100b00001000200000808800090037005e0190007e
:100b1000ee019000800d200001002000800f5100a8
:100b2000818f590002003a002000200000808800d8
:100b3000000000004b0137003e019000ce01900004
:100b4000f00f20000100200002027800030178006d
:100b5000800178000100780003026200000061005b
:100b60006101b800c011dd00020020000200be00db
:100b70006121b80002007000838070000203200031
:100b800003002000820f5000838f58008200320043
:100b90000203200003002000820f5000838f5800c2
:100ba00023003e004201200003002000820f50007d
:100bb000838f5800580032004201200003002000bb
:100bc000820f5000838f580009003e00e00f500054
:100bd000e08f580040003200020120000300200096
:100be000820f5000838f5800430032001d013700f0
:100bf000c201200003002000820f5000838f5800a4
:100c0000550032000202200003002000820f500035
:100c1000838f58005800320082012000030020001a
:100c2000820f5000838f5800430032000d013700bf
:100c3000c208200003002000820f5000838f58005c
:100c400075003200c208200003002000820f50000f
:100c5000838f580010003e0042082000030020004f
:100c6000820f5000838f58005b0032008208200002
:100c700003002000820f5000838f58005e00320076
:100c80000208200003002000820f5000838f5800cc
:100c900049003200f3003700420c2000030020001e
:100ca000820f5000838f58006b003200020e20002c
:100cb00003002000820f5000838f58006e00320026
:100cc000020c200003002000820f5000838f580088
:100cd00059003200e30037005e019000ee01900001
:100ce0003e00900001002100882c0200020000005c
:100cf000000f7800680037005e019000ee01900060
:100d00003e00900001002100882c0200020000003b
:100d1000000f7800600037005e019000ee01900047
:100d20003e00900001002100882c0200020000001b
:100d3000000f7800580037005e019000ee0190002f
:100d40003e00900001002100882c020002000000fb
:100d5000000f7800500037005e019000ee01900017
:100d60003e00900001002100882c020002000000db
:100d7000000f7800480037005e019000ee019000ff
:100d80003e00900001002100882c020002000000bb
:100d9000000f7800400037005e019000ee019000e7
:100da0003e00900001002100882c0200020000009b
:100db000000f7800380037005e019000ee019000cf
:100dc0003e00900001002100882c0200020000007b
:100dd000000f7800300037005e019000ee019000b7
:100de0003e00900001002100882c0200020000005b
:100df000000f7800280037005e019000ee0190009f
:100e00003e00900001002100882c0200020000003a
:100e1000000f7800200037005e019000ee01900086
:100e20003e00900001002100882c0200020000001a
:100e3000000f7800180037005e019000ee0190006e
:100e40003e00900001002100882c020002000000fa
:100e5000000f7800100037005e019000ee01900056
:100e60003e00900001002100882c020002000000da
:100e7000000f7800080037005e019000ee0190003e
:100e80003e00900001002100882c020002000000ba
:100e9000000f780000000000720037005e00900034
:100ea000ee0090003e0290000001be0004007800b9
:100eb000042c0200020000006a0037003e0190008e
:100ec000ce019000f00f2000010020000202780007
:100ed00003017800800178000100780003026200bd
:100ee000000061008000eb00c000dd000000200079
:100ef0000001be006120b800000171008181710015
:100f0000f003200001002000800f5100818f590064
:100f100053003e005e019000ee0190003e00900004
:100f200001002100882c020002000000000f780060
:100f30004c0037003e019000ce019000f00f2000e1
:100f4000010020000202780003017800800178008f
:100f50000100780003026200000061006101b80036
:100f6000c011dd00020020000200be006121b800b7
:100f70000200700083807000020320000300200044
:100f8000820f5000838f58001400320002032000ab
:100f900003002000820f5000838f580006003e009f
:100fa0000202200003002000820f5000838f5800af
:100fb0000a003200210037000001be000204b10027
:100fc0000380b1001000200001002000800f5100bc
:100fd000818f590019003e00080037005e01900023
:100fe000ee0190003e00900001002100882c0200dc
:100ff00002000000000f7800180037005e0190002a
:10100000ee0190003e00900001002100882c0200bb
:1010100002000000000f78003e0090002631020020
:10102000020000003e0290000001be0004007800b3
:10103000042c020002000000080037005e0090004f
:10104000ee0090003e0290000001be000400780017
:10105000042c0200020000000200370001003700eb
:10106000000000001e0078000000e00009023a00c5
:101070006011b80010002400042c020002000000df
:10108000040237006000b80070079800010f980054
:101090003e019000ce01900000f0200001002000f1
:1010a00002027800030178008001780001007800d6
:1010b00003026200000061006101b800c011dd00a0
:1010c000020020000200be006121b8000200700092
:1010d000838070000220200003002000820f500057
:1010e000838f58009401320002202000030020006a
:1010f000820f5000838f580009003e00e00f50001f
:10110000e08f58001600320002102000030020007b
:10111000820f5000838f5800ca003200d701370079
:101120000260200003002000820f5000838f5800cf
:101130008d0132000270200003002000820f500059
:10114000838f5800a40132000240200003002000d9
:10115000820f5000838f58007d013200c701370095
:101160003e019000ce019000000f20000100200001
:101170000202780003017800800178000100780005
:1011800003026200000061008000eb00c000dd008f
:10119000000020000001be006120b80000017100c5
:1011a00081817100e00f5100e08f5900060032008c
:1011b0000003200001002000800f5100818f5900a2
:1011c0004c003200ad0137003e019000ce0190008e
:1011d000f0002000010020000202780003017800e6
:1011e00080017800010078000302620000006100c5
:1011f0006101b800c011dd00020020000200be0045
:101200006121b8000200700083807000220020007d
:1012100003002000820f5000838f5800240032000a
:101220002200200003002000820f5000838f58000e
:1012300009003e00e00f5000e08f5800110032001e
:101240001200200003002000820f5000838f5800fe
:101250001100320026003700420020000300200069
:10126000820f5000838f5800170032008200200048
:1012700003002000820f5000838f580017003200b7
:101280001b003700e00120000100200070079800db
:10129000010f9800160037001000200026310200d0
:1012a0000200000070079800010f9800100037003e
:1012b0002000200026310200020000007007980084
:1012c000010f98000a003700900020000100200064
:1012d00070079800010f98000500370010002000eb
:1012e0000100200070079800010f98000000000026
:1012f000530037003e019000ce019000f000200026
:1013000001002000020278000301780080017800cb
:101310000100780003026200000061006101b80072
:10132000c011dd00020020000200be006121b800f3
:101330000200700083807000220020000300200063
:10134000820f5000838f58002700320032002000a7
:1013500003002000820f5000838f580027003200c6
:101360001200200003002000820f5000838f5800dd
:101370000100320031003700201020006101b80068
:10138000f00f200001002000020278000301780025
:101390008001780001007800030262000000610013
:1013a0008000eb00c000dd00000020000001be0056
:1013b0006120b8000001710081817100c011dd0061
:1013c0000200200000002a008000eb000200400024
:1013d000838048000000400081804800700798002a
:1013e000010f9800150037001080800021808000d8
:1013f00070079800010f9800100037006e01470039
:1014000010808000218080008100d1000080d30006
:1014100082017800220020008e1c020002000000e1
:10142000108080002180800064004000e08048003f
:10143000108088002180880000000000000000006b
:101440000e0137003e019000ce019000f00f200009
:10145000010020000202780003017800800178007a
:101460000100780003026200000061006101b80021
:10147000c011dd00020020000200be006121b800a2
:10148000020070008380700002032000030020002f
:10149000820f5000838f5800760032000203200034
:1014a00003002000820f5000838f580023003e006d
:1014b0004201200003002000820f5000838f58005b
:1014c000540032004201200003002000820f50002f
:1014d000838f580009003e00e00f5000e08f580055
:1014e000400032000201200003002000820f500063
:1014f000838f580041003200e0003700c201200015
:1015000003002000820f5000838f58004d003200ee
:101510000202200003002000820f5000838f580039
:101520004e0032008201200003002000820f500094
:10153000838f58003d003200d0003700c2082000e1
:1015400003002000820f5000838f5800610032009a
:10155000c208200003002000820f5000838f580033
:1015600010003e004208200003002000820f5000bf
:10157000838f58004b0032008208200003002000b7
:10158000820f5000838f58004c0032000208200068
:1015900003002000820f5000838f58003b00320070
:1015a000b6003700420c200003002000820f5000dc
:1015b000838f580053003200020e200003002000e9
:1015c000820f5000838f580054003200020c20001c
:1015d00003002000820f5000838f58004300320028
:1015e000a60037003e0090002631020002000000f5
:1015f00070079800010f98004e0037003e009000e1
:10160000263102000200000070079800010f9800c8
:10161000480037003e009000263102000200000022
:1016200070079800010f9800420037003e009000bc
:10163000263102000200000070079800010f980098
:101640003c0037003e0090002631020002000000fe
:1016500070079800010f9800360037003e00900098
:10166000263102000200000070079800010f980068
:10167000300037003e0090002631020002000000da
:1016800070079800010f98002a0037003e00900074
:10169000263102000200000070079800010f980038
:1016a000240037003e0090002631020002000000b6
:1016b00070079800010f98001e0037003e00900050
:1016c000263102000200000070079800010f980008
:1016d000180037003e009000263102000200000092
:1016e00070079800010f9800120037003e0090002c
:1016f000263102000200000070079800010f9800d8
:101700000c0037003e00900026310200020000006d
:1017100070079800010f9800060037003e00900007
:10172000263102000200000070079800010f9800a7
:1017300000000000510037003e009000902b020096
:101740000200000070079800010f98004b0037005e
:101750003e009000902b02000200000070079800ed
:10176000010f9800450037003e019000ce01900027
:10177000f00f200001002000020278000301780031
:10178000800178000100780003026200000061001f
:101790008000eb00c000dd00000020000001be0062
:1017a0006120b8000001710081817100f003200008
:1017b00001002000800f5100818f59002e003e0053
:1017c0003e009000263102000200000070079800e1
:1017d000010f9800290037003e019000ce019000d3
:1017e000f00f2000010020000202780003017800c1
:1017f00080017800010078000302620000006100af
:101800008000eb00c000dd00000020000001be00f1
:101810006120b80000017100818171000002200088
:1018200001002000800f5100818f59000500320017
:101830000003200001002000800f5100818f59001b
:1018400007003a003e00900026310200020000002e
:1018500070079800010f9800000000000700370093
:101860003e009000902b02000200000070079800dc
:10187000010f980001003700000000007e0090007a
:101880008e0890000001be0010002400042c02000d
:10189000020000000080fa004f03be004f02be00ad
:1018a0004f01be004f00be003600f90000400600a8
:0c18b0000040da000000fe00000005000f
:020000040000fa
:1018bc0005000000ff7f0000ff7f0000ff7f00009d
:1018cc00ff7f00001910000000000000ffff000067
:0c18dc00ffff0000ffff0000ffff000006
:020000040000fa
:1018e800ff0000004c610000747400006963000090
:1018f8006500000069430000456300007562000050
:10190800653200002032000030310000372e000020
:10191800303800002e320000373900003430000023
:101928000050000061720000743a00002069000055
:1019380043450000343000004c500000344b000098
:101948002d4300004d3800003100000044610000c4
:10195800746500003a20000046650000622000001f
:101968003138000020320000303200003120000001
:10197800313400003a310000353a000000ff000021
:1019880032310000007e0000aa9900007e5100005c
:101998000001000005920000002000006203000022
:1019a80067720000011000008200000000110000b2
:1019b800000100000100000000000000000000001d
:1019c800000000000000000000000000000000000f
:1019d80000000000002000000000000000000000df
:1019e80000000000800700008000000000000000e8
:1019f80000000000000000000000000000000000df
:101a080000000000000000000000000000000000ce
:101a180000000000000000000000000000000000be
:101a280000000000000000000000000000000000ae
:101a3800000000000000000000000000000000009e
:101a4800000000000000000000000000000000008e
:101a5800000000000000000000000000000000007e
:101a6800000000000000000000000000000000006e
:101a7800000000000000000000000000000000005e
:101a8800000000000000000000000000000000004e
:101a9800000000000000000000000000000000003e
:101aa800000000000000000000000000000000002e
:101ab800000000000000000000000000000000001e
:101ac800008000000000000000000000000000008e
:101ad80000000000000000000000000000000000fe
:101ae80000000000000000000000000000000000ee
:101af80000000000000000000000000000000000de
:101b080000000000000000000000000000000000cd
:101b180000000000000000000000000000000000bd
:101b280000000000000000000000000000000000ad
:101b3800000000000000000000000000000000009d
:101b4800000000000000000000000000000000008d
:101b5800000000000000000000000000000000007d
:101b6800000000000000000000000000000000006d
:101b7800000000000000000000000000000000005d
:101b880000000000000000000010000000c000007d
:101b980000000000000000004005000000000000f8
:101ba800000000000000000000000000000000002d
:101bb800000000000000000000000000000000001d
:101bc800000000000000000000000000000000000d
:101bd80000000000000000000000000000000000fd
:101be80000000000000000000000000000000000ed
:101bf80000000000000000000000000000000000dd
:101c080000000000000000000000000000000000cc
:101c180000000000000000000000000000000000bc
:101c280000000000000000000000000000000000ac
:101c3800000000000000000000000000000000009c
:101c4800000000000000000000000000000000008c
:101c5800000000000000000000000000000000007c
:101c6800000000000000000000000000000000006c
:101c78000000000008000000000000000000000054
:101c8800000000000000000000000000000000004c
:101c9800000000000000000000000000000000003c
:101ca800000000000000000000000000000000002c
:101cb800000000000000000000000000000000001c
:101cc800000000000000000000000000000000000c
:101cd80000000000000000000000000000000000fc
:101ce80000000000000000000000000000000000ec
:101cf80000000000000000000000000000000000dc
:101d080000000000000000000000000000000000cb
:101d180000000000000000000000000000000000bb
:101d280000000000000000000000000000000000ab
:101d3800000000000000000000000000002000007b
:101d48000000000000c0000000000000800000004b
:101d58000003000000000000000000000000000078
:101d6800000000000000000000000000000000006b
:101d7800000000000000000000000000000000005b
:101d8800000000000000000000000000000000004b
:101d9800000000000000000000000000000000003b
:101da800000000000000000000000000000000002b
:101db800000000000000000000000000000000001b
:101dc800000000000000000000000000000000000b
:101dd80000000000000000000000000000000000fb
:101de80000000000000000000000000000000000eb
:101df80000000000000000000000000000000000db
:101e080000000000000000000000000000000000ca
:101e180000000000000000000000000000000000ba
:101e28004000000000000000000000000100000069
:101e3800000000000000000000000000000000009a
:101e4800000000000000000000000000000000008a
:101e5800000000000000000000000000000000007a
:101e6800000000000000000000000000000000006a
:101e7800000000000000000000000000000000005a
:101e8800000000000000000000000000000000004a
:101e9800000000000000000000000000000000003a
:101ea800000000000000000000000000000000002a
:101eb800000000000000000000000000000000001a
:101ec8000000000000000000f0000000000000001a
:101ed80000000000000000000000000000000000fa
:101ee80000000000000000000000000000000000ea
:101ef80000000000000000000000000000000000da
:101f080000000000000000000000000000000000c9
:101f180000000000000000000000000000000000b9
:101f280000000000000000000000000000000000a9
:101f38000000000000000000000000000000000099
:101f48000000000000000000000000000000000089
:101f58000000000000000000000000000000000079
:101f68000000000000000000000000000000000069
:101f78000000000000000000000000000000000059
:101f88000000000000000000000000000000000049
:101f98000000000000000000000000000000000039
:101fa8000000000000000000000000000000000029
:101fb8000000000000000000000000000000000019
:101fc8000000000000000000000000000000000009
:101fd80000000000000000000000000000000000f9
:101fe80000000000000000000000000000000000e9
:101ff80000000000000000000000000000000000d9
:1020080000000000000000000000000000000000c8
:1020180000000000000000000000000000000000b8
:1020280000000000000000000000000000000000a8
:102038000000000000000000000000000000000098
:102048000000000000000000000000000000000088
:102058000000000000000000000000000000000078
:102068000000000000000000000000000000000068
:102078000000000000000000000000000000000058
:102088000000000000000000000000000000000048
:102098000000000000000000000000000000000038
:1020a80000000000000000000000000080000000a8
:1020b8000000000000000000020000000000000016
:1020c8000000000000000000000000000000000008
:1020d80000000000000000000000000000000000f8
:1020e80000000000000000000000000000000000e8
:1020f80000000000000000000000000000000000d8
:1021080000000000000000000000000000000000c7
:1021180000000000000000000000000000000000b7
:1021280000000000000000000000000000000000a7
:102138000000000000000000000000000000000097
:102148000000000000000000000000000000000087
:102158000000000000000000000000000000000077
:102168000000000000000000000000000000000067
:102178000000000000000000000000000000000057
:102188000000000000000000000000000000000047
:102198000000000000000000000000000000000037
:1021a8000000000000000000000000000000000027
:1021b8000000000000000000000000000000000017
:1021c8000000000000000000000000000000000007
:1021d80000000000000000000000000000000000f7
:1021e80000000000000000000000000000000000e7
:1021f80000000000000000000000000000000000d7
:1022080000000000000000000000000000000000c6
:1022180000000000000000000000000000000000b6
:1022280000000000000000000000000000000000a6
:102238000000000000000000000000000000000096
:102248000000000000000000000000000000000086
:1022580000000000000000000000000003c00000b3
:102268000040000000000000000000000003000023
:102278000000000000000000000000000000000056
:102288000000000000000000000000000000000046
:102298000000000000000000000000000000000036
:1022a8000000000000000000000000000000000026
:1022b8000000000000000000000000000000000016
:1022c8000000000000000000000000000000000006
:1022d80000000000000000000000000000000000f6
:1022e80000000000000000000000000000000000e6
:1022f80000000000000000000000000000000000d6
:1023080000000000000000000000000000080000bd
:1023180000000000000000000000000000000000b5
:1023280000000000000000000000000000000000a5
:102338000000000020020000000000004000000033
:102348000080000000000000030000000000000002
:102358000000000000000000000000000000000075
:102368000000000000000000000000000000000065
:102378000000000000000000000000000000000055
:102388000000000000000000000000000000000045
:102398000000000000000000000000000000000035
:1023a8000000000000000000000000000000000025
:1023b8000000000000000000000000000000000015
:1023c8000000000000000000000000000000000005
:1023d80000000000000000000000000000000000f5
:1023e80000000000000000000c00000000000000d9
:1023f80000000000000000000000000000000000d5
:1024080000000000000000000000000000000000c4
:1024180000000000000000000000000000000000b4
:1024280000000000000000000000000000000000a4
:102438000000000000000000000000000000000094
:102448000000000000000000000000000000000084
:102458000000000000000000000000000000000074
:102468000000000000000000000000000000000064
:102478000000000000000000000000000000000054
:102488000000000000000000000000000000000044
:102498000000000000000000000000000000000034
:1024a8000000000000000000000000000000000024
:1024b8000000000000000000000000000000000014
:1024c8000000000000000000000000000000000004
:1024d80000000000000000000000000000000000f4
:1024e80000000000000000001000000000000000d4
:1024f8000000000000400000000000000000000094
:1025080000000000000000000000000000000000c3
:1025180000000000000000000000000000000000b3
:1025280000000000000000000000000000000000a3
:102538000000000000000000000000000000000093
:102548000000000000000000000000000000000083
:102558000000000000000000000000000000000073
:102568000000000000000000000000000000000063
:102578000000000000000000000000000000000053
:102588000000000000000000000000000000000043
:102598000000000000000000000000000000000033
:1025a8000000000000000000000000000000000023
:1025b8000000000000000000000000000000000013
:1025c80000000000000000004000000000000000c3
:1025d80000000000010000000000000000000000f2
:1025e80000000000000000000000000000000000e3
:1025f80000000000000000000000000000000000d3
:1026080000000000000000000000000000000000c2
:1026180000000000000000000000000000000000b2
:1026280000000000000000000000000000000000a2
:102638000000000000000000000000000000000092
:102648000000000000000000000000000000000082
:102658000000000000000000000000000000000072
:102668000000000000000000000000000000000062
:102678000000000000000000000000000000000052
:102688000000000000000000000000000000000042
:102698000000000000000000000000002000000012
:1026a80000000000000000000080000000000000a2
:1026b8000000000000000000000000000010000002
:1026c8000000000000000000000000000000000002
:1026d80000000000000000000000000000000000f2
:1026e80000000000000000000000000000000000e2
:1026f8000080000000000000000000000000000052
:1027080000000000000000000000000000000000c1
:1027180000000000000000000000000000000000b1
:1027280000000000000000000000000000000000a1
:102738000000000000000000000000000000000091
:1043d80000000000000000000000000000020000d3
:1043e8008000000000000000000000000000000045
:1043f80000000000000000000000000000000000b5
:1044080000000000000000000000000000000000a4
:104418000000000000000000000000000000000094
:104428000000000000000000000000000000000084
:10443800000000000000000000000000000800006c
:104448000000000000000000000000000000000064
:104458000000000000000000000000000000000054
:104468000000000000000000000000000000000044
:104478000000000000000000000000000000000034
:105078000800000000000000000000000000000020
:105088000000000000000000000000000000000018
:105098000000000000000000000000000000000008
:1050a80000000000000000000000000000000000f8
:1050b80000000000000000000000000000000000e8
:1050c80000000000000000000000000000000000d8
:1050d80000000000000000000000000000000000c8
:1050e80000000000000000000000000000000000b8
:1050f80000000000000000000000000000000000a8
:105108000000000000000000000000000000000097
:105118000000000000000000000000000000000087
:105128000000000000000000000000000000000077
:105138000000000000000000000000000000000067
:105148000000000000000000000000000000000057
:105158000000000000000000000000000000000047
:105168000000000000000000000000000000000037
:105178000000000000000000000000000000000027
:105188000000000000000000000000000000000017
:105198000000000000000000000000000000000007
:1051a80000000000000000000000000000000000f7
:1051b80000000000000000000000000000000000e7
:1051c80000000000000000000000000000000000d7
:1051d80000000000000000000000000000000000c7
:1051e80000000000000000000000000000000000b7
:1051f80000000000000000000000000000000000a7
:105208000000000000000000000000000000000096
:105218000000000000000000000000000000000086
:105228000000000000000000000000000000000076
:105238000000000000000000000000000000000066
:105248000000000000000000000000000000000056
:105258000000000000000000000000000000000046
:105268000000000000000000000000000000000036
:105278000000000000000000000000000000000026
:1052880000000000000000000000000000400000d6
:105298000000000000000000000000000000000006
:1052a80000000000000000000000000000000000f6
:1052b80000000000000000000000000000000000e6
:1052c80000000000000000000000000000000000d6
:1055a8000000000000000000038000000000000070
:1055b80000000000000000000000000000000000e3
:1055c80000000000000000000000000000000000d3
:1055d80000000000000000000000000000000000c3
:1055e80000000000000000000000000000000000b3
:105a88000000000000000000000000000008000006
:105a980000000000000000000000000000000000fe
:105aa80000000000000000000000000000000000ee
:105ab80000000000000000000000000000000000de
:105ac80000000000000000000000000000000000ce
:105ad80000000000000000000000000000000000be
:105ae80000000000000000000000000000000000ae
:105af800000000000000000000000000000000009e
:105b0800000000000000000000000000000000008d
:105b1800000000000000000000000000000000007d
:105b2800000000000000000000000000000000006d
:105b3800000000000000000000000000000000005d
:105b4800000000000000000000000000000000004d
:105b5800000000000000000000000000000000003d
:105b6800000000000000000000000000000000002d
:105b7800000000000002000000000000000000001b
:105b8800000000000000000000000000000000000d
:105b980000000000000000000000000000000000fd
:105ba80000000000000000000000000000000000ed
:105bb80000000000000000000000000000000000dd
:1074680000000000000000000000000040000000d4
:107478000000000000000000000000000000000004
:1074880000000000000000000000000000000000f4
:1074980000000000000000000000000000000000e4
:1074a80000000000000000000000000000000000d4
:1079380000000000004000000000000000000000ff
:10794800000000000000000000000000000000002f
:10795800000000000000000000000000000000001f
:10796800000000000000000000000000000000000f
:1079780000000000000000000000000000000000ff
:1079880000000000000000000000000000000000ef
:1079980000000000000000000000000000000000df
:1079a80000000000050000000200000000000000c8
:1079b800000f0000efa80000001000000000000009
:1079c800367900004000000000000000016000005f
:1079d800008000000002000078070000056a00002f
:1079e8000000000001e0000076cb00004500000028
:1079f800000000000000000000000000000000007f
:107a0800000000000000000000000000000000006e
:107a1800400000000000000000000000000000001e
:107a2800000000000000000000000000000000004e
:107a3800000000000000000000000000000000003e
:107a4800000000000000000000000000000000002e
:107a5800000000000000000000000000000000001e
:107a6800000000000000000000000000000000000e
:107a780000000000000000000000000000000000fe
:107a8800000000000800000000000000030f0000d4
:107a9800a220000000070000005300007a800000c8
:107aa80000000000000000000b00000000000000c3
:107ab800010000000b2200009400000000000000fc
:107ac80023ac0000aa5000000000000000000000e5
:107ad800000000000000000000000000000000009e
:107ae800000000000000000000000000000000008e
:107af800000000000000000000000000000000007e
:107b0800000000000000000000000000000000006d
:107b1800000000000000000000000000000000005d
:107b2800000000000000000000000000000000004d
:107b3800000000000000000000000000000000003d
:107b4800000000000000000000000000000000002d
:107b58000000000001800000018000000200000019
:107b680000080000000e00008f0a000001800000dd
:107b78001380000097300000508000008020000033
:107b88002c610000008000000482000000970000c3
:107b9800056a000000600000e000000001ce00005f
:107ba80014100000000000000000000000000000a9
:107bb80000000000000000000000000000000000bd
:107bc80000000000000000000000000000000000ad
:107bd800000000000000000000000000000000009d
:107be800000000000000000000000000000000008d
:107bf800000000000000000000000000000000007d
:107c0800000000000000000000000000000000006c
:107c1800000000000000000000000000000000005c
:107c2800000000000000000000000000000200004a
:107c3800f00000003c00000000000000c40000004c
:107c480000000000f000000000200000803000006c
:107c580032cc0000004c0000347c000029000000f9
:107c68000000000001910000e536000094000000cb
:107c780000000000000d00008d2000001000000032
:107c880000000000000000000000000000000000ec
:107c980000000000000000000000000000000000dc
:107ca80000000000000000000000000000000000cc
:107cb80000000000000000000000000000000000bc
:107cc80000000000000000000000000000000000ac
:107cd800000000000000000000000000000000009c
:107ce800000000000000000000000000000000008c
:107cf800000000000000000000000000000000007c
:107d080000000000000000000078000007000000ec
:107d18000200000000090000c01600009968000079
:107d280003100000079e0000000000000000000093
:107d38000000000069c10000008000000000000091
:107d4800719d0000016a000000c0000003e000000f
:107d580036cb0000460000000000000000000000d4
:107d6800000000000000000000000000000000000b
:107d780000000000000000000000000000000000fb
:107d880000000000000000000000000000000000eb
:107d980000000000000000000000000000000000db
:107da80000000000000000000000000000000000cb
:107db80000000000000000000000000000000000bb
:107dc80000000000000000000000000000000000ab
:107dd800000000000000000000000000000000009b
:107de80000000000f8000000a800000000000000eb
:107df8000020000002f900006007000000000000f9
:107e0800000000000000000000a0000000000000ca
:107e18000f000000000000000030000089aa0000e8
:107e280094000000c0010000e02e0000aa500000ed
:107e3800100000000000000000000000000000002a
:107e4800000000000000000000000000000000002a
:107e5800000000000000000000000000000000001a
:107e6800000000000000000000000000000000000a
:107e780000000000000000000000000000000000fa
:107e880000000000000000000000000000000000ea
:107e980000000000000000000000000000000000da
:107ea80000000000000000000000000000000000ca
:107eb80000000000000000000004000000000000b6
:107ec800078000000200000010000000038c000082
:107ed800996800000000000050010000539600005f
:107ee800c00000000c3e000001c10000008000003e
:107ef80000000000199d0000056a00000004000051
:107f080001c000000faf00000600000000000000e4
:107f18000000000000000000000000000000000059
:107f28000000000000000000000000000000000049
:107f38000000000000000000000000000000000039
:107f48000000000000000000000000000000000029
:107f58000000000000000000000000000000000019
:107f68000000000000000000000000000000000009
:107f780000000000000000000000000000000000f9
:107f880000000000000000000000000000000000e9
:107f9800000000000400000000000000bc00000019
:107fa800001000000007000082b900006000000017
:107fb8000020000008330000a9c0000000000000f5
:107fc8003c3800000b00000000000000000000002a
:107fd8008fb20000940000000a030000c3ce000026
:107fe80087800000840000000000000000000000fe
:107ff8000000000000000000000000000000000079
:108008000000000000000000000000000000000068
:108018000000000000000000000000000000000058
:108028000000000000000000000000000000000048
:108038000000000000000000000000000000000038
:108048000000000000000000000000000000000028
:108058000000000000000000000000000000000018
:108068000000000000000000000000000000000008
:1080780000000000070400000200000000000000eb
:108088000016000099680000000000000180000050
:108098005b1d0000c80000000000000039c100009e
:1080a800008000000000000080e70000e43e0000bf
:1080b8000000000001e000003ccb0000460000008a
:1080c80000000000000000000000000000000000a8
:1080d8000000000000000000000000000000000098
:1080e8000000000000000000000000000000000088
:1080f8000000000000000000000000000000000078
:108108000000000000000000000000000000000067
:108118000000000000000000000000000000000057
:108128000000000000000000000000000000000047
:108138000000000000000000000000000000000037
:1081480000000000000000000000000000a0000087
:10815800b4000000000000000002000042b9000066
:1081680062000000200d0000005a0000fb800000a3
:1081780000000000004000002a000000000000008d
:1081880000510000f07400003c00000000000000f6
:10819800002e0000aa50000010000000000000009f
:1081a80000000000000000000000000000000000c7
:1081b80000000000000000000000000000000000b7
:1081c80000000000000000000000000000000000a7
:1081d8000000000000000000000000000000000097
:1081e8000000000000000000000000000000000087
:1081f8000000000040000000000000000000000037
:108208000000000000000000000000000000000066
:108218000000000000000000000000000000000056
:108228000000000000000000130000000200000031
:108238000a00000003940000996800008000000014
:1082480007180000d7790000400000004d7c0000ae
:1082580001c10000008000000000000011a500001e
:10826800f83e000000000000e00000000fef0000f2
:1082780006000000000000000000000000000000f0
:1082880000000000000000000000000000000000e6
:1082980000000000000000000000000000000000d6
:1082a80000000000000000000000000000000000c6
:1082b80000000000000000000000000000000000b6
:1082c80000000000000000000000000000000000a6
:1082d8000000000000000000000000000000000096
:1082e8000000000000000000000000000000000086
:1082f8000000000000000000000000000000000076
:1083080000d00000bc00000000040000c2440000cf
:1083180000b90000600000000305000009de00004d
:108328003980000000200000be0000002f0000007f
:108338000000000000000000f07400003c00000095
:1083480000080000024f00008781000000000000c4
:108358000000000000000000000000000000000015
:108368000000000000000000000000000000000005
:1083780000000000000000000000000000000000f5
:1083880000000000000000000000000000000000e5
:1083980000000000000000000000000000000000d5
:1083a80000000000000000000000000000000000c5
:1083b80000000000000000000000000000000000b5
:1083c80000000000000000000000000000000000a5
:1083d8000000000000000000020000000023000070
:1083e800c002000000010000c716000089680000f4
:1083f80000000000050e00007f34000054a00000bb
:108408000014000028c100000080000000000000e7
:1084180098050000b83e00000000000000030000be
:1084280034cb000044000000000000000000000001
:108438000000000000000000000000000000000034
:108448000000000000000000000000000000000024
:108458000000000000000000000000000000000014
:108468000000000000000000000000000000000004
:1084780000000000000000000000000000000000f4
:1084880000000000000000000000000000000000e4
:1084980000000000000000000000000000000000d4
:1084a80000000000000000000000000000000000c4
:1084b8000000000000d0000003c000000000000021
:1084c8000004000002e9000060000000000d000048
:1084d8008014000030c0000040000000366c00002e
:1084e800280000000000000000100000a0f00000bc
:1084f8003c00000000000000022c0000aa5100000f
:108508001000000000000000000000000000000053
:108518000000000000000000000000000000000053
:108528000000000000000000000000000000000043
:108538000000000000000000000000000000000033
:108548000000000000000000000000000000000023
:108558000000000000000000000000000000000013
:108568000000000000000000000000000000000003
:1085780000000000000000000000000000000000f3
:1085880000000000000000000000000000010000e2
:10859800e00000000000000000000000071c0000d0
:1085a800996800001000000000000000b3a8000057
:1085b800000000004040000030e1000000800000a2
:1085c80002800000d1c50000f83e00000000000055
:1085d800080300008e8f0000040000000000000067
:1085e8000000000000000000000000000000000083
:1085f8000000000000000000000000000000000073
:108608000000000000000000000000000000000062
:108618000000000000000000000000000000000052
:108628000000000000000000000000000000000042
:108638000000000000000000000000000000000032
:108648000000000000000000000000000000000022
:108658000000000000000000000000000000000012
:108668000000000000000000000000000000000002
:108678000000000000030000c2b900006000000014
:108688000005000000d000001680000000a00000d7
:10869800802c00000c00000000050000a010000065
:1086a800e0a000003c00000000100000040f0000e3
:1086b80087830000000000000000000000000000a8
:1086c80000000000000000000000000000000000a2
:1086d8000000000000000000000000000000000092
:1086e8000000000000000000000000000000000082
:1086f8000000000000000000000000000000000072
:108708000000000000000000000000000000000061
:108718000000000000000000000000000000000051
:108728000000000000000000000000000000000041
:108738000000000000000000000000000000000031
:10874800000000000000000000000000000200001f
:10875800c0160000896900000008000009980000a0
:10876800f62d0000100000000000000000c100000d
:10877800008000000000000018e70000203e000014
:10878800000200000000000040000000000000009f
:1087980000000000000000000000000000000000d1
:1087a80000000000000000000000000000000000c1
:1087b80000000000000000000000000000000000b1
:1087c80000000000000000000000000000000000a1
:1087d8000000000000000000000000000000000091
:1087e8000000000000000000000000000000000081
:1087f8000000000000000000000000000000000071
:108808000000000000000000000000000000000060
:1088180000000000000000000000000000900000c0
:1088280000000000000000000060000002f90000e5
:1088380060c400001005000000520000e946000076
:1088480010000000000000002900000004000000e3
:1088580080080000006c00003c10000000010000cf
:1088680042000000000000000000000000000000be
:1088780000000000000000000000000000000000f0
:1088880000000000000000000000000000000000e0
:1088980000000000000000000000000000000000d0
:1088a80000000000000000000000000000000000c0
:1088b80000000000000000000000000000000000b0
:1088c80000000000000000000000000000000000a0
:1088d8000000000000000000000000000000000090
:1088e8000000000000000000000000000000000080
:1088f8000018000000000000000000000000000058
:1089080000000000e01c00008aa2000001800000b6
:1089180005800000dfbc000018000000ac800000eb
:1089280039e10000008000000000000000c70000de
:108938002c3e00000060000000670000e5de00003b
:1089480050000000000000000000000000000000cf
:10895800000000000000000000000000000000000f
:1089680000000000000000000000000000000000ff
:1089780000000000000000000000000000000000ef
:1089880000000000000000000000000000000000df
:1089980000000000000000000000000000000000cf
:1089a80000000000000000000000000000000000bf
:1089b80000000000000000000000000000000000af
:1089c8000000000000000000000000000038000067
:1089d800000000000000000000000000e02200008d
:1089e800800a0000a00400000000000080160000bb
:1089f8009e000000404000004c7400000900000088
:108a08000000000000000000002800003c000000fa
:108a18000a000000069c00009d50000000000000b5
:108a2800000000000000000000000000000000003e
:108a3800000000000000000000000000000000002e
:108a4800000000000000000000000000000000001e
:108a5800000000000000000000000000000000000e
:108a680000000000000000000000000000000000fe
:108a780000000000000000000000000000000000ee
:108a880000000000000000000000000000000000de
:108a980000000000000000000000000000000000ce
:108aa800000000000010000000010000a7aa00005c
:108ab800d10000000000000007c40000e3300000ff
:108ac800030000004d8e0000fe2d00001000000085
:108ad8000020000000e000000080000000280000e6
:108ae80071950000343e000000c000000000000046
:108af80036ec000016200000000000000000000016
:108b0800000000000000000000000000000000005d
:108b1800000000000000000000000000000000004d
:108b2800000000000000000000000000000000003d
:108b3800000000000000000000000000000000002d
:108b4800000000000000000000000000000000001d
:108b5800000000000000000000000000000000000d
:108b680000000000000000000000000000000000fd
:108b780000000000000000000000000000000000ed
:108b880030000000019700006694000021000000fa
:108b980000030000ddff0000f0010000000b0000f2
:108ba800105a0000e94000004000000014000000d6
:108bb8000e00000000020000a001000080e8000094
:108bc8003c00000040020000c29400000cb000000d
:108bd800100000000000000000000000000000007d
:108be800000000000000000000000000000000007d
:108bf800000000000000000000000000000000006d
:108c0800000000000000000000000000000000005c
:108c1800000000000000000000000000000000004c
:108c2800000000000000000000000000000000003c
:108c3800000000000000000000000000000000002c
:108c4800000000000000000000000000000000001c
:108c5800000000000000000000000000000000000c
:108c68000000000000000000000100004285000034
:108c78008d0000000000000007800000df3c0000bd
:108c8800100000004000000001c10000008000004a
:108c98000aa8000098e70000016a000040000000f0
:108ca80003670000c0000000000000000000000092
:108cb80000000000000000000000000000000000ac
:108cc800000000000000000000000000000000009c
:108cd800000000000000000000000000000000008c
:108ce800000000000000000000000000000000007c
:108cf800000000000000000000000000000000006c
:108d0800000000000000000000000000000000005b
:108d1800000000000000000000000000000000004b
:108d2800000000000000000000000000000000003b
:108d380000000000003000000000000000000000fb
:108d48000000000000030000c1bd0000000000009a
:108d580000000000001200009e00000040210000fa
:108d6800400000002d0000000001000000990000f4
:108d780001be0000940000000001000047800000d0
:108d880000000000000000000000000000000000db
:108d980000000000000000000000000000000000cb
:108da80000000000000000000000000000000000bb
:108db80000000000000000000000000000000000ab
:108dc800000000000000000000000000000000009b
:108dd800000000000000000000000000000000008b
:108de800000000000000000000000000000000007b
:108df800000000000000000000000000000000006b
:108e0800000000000000000000000000000000005a
:108e1800000000000000000000000000000000004a
:108e2800003c0000b3d00000100000004199000091
:108e38008029000058000000060000007c0800009f
:108e4800f00100000020000000a0000023c0000086
:108e5800840000008200000075da000010000000a5
:108e680000000000000000000000000000000000fa
:108e780000000000000000000000000000000000ea
:108e880000000000000000000000000000000000da
:108e980000000000000000000000000000000000ca
:108ea80000000000000000000000000000000000ba
:108eb80000000000000000000000000000000000aa
:108ec800000000000000000000000000000000009a
:108ed800000000000000000000000000000000008a
:108ee800000000000000000000000000000000007a
:108ef8000000000000000000000000002da300009a
:108f0800d0000000000000009f5000001680000004
:108f180000000000003c000000f0000030000000ed
:108f28000001000000030000c080000000090000ec
:108f3800c30e0000bf700000000000000000000029
:108f48000000000000000000000000000000000019
:108f58000000000000000000000000000000000009
:108f680000000000000000000000000000000000f9
:108f780000000000000000000000000000000000e9
:108f880000000000000000000000000000000000d9
:108f980000000000000000000000000000000000c9
:108fa80000000000000000000000000000000000b9
:108fb80000000000000000000000000000000000a9
:108fc8000000000000000000000000000000000099
:108fd800000000000055000082f00000802800001a
:108fe8000000000012970000c0000000061c0000ee
:108ff800380000000000000000000000000f000022
:10900800ea80000000040000034000002d8d0000ed
:109018001430000000000000000000000000000004
:109028000000000000000000000000000000000038
:109038000000000000000000000000000000000028
:109048000000000000000000000000000000000018
:109058000000000000000000000000000000000008
:1090680000000000000000000000000000000000f8
:1090780000000000000000000000000000000000e8
:1090880000000000000000000000000000000000d8
:1090980000000000000000000000000000000000c8
:1090a80000000000000000000000000000030000b5
:1090b8001fb10000f000000010090000003200009d
:1090c800294000002000000000000000000000000f
:1090d8000000000020000000094200009400000089
:1090e80012030000e01500000c3000000000000032
:1090f8000000000000000000000000000000000068
:109108000000000000000000000000000000000057
:109118000000000000000000000000000000000047
:109128000000000000000000000000000000000037
:109138000000000000000000000000000000000027
:109148000000000000000000000000000000000017
:109158000000000000000000000000000000000007
:1091680000000000000000000000000000000000f7
:1091780000000000000000000030000000000000b7
:109188000000000000130000c3a60000a5b2000004
:109198000010000008000000130b0000c0000000d1
:1091a800000e00006b4e0000f4000000801200006a
:1091b800998f0000e2940000000000000200000007
:1091c80015b30000d01000000000000000000000ef
:1091d8000000000000000000000000000000000087
:1091e8000000000000000000000000000000000077
:1091f8000000000000000000000000000000000067
:109208000000000000000000000000000000000056
:109218000000000000000000000000000000000046
:109228000000000000000000000000000000000036
:109238000000000000000000000000000000000026
:109248000000000000000000000000000000000016
:1092580000400000000000000000000000000000c6
:1092680000660000758a000070000000040f00000e
:10927800001e000087c00000000000000038000049
:109288005df800000000000000100000bdc00000f4
:109298001400000001010000c0050000e3d0000038
:1092a80000000000000000000000000000000000b6
:1092b80000000000000000000000000000000000a6
:1092c8000000000000000000000000000000000096
:1092d8000000000000000000000000000000000086
:1092e8000000000000000000000000000000000076
:1092f8000000000000000000000000000000000066
:109308000000000000000000000000000000000055
:109318000000000000000000000000000000000045
:1093280000000000000000000000000005800000b0
:109338000000000000000000000000000000000025
:109348000000000000000000001e000012a800003d
:1093580000000000000e0000066d00005f00000025
:1093680000000000100000000000000000000000e5
:1093780009c0000004970000701000000000000001
:1093880000000000000000000000000000000000d5
:1093980000000000000000000000000000000000c5
:1093a80000000000000000000000000000000000b5
:1093b80000000000000000000000000000000000a5
:1093c8000000000000000000000000000000000095
:1093d8000000000000000000000000000000000085
:1093e8000000000000000000000000000000000075
:1093f8000000000000000000000000000000000065
:109408000000000000020000d00000000000000082
:109418000000000000000000000000000000000044
:109428000000000009b000001680000000000000e5
:1094380026270000dea5000000000000000800004c
:10944800d0000000000000000003000040350000cc
:109458008dd00000000000000000000000000000a7
:1094680000000000000000000000000000000000f4
:1094780000000000000000000000000000000000e4
:1094880000000000000000000000000000000000d4
:1094980000000000000000000000000000000000c4
:1094a80000000000000000000000000000000000b4
:1094b80000000000000000000000000000000000a4
:1094c8000000000000000000000000000000000094
:1094d8000000000000000000000000000000000084
:1094e80000010000f7e300008141000000000000d7
:1094f800001c000000080000000000000018000028
:109508005f790000400000000000000001cd00006d
:109518001a00000000000000000300000002000024
:10952800000000000000000000cf00000400000060
:109538000000000000000000000000000000000023
:109548000000000000000000000000000000000013
:109558000000000000000000000000000000000003
:1095680000000000000000000000000000000000f3
:1095780000000000000000000000000000000000e3
:1095880000000000000000000000000000000000d3
:1095980000000000000000000000000000000000c3
:1095a80000000000000000000000000000000000b3
:1095b80000000000000000000000000000bd0000e6
:1095c800fbe0000080040000024200000090000060
:1095d80000000000000000000a970000364000006c
:1095e8000000000000000000db1500000000000083
:1095f80004000000c0000000000800000000000097
:10960800000000000f02000004000000000000003d
:109618000000000000000000000000000000000042
:109628000000000000000000000000000000000032
:109638000000000000000000000000000000000022
:109648000000000000000000000000000000000012
:109658000000000000000000000000000000000002
:1096680000000000000000000000000000000000f2
:1096780000000000000000000000000000000000e2
:1096880000000000000000000000000000000000d2
:109698000018000000000000a0000000000000000a
:1096a80000a0000007cc00001008000001a0000086
:1096b8004b8a000076300000588600000000000049
:1096c80000da00000100000002180000000300009a
:1096d800a65a0000006400000000000001af00006e
:1096e800040000000000000000000000000000006e
:1096f8000000000000000000000000000000000062
:109708000000000000000000000000000000000051
:109718000000000000000000000000000000000041
:109728000000000000000000000000000000000031
:109738000000000000000000000000000000000021
:109748000000000000000000000000000000000011
:109758000000000000000000000000000000000001
:1097680000000000000000000000000000300000c1
:1097780001b000000000000000020000e00300004b
:1097880042a00000000000001009000080980000be
:1097980032c000000000000014020000fca7000016
:1097a800000100000000000000b200005820000086
:1097b80000e00000000000000f02000000000000b0
:1097c8000000000000000000000000000000000091
:1097d8000000000000000000000000000000000081
:1097e8000000000000000000000000000000000071
:1097f8000000000000000000000000000000000061
:109808000000000000000000000000000000000050
:109818000000000000000000000000000000000040
:109828000000000000000000000000000000000030
:109838000000000000000000000000000000000020
:1098480000000000003000000081000085a3000037
:10985800d400000000680000001e0000100800008e
:1098680001000000000e00005f3d00004004000001
:10987800002000003aee0000e7620000000000004f
:109888000017000023c2000000c00000020300000f
:1098980080af00000600000000000000000000008b
:1098a80000000000000000000000000000000000b0
:1098b80000000000000000000000000000000000a0
:1098c8000000000000000000000000000000000090
:1098d8000000000000000000000000000000000080
:1098e8000000000000000000000000000000000070
:1098f8000000000000000000000000000000000060
:10990800000000000000000000000000000000004f
:10991800000000000000000000000000000000003f
:10992800100000001100000043d4000001000000f6
:10993800100000000090000000030000000000007c
:10994800000400003d4000004c000000040100003d
:10995800d0d100000100000038b000009080000065
:109968003c400000c0030000c40000000f000000dd
:1099780000000000000000000000000000000000df
:1099880000000000000000000000000000000000cf
:1099980000000000000000000000000000000000bf
:1099a80000000000000000000000000000000000af
:1099b800000000000000000000000000000000009f
:1099c800000000000000000040000000000000004f
:1099d800000000000000000000000000000000007f
:1099e800000000000000000000000000000000006f
:1099f800000000000000000000000000050000005a
:109a0800000000000000000000040000038e0000b9
:109a1800000800000000000008000000f329000012
:109a2800400000000160000061fc0000b840000038
:109a3800400000001803000023c20000800000005e
:109a480001c00000000a00005404000000000000eb
:109a580000000000000000000000000000000000fe
:109a680000000000000000000000000000000000ee
:109a780000000000000000000000000000000000de
:109a880000000000000000000000000000000000ce
:109a980000000000000000000000000000000000be
:109aa800004000000000000000000000000000006e
:109ab800000000000000000000000000000000009e
:109ac800000000000000000000000000000000008e
:109ad800000000000000000030000000000000004e
:109ae80000000000e844000000f000000000000052
:109af80000070000001000000280000000000000c5
:109b0800a4030000ca1800001100000000080000ab
:109b1800008000003c00000000020000602c0000f3
:109b280005a0000000000000000000000000000088
:109b3800000000000000000000000000000000001d
:109b4800000000000000000000000000000000000d
:109b580000000000000000000000000000000000fd
:109b680000000000000000000000000000000000ed
:109b780000000000000000000000000000000000dd
:109b880000000000000000000000000000000000cd
:109b980000000000000000000000000000000000bd
:109ba80000000000000000000000000000000000ad
:109bb800000000001000000000000000000000008d
:109bc800404c0000100800000000000008000000e1
:109bd800760b0000c0000000003400003c000000cc
:109be80000000000028000005015000023c20000a1
:109bf8008000000001e3000081af000004000000c5
:109c0800000000000000000000000000000000004c
:109c1800000000000000000000000000000000003c
:109c2800000000000000000000000000000000002c
:109c3800000000000000000000000000000000001c
:109c4800000000000000000000000000000000000c
:109c580000000000000000000000000000000000fc
:109c680000000000000000000000000000000000ec
:109c780000000000000000000000000000000000dc
:109c880000000000000000000000000000e00000ec
:109c980000000000000000008023000000b0000069
:109ca8000000000000090000009300008bc00000c5
:109cb800400000002c3800000000000000010000f7
:109cc80008080000e08000003c00000000c0000020
:109cd800240000000f020000000000000000000047
:109ce800000000000000000000000000000000006c
:109cf800000000000000000000000000000000005c
:109d0800000000000000000000000000000000004b
:109d1800000000000000000000000000000000003b
:109d2800000000000000000000000000000000002b
:109d3800000000000000000000000000000000001b
:109d4800000000000000000000000000000000000b
:109d580000000000000000000000000000000000fb
:109d6800000000000038000009bf000005400000a6
:109d78000a00000040040000100800000000000075
:109d8800431a0000f670000058400000001c000054
:109d9800021800000a000000000000005005000042
:109da800a3c20000000000000000000000af000097
:109db800040800000000000000000000000000008f
:109dc800000000000000000000000000000000008b
:109dd800000000000000000000000000000000007b
:109de800000000000000000000000000000000006b
:109df800000000000000000000000000000000005b
:109e0800000000000000000000000000000000004a
:109e1800000000000000000000000000000000003a
:109e2800000000000000000000000000000000002a
:109e3800000000000000000000000000000000001a
:109e4800080f0000b31c000082040000006000003e
:109e5800009000000000000000270000009b0000a8
:109e680032ca0000000000003e010000400500006a
:109e78000000000000080000c00000003c80000056
:109e880000e0000003c100000f0000000000000017
:109e980000000000000000000000000000000000ba
:109ea80000000000000000000000000000000000aa
:109eb800000000000000000000000000000000009a
:109ec800000000000000000000000000000000008a
:109ed800000000000000000000000000000000007a
:109ee800000000000000000000000000000000006a
:109ef800000000000000000000000000000000005a
:109f08000000000000000000000000000000000049
:109f180000000000000000000070000010000000b9
:109f28000000000000000000e00e00001008000023
:109f380000000000098e0000000000000000000082
:109f48000014000000ee00005f00000000000000a8
:109f58000015000023c200002000000000020000dd
:109f6800200a000055040000000000000000000066
:109f780000000000000000000000000000000000d9
:109f880000000000000000000000000000000000c9
:109f980000000000000000000000000000000000b9
:109fa8000000000040000000000000000000000069
:109fb8000100000000000000000000000004000094
:109fc8000000000000000000000000000000000089
:109fd8000000000000040000000000000000000075
:109fe8000000000010000000000000000000000059
:109ff8000040000000c00000000000000001000058
:10a0080001c3000000f00000000000000409000087
:10a018008000000000000000001000001424000070
:10a02800d05f00000800000040000000f0000000c1
:10a038003c20000001000000002c000005a00000ea
:10a048000000000000000000000000000000000008
:10a0580000000000000000000000000000000000f8
:10a0680000000000000000000000000000000000e8
:10a0780000000000000000000000000000000000d8
:10a0880000000000000000000000000000000000c8
:10a0980000000000000000000000000000000000b8
:10a0a80000000000000000000000000000000000a8
:10a0b8002000000000000000000000000100000077
:10a0c800000000000000000000020000807800008e
:10a0d80001790000dc00000008040000075c0000b3
:10a0e80010080000000300008000000000000000cd
:10a0f8000000000000060000000e000050000000f4
:10a10800000000000001000023c200000000000061
:10a1180040000000200a0000540400000000000075
:10a128000000000000000000000000000000000027
:10a138000000000000000000000000000000000017
:10a148000000000000000000000000000000000007
:10a1580000000000000000000000000000000000f7
:10a1680000000000000000000000000000000000e7
:10a1780000000000000000000000000000000000d7
:10a1880000000000000000000010000000000000b7
:10a1980000000000000100001000000000000000a6
:10a1a800000000000140000000ef0000ab74000058
:10a1b8002004000009c3000040f000000000000077
:10a1c800080000000000000000000000001000006f
:10a1d80000010000c0a000001940000000000000bd
:10a1e800008000003c44000009020000401c000000
:10a1f80005a00000000000000000000000000000b2
:10a208000000000000000000000000000000000046
:10a218000000000000000000000000000000000036
:10a228000000000000000000000000000000000026
:10a238000000000000000000000000000000000016
:10a248000000000000000000000000000000000006
:10a2580000000000000000000000000000000000f6
:10a2680000000000000000000000000000000000e6
:10a2780000000000000000000000000000040000d2
:10a2880000700000c0000000000000000000000096
:10a29800e05c00001008000000000000050000005d
:10a2a80096cc0000c0100000008e000006da000006
:10a2b8000a000000000000008003000023c2000024
:10a2c80000000000160600000fe000005400000027
:10a2d8000000000000000000000000000000000076
:10a2e8000000000000000000000000000000000066
:10a2f8000000000000000000000000000000000056
:10a308000000000000000000000000000000000045
:10a318000000000000000000000000000000000035
:10a328000000000000000000000000000000000025
:10a338000000000000000000000000000000000015
:10a348000000000000000000000000000000000005
:10a3580000000000000000000400000009000000e8
:10a3680000000000000000006803000040c000007a
:10a37800004000000080000000160000bfc0000080
:10a38800000000005e3f0000405a0000000000008e
