:020000040000fa
:080000000002040000000000f2
:020000040000fa
:10000800f0020000f0020000f0020000f002000020
:10001800f0020000f0020000f0020000f002000010
:10002800f0020000f0020000f0020000b02700001b
:10003800f0020000f0020000f0020000ee280000cc
:1000480068290000f0020000f00200000e530000d2
:10005800e2530000f0020000f0020000f00200008d
:10006800f0020000f0020000f0020000f0020000c0
:10007800f0020000f0020000f0020000f0020000b0
:10008800f0020000f0020000f0020000ae290000bb
:10009800f0020000f0020000f0020000f002000090
:1000a800f0020000f0020000f0020000f002000080
:1000b800f0020000f0020000f0020000f002000070
:1000c800f0020000f0020000f0020000f002000060
:1000d800f0020000f0020000f0020000f002000050
:1000e800f0020000f0020000f0020000f002000040
:1000f800f0020000f0020000f0020000f002000030
:10010800f0020000f0020000f0020000f00200001f
:10011800f0020000f0020000f0020000f00200000f
:10012800f0020000f6520000f0020000f0020000a9
:10013800f0020000f0020000f0020000f0020000ef
:10014800f0020000f0020000f0020000f0020000df
:10015800f0020000f0020000f0020000f0020000cf
:10016800f0020000f0020000f0020000f0020000bf
:10017800f0020000f002000080350000f0020000ec
:10018800f0020000f0020000f0020000f00200009f
:10019800f0020000f0020000f0020000f00200008f
:1001a800f0020000f0020000f0020000f00200007f
:1001b800f0020000f0020000f0020000f00200006f
:1001c800f0020000f0020000f0020000f00200005f
:1001d800f0020000f0020000f0020000f00200004f
:1001e800f0020000f0020000f0020000f00200003f
:1001f800f0020000f0020000f0020000f00200002f
:10020800f0020000f0020000f0020000f00200001e
:10021800f0020000f0020000f0020000f00200000e
:10022800f0020000f0020000f0020000f0020000fe
:10023800f0020000f0020000f0020000f0020000ee
:10024800f0020000f0020000f0020000f0020000de
:10025800f0020000f0020000f0020000f0020000ce
:020000040000fa
:10040000aff823000eff27000e0188000000000057
:1004100000012000200288000c000700e0432500b6
:10042000010020000f000700000020000000e00095
:100430000200320000000200000000000a15020065
:10044000000000000040da000000fe00801e2000d6
:100450000000e0000200320000202000900188002f
:1004600000000600a1028800800078000000eb0078
:100470001a003700e280400054a0b4009101ba0095
:10048000e280400054a0b4009102ba00e280400033
:1004900054a0b4000002eb00472bde00f507b200c9
:1004a000a6018800602ce10008003a000049eb003a
:1004b0000201e800020039003420ec0002f0a00044
:1004c0008301e900f9ff3e00040037006128e100e4
:1004d000010032000082eb00040007001101ba00a5
:1004e0000200e000e3ff3a000000060004d0a30091
:1004f000e20f49001c003900810278003549ba003a
:100500000201e800020039003420ec0002f0a000f3
:100510008301e9000f0032002549ba000201e8001a
:10052000020039003420ec0002f0a0008301e90051
:10053000080032000400e0000600320015c9ba00cd
:100540000201e800020039003420ec0002f0a000b3
:100550008301e9008180e80054a0b4000300e000ba
:10056000e2ff3a00000006009102ba000559780047
:100570008301e900f7ff3200c82ade000559780040
:100580008301e900f3ff32000400e000f1ff3200d4
:1005900011d9ba00eeff3700d40f040000000000ac
:1005a000f8410400000000002842040000000000a0
:1005b000861904000000000018420400000000003a
:1005c000084204000000000006450400000000008e
:1005d0003e42040000000000a045040000000000ae
:1005e0000040da000000fe0003f0a200889fbe0079
:1005f0008a9fbe008c1f78002a010700310133005a
:100600006450e1004f0032006420e10052003200eb
:1006100003826c0007003b000905d0000306d000f0
:10062000820f54000c065d00020039000200320007
:1006300089017800030678008582550004003d009a
:100640000003fd008103fd008502ea008b85420066
:10065000840f720002003b0060001000e080180070
:100660006011b8000005eb007a28e1000a003900ab
:1006700006007800c75ddd00f707b20087807500cf
:100680002d003700828171000a0178006105600049
:100690008180d1000080d3008502e900f9ff3b0092
:1006a000060440008784480002003b0060041400f8
:1006b000e0841c000988a300070032008a817100d1
:1006c00082817100610164008904d1000884d30033
:1006d0008b05e800170037000978a30013003a00e3
:1006e0000b00e000130034008b05e900080444000f
:1006f00089844c000a4474000978a3000d003a0074
:100700000b00e000070034008b05e90008044400fa
:1007100089844c0001003a000b0020000978a300f6
:10072000f7ff32000001eb00020037008281710008
:100730000a017800a00007000cf0a70001f0a0005b
:10074000e90037006420e10002003a00838f6c006a
:10075000e90033000801be000200be00e2003700dd
:10076000889fbe008a9fbe008c1f7800cd000700c6
:10077000d400330003866c006450e1002e00320088
:100780006420e100330032006150e1002f003200ac
:100790006120e1003100320085855500eb07b00093
:1007a0000900200008042000050037000804440068
:1007b00089844c000a0031000603430087834b0004
:1007c0000001530081815b00f8ff33000203be008b
:1007d0000800a0000804440089844c00f6ff39009a
:1007e000c639dd00830173000100320013002000d0
:1007f0008904d1000884d3000998a30005003200c1
:100800000800a7000300a0008904d1000884d300d9
:100810008b05e8008904d1000884d3000001eb00b7
:100820000281d2006400070001f0a1000cf0a700d3
:1008300001f0a000ac0037006420e100ae003200ff
:100840000801be000200be00f7ff37006120e10092
:10085000a90032006000b800f3ff3700000020005c
:1008600001f82700f0ff3700839f68000100e000d7
:1008700002003d0060001000e08018000300e0006e
:1008800002003d0060011100e0811900d300070063
:100890004f00e00002003b0060001000e080180004
:1008a0000000060014002000dc003700f4ff2f00d9
:1008b000da0037000001be00650007000470a700e1
:1008c00003f0a1006509b100160032000d003500eb
:1008d0006828e10006003500f0ff2f00f1ff270037
:1008e0000300e00013003b000100280000000500a9
:1008f00000004000818048008502e900fcff3a00ca
:1009000008003700f88f420002003c008000eb0036
:10091000000005008100d1000080d3008502e800be
:10092000fcff3a000300e00002003b006000100002
:10093000e0801800000006000001be00440007002f
:100940000470a70003f0a10003f8a30013003a000d
:100950006509b10010003200090035006928e10086
:1009600002003500010028000000050000004000e2
:10097000818048008502e900fcff3a000000060083
:10098000f88f4200050035008100d1000080d300bf
:100990008502e800fcff3a00000006008000eb0042
:1009a000000005004f89de0082017800b6003700a4
:1009b0006011b800c400370081002000618055003c
:1009c0000b003d000b00200061fe2f000100e10044
:1009d0001d00340082817100610164008904d1002e
:1009e0000884d3000000e800faff3a0071002000fc
:1009f0006100640003007000020060000900320022
:100a000061044400e0844c000988a5000500320020
:100a10008b05e8006808e10002003a008904d10073
:100a20000884d300f20f20000258e10005003d00c9
:100a3000c75ddd00f907b200898075000800780005
:100a4000000006000bf827008b007800000005006e
:100a5000c70ade00f107b200f50fb200080032004d
:100a6000e1cf4200020032000170a0002400050026
:100a7000810f7000010032000408050044000500e9
:100a8000810f700002003a00140005008502e900a1
:100a90000000400081c04800fcff3b000170a00046
:100aa000240005000004be00e9ff07000003be00ab
:100ab0000405be000200be00e5ff0700844f75007c
:100ac000000006000200be006450e1000500360090
:100ad0006420e100020036000968a30001003a002a
:100ae0000800be000160a0004f0678004f05be0060
:100af0004f04be0000000600f0ff2f00f1ff2700aa
:100b0000f9ff3700889fbe008a9fbe008c1f7800c7
:100b1000e4ff0700ebff330003866c006450e10044
:100b2000240032006420e100270032006150e1001f
:100b3000220032006120e100210032008b8542005a
:100b4000eb07b1000134b800003ab80008044200d5
:100b500089844a00013ab8000030b800888040001b
:100b600009014a0004003300000040008180480071
:100b7000020149008b05e900c909dd00830170000d
:100b80000100320013002000c814de004814dd000c
:100b90004709de001200b200c808de0008847000b9
:100ba00085ff070001f0a1000cf0a70001f0a000f4
:100bb000cdff37006120e100cfff32000801be0009
:100bc0000200be00f7ff37006150e100fcff3a0071
:100bd000c9ff37000001eb006a0037006022b8004f
:100be000060220000000d0008180d2000482d200e2
:100bf0008582d2000000a0000202520083825a00c7
:100c0000030031000202420083824a000000a1007a
:100c10000603e900f3ff3a0000000600889fbe00cb
:100c20008a9fbe00841f78009eff07004f00780057
:100c300011003300f0ff2f00838f6c0006003b0093
:100c4000040565000a00a7000800370009f0a600a7
:100c50001000200008003700820f5400838f5c00d2
:100c6000030039001000200001003e0000002000b9
:100c700009f0a7000000ea004f05be004f04be00c7
:100c80000000e00000000600881f780003047800e0
:100c90000300e00007003d0060001000e080180045
:100ca00060011900e081190002003b0001f02d00f5
:100cb000030037000400070008f0a70001f0a000bf
:100cc0004f04780000000600889fbe008a9fbe0087
:100cd000008270000402710004827100260032005c
:100ce0000004be000200be006011b8006b092000c5
:100cf000950220000182cf000a0039000541b100b1
:100d00000082cf00070039000541b1000982cf0001
:100d1000040039000541b1000882cf00010039000c
:100d20000541b10005425200120032000a003b00aa
:100d300082817100610164008100d1000080d300d4
:100d40008984d3000884d3008b05e8000442e800be
:100d5000f7ff3a00070037000804440089844c007c
:100d600000004800818048008b05e9000442e9004a
:100d7000f9ff3a0010ff07004f05be004f04be0008
:100d800000000600889fbe008a9fbe008c9fbe00a8
:100d9000820578000004be002dff07000800be0099
:100da0006420e1000700390002003a00f1ff27004b
:100db000f0ff2f000160a0001202200042ff880017
:100dc000550037006120e10003003a000b00a70046
:100dd00001f823005000370001f0a10002002100bb
:100de00093642400affe07000800be000400350035
:100df000b2fd2000930c24004b0007000004be004d
:100e00000005eb000b00a6004f0dde0001f0a10075
:100e10000004be0032982f0023ea230039ff0700a8
:100e20000001eb0003f023000b00a70003f82300f0
:100e3000eefd07009ffe07000000a7000a00a200c9
:100e4000d8fe07000b00e000030032000200200083
:100e500003f02300e4fd070001f0a2000006be003d
:100e6000020020009304240026ff07000801be00b2
:100e7000defd0700809fbe000c00be0022a22a00fb
:100e8000d3a723001fff07004f01be00d7fd0700b7
:100e90000004be0001f0a10002002000039823001e
:100ea00080fe07000800be00190035000001be00ea
:100eb00014ff07000006be00b2c52900e36223004c
:100ec00010ff070022222b00f3942b00c7fd070020
:100ed0000c01be000bff0700e273280083c0230053
:100ee000c2fd07000c01be0006ff070042aa2a004f
:100ef000a3e22b00bdfd07000c01be0001ff0700af
:100f00000801be00fffe07000801be00b7fd070094
:100f10000a00a70001f0a2004f06be004f05be0068
:100f20004f04be000000060004002000000037004f
:100f3000889fbe008a9fbe008c1f78004f26dd0070
:100f4000d8fe0700dffe33006120e10043003200dd
:100f50006250e10041003e003e0039006420e100a3
:100f60003c003200058255000f003b000402e800ff
:100f700038003a00800f5300818f5b003500340049
:100f80000800be0003f0a10001f0a60003f0a000dd
:100f90000cf0a70095fd0700d3fe370006034300c1
:100fa00087834b000c4646000005530081855b009b
:100fb000020033000a03be000c00a0000402e90096
:100fc000f6ff3b00850578000602430087824b0050
:100fd00004003a006000b80009f0a70001f0a0008a
:100fe000c1fe37000002520081825a000704e0006f
:100ff000040033000603430087834b008b05e900a0
:10100000faff3700090578000604be000203be009f
:101010006011b80068fe0700e00f5200e08f5a0030
:101020000700350002003c000c08a3000400320059
:101030000601be0003f0a0000cf0a7006bfd070046
:101040000a85680001f0a1000af0a70001f0a000e5
:10105000a5fe37000800be00a3fe370010022000e6
:0c1060000cf0a60040ff8800a3fe370043
:020000040000fa
:10106c0052650000764100000005000005040000f8
:10107c000405000001040000000100000100000054
:10108c00000100000500000004050000050400003c
:10109c000405000001040000000100000100000034
:1010ac00000100000500000004050000050400001c
:1010bc000401000001000000000100000500000018
:1010cc0004050000050400000405000001040000f4
:1010dc0000010000010000000001000005000000fc
:1010ec0004050000050400000405000001040000d4
:1010fc0000010000010000000005000005040000d4
:10110c0004050000010400000001000001000000c3
:10111c0000010000050000000405000005040000ab
:10112c0004050000010400000001000001000000a3
:10113c00000100000500000004050000050400008b
:10114c000401000001000000000100000500000087
:10115c000405000005040000040500000104000063
:10116c00000100000100000000010000050000006b
:10117c000405000005040000040500000104000043
:10118c000001000001000000000200000502000048
:10119c00050100000501000005010000060100002a
:1011ac00060200000802000008040000070400000a
:1011bc0007030000070300000703000008030000fa
:1011cc00080400000a0400000a06000009060000da
:1011dc00090900000e0900000e0a0000100a0000a8
:1011ec00100c00000f0c00000f0b00000f0b000088
:1011fc000f0b0000100b0000100c0000120c000074
:10120c00120e0000110e0000110d0000110d000057
:10121c00110d0000120d0000121400001714000034
:10122c001713000017130000171300001813000009
:10123c00181400001a1400001a16000019160000e9
:10124c001915000019150000191500001a150000d9
:10125c001a1600001c1600001c1800001b180000b9
:10126c001b1b0000201b0000201c0000221c000087
:10127c00221e0000211e0000211d0000211d000067
:10128c00211d0000221d0000221e0000241e000053
:10129c002420000023200000231f0000231f000037
:1012ac00231f0000241f000024000000f31d000079
:1012bc00831f000004010000000000000401000076
:1012cc0012010000100100000000000000400000ae
:1012dc00261e000012c400000000000001020000e5
:1012ec0003010000090200001200000001010000cf
:1012fc0000c00000320900000400000000000000e3
:10130c0000000000000000000403000009040000bd
:10131c003e0300004d000000750000006c00000052
:10132c007400000069000000200000004300000071
:10133c0068000000610000006e0000006e000000fc
:10134c00650000006c00000020000000530000004d
:10135c0079000000730000007400000065000000bc
:10136c006d00000073000000200000004d00000024
:10137c004300000053000000200000004700000064
:10138c006d00000062000000480000001c0300001b
:10139c004d000000750000006c000000740000009f
:1013ac006900000077000000650000006c00000080
:1013bc006c0000002d0000004900000043000000fc
:1013cc0043000000788900008a8900008e890000a3
:1013dc00cc890000f41d00005049000043000000bf
:1013ec004d63000073420000757300003100000073
:1013fc004d63000073420000757300003200000062
:10140c004d63000073420000757300003300000050
:10141c00404200000f00000060ae00000a00000017
:10142c00a086000001000000e05e0000f8ff000054
:020000040000fa
:10143c000000fa0000fe2f004427b600a403200091
:10144c00343a8800f0f32f004427b600a509200099
:10145c00360020008407200037742000844b78006d
:10146c00854b7800864b780075052000160020000f
:10147c006404200027742000844b7800854b78008e
:10148c00864b78000600270005002300103a8000e8
:10149c0000026300850f5200fcff3a0042a7ab002c
:1014ac00feff3200700020005a27b700c43a8000bb
:1014bc000400a0000410a1000420a100c43a88007c
:1014cc00c43a80000450a100040cb300c43a880054
:1014dc005927a9005947a80059a7a80059e7a800ff
:1014ec0005002400c63a800006826200e00f52001c
:1014fc00fcff320004fc2f006734800007026200fe
:10150c000440a00064348800f00120000229b700d8
:10151c0000c021000029b700044880000400a1008d
:10152c006400b3000448880001a9a900440120000c
:10153c00344888008425200024488800106ea900b7
:10154c00146ea8001e2eef002e2eef003e2eef0084
:10155c004e2eef006e2eef0021cea900308ea9008a
:10156c00348ea90030aea90034aea90030cea9004b
:10157c0034cea900306ea90040eea90060eea9009f
:10158c0010eea90014eea900314ea900302ea900ce
:10159c00304ea800408ea900400ea900404ea90074
:1015ac0040aea90040cea80060cea900610ea900f3
:1015bc0010cea800506ea90011eea800110ea800c4
:1015cc00112ea800114ea800116ea800118ea800b3
:1015dc0011aea80011cea80050aea8001b0ea8009a
:1015ec001b2ea8001b4ea8001b6ea8001b8ea8006b
:1015fc001baea8001bcea8005aaea800a4f4800015
:10160c00e00f5200b8003a0074bb200014088800a8
:10161c000442800004c0a10004d0a00004e0a0009b
:10162c00044288000068a9002068a90005e1a9000f
:10163c00b412200064088800000027004228b7007c
:10164c0000e8a90020e8a90011e1a90085a42e005a
:10165c0075088800244280000400a1000410a0003a
:10166c000420a100244288000108a9002108a80038
:10167c0013e1a800d5088800f4ff2c00604280001c
:10168c000002620004e0a000644288000368a90024
:10169c002368a8001fe1a800346ea800f70f2c00e7
:1016ac000434800084826300046020000482720091
:1016bc000434880005f82f0046368000068262004c
:1016cc002404b3004436880042a2a80014128000ff
:1016dc000420a0000430a1000440a00014128800d3
:1016ec00141280000400a1000410a0001412880041
:1016fc004302a8004402a80041e2a800448ea800be
:10170c0002fc2f0050348000000361000650a00042
:10171c0056348800443480008483630004f0210034
:10172c008483730047348800a2a2a800a342a900b6
:10173c00141580000420a1008401b3001415880046
:10174c00141580000400a1000410a00014158800da
:10175c00a302a800a402a800a1e2a80044eea900dc
:10176c0064eea90062a2a8006342a90014138000d1
:10177c000420a0000430a1000440a0001413880031
:10178c00141380000400a1000410a000141388009e
:10179c006302a8006402a80061e2a80061a3a9008a
:1017ac00f0cf2f006023b600f0f12f006023b600bd
:1017bc006083a9006043a900f0ff21006223b600fa
:1017cc006343a90034f82f00040078006223b600ac
:1017dc006223a9006203a90065e3a8007303a900b2
:1017ec0006fe2f00401b8000800363000710a00042
:1017fc00471b880027002000871b88001e4ea8006e
:10180c0061e3a8006023a80021a3a900f0cf2f005a
:10181c002023b600f0f12f002023b6002083a9006e
:10182c002043a900f0ff21002223b6002343a90086
:10183c00040078002223b6002223a9002203a90069
:10184c0025e3a8003303a9004419800004036300b6
:10185c006600b300461988006400200084198800d3
:10186c001ecea80021e3a8002023a8002636800065
:10187c0086826200f502b300253688009034800021
:10188c00000261000400a00094348800546ea9008a
:10189c0010aea9002162a800041180000480a000f1
:1018ac000490a100041188002062a8004711880050
:1018bc0021e2a8002342a800344280000400a100c9
:1018cc006400b300344288002442800004c0a100ac
:1018dc0004d0a00004e0a000244288002168a800e5
:1018ec000080fa0000000600e10f5200bd0032003b
:1018fc0075bb2000150888000542800005c0a100ba
:10190c0005d0a00005e0a000054288000068a900f1
:10191c002068a90005e1a900e00f520044ff320045
:10192c00e10f520044ff3a0074bb200064088800a9
:10193c00000027004228b70000e8a90020e8a90011
:10194c0011e1a90085a42e007508880024428000ae
:10195c000400a1000410a0000420a100244288006f
:10196c000108a9002108a80013e1a800d5088800e7
:10197c00f4ff2c00604280000002620004e0a00032
:10198c00644288000368a9002368a8001fe1a8002e
:10199c00346ea800f70f2c0004348000848263009e
:1019ac0004602000048272000434880005f82f00c3
:1019bc0046368000068262002404b3004436880058
:1019cc0042a2a800141280000420a0000430a10040
:1019dc000440a00014128800141280000400a1001e
:1019ec000410a000141288004302a8004402a800ae
:1019fc0041e2a800448ea80002fc2f005034800065
:101a0c00000361000650a000563488004434800066
:101a1c008483630004f021008483730047348800be
:101a2c00a2a2a800a342a900141580000420a100c2
:101a3c008401b30014158800141580000400a10063
:101a4c000410a00014158800a302a800a402a8008a
:101a5c00a1e2a80044eea90064eea90062a2a800cd
:101a6c006342a900141380000420a0000430a100dc
:101a7c000440a00014138800141380000400a1007b
:101a8c000410a000141388006302a8006402a800cc
:101a9c0061e2a80061a3a900f0cf2f006023b6007b
:101aac00f0f12f006023b6006083a9006043a90009
:101abc00f0ff21006223b6006343a90034f82f0025
:101acc00040078006223b6006223a9006203a90017
:101adc0065e3a8007303a90006fe2f00401b8000dd
:101aec00800363000710a000471b8800270020001c
:101afc00871b88001e4ea80061e3a8006023a80085
:101b0c0021a3a900f0cf2f002023b600f0f12f0065
:101b1c002023b6002083a9002043a900f0ff210058
:101b2c002223b6002343a900040078002223b60028
:101b3c002223a9002203a90025e3a8003303a9004e
:101b4c0044198000040363006600b3004619880042
:101b5c0064002000841988001ecea80021e3a80090
:101b6c002023a8002636800086826200f502b3008e
:101b7c002536880090348000000261000400a0002b
:101b8c0094348800546ea90010aea9002162a800fc
:101b9c00041180000480a0000490a10004118800ae
:101bac002062a8004711880021e2a8002342a80067
:101bbc00344280000400a1006400b3003442880069
:101bcc002442800004c0a10004d0a00004e0a000c6
:101bdc00244288002168a8000080fa00000006005a
:101bec0041ff3700f452270014088800044280009b
:101bfc0004c0a10004d0a00004e0a00004428800ae
:101c0c000068a9002068a90005e1a90074bb2000a8
:101c1c006408880046ff37000000fa00346ea90003
:101c2c00f40f2000441288004412880044128800eb
:101c3c00346ea8000000000000000000000000004e
:101c4c00346ea900441280004e22dd004012800048
:101c5c004600dd000400400044128000346ea800f1
:101c6c004222de00040040000080fa000000060062
:101c7c000000fa002023a9002003ab00feff320075
:101c8c002023a800001880000080fa000000060045
:101c9c000000fa006023a9006003ab00feff3200d5
:101cac006023a800001a80000080fa0000000600e3
:101cbc000000fa00448ea900c802de00422ade00b1
:101ccc0044158800c62add00f50fb2000082fb0027
:101cdc004223de0086824200451588004622dd0044
:101cec00f40fb20044158800a0e2ab00feff3200f6
:101cfc00448ea8000080fa00000006000000fa00e4
:101d0c00889fbe0024fb0700d2d52e00e3192400c7
:101d1c0079fb07000001be0000802c00c16f24007d
:101d2c002efa070080047800010478006011b800d6
:101d3c000900780088007800d7fa070000027800c4
:101d4c000000eb00800f52000900350002f02f005c
:101d5c00f37724000900780088007800d0fa070097
:101d6c00000278000080eb00e00f52000400340009
:101d7c00cfff07004f04be000080fa0000000600f1
:101d8c000802be000500780084007800e7fa07001e
:101d9c00c7ff07004f04be000080fa0000000600d9
:101dac00f7ff37000000fa008002eb00e10f500053
:101dbc0022003600c6fd2f0005034300a543780022
:101dcc000782fb004413880060e2ab00feff320088
:101ddc00868f5200f9ff3a00e00f50000a003a00db
:101dec0044eea8000000000000000000000000000d
:101dfc0000000000000000000000000044eea900fc
:101e0c000080fa0000000600e10f5000fcff3a00d1
:101e1c0064eea800000000000000000000000000bc
:101e2c0000000000000000000000000064eea900ab
:101e3c000080fa0000000600f3ff370000024000ab
:101e4c00c59528000482420094027800c6fd2f003c
:101e5c0005034300d9ff37002001fa000001be0042
:101e6c00b08c28008f000900305f78000e09b1009b
:101e7c000109200081004700b48328008f0009006d
:101e8c00b4587800f4112000840f51001e003e005d
:101e9c0004092000110009000401d8008102780017
:101eac00610361001a003a000482e9000502520045
:101ebc00ee437a008783fb008703e9000409b00036
:101ecc00ee427a000583fb00f4082000840f5100d9
:101edc0019003c0004dd2100048243009443780087
:101eec00e18f510019003200e28f51001e003200c8
:101efc0055002000062bdd008042eb0006c3ea00f3
:101f0c008743630005ca73000080fa0000000600d6
:101f1c0005025200ee437a008783fb008703e90039
:101f2c000409b000ee427a000583fb00f40820009f
:101f3c00840f5100e7ff340004f6210004824300b3
:101f4c0094437800e18f5100e7ff3a0055002000e0
:101f5c00062bdd008642780006c3ea008743630047
:101f6c0005ca7300e8ff3700e5cf5200e0ff3e00e2
:101f7c000596280086824200954278008582fb00f7
:101f8c00862add00500020000603dd0006c3ea00af
:101f9c008743630005ca7300dbff37000000fa00bb
:101fac00889fbe008a1f7800f6f6800007f7800035
:101fbc0004ea210014427800e04f52000b003a0072
:101fcc0094e4210014427800a5c4b300854f52005c
:101fdc000a00320005c7b300854f520031003200b1
:101fec00e5c2b300854f5200250032004f05780042
:101ffc004f04be000080fa0000000600a5e421009a
:10200c00954278008582fb00b4e4210014427800ec
:10201c004822dd000502720025e82000850f5200e1
:10202c003701320039003e00f507b100850f520030
:10203c00630032000a013e0075202000850f52001b
:10204c004001320025e02000850f5200e7ff3a00e6
:10205c0080de2f00800f5300e08f5b00e3ff3e001b
:10206c00e6f58800f7f588002efea8004f057800ed
:10207c004f04be000080fa0000000600dfff3700ae
:10208c00a4e4210014427800b4e421001442780046
:10209c004f0578004f04be000080fa0000000600d7
:1020ac00d6ff3700c5e42100954278008582fb00fd
:1020bc00d4e42100144278004822dd0005027200ad
:1020cc0005002000ed0f5200e08f5a00c7ff3e00c4
:1020dc000406010046003700c4ff3700c900370072
:1020ec00c2ff3700c1ff3700c0ff3700bfff37000a
:1020fc00beff3700bdff3700bcff3700a400370020
:10210c00880037006d0037004b00370055e8200081
:10211c00850f520013003200e7003e008582e90073
:10212c00850f5200150132008502e800850f520020
:10213c00aeff3a0000652400800f5300e08f5b0077
:10214c00aaff3e0016bf880027bf88002efea800fd
:10215c004f0578004f04be000080fa000000060016
:10216c00a6ff37000465240005002000060242008b
:10217c0087824a0000ca2800800f5200e08f5a0064
:10218c0003003e0036bf880047bf88002efea80023
:10219c0084de2f00840f5300e08f5b0093ff3e0022
:1021ac0056bf880067bf88002efea8004f05780038
:1021bc004f04be000080fa00000006008fff3700bd
:1021cc0034062000840f5300e08f5b0087ff3e0035
:1021dc0006f6880017f688002efea8004f0578003a
:1021ec004f04be000080fa000000060083ff370099
:1021fc00a4e42100144278000482fb00b5e4210021
:10220c0095427800c82add000482720004f0a70011
:10221c000402ea000402ea004f22de00b4f4880053
:10222c002efea8004f0578004f04be000080fa0077
:10223c000000060071ff3700a4e42100144278006e
:10224c000482fb00b5e4210095427800c82add0029
:10225c0004827200e90f520064ff3600a4e42100ee
:10226c00144278000482fb00b5e42100954278000a
:10227c00c82add008482720004e12000848f5200a1
:10228c005aff3e00a4e42100144278000482fb00b3
:10229c00b5e4210095427800c82add000482720062
:1022ac0024f688002efea8004f0578004f04be00cf
:1022bc000080fa000000060050ff3700a4e4210063
:1022cc00144278000482fb00b5e4210095427800aa
:1022dc00c82add0084827200f4112000848f520021
:1022ec0042ff3e0051f58000e18f50003fff3a0065
:1022fc00a4e42100144278000482fb004bdebf00f2
:10230c004800dd0004007000d3fe07002efea8007c
:10231c004f0578004f04be000080fa000000060054
:10232c0036ff3700a4e42100144278000482fb003d
:10233c00b5e4210095427800c82add008482720041
:10234c00f4112000848f520028ff3e0054f58000c9
:10235c00e10f520025ff3a00a4e42100144278005a
:10236c000482fb004bdebf004800dd00040070005f
:10237c0021002000b8fe07002efea8004f057800b3
:10238c004f04be000080fa00000006001bff37005f
:10239c00a4e42100144278000482fb00b5e421007f
:1023ac0095427800c82add000482720004f0a70070
:1023bc000402ea000402ea004f25de0054f5800016
:1023cc00840f5500080032000004eb0009122000b5
:1023dc008000eb00080078009ffe07000804e8006e
:1023ec00890f5400faff3a005af588002efea80017
:1023fc004f0578004f04be000080fa000000060074
:10240c00fefe3700a4e42100144278000482fb0095
:10241c00b5e4210095427800c82add008482720060
:10242c001400200007003200a4e4210014427800bc
:10243c000482fb00b5e4210095427800c82add0037
:10244c0004827200c4f488002efea8004f057800a8
:10245c004f04be000080fa0000000600e7fe3700c3
:10246c0045e02000850f5200500032008502e80044
:10247c00850f5200ddfe3a000464200005002000a8
:10248c000602420087824a0000c82000800f5200da
:10249c00e08f5a00d5fe3e00c6f58800d7f58800bf
:1024ac002efea8004f0578004f04be000080fa00f5
:1024bc0000000600d1fe370085e82000850f520091
:1024cc0033ff32008582e800850f5200c7fe3a00c8
:1024dc00703e2000800f5300e08f5b00c3fe3e0077
:1024ec0096f68800a7f688002efea8004f05780007
:1024fc004f04be000080fa0000000600bffe37004b
:10250c0080de2f000100200006004000878048007c
:10251c0004bd2f0015002000840f5000858f58003b
:10252c00b2fe3e00f6be880007bf88002efea80053
:10253c004f0578004f04be000080fa000000060032
:10254c00aefe370044062000840f5300e08f5b0082
:10255c002f003200803e2000800f5300e08f5b0084
:10256c00220032002efea9004f0578004f04be0059
:10257c000080fa0000000600a0fe370084de2f0069
:10258c00840f5300e08f5b0098fe3e0046f68800f7
:10259c0057f688002efea8004f0578004f04be00a9
:1025ac000080fa000000060094fe3700046420004e
:1025bc00050020000602420087824a0000c8200065
:1025cc00800f5200e08f5a0088fe3e00a6f588006e
:1025dc00b7f588002efea8004f0578004f04be000a
:1025ec000080fa000000060084fe3700943eef00e5
:1025fc00b4122000640888002efea8004f05780055
:10260c004f04be000080fa00000006007bfe37007d
:10261c0014002000a4f4880074bb20006408880017
:10262c002efea8004f0578004f04be000080fa0073
:10263c000000060071fe37000600fa00889fbe00fd
:10264c008a9fbe008c9fbe00b2f4800022079800c7
:10265c00e10f5100750032000002eb00040f78000e
:10266c000406780092f4800012079800487f21003d
:10267c006000b8008004eb00cfe6de0001f0a200a1
:10268c0002002f00236d24001bf907008005780041
:10269c00010578002e019000e10f51002d00320051
:1026ac0002e02f00f36f24000a02be000500780040
:1026bc0084007800caf707009cf807004802de0087
:1026cc00c222de00054c78004622dd000080fb00b3
:1026dc00c202de0005424200144498004600dd00b0
:1026ec00204498008904e80063044400820c200014
:1026fc00828f540048003200090078008000eb0003
:10270c00a8f80700020020008334240011f8070009
:10271c0002fd2000930c2400800278000102780056
:10272c000500780084007800f3f8070026f907000c
:10273c0001f0a20002002f00236d2400eef8070028
:10274c0080057800010578002e019000e10f510002
:10275c00d3ff3a001e029000e20f5200d0ff3a0065
:10276c001e0078008000eb008ef807000a02be0005
:10277c000501780084017800dff8070002002800ca
:10278c00b34b2400f3f707000005be000c00be009d
:10279c0081f807000200200003192400d6f8070076
:1027ac000001be008a0278000b0278000500780058
:1027bc008400780089f7070080057800010578000f
:1027cc0002e02f00f36f24000a02be00050078001f
:1027dc008400780082f7070054f807004802de00f6
:1027ec00c222de00054c78004622dd000080fb0092
:1027fc00c202de0005424200144498004600dd008f
:10280c00204498008904e80063044400820c2000f2
:10281c00828f5400b8ff3a004f06be004f05be0031
:10282c004f04be000080fa000000060094f4800003
:10283c0014079800e20f5200080032000002eb006f
:10284c00040f780004067800487f21006000b8006f
:10285c008004eb00cfe6de0088ff3700c4f5800073
:10286c00d5f58000a6f58000b7f58000860f5200e4
:10287c00878f5a00150034000600520087805a00da
:10288c004f09de0002004000e08048008180d1004a
:10289c000080d30000017800020f7800060242008d
:1028ac0087824a004f2bde0006024200e0824a007b
:1028bc008586d1000486d300487f21006000b800d3
:1028cc008004eb00cfe6de006cff37000400530001
:1028dc0085805b004f09de0002004000e08048006c
:1028ec008180d1000080d30000017800020f7800b5
:1028fc000602420087824a004f2bde00060242008d
:10290c00e0824a008586d1000486d300eaff3700b6
:10291c000000fa00a07eef0090f48800348ea9002d
:10292c0034aea90034cea900e20f500014003200de
:10293c00e30f500019003200e10f50000800320084
:10294c00e20f500011003200e30f5000160032006d
:10295c00e10f5000060032000080fa000000060073
:10296c0035ff07006000b800e4fc0700354ea800f6
:10297c00348ea8000080fa0000000600f8ff370033
:10298c006000b800ddfc0700354ea80034aea8008e
:10299c000080fa0000000600f1ff37006000b8006c
:1029ac00d6fc0700354ea80034cea8000080fa00f3
:1029bc0000000600eaff37000000fa00889fbe0006
:1029cc008a1f7800000578000004eb000912200033
:1029dc008a007800080078001ffd07000804e80052
:1029ec00890f5400faff3a000000eb00edfc0700e1
:1029fc0010002000ebfc07004f0578004f04be00d0
:102a0c000080fa00000006000000fa0088fa0700b7
:102a1c009b170700c71c0700e00f5000e08f580001
:102a2c0004003200000e20004220b7000008020013
:102a3c000100000025cea800fffe07000000eb00ff
:102a4c00b3ff07000000eb00dbff070025cea90059
:102a5c00354ea800a50a07006c12070014f580007b
:102a6c00e00f5200fdff320034f58000e00f520001
:102a7c00faff3a0014f58800ef15070014f58000f2
:102a8c00e00f5200f5ff3200f7ff37000000fa00ac
:102a9c00889fbe008a1f7800000578000004eb00b8
:102aac00091220008a0f54000e0032008000eb0047
:102abc0008007800e8fc07000804e800890f5400bf
:102acc00f8ff3a000000eb00b6fc070010002000f5
:102adc00b4fc07004f0578004f04be000080fa00dc
:102aec00000006001100200008007800dafc070046
:102afc000804e800890f5400eaff3a00f1ff3700a0
:102b0c000000fa00889fbe008a1f78002023a900cd
:102b1c002003ab00feff32002023a8000a1880001f
:102b2c00304880008000eb009ef707000004be00d8
:102b3c00503b20000a005000cf80de0096f70700c3
:102b4c00d2cc2c00c3d42300ebf707000001be004d
:102b5c000800be00a2f6070080047800010478008b
:102b6c0002002000633924000900780088007800f6
:102b7c004bf70700c4122000e00f500008003c0087
:102b8c000200200003f82300090078008800780078
:102b9c0041f7070014002000e00f500005003d0035
:102bac00344888004f0578004f04be000080fa00be
:102bbc00000006000802be000500780084007800c2
:102bcc005af7070000027800344888004f05780057
:102bdc004f04be000080fa0000000600f5ff37002d
:102bec000000fa00881f78001800200038f58800d3
:102bfc00843e2000b6f580008433b800a5f5800033
:102c0c00042ab80085024300b4be8800c5be880003
:102c1c00d8be8800dc37ef0054f58000e00f52007e
:102c2c000d003a000800780063ff070010c0b300e5
:102c3c00a0feb700b4f48000e10f52000b0032008c
:102c4c0014002000c4f4880025cea8004f0478009e
:102c5c000080fa00000006000000eb0051fc0700a9
:102c6c00080078004ffc0700f0ff3700c63eef006d
:102c7c0071fe0700b412200064088800447f210014
:102c8c0064f588000621ef0000e8a90020e8a80000
:102c9c0011e1a80025cea8004f0478000080fa00ae
:102cac0000000600ecff37000000fa00a07eef00e9
:102cbc0020e8a90011e1a9006000b8000ffc070092
:102ccc000000eb003cff070025cea900a63eef005c
:102cdc000080fa00000006000000fa00d4be80005c
:102cec00e0f580008400b800cf80de00b4be800028
:102cfc00c5be80000000420081804a00b0be880042
:102d0c00c1be8800823e200003002000d3f60700dd
:102d1c0080037800010378000702780086027800af
:102d2c00c6f58000d7f58000860f5200878f5a00b9
:102d3c000f003400dab7ef00843e2000843ab8006c
:102d4c00803e20000030b80081004200b0be8800f8
:102d5c00c1be8800823e200003002000bff60700a1
:102d6c00800378000103780007027800860278005f
:102d7c00a6f58000b7f58000840f5300858f5b00ab
:102d8c0026003c00b4f48000e00f52002f003a0003
:102d9c00e6be800004f6800015f6800007002000d7
:102dac00840f5300858f5b0003003900e00f520045
:102dbc00e08f5a0043003a00823e200003002000be
:102dcc00b0be8000c1be8000a4f60700cbfb07009c
:102ddc00e1f480008100e800a40f2000110009003c
:102dec008480d800e1f48800e08f500009003a009c
:102dfc0025718000ce2ade008582ea00e182620025
:102e0c00ce2add002471800004e0a10005027200ce
:102e1c00247188000080fa000000060014002000d5
:102e2c00d4be8800843e2000843ab800853e200041
:102e3c000533b80087034200b6be8800c7be8800c1
:102e4c00b4f48000e00f52001600320035f680001a
:102e5c008502e80035f68800863e2000868f5200f9
:102e6c0014003600e5be80008502e800e5be88004f
:102e7c00c63eef0026f68000850f53001100360089
:102e8c00e00f5200d2ff3a00823e200003002000e7
:102e9c00b0be8000c1be800070f6070097fb070033
:102eac00cbff3700e6be80000603e800e6be8800d4
:102ebc00b8ff3700e5be800026f68000850f530072
:102ecc00efff3e0078ff0700b4f48000e00f5200e3
:102edc00bfff3a00ecff37000000fa00881f7800b3
:102eec001800200038f58800c8f68800cc3eef00aa
:102efc00ce3eef00d03eef00da3eef0054f58000fe
:102f0c00e00f52000a0032000000eb00a5fb0700a6
:102f1c0008007800a3fb070010c0b300a0feb700a8
:102f2c0025cea8004f0478000080fa0000000600af
:102f3c0020002000a0fe070010c0b300a0feb700c8
:102f4c0025cea8004f0478000080fa00000006008f
:102f5c00f7ff37000000fa00881f7800a07eef0012
:102f6c000004eb00c8f688006000b80063fb0700a3
:102f7c000800780090fe070025cea90038f58800df
:102f8c004f0478000080fa00000006000000fa00f0
:102f9c00889fbe00c4f6800005002000e40f52009c
:102fac00e08f5a002a00360068f6800079f680001f
:102fbc000800be0078f6070002002000a34724009a
:102fcc00e4f507000004be0030bf800041bf800064
:102fdc0071f607000001be000800be0080f5070076
:102fec000200200003132400daf507002ef6070078
:102ffc0042fb0700c4f68000e00f520011003200c3
:10300c00e1f480008100e800a40f20001100090009
:10301c008480d800e1f48800e08f500009003a0069
:10302c0025718000ce2ade008582ea00e1826200f2
:10303c00ce2add002471800004e0a100050272009c
:10304c00247188004f04be000080fa0000000600c6
:10305c00040601001000370034003700150037005b
:10306c002000370000003700b4f680006120b80063
:10307c0056bf800067bf8000860f5000878f5800b6
:10308c004b0031000402e800b4f6880068f68000ba
:10309c0079f68000c6ff3700cc3eef00ce3eef0045
:1030ac00d03eef00d63eef00da3eef006044b800b1
:1030bc00bfff370084f680006120b80046f6800020
:1030cc0057f68000860f5000878f58003300310070
:1030dc000402e80084f6880068f6800079f6800027
:1030ec00b3ff3700f4be800005bf800068f6800097
:1030fc0079f680000404540085845c0068f688002e
:10310c0079f68800880f5200898f5a00a8ff350085
:10311c0044002000c4f68800d63eef00cc3eef0001
:10312c00ce3eef006044b800a1ff370068f6800087
:10313c0079f68000f4be800005bf800004044400d2
:10314c0085844c0068f6880079f68800823e200061
:10315c00030020000800be00c0f5070080037800c3
:10316c00010378000702780086027800e00f520015
:10317c00e08f5a001c00350016bf800027bf80006e
:10318c00860f5200878f5a0089ff390024002000d7
:10319c00c4f68800d03eef0085ff370034002000d5
:1031ac00c4f6880068f6800079f6800080ff37004e
:1031bc00d4f680000402e800d4f688000500200054
:1031cc0096f68000a7f68000860f5200878f5a0073
:1031dc000800310014002000c4f6880068f6800056
:1031ec0079f6800072ff370060021200e0821a004c
:1031fc00e1ff370057ff070068f6800079f6800082
:10320c006bff37000000fa001400200034f5880032
:10321c00e401200044f58800e00f5000300032003b
:10322c0084e4240094f58800d037ef00d237ef0007
:10323c00d437ef0064fe220065f8230064024200dc
:10324c00000aeb0034127800850f5200fbff3a00a5
:10325c001400200074f58800a4f48000e00f5200e4
:10326c000e003a0074bb2000140888000021ef0007
:10327c000068a9002068a800447f210064f588003c
:10328c000621ef0000e8a90020e8a80005e1a8004d
:10329c0011e1a8000080fa0000000600e10f5200c6
:1032ac00f2ff3a00f4522700140888000021ef00c6
:1032bc000068a9002068a800447f210064f58800fc
:1032cc000621ef0000e8a90020e8a80005e1a8000d
:1032dc0011e1a8000080fa0000000600efff3700a3
:1032ec008402200094f58800d037ef00d237ef002d
:1032fc00d437ef0064fe220065f82300cfff3700bf
:10330c000000fa00f0f6800004192000840f500031
:10331c0007003200b03eef00dcfd07000000eb00c0
:10332c00b8ff07002efea8000080fa00000006007f
:10333c002400200084f588000000eb009efd0700af
:10334c0010002000afff07002efea8000080fa003e
:10335c0000000600f6ff37000000fa00881f780016
:10336c0094e42100144278000482fb000500200044
:10337c00e402b1000580b10020042000800f52004f
:10338c00e08f5a0089003e0004060100a8003700b7
:10339c008600370085003700840037008300370033
:1033ac008200370081003700800037007f00370033
:1033bc007e0037007d0037007c0037007b00370033
:1033cc007a00370079003700780037007700370033
:1033dc007600370075003700740037007300370033
:1033ec006f0137003b013700700037006f0037006a
:1033fc006e0037006d0037006c0037003b01370062
:10340c006a00370069003700680037006700370032
:10341c00660037009a003700d2003700630037008f
:10342c00d000370061003700600037005f003700c4
:10343c005e0037005d0037005c0037005b00370032
:10344c005a00370059003700580037005700370032
:10345c005600370055003700540037005300370032
:10346c00d60037005100370050003700ec00370011
:10347c004e0037004d0037004c0037004b00370032
:10348c004a00370049003700480037004700370032
:10349c00460037004800370035e02000850f520009
:1034ac00ae05320013033e008582e900850f520001
:1034bc003c0532008502e800850f52003b003a00c3
:1034cc0084e4210014427800e04f52007406350069
:1034dc00e4e42100144278000482fb00f5e42100ae
:1034ec0095427800c82add00048272002f00320059
:1034fc00e4e42100144278000482fb00f5e421008e
:10350c0095427800c82add008482720004322000c3
:10351c00848f520025003e00e4ed2100c5e221001d
:10352c0095427800044078002cfeb7004822de005b
:10353c00d5e2210095427800044078002dfeb700ba
:10354c00e4e42100144278000482fb00f5e421003d
:10355c0095427800c82add0004827200f5e2210051
:10356c0095427800044078002ffeb7004822de0018
:10357c0005e32100954278000440780030feb70046
:10358c002efea80044fd200015e321009542780092
:10359c000440780031feb7004822de0025e321000c
:1035ac00954278000440780032feb7004f04780052
:1035bc000080fa000000060084e421001442780028
:1035cc00e04f52000f013d00c5e421009542780008
:1035dc008582fb00d4e42100144278004822dd00ef
:1035ec000502720005002000ed0f5200e08f5a001a
:1035fc00eeff3e0004060100d3013700ebff37005d
:10360c00ca013700e9ff3700e8ff3700e7ff370052
:10361c00e6ff3700e5ff3700e4ff3700e3ff370034
:10362c00d0013700e1ff3700e0ff3700b801370069
:10363c00a5e42100954278008582fb00b4e42100ca
:10364c00144278004822dd000502720005002000bb
:10365c000406b1000580b100e50f5200e08f5a005e
:10366c00d2ff3e00040601006b0137005f013700fa
:10367c0058013700cdff3700780137007101370052
:10368c00c5e42100954278008582fb00d4e421003a
:10369c00144278004822dd00050272001506200055
:1036ac00850f5200e50132008502e800850f5200bb
:1036bc00b90132008582e900850f5200bbff3a0048
:1036cc00c4a42100c5e22100954278000440780092
:1036dc002cfeb7004822de00d5e22100954278008e
:1036ec00044078002dfeb700e5e4210095427800f7
:1036fc008582fb00f4e42100144278004822dd00ae
:10370c0005027200f5e22100954278000440780031
:10371c002ffeb7004822de0005e321009542780019
:10372c000440780030feb7002efea800841f240051
:10373c0015e32100954278000440780031feb70073
:10374c004822de0025e321009542780004407800f1
:10375c0032feb7004f0478000080fa00000006002b
:10376c0095ff3700c5e42100954278008582fb0067
:10377c00d4e42100144278004822dd0005027200d6
:10378c0015062000850f5200e70132008502e80083
:10379c00850f52007a0132008582e900850f5200b4
:1037ac0082ff3a0010c0b300871007004f04780066
:1037bc000080fa00000006007fff3700c5e42100fe
:1037cc00954278008582fb00d4e4210014427800f5
:1037dc004822dd000502720015062000850f5200fc
:1037ec00e00132008502e800850f5200d40132005e
:1037fc008582e900850f52006cff3a0024f58000a9
:10380c00e00f520069ff320010c0b3006e100700c9
:10381c004f0478000080fa000000060066ff3700b5
:10382c0084e4210014427800e04f5200d6013500a8
:10383c00c4a42100c5e22100954278000440780020
:10384c002cfeb7004822de00d5e22100954278001c
:10385c00044078002dfeb700e5e421009542780085
:10386c008582fb00f4e42100144278004822dd003c
:10387c0005027200f5e221009542780004407800c0
:10388c002ffeb7004822de0005e3210095427800a8
:10389c000440780030feb7002efea80084222400dd
:1038ac0015e32100954278000440780031feb70002
:1038bc004822de0025e32100954278000440780080
:1038cc0032feb7004f0478000080fa0000000600ba
:1038dc0039ff370060832800641307004f04780019
:1038ec000080fa000000060033ff3700a5e4210039
:1038fc00954278008582fb00b4e4210014427800e4
:10390c004822dd000502720065e02000850f5200a0
:10391c00850432007600360055e82000850f5200f1
:10392c00a2033200a1013e00e3825200850f520037
:10393c002b03320034023e00b507b100850f520054
:10394c0066033200a507b000850f520017ff3a003e
:10395c0084e4210014427800e04f52005e053500eb
:10396c00c4e42100144278000482fb00d5e4210059
:10397c0095427800c82add000482720005053200e9
:10398c0030002000e2fb070053fd07002efea800cc
:10399c004f0478000080fa000000060006ff370094
:1039ac00c5e42100954278008582fb00d4e4210017
:1039bc00144278004822dd00050272001506200032
:1039cc00850f52004f0132008502e800850f52002e
:1039dc00430132008582e900850f5200f3fe3a0064
:1039ec0024f58000e00f5200f0fe320010c0b3004e
:1039fc00f50f07004f0478000080fa000000060065
:103a0c00edfe3700e5e42100954278008582fb004d
:103a1c00f4e42100144278004822dd000502720013
:103a2c00e2fe3200e4e42100144278000482fb0040
:103a3c00f5e4210095427800c82add0084827200ea
:103a4c0004322000848f5200d8fe3e00e4ed2100a9
:103a5c00c5e2210095427800044078002cfeb700a6
:103a6c004822de00d5e2210095427800044078001f
:103a7c002dfeb700e4e42100144278000482fb0020
:103a8c00f5e4210095427800c82add00048272001a
:103a9c00f5e2210095427800044078002ffeb70033
:103aac004822de0005e321009542780004407800ae
:103abc0030feb7002efea80044fd200015e32100c7
:103acc00954278000440780031feb7004822de00b1
:103adc0025e32100954278000440780032feb700bf
:103aec004f0478000080fa0000000600b2fe370098
:103afc00c5202000850f5200ff02320066fe3e00fa
:103b0c00e3825200850f5200a30232005b013e009b
:103b1c008582e900850f52004f0432008502e800cf
:103b2c00850f5200a1fe3a001000200078fb070020
:103b3c00e4ed2100c5e221009542780004407800b4
:103b4c002cfeb7004822de00d5e221009542780019
:103b5c00044078002dfeb700e4e421001442780004
:103b6c000482fb00f5e4210095427800c82add00b0
:103b7c0004827200f5e2210095427800044078003e
:103b8c002ffeb7004822de0005e3210095427800a5
:103b9c000440780030feb7002efea8006498210087
:103bac0015e32100954278000440780031feb700ff
:103bbc004822de0025e3210095427800044078007d
:103bcc0032feb7004f0478000080fa0000000600b7
:103bdc0079fe3700f90f07008c1207004f047800ac
:103bec000080fa000000060073fe370084e4210018
:103bfc0014427800e04f520001013d00f0fd8000be
:103c0c008000eb00811207004f0478000080fa005e
:103c1c000000060068fe370084e42100144278009e
:103c2c00e04f520002013d00e0fd80008000eb00ff
:103c3c00761207004f0478000080fa00000006009e
:103c4c005dfe370007100700701207004f04780064
:103c5c000080fa000000060057fe370084e42100c3
:103c6c0014427800e04f5200fd003500e4ed2100d5
:103c7c00c5e2210095427800044078002cfeb70084
:103c8c004822de00d5e221009542780004407800fd
:103c9c002dfeb700e4e42100144278000482fb00fe
:103cac00f5e4210095427800c82add0004827200f8
:103cbc00f5e2210095427800044078002ffeb70011
:103ccc004822de0005e3210095427800044078008c
:103cdc0030feb7002efea80044fd200015e32100a5
:103cec00954278000440780031feb7004822de008f
:103cfc0025e32100954278000440780032feb7009d
:103d0c004f0478000080fa00000006002afe3700fd
:103d1c0020f680008000eb003c1207004f04780076
:103d2c000080fa000000060023fe3700c0f480007b
:103d3c008000eb00351207004f0478000080fa0079
:103d4c00000006001cfe3700b0f480008000eb0081
:103d5c002e1207004f0478000080fa0000000600c5
:103d6c0015fe370050f580008000eb00271207008d
:103d7c004f0478000080fa00000006000efe3700a9
:103d8c0030c0b300100f07004f0478000080fa0019
:103d9c000000060008fe3700c4a42100c5e2210083
:103dac0095427800044078002cfeb7004822de00d3
:103dbc00d5e2210095427800044078002dfeb70032
:103dcc00e5e42100954278008582fb00f4e42100b3
:103ddc00144278004822dd0005027200f5e2210051
:103dec0095427800044078002ffeb7004822de0090
:103dfc0005e32100954278000440780030feb700be
:103e0c002efea8008421240015e3210095427800a1
:103e1c000440780031feb7004822de0025e3210083
:103e2c00954278000440780032feb7004f047800c9
:103e3c000080fa0000000600dffd3700c4a421005a
:103e4c00c5e2210095427800044078002cfeb700b2
:103e5c004822de00d5e2210095427800044078002b
:103e6c002dfeb700e5e42100954278008582fb0029
:103e7c00f4e42100144278004822dd0005027200af
:103e8c00f5e2210095427800044078002ffeb7003f
:103e9c004822de0005e321009542780004407800ba
:103eac0030feb7002efea8008420240015e321006c
:103ebc00954278000440780031feb7004822de00bd
:103ecc0025e32100954278000440780032feb700cb
:103edc004f0478000080fa0000000600b6fd3700a1
:103eec0024f58000e00f5200b0fd320030c0b3006a
:103efc00b50e07004f0478000080fa0000000600a1
:103f0c00adfd370024f58000e00f5200a7fd320014
:103f1c0020c0b300ac0e07004f0478000080fa00fc
:103f2c0000000600a4fd370020c0b300a60e070059
:103f3c004f0478000080fa00000006009efd370058
:103f4c0024f58000e00f520098fd320030c0b30021
:103f5c009d0e07004f0478000080fa000000060058
:103f6c0095fd370024f58000e00f52008ffd3200e4
:103f7c0020c0b300940e07004f0478000080fa00b4
:103f8c00000006008cfd37004adebf00b4e42100bf
:103f9c00144278006f4060008b0e07004f047800cd
:103fac000080fa000000060083fd370085e8200041
:103fbc00850f520039013200d8003e008582e9009d
:103fcc00850f52008b0232008502e800850f5200eb
:103fdc0076fd3a0084e4210014427800e04f520050
:103fec0072fd3d0080f680008000eb008711070019
:103ffc004f0478000080fa00000006006efd3700c8
:10400c00c4e42100144278000482fb004ddebf00a2
:10401c004800dd0004007000dd0e07002efea80035
:10402c004f0478000080fa000000060062fd3700a3
:10403c00c4e42100144278000482fb004ddebf0072
:10404c004800dd0004007000641007002efea8007c
:10405c004f0478000080fa000000060056fd37007f
:10406c00d0f480008000eb00681107004f0478004a
:10407c000080fa00000006004ffd3700a52020004c
:10408c00850f5200020332008502e800850f5200b2
:10409c0046fd3a000400210005e22100954278001b
:1040ac000440780020feb7004822de0015e2210013
:1040bc00954278000440780021feb700221ea8002b
:1040cc0034e221001442780000cdb30023feb70087
:1040dc0044e221001442780070c0b30024feb70003
:1040ec0022fea8004f0478000080fa0000000600b1
:1040fc0031fd370045e02000850f5200ea01320007
:10410c008502e800850f520028fd3a0084e4210066
:10411c0014427800e04f520042033500e4e42100e1
:10412c00144278000482fb00f5e4210095427800eb
:10413c00c82add00048272001cfd3200e4e4210078
:10414c00144278000482fb00f5e4210095427800cb
:10415c00c82add008482720004322000848f520051
:10416c0012fd3e00e4ed2100c5e2210095427800ed
:10417c00044078002cfeb7004822de00d5e2210076
:10418c0095427800044078002dfeb700e4e421004d
:10419c00144278000482fb00f5e42100954278007b
:1041ac00c82add0004827200f5e2210095427800f5
:1041bc00044078002ffeb7004822de0005e3210002
:1041cc00954278000440780030feb7002efea8001f
:1041dc0044fd200015e3210095427800044078004e
:1041ec0031feb7004822de0025e32100954278001d
:1041fc000440780032feb7004f0478000080fa00cb
:10420c0000000600ecfc370035e82000850f52005a
:10421c00060232008502e800850f5200e3fc3a00ea
:10422c0084e4210014427800e04f52000b03350067
:10423c00e4e42100144278000482fb00f5e4210040
:10424c0095427800c82add0004827200d7fc320047
:10425c00e4e42100144278000482fb00f5e4210020
:10426c0095427800c82add00848272000432200056
:10427c00848f5200cdfc3e00e4ed2100c5e221000c
:10428c0095427800044078002cfeb7004822de00ee
:10429c00d5e2210095427800044078002dfeb7004d
:1042ac00e4e42100144278000482fb00f5e42100d0
:1042bc0095427800c82add0004827200f5e22100e4
:1042cc0095427800044078002ffeb7004822de00ab
:1042dc0005e32100954278000440780030feb700d9
:1042ec002efea80044fd200015e321009542780025
:1042fc000440780031feb7004822de0025e321009f
:10430c00954278000440780032feb7004f047800e4
:10431c000080fa0000000600a7fc3700a5e820008a
:10432c00850f52001e003200120039008502e80091
:10433c00850f52009dfc3a0084e421001442780061
:10434c00e04f520099fc3d006000b800c4f68000bc
:10435c00e00f520002003200da1eec0001002000d7
:10436c00aa1007004f0478000080fa000000060035
:10437c0091fc370084e4210014427800e04f520095
:10438c008afc3d00b0f680008000eb009f10070017
:10439c004f0478000080fa000000060086fc37000d
:1043ac0084e4210014427800e04f52008f02350063
:1043bc00e4e42100144278000482fb00f5e42100bf
:1043cc0095427800c82add000482720077fc320026
:1043dc00e4e42100144278000482fb00f5e421009f
:1043ec0095427800c82add008482720004322000d5
:1043fc00848f52006dfc3e00e4ed2100c5e22100eb
:10440c0095427800044078002cfeb7004822de006c
:10441c00d5e2210095427800044078002dfeb700cb
:10442c00e4e42100144278000482fb00f5e421004e
:10443c0095427800c82add0004827200f5e2210062
:10444c0095427800044078002ffeb7004822de0029
:10445c0005e32100954278000440780030feb70057
:10446c002efea80044fd200015e3210095427800a3
:10447c000440780031feb7004822de0025e321001d
:10448c00954278000440780032feb7004f04780063
:10449c000080fa000000060047fc370084e421008d
:1044ac0014427800e04f520057023500e4e421003a
:1044bc00144278000482fb00f5e421009542780058
:1044cc00c82add000482720038fc3200e4e42100ca
:1044dc00144278000482fb00f5e421009542780038
:1044ec00c82add008482720004322000848f5200be
:1044fc002efc3e00e4ed2100c5e22100954278003f
:10450c00044078002cfeb7004822de00d5e22100e2
:10451c0095427800044078002dfeb700e4e42100b9
:10452c00144278000482fb00f5e4210095427800e7
:10453c00c82add0004827200f5e221009542780061
:10454c00044078002ffeb7004822de0005e321006e
:10455c00954278000440780030feb7002efea8008b
:10456c0044fd200015e321009542780004407800ba
:10457c0031feb7004822de0025e321009542780089
:10458c000440780032feb7004f0478000080fa0037
:10459c000000060008fc370074f58000e00f5200a4
:1045ac0003003a0084f58000e00f5200060035004d
:1045bc000000eb00fe0f07004f0478000080fa00ab
:1045cc0000000600fcfb370010002000f80f07006d
:1045dc004f0478000080fa0000000600f6fb37005c
:1045ec0084e4210014427800e04f5200410235006f
:1045fc00e4e42100144278000482fb00f5e421007d
:10460c0095427800c82add0004827200e7fb320074
:10461c00e4e42100144278000482fb00f5e421005c
:10462c0095427800c82add00848272000432200092
:10463c00848f5200ddfb3e00e4ed2100c5e2210039
:10464c0095427800044078002cfeb7004822de002a
:10465c00d5e2210095427800044078002dfeb70089
:10466c00e4e42100144278000482fb00f5e421000c
:10467c0095427800c82add0004827200f5e2210020
:10468c0095427800044078002ffeb7004822de00e7
:10469c0005e32100954278000440780030feb70015
:1046ac002efea80044fd200015e321009542780061
:1046bc000440780031feb7004822de0025e32100db
:1046cc00954278000440780032feb7004f04780021
:1046dc000080fa0000000600b7fb3700e0be800047
:1046ec008000eb00c90f07004f0478000080fa002f
:1046fc0000000600b0fb3700354ea8004401200036
:10470c0044f5880044f58000e00f5200fdff3a00ac
:10471c0093708000c819de00927080009170800048
:10472c00907080009770800096708000957080006b
:10473c009472800088f480004844dd00e1816100bf
:10474c00830144004811de006201610002814100d6
:10475c00c808de00e4806000810041004800de00f3
:10476c006800600000804000c83bde00f0836300fe
:10477c00870340004833de000602b2000683430084
:10478c00c82ade000504b200850243004222dd0087
:10479c000408b20004804200850f07004f04780023
:1047ac000080fa000000060083fb370084e421003f
:1047bc0014427800e04f5200a1013500e4e42100de
:1047cc00144278000482fb00f5e421009542780045
:1047dc00c82add000482720074fb3200e4e421007c
:1047ec00144278000482fb00f5e421009542780025
:1047fc00c82add008482720004322000848f5200ab
:10480c006afb3e00e4ed2100c5e2210095427800f0
:10481c00044078002cfeb7004822de00d5e22100cf
:10482c0095427800044078002dfeb700e4e42100a6
:10483c00144278000482fb00f5e4210095427800d4
:10484c00c82add0004827200f5e22100954278004e
:10485c00044078002ffeb7004822de0005e321005b
:10486c00954278000440780030feb7002efea80078
:10487c0044fd200015e321009542780004407800a7
:10488c0031feb7004822de0025e321009542780076
:10489c000440780032feb7004f0478000080fa0024
:1048ac000000060044fb370084e421001442780029
:1048bc00e04f520081013500e4e4210014427800fd
:1048cc000482fb00f5e4210095427800c82add0043
:1048dc000482720035fb3200e4e4210014427800bb
:1048ec000482fb00f5e4210095427800c82add0023
:1048fc008482720004322000848f52002bfb3e0015
:10490c00e4ed2100c5e221009542780004407800d6
:10491c002cfeb7004822de00d5e22100954278003b
:10492c00044078002dfeb700e4e421001442780026
:10493c000482fb00f5e4210095427800c82add00d2
:10494c0004827200f5e22100954278000440780060
:10495c002ffeb7004822de0005e3210095427800c7
:10496c000440780030feb7002efea80044fd200065
:10497c0015e32100954278000440780031feb70021
:10498c004822de0025e3210095427800044078009f
:10499c0032feb7004f0478000080fa0000000600d9
:1049ac0005fb370084e4210014427800e04f5200ec
:1049bc0031013500c4e42100144278000482fb006c
:1049cc00d5e4210095427800c82add0004827200eb
:1049dc00f400320020002000cdf7070080f807001b
:1049ec002efea8004f0478000080fa00000006009c
:1049fc00f1fa370084e4210014427800e04f5200b1
:104a0c00eafa3d00823e20000300200060f68000a0
:104a1c0071f6800091ef0700fc0e07004f04780040
:104a2c000080fa0000000600e3fa370084e421005d
:104a3c0014427800e04f520035013500e4e42100c7
:104a4c00144278000482fb00f5e4210095427800c2
:104a5c00c82add0004827200d4fa3200e4e421009a
:104a6c00144278000482fb00f5e4210095427800a2
:104a7c00c82add008482720004322000848f520028
:104a8c00cafa3e00e4ed2100c5e22100954278000f
:104a9c00044078002cfeb7004822de00d5e221004d
:104aac0095427800044078002dfeb700e4e4210024
:104abc00144278000482fb00f5e421009542780052
:104acc00c82add0004827200f5e2210095427800cc
:104adc00044078002ffeb7004822de0005e32100d9
:104aec00954278000440780030feb7002efea800f6
:104afc0044fd200015e32100954278000440780025
:104b0c0031feb7004822de0025e3210095427800f3
:104b1c000440780032feb7004f0478000080fa00a1
:104b2c0000000600a4fa3700b4f48000e10f520034
:104b3c009f003200823e200003002000b0be8000a7
:104b4c00c1be800045ef0700b00e07004f0478008f
:104b5c000080fa000000060097fa370084e4210078
:104b6c0014427800e04f5200f0003500e4e42100dc
:104b7c00144278000482fb00f5e421009542780091
:104b8c00c82add000482720088fa3200e4e42100b5
:104b9c00144278000482fb00f5e421009542780071
:104bac00c82add008482720004322000848f5200f7
:104bbc007efa3e00e4ed2100c5e22100954278002a
:104bcc00044078002cfeb7004822de00d5e221001c
:104bdc0095427800044078002dfeb700e4e42100f3
:104bec00144278000482fb00f5e421009542780021
:104bfc00c82add0004827200f5e22100954278009b
:104c0c00044078002ffeb7004822de0005e32100a7
:104c1c00954278000440780030feb7002efea800c4
:104c2c0044fd200015e321009542780004407800f3
:104c3c0031feb7004822de0025e3210095427800c2
:104c4c000440780032feb7004f0478000080fa0070
:104c5c000000060058fa370084e421001442780062
:104c6c00e04f520010003d00a4f48000e00f520011
:104c7c0055003a00803e200001002000630e070022
:104c8c004f0478000080fa00000006004afa370052
:104c9c00803e2000460e07004f0478000080fa008a
:104cac000000060044fa3700e4e4210014427800c6
:104cbc000482fb00f5e4210095427800c82add004f
:104ccc000482720039fa3200e4e4210014427800c4
:104cdc000482fb00f5e4210095427800c82add002f
:104cec008482720004322000848f52002ffa3e001e
:104cfc00e4ed2100c5e221009542780004407800e3
:104d0c002cfeb7004822de00d5e221009542780047
:104d1c00044078002dfeb700e4e421001442780032
:104d2c000482fb00f5e4210095427800c82add00de
:104d3c0004827200f5e2210095427800044078006c
:104d4c002ffeb7004822de0005e3210095427800d3
:104d5c000440780030feb7002efea80044fd200071
:104d6c0015e32100954278000440780031feb7002d
:104d7c004822de0025e321009542780004407800ab
:104d8c0032feb7004f0478000080fa0000000600e5
:104d9c0009fa3700d83eef006ef807002efea80087
:104dac00fbfa3700c0f707002efea8000dff3700f6
:104dbc006000b800150e07004f0478000080fa0060
:104dcc0000000600fcf93700e10f5200f7f93a0039
:104ddc0040062000010020000c0e07004f04780054
:104dec000080fa0000000600f3f9370090f680000e
:104dfc00a1f68000050e07004f0478000080fa0031
:104e0c0000000600ecf9370050bf800061bf800045
:104e1c00fe0d07004f0478000080fa000000060029
:104e2c00e5f93700c0f58000d1f58000f70d0700db
:104e3c004f0478000080fa0000000600def937000d
:104e4c0030bf800041bf8000f00d07004f04780098
:104e5c000080fa0000000600d7f9370010bf800070
:104e6c0021bf8000e90d07004f0478000080fa0094
:104e7c0000000600d0f93700a0debf000080fb0068
:104e8c000000ea004f00de00cf80de00df0d0700df
:104e9c004f0478000080fa0000000600c6f93700c5
:104eac00e0f58000f1f58000d80d07004f04780084
:104ebc000080fa0000000600bff93700a0f5800062
:104ecc00b1f58000d10d07004f0478000080fa0086
:104edc0000000600b8f93700c0f680008000eb0037
:104eec00ca0d07004f0478000080fa00000006008d
:104efc00b1f93700f0be800001bf8000c30d070080
:104f0c004f0478000080fa0000000600aaf9370070
:104f1c0040f6800051f68000bc0d07004f0478006d
:104f2c000080fa0000000600a3f9370000f68000ac
:104f3c0011f68000b50d07004f0478000080fa00d0
:104f4c00000006009cf937000000fa000080fa000f
:104f5c00000006003600f800809fbe00829fbe0055
:104f6c00849fbe00869fbe00889fbe000000fa0092
:104f7c000068a900346ea80042128000481280001c
:104f8c004712800095f5800084be8000848f52000b
:104f9c0019003e0046012000110009000682d800cd
:104fac0093be80007e034300860bb80003034300ce
:104fbc004e11dd004644dd00020444004233dd00a6
:104fcc00a0fe220006034000c23bde0007044400a2
:104fdc0009002000160b440056934c00f38f500030
:104fec0064003200a6f48000e00f530058003a0031
:104ffc0076bb2000160888000402e80084be8800f6
:10500c00863e200005034300860f52000f0032003d
:10501c00346ea9000000000000000000f40f200016
:10502c004412880044128800441288000080fa0060
:10503c004f04be004f03be004f02be004f01be0026
:10504c004f00be003600f9000040060085be880007
:10505c00d237ef00a4f48000e00f520017003a00a2
:10506c00b4a92e0014088800a4be8000e30f5200df
:10507c00170032000402e800a4be8800346ea900b8
:10508c000000000000000000f40f20004412880013
:10509c0044128800441288000080fa004f04be00bd
:1050ac004f03be004f02be004f01be004f00be00ba
:1050bc003600f90000400600e4ff370074a122001e
:1050cc0014088800a4be8000e30f5200e9ff3a00e8
:1050dc0064fe2200e5ff200060f823005403be00ac
:1050ec00ce38dd004233de0006837000c23bde00aa
:1050fc00862a7800800f5200f8ff3a002068a90039
:10510c0020e8a90005e1a90011e1a900ae3eef00dd
:10511c00346ea9000000000000000000f40f200015
:10512c004412880044128800441288000080fa005f
:10513c004f04be004f03be004f02be004f01be0025
:10514c004f00be003600f90000400600bfff3700dc
:10515c00f6522700160888000402e80084be880076
:10516c00863e200005034300860f5200a8ff3a003c
:10517c00b6ff37008301e80093be8800a6f48000d8
:10518c00e00f530009003a0036bf200016088800d3
:10519c000402e80084be8800863e2000050343001c
:1051ac00860f52009aff3a00a8ff37007678270046
:1051bc00160888000402e80084be8800863e2000a1
:1051cc0005034300860f520091ff3a009fff370002
:1051dc00849fbe00861f78000000fa0000e8a9003a
:1051ec00448ea800448ea90094f48000e20f520073
:1051fc001600320064f58000344378008682fb0090
:10520c004515880064f58800344378008682fb00dd
:10521c004515880064f58800344378008682fb00cd
:10522c004515880064f58800b5a42100850f52004f
:10523c0002003600447f210064f588000080fa00eb
:10524c004f0378004f02be0000400600b4f480000b
:10525c00e10f52000200320064f58000f2ff3700cb
:10526c0004ea210014427800e04f5200faff3200a9
:10527c0094bf80000402e80094bf8800c5f480004d
:10528c00850f5200f4ff3900f237ef0064f580000f
:10529c00344378008682fb004515880064f588004d
:1052ac00344378008682fb004515880064f588003d
:1052bc00344378008682fb004515880064f588002d
:1052cc00d9ff37003600f800809fbe00829fbe00d9
:1052dc00849fbe00869fbe000000fa000108a90052
:1052ec0074f58000e00f520007003a0084f580004e
:1052fc00e00f520004003500b03eed0080f5800058
:10530c00e00f5000070032000080fa004f03be008f
:10531c004f02be004f01be004f00be003600f90028
:10532c0000400600a4f5070010002000b5f70700a8
:10533c000080fa004f03be004f02be004f01be00ba
:10534c004f00be003600f90000400600f5ff3700a4
:10535c003600f800809fbe00829fbe00849fbe0076
:10536c00869fbe000000fa000368a90084bf80007d
:10537c000402e80084bf8800e40f520046003200ab
:10538c0004ea210014427800e04f5200050032007c
:10539c0094f48000e20f520042003200e30f5200fe
:1053ac004800320071bf80008100e800441f2000db
:1053bc00110009008480d80071bf8800e08f500074
:1053cc001f003200f4f48000ea0f520019003e0076
:1053dc00e1f6800024032000110009008480d8002d
:1053ec00e1f68800e08f50000b003a00140020001a
:1053fc0014f5880024f5880044f58000e00f520075
:10540c0005003200a83eed0044f58000e00f52008c
:10541c0001003a0034f588000080fa004f03be000a
:10542c004f02be004f01be004f00be003600f90017
:10543c0000400600e1f680008100e800e5ff37003f
:10544c0025718000ce2ade008582ea00e1826200ae
:10545c00ce2add002471800004e0a1000502720058
:10546c0024718800a6f50700f4f48000f30f5200b5
:10547c0001003e009e3eec00f4f48000ea0f520066
:10548c00d0ff3a00146ea900b4002000f4f4880098
:10549c0014eea800cbff3700f037ef00ed14070037
:1054ac00b7ff37000cf6070004ea2100144278001d
:1054bc00e04f5200bbff320094f48000e30f520027
:1054cc00b8ff3a00b1f6070071bf80008100e80018
:1054dc00441f2000110009008480d80071bf88008f
:1054ec00e08f5000b7ff3a00d5ff37000000fa00fc
:1054fc00f40f20002426880004268800dc24ef000a
:10550c00f409200034268800142688009004a80092
:10551c0004e021004822de0074268800ca24a8007a
:10552c00cc24ef00ca24a9006022b8006033b80074
:10553c0004f0880015f0880026f0880037f0880009
:10554c0044f0880055f0880066f0880077f08800f9
:10555c0084f0880095f08800a6f08800b7f08800e9
:10556c00c4f08800d5f08800e6f08800f7f08800d9
:10557c00d400200004278800c064ab000400320073
:10558c008500200005268800c064ab00fdff3a00b2
:10559c00227eef002e7eef00f4e221001442780010
:1055ac002f7eef0004e3210014427800307eef00e0
:1055bc00caa4a90004e12100a4f188003a3eef003e
:1055cc003c3eef002a7eef00283eef000080fa0000
:1055dc00000006000000fa00e024ab000a003200d4
:1055ec00b4f18000144378008682fb0014439000d1
:1055fc004833dd000503730005082000850f5300b8
:10560c0005003200e024a9000408200004268800cc
:10561c000080fa0000000600a5f180001543780018
:10562c008683fb00154390004833dd0007037300ad
:10563c0045082000850f5300f2ff3a009442780091
:10564c00c5c8b300054a7800944290008042eb0034
:10565c0015429800e024a900ebff37000000fa0087
:10566c008a84a80004012000042688000001eb00b5
:10567c008000eb0050072000420f07000080fa006a
:10568c00000006000000fa000001eb008000eb00b7
:10569c00400720003b0f07008a84a900040120006a
:1056ac00442488000080fa00000006000000fa0084
:1056bc000042eb000440780041feb700a5f18000e9
:1056cc0015437800844a7800154390009442980062
:1056dc000530a200844a780094429800e4e221004c
:1056ec0014427800804f520011003d0015e3210058
:1056fc00954278008582fb0024e321001442780057
:10570c004822dd00050272000800320015e321007a
:10571c00954278008582fb0024e321001442780036
:10572c004822dd0005027200040001002efea900d3
:10573c000080fa00000006000200fa00a4e4210038
:10574c0014427800e14f52000b003200a4e4210017
:10575c0014427800e04f520005003a0084e4210026
:10576c00144278007f426200e24f52000d0032007a
:10577c000080fa000000060084e421001442780046
:10578c007f426200f1ff3a0022fea80094e421005f
:10579c0014427800e34f520042003200263eef00e4
:1057ac00eaff3700c4e42100144278006f42620023
:1057bc00efff320022fea800c4e42100144278005e
:1057cc00e04f520023003500c4e42100144278005d
:1057dc006f02620004024200a5e321000482420031
:1057ec00140f780094e4210014427800e34f520027
:1057fc002f003200c4e42100144278006f026200d2
:10580c0004024200054e2000050242001410a100c3
:10581c00c5e421009542780004c8b30004c26200bc
:10582c0014003a009e02780086c8b300864a7800bd
:10583c00944298001e34a2009e02780086ccb300dd
:10584c00864a7800944298000080fa000000060016
:10585c00c9ff3700c4e42100144278006f026200d3
:10586c000402420045e3210004824200140f780038
:10587c00dcff37009e0278000042eb00844a78007f
:10588c00944298001e34a2009e02780006c4b30015
:10589c00864a7800944298000080fa0000000600c6
:1058ac00b5ff37001400200034f18800a7ff370043
:1058bc001e02780045c8b300054a78008042eb0010
:1058cc00154298000080fa0000000600aaff37007d
:1058dc000000fa0085e421009542780004c8b3006a
:1058ec0084cf5200020032000080fa000000060053
:1058fc0000ccb30022feb700b4e4210014427800bf
:10590c00e24f520043003200e34f520006003200d7
:10591c00e14f52002b003200227eef000080fa0093
:10592c0000000600f2ff3700a4e4210014427800c6
:10593c00e34f5200f8ff3e00a4e42100144278002b
:10594c000482fb0004024200a59e2800048242004f
:10595c001402780005e2210095427800044078009a
:10596c0020feb7004822de0015e2210095427800a7
:10597c000440780021feb70005e221009542780032
:10598c008582fb0014e22100144278004822dd00dd
:10599c0005027200144278000482fb0035e22100fb
:1059ac00954278000440780023feb70044e22100c1
:1059bc0014427800247eef000080fa0000000600fc
:1059cc00cbff37006496280005e221009542780051
:1059dc000440780020feb7004822de0015e22100ca
:1059ec00954278000440780021feb70034e2210093
:1059fc001442780020c1b30023feb70044e221001a
:105a0c0014427800247eef000080fa0000000600ab
:105a1c00b7ff3700a4e42100144278000482fb0095
:105a2c0004024200859e2800048242001402780081
:105a3c0005e22100954278000440780020feb70072
:105a4c004822de0015e221009542780004407800df
:105a5c0021feb70005e22100954278008582fb000b
:105a6c0014e22100144278004822dd000502720085
:105a7c001402900035e22100954278000440780031
:105a8c0023feb7004822de0045e221009542780053
:105a9c000440780024feb7000080fa0000000600e5
:105aac0093ff37000000fa00507eef00517eef00ac
:105abc0084e42100144278007f026200e10f52005e
:105acc0031003200e20f52001c003200e00f520095
:105adc001300320024e2210014427800e04f5200ff
:105aec000d003d0004e5210005e2210095427800ff
:105afc000440780020feb7004822de0015e22100a9
:105b0c00954278000440780021feb700221ea800c0
:105b1c0020c0b30023feb7000080fa00000006008e
:105b2c0022fea800501ea80034f18000e10f5200a4
:105b3c00e8ff3a00503ea800e6ff370022fea8001e
:105b4c00c4e4210014427800e04f520010003500ec
:105b5c00c4e42100144278006f0262000402420087
:105b6c00a5e321000482420014027800144278005c
:105b7c000482fb0064026200d6ff320010c0b30046
:105b8c0050feb700d3ff370022fea800d1ff37002c
:105b9c00c4e42100144278006f0262000402420047
:105bac0045e321000482420014027800efff370025
:105bbc000000fa00c4f18000a44290008042eb0087
:105bcc0006c4b30026429800b4439000c6cfb3007d
:105bdc0006c363003642980086e42100c44390005b
:105bec00464298004833de00d44390005642980059
:105bfc0014437800c6c8b300064a780014439000da
:105c0c0015429800a4f180001443780046c8b300f4
:105c1c00064a780014439000154298000080fa0060
:105c2c00000006000000fa00a4f18000a4429000dd
:105c3c008042eb0025429800b4439000c6cfb300dd
:105c4c0006c36300364298001443780086ccb30038
