:020000040000fa
:080000000002040000000000f2
:020000040000fa
:100400008fc422000eff27000e01880000000000ac
:100410000c000700c0032400010020000f000700ab
:10042000000020000000e000020032000000020096
:10043000000000006e060200000000000040da002c
:100440000000fe00600a20000000e0000200320010
:10045000002020009001880000000600a102880012
:10046000800078000000eb001a003700e2804000b6
:1004700054a0b4009101ba00e280400054a0b4003e
:100480009102ba00e280400054a0b4000002eb00e8
:10049000472bde00f507b200a6018800602ce100c2
:1004a00008003a000049eb000201e80002003900b0
:1004b0003420ec0002f0a0008301e900f9ff3e00c7
:1004c000040037006128e100010032000082eb00e7
:1004d000040007001101ba000200e000e3ff3a0047
:1004e0000000060004d0a300e20f49001c00390000
:1004f000810278003549ba000201e80002003900a3
:100500003420ec0002f0a0008301e9000f0032006b
:100510002549ba000201e800020039003420ec004d
:1005200002f0a0008301e900080032000400e000ae
:100530000600320015c9ba000201e80002003900c5
:100540003420ec0002f0a0008301e9008180e80083
:1005500054a0b4000300e000e2ff3a0000000600ef
:100560009102ba00055978008301e900f7ff3200d3
:10057000c82ade00055978008301e900f3ff320044
:100580000400e000f1ff320011d9ba00eeff37009d
:1005900014110400000000003611040000000000e7
:1005a0005c11040000000000620f04000000000065
:1005b000840f040000000000a60f040000000000eb
:1005c000f40f0400000000000a1004000000000006
:1005d0001c100400000000006e1004000000000069
:1005e0009010040000000000bc1004000000000097
:1005f0009c10040000000000d41004000000000063
:10060000f810040000000000163b04000000000089
:10061000003b0400000000007a3b040000000000e2
:100620000040da000000fe00839f68000100e00047
:1006300002003d0060001000e08018000300e000b0
:1006400002003d0060011100e08119000500070073
:100650004f00e00002003b0060001000e080180046
:10066000000006006022b800060220000000d00052
:100670008180d2000482d2008582d2000000a000d6
:100680000202520083825a0003003100020242003b
:1006900083824a000000a1000603e900f3ff3a004c
:1006a00000000600020ab900001bb9000200b800f1
:0c06b000810042008100430000000600b1
:020000040000fa
:020000040002f8
:040ffc000000fe00f3
:020000040000fa
:020000040002f8
:10100000fa874700889fbe008a9fbe008c9fbe0063
:101010008e1f7800121020000281fb0003002000c8
:10102000c011dd000200200000002100000041008e
:10103000e08049004009de0003002000a202880091
:101040009001ba001081ba0000202000808f51006a
:1010500002003a00e44f5100010032000000fe009f
:10106000f30f20001010200003006000010020009a
:10107000c000dd000000200002002100020240004c
:10108000e0824800101020000300600001002000f2
:10109000c000dd00000020000280200002004000af
:1010a000e0804800800f5200818f5a000300310019
:1010b00084b79f0095b79f000200370080b79f005c
:1010c00091b79f006044b80010102000f0b79f0057
:1010d0000100210081bf9f006101b800b2b79f00ed
:1010e000c3b79f008280fb00000020000fb997006b
:1010f00002004000e0804800d0b79f00e1b79f00a9
:10110000720037005fb09700efb09700080640000c
:10111000898648008c017800f8af9f0008017800ac
:101120004fb79700406dde000b002000404bde0003
:1011300007002000a6b79f00aa0288009300ba000b
:101140009382ba00a60288001200ba001282ba0086
:10115000808f500009003a00848f520007003a0047
:101160000e87e8008381e8000281e800018020000a
:10117000810f570051003200efff3700300024008c
:10118000403988002fb1970062398800ffa9970085
:101190005339880042c0bf000080fb00c500de005c
:1011a00000ceb3004260b7000700fc0050052000ed
:1011b00070398800a00a20007039880029e7a8004b
:1011c00000000000000000002947e200feff35009b
:1011d000c508dd0042c0bf007f40600001407000d4
:1011e00042e0b7000802be006055b8002e0024009f
:1011f0000a0378004028de000100200060398800e2
:10120000543988008003eb0006004600e0804e0061
:101210004009de0003002000a20288001001ba008d
:101220001080ba00a30f2000a3028800820bbb002d
:10123000808bbb000683e8008783e8000010200055
:10124000808f5300f0ff3a004e39880042c0bf0043
:101250000080fb00c500de0000ceb3004260b70096
:101260000700fc005005200070398800a00a20000b
:101270007039880029e7a800000000000000000085
:101280002947e200feff3500c508dd0042c0bf006f
:101290007f4060000140700042e0b7000410b000e1
:1012a0000580b0000a10b0000b80b0000180200063
:1012b000810f5500e08f5d00cdff3a0000802000d7
:1012c0000100200008044000898448000fb1970005
:1012d0009fb19700820f5400838f5c0089ff390013
:1012e000efe997000380fb0001002000c000dd0053
:1012f000000020000fb9970002004000e080480085
:10130000d0af9f00e1af9f006044b80010102000f4
:101310006105b8008a80fb00000020000200210067
:1013200002064000e086480031003700080246000f
:1013300089824e004028de000100200080037800f2
:10134000a00288000401be000b0378000e8020007c
:101350001200ba009280ba00e10f400008003a0083
:10136000e18f400006003a000683e8006201410078
:10137000e08149008e0f530019003200f4ff37005e
:1013800033002400433988006739880054398800c5
:1013900042c0bf000080fb00c500de0000ceb300ed
:1013a0004260b7000700fc0050052000703988003b
:1013b000a00a20007039880029e7a800000000007a
:1013c000000000002947e200feff3500c508dd00ef
:1013d00042c0bf007f4060000140700042e0b700a3
:1013e000008020000100200008044000898448009b
:1013f0005fa89700efa89700800f5400818f5c00d2
:10140000caff39000000fe004f0778004f06be00fb
:101410004f05be004f04be00af01b1000000060042
:020000040000fa
:020000040040ba
:08000000010000000f000000e8
:020000040000fa
:0200000401f009
:04000800cfff000026
:020000040000fa
:0200000401f009
:04000c0078ff000079
:020000040000fa
:0200000401f009
:0400100058ff000095
:020000040000fa
:0200000401f009
:040014007fff00006a
:020000040000fa
:0200000401f009
:04001800ffff0000e6
:020000040000fa
:0200000401f009
:04001c00dfff000002
:020000040000fa
:0200000401f009
:04002000cfff00000e
:020000040000fa
:0200000401f009
:0400240000000000d8
:020000040000fa
:10000800100300001003000010030000100300009c
:10001800100300001003000010030000100300008c
:100028001003000010030000100300009a070000ee
:10003800020c00001003000010030000ae080000ce
:10004800100300001003000010030000ae2b000096
:10005800802c0000100300001003000010030000b3
:10006800100300001003000010030000100300003c
:10007800100300001003000010030000100300002c
:100088001003000010030000100300008c1d000086
:100098001003000010030000f22c0000c42d000023
:1000a80010030000100300001003000010030000fc
:1000b80010030000100300001003000010030000ec
:1000c80010030000100300001003000010030000dc
:1000d80010030000100300001003000010030000cc
:1000e80010030000100300001003000010030000bc
:1000f80010030000100300001003000010030000ac
:10010800100300001003000010030000100300009b
:10011800100300001003000010030000100300008b
:10012800100300009a2b0000de2c000010030000d2
:10013800100300001003000010030000100300006b
:10014800100300001003000010030000100300005b
:10015800100300001003000010030000100300004b
:1001680010030000242e0000382e00000a2f000083
:100178001003000010030000f02900009231000075
:10018800a6310000783200001003000010030000c0
:10019800100300001003000010030000100300000b
:1001a80010030000100300001003000010030000fb
:1001b80010030000100300001003000010030000eb
:1001c80010030000100300001003000010030000db
:1001d80010030000100300001003000010030000cb
:1001e80010030000100300001003000010030000bb
:1001f80010030000100300001003000010030000ab
:10020800100300001003000010030000100300009a
:10021800100300001003000010030000100300008a
:10022800100300001003000010030000100300007a
:10023800100300001003000010030000100300006a
:10024800100300001003000010030000100300005a
:10025800100300001003000010030000100300004a
:020000040000fa
:1006bc00a683000068830000ac1b0000a01b000098
:1006cc00aa8300003e0300004d00000075000000ee
:1006dc006c000000740000006900000020000000a5
:1006ec004300000068000000610000006e00000084
:1006fc006e000000650000006c000000200000008f
:10070c00530000007900000073000000740000002a
:10071c00650000006d000000730000002000000068
:10072c004d000000430000005300000020000000ba
:10073c00470000006d00000062000000480000004f
:10074c00040300000904000009020000120000006c
:10075c000101000000c0000032090000040000008c
:10076c0000000000000000000000000050490000e4
:10077c00430000004d6300007342000075730000dd
:10078c003100000042750000733100004d63000021
:10079c0073420000757300003100000050490000e6
:1007ac0043320000004400005350000000410000a0
:1007bc006c7400006572000061000000465000007f
:1007cc004741000032000000465000004741000045
:1007dc003300000046500000474100003400000088
:1007ec00ffff0000ffff0000ffff0000ffff000005
:0c07fc0052650000763000000000000094
:020000040000fa
:1008080044c7bf0001ceb300014060000014a0003f
:1008180044e7b700e0042000303a880044c7bf002e
:10082800f043b2000064a00044e7b7003074200031
:1008380081c7b300a2c9b30033c0b3000148780030
:1008480002487800034878002074200061c4b3008f
:1008580072c5b30013c0b30001487800024878009d
:100868000348780070c0b3005a67b70058c7bf0084
:1008780081cfb300014060003040b30058e7b700b3
:1008880058c7bf007f40600001ccb3000140700032
:1008980058e7b7005927a9005947a80059a7a80041
:1008a80059e7a80059c7bf000068a300fdff320040
:1008b80021e3a9002183a8002143a80020c3bf0089
:1008c8007f4060000064a00020e3b7002043a80038
:1008d8002343a80022c3bf0031c8b3000140600011
:1008e800c040b30022e3b70025e3a90025c3bf0039
:1008f80002ceb3000240600025e3b700b0c0b300e9
:1009080024e3b7003303a80032c3bf0084cfb30089
:100918000440600032e3b70070002000f0708800e7
:100928002e2eef003e2eef004e2eef006e2eef0023
:100938002e23ef00700021008019880021e3a80011
:1009480001eba90001cba90001aba900018ba9000b
:10095800016ba90000cbbf00f1ccb30001406000df
:1009680000ebb70000cbbf00c5cfb3000540600067
:1009780000ebb7000030200060588800f00320002a
:1009880070588800e04f210020588800062bef009f
:10099800d00020001058880001eba80042c8bf0012
:1009a800044060000024a00042e8b7002088a800a6
:1009b80025cea90021cea90044aea90040aea900c9
:1009c80005e1a80004c1bf00014060000054a00078
:1009d80004e1b700908621001008880011e1a80002
:1009e800f0c329006008880013e1a800f063200024
:1009f800700888001fe1a8001ec1bf000140600008
:100a08000044a0001ee1b700301f2000d008880075
:100a18008bc6bf00efc05000014060000044a0003a
:100a28008be6b700c0c1b3000169b70000c9bf00b9
:100a3800044060006040b30000e9b70002c9bf008d
:100a4800024060000004a00002e9b7000002200094
:100a5800304888001004200020488800c4c6bf0021
:100a680002c8b300024060001044b300c4e6b700f7
:100a780083c6bf00014060000004a00083e6b70001
:100a880082c6bf00014060000014a00082e6b700e3
:100a98002162a80021c2bf00054060000004a00038
:100aa80021e2b7002062a80013002000431188004b
:100ab80021e2a8002342a800c6c6bf000240600089
:100ac8004044b300c6e6b70086c6bf0001406000d8
:100ad8003040b30086e6b7003162a80031c2bf00db
:100ae800054060000004a00031e2b7003062a800b1
:100af800e0002000c011880031e2a8003342a800bd
:100b0800d6c6bf00024060001046b300d6e6b70064
:100b18008ac6bf0001406000b041b3008ae6b70052
:100b280089c6bf0001406000c041b30089e6b70034
:100b38005162a80051c2bf00054060000004a00037
:100b480051e2b7005062a800c312880051e2a80021
:100b58005342a800d8c6bf00024060005046b30008
:100b6800d8e6b70092c6bf0001406000d041b3008c
:100b780092e6b700b162a800b1c2bf0005406000ac
:100b88000004a000b1e2b700b062a800c315880055
:100b9800b1e2a800b342a80041c8bf00f1c8b30041
:100ba800014060000044a00041e8b7000068a900c7
:100bb8002068a80043c8bf00014060000043b3009c
:100bc80043e8b70000e8a90020e8a8004dc8bf0026
:100bd800014060000054a0004de8b7000368a90078
:100be80045c8bf00014060000046b30045e8b700b3
:100bf8000168a8002168a80046c8bf00044060003a
:100c08006040b30046e8b70060c8bf00014060001c
:100c18000046b30060e8b7002828a8004fc8bf0006
:100c2800044060006040b3004fe8b70003c8a80064
:100c380023c8a8004fc8bf00014060000046b300a9
:100c48004fe8b70061c8bf00044060006040b300cf
:100c580061e8b7002848a80069c8bf0004406000e0
:100c68006040b30069e8b7000a48a8002a48a8000d
:100c780069c8bf00014060000046b30069e8b700da
:100c880068c8bf00014060000046b30068e8b700cc
:100c98002a28a8006cc8bf00044060006040b30068
:100ca8006ce8b7000b08a8002b08a8006cc8bf00a8
:100cb800014060000046b3006ce8b7006bc8bf0095
:100cc800014060000046b3006be8b7002ae8a800be
:100cd80000000600e6874700889fbe008a9fbe0086
:100ce8008c9fbe008e1f7800c5fe070028102000cc
:100cf800090020008881fb0002002000000022007b
:100d080000004100e08049000200220003002000aa
:100d1800311c070080b5210080bf9f00a26a210016
:100d2800f2b79f00aeb421006db421002cb42100ad
:100d3800ebb321006ab321000fb897001001be0081
:100d480009407800511c07000fb997000099be00b0
:100d580082bf9f007fb09700104178000281fb009e
:100d68000300200009c0e800481c07007fb1970075
:100d780000597800f2b79f001e017800cf91de007d
:100d880066c04400411c0700001f78001d01780060
:100d9800cf91de0068c044003c1c0700801e78002c
:100da8001c017800030020006ac04400371c0700bb
:100db800001e78001b017800030020006cc044006e
:100dc800321c0700801d78001a017800cf91de00e0
:100dd8006ec044002d1c0700001d78008904e8003f
:100de800e28f5400d4ff3a00ab76ef00c2da8000fd
:100df800d0da80000200a1008002780002027800a8
:100e08000400be00c0da8800d1da88005c1ba800a4
:100e1800b2da8000cf91de0040c1b3001b1c07008e
:100e2800b0da88003812070048ab21000000400003
:100e3800080040000008eb00d61207000000400040
:100e48000800400011002000010878007313070013
:100e580000004000080040000008eb0012140700e2
:100e680000004000080040000008eb00c91207001d
:100e780000004000c1aa21000100400081002000bc
:100e880001087800a0c0b300aafab7004c190700ff
:100e9800e2170700e00f5000e08f5800040032000e
:100ea80000ceb3004260b700000802000100000055
:100eb800c40b07000140fe00feff3700881f7800c2
:100ec800e0d9800001002000b8da80000800e000c6
:100ed800050032004206200003002000effd070055
:100ee8006141b900cefd0700d6d980006132b80053
:100ef800840f5000858f580001003c000002be009e
:100f080060011200e0811a006130b900800f5100c1
:100f1800818f5900020034000600ea006102b9001e
:100f2800a4d988004f047800000006003600f800b5
:100f3800809fbe00829fbe00849fbe00869fbe0029
:100f4800889fbe008a9fbe008c9fbe008e1f7800bf
:100f5800e68747000068a90081a680008100e800b4
:100f680081a6880020032000808f50000c003a00e2
:100f780025cebf004600de0000c0ea0061406000e8
:100f88004600dd0051e22000914078000164a10094
:100f980080c070000100780025eeb700d034ef0063
:100fa800e0a780000000e000340032000000e90003
:100fb800e0a7880031003a008004780080b521005d
:100fc800f0bf9f00a16a2100e1bf9f00aeb42100dd
:100fd8006db421002cb42100ebb321006ab32100c9
:100fe8007fb897003001be00f0bf9f00094078002d
:100ff800b11b0700efb8970031417800e1bf9f00af
:101008000281fb000300200009c0e800aa1b0700ba
:101018003e017800cf91de0066c04400a61b0700a1
:101028003d017800cf91de0068c04400a21b070094
:101038003c017800030020006ac044009e1b0700a2
:101048003b017800030020006cc044009a1b070095
:101058003a017800cf91de006ec04400961b07006d
:101068008904e800e28f5400ddff3a00b2da80001c
:10107800cf91de0040c1b3008f1b070020db80004a
:101088000000e000280032000004e90028db8800a6
:10109800e10f540021003a0083130700017e21006c
:1010a800811f7800a1002000811f78008003eb00d9
:1010b8000803780088027800240020008001eb00f3
:1010c8000401780083007800c613070000bf800081
:1010d800d0d9880074130700017e2100811f780091
:1010e800a1002000811f78008003eb00080378002e
:1010f8008802780024002000880178000401780024
:101108008000eb00b713070000bf8000e0d988001b
:101118006aff07002368a800e8875700641be200fd
:1011280001003a00f70e07006f00b1004f07780082
:101138004f06be004f05be004f04be004f03be0061
:101148004f02be004f01be004f00be003600f9003e
:10115800004006003600f800809fbe00829fbe0057
:10116800849fbe00869fbe0000e8a9000515070001
:10117800301be20001003200303bed002e1be20084
:10118800010032002e3bed004f03be004f02be00af
:101198004f01be004f00be003600f90000400600b7
:1011a80041130700017e2100811f780051002000b3
:1011b800811f78008003eb00160020008002eb00fe
:1011c8000502780085017800c20020000101200096
:1011d80084130700e4875700000006003213070055
:1011e800017e2100811f780051002000811f7800b6
:1011f8008003eb00160020008602780024002000ff
:101208008001eb00a20020000101200075130700f7
:1012180001bf8000e48757000004e00001003200ad
:101228001100200001007800000006000400fa0008
:10123800889fbe008004fb00d1bf9f000104780096
:101248000100e0004d003a0017130700017e21005d
:10125800811f780057002000688357001500200080
:10126800080278002300200009017800810020008e
:1012780018140700804078000400fc00007d20005e
:1012880080d988008f87e90015003700061307000a
:10129800017e2100811f7800570020000003eb0029
:1012a80015002000050278002300200009017800bd
:1012b80001052000071407008040780000bf800067
:1012c800c0bf9f008f87e9000000e00008003200df
:1012d8002003200070d988002e1be200feff3a0090
:1012e8000104e00002003a00301be200e7ff3a0088
:1012f8000400fc001800200088d988000104e000e0
:101308004d003a0000102000c0bf9f00e612070001
:10131800017e2100811f7800570020006a83570052
:10132800880278000002eb00230020000901780001
:1013380081032000e7130700804078008f87e900c9
:101348000004e0003c003a000000eb00c0bf9f0032
:10135800d5120700017e2100811f78005700200068
:101368006a835700880278000002eb0023002000ff
:1013780009017800840078002c003700180020004c
:10138800c8bf9f00c8120700017e2100811f780096
:10139800570020006a835700880278000002eb009b
:1013a800230020000901780084007800c913070091
:1013b800804078008f87e9000004e0001e003a00b2
:1013c80010102000c0bf9f00b7120700017e210047
:1013d800811f7800570020006a8357008802780030
:1013e8000002eb002300200009017800810320009f
:1013f800b8130700804078008f87e9000004e000f8
:101408000d003a00a8120700017e2100811f780014
:101418005700200068835700880278000002eb001c
:10142800230020000901780081002000a91307008b
:10143800804078008f87e9000180fb004f04be00e0
:101448000080fa00000006002000fa00889fbe0015
:1014580000fe2f00008447001870a100a0c4b3004c
:1014680090e79f0030c3200090b79f008004eb00f6
:101478002904980040002000b0b79f0090d9800050
:1014880001002000e0af9f00f1af9f00411107006d
:10149800c6fd2f000f034300a500200008027800b6
:1014a800894178007881570021c0b3000d130700e7
:1014b8004f04be000080fa00000006002000fa0079
:1014c800881f78007e8457001870a100a1c4b3005b
:1014d800b1e79f0041c02000a1b79f0020049800f9
:1014e80041002000c1b79f004200dd0081b5210006
:1014f80001004000100078006e006000010020002c
:101508008100d1000080d300f0af9f0081b79f0019
:1015180020110700e6fd2f000f034300a50020005f
:10152800080278008041eb007681570021c0b300a3
:10153800ec1207004f0478000080fa000000060053
:101548002000fa00881f78007e8457001870a100d8
:10155800a1c4b300b1e79f0001c12000a1b79f005b
:101568002004980041002000c1b79f0000004000ff
:1015780021b521000100400010007800cf80de0076
:10158800f0af9f0081b79f0002110700e6fd2f0012
:101598000f034300a5002000080278008041eb00fb
:1015a8007681570021c0b300ce1207004f0478009f
:1015b8000080fa00000006002000fa00881f78006a
:1015c8007e8457001870a100a1c4b300b1e79f0042
:1015d80031c12000a1b79f002004980041002000dd
:1015e800c1b79f0000004000e1b4210001004000a5
:1015f80010007800cf80de00f0af9f0081b79f0019
:10160800e4100700e6fd2f000f034300a5002000ab
:10161800080278008041eb007681570021c0b300b2
:10162800b01207004f0478000080fa00000006009e
:101638001e00fa00889fbe0001fe2f0001844700ab
:101648001870a100a1c4b30091e79f0041c1200018
:1016580011049800a0b79f0029002000b9b79f0087
:101668000000400061b32100010040001000780034
:10167800f0af9f00c7100700e6fd2f000f034300df
:10168800a5002000080278008041eb00788157000f
:1016980089407800931207004f04be000080fa00ca
:1016a800000006002000fa00881f78007e8457009a
:1016b8001870a100a1c4b300b1e79f0011c12000b8
:1016c800a1b79f002004980041002000c1b79f00e7
:1016d80000004000a1b42100810040009100780082
:1016e800f1af9f0061b421000100400010007800b4
:1016f80080b79f00a7100700e6fd2f000f034300e7
:10170800a5002000080278008041eb007681570090
:1017180021c0b300731207004f0478000080fa005c
:1017280000000600889fbe008a9fbe00b0da8000d5
:101738006105b90050da8000cf80de000a01be00e2
:10174800d6fb07004206200003002000b4fb070078
:101758000004be0030da8000cf80de000a01be003f
:10176800cefb07004206200003002000acfb070068
:101778000001be00e6d980006130b800800f540037
:10178800818f5c00010034000004be00800f51000e
:10179800818f5900010034000001be006132b90098
:1017a80060001400e0801c00840f5000858f5800f2
:1017b800020034000600ea006104b900600011006c
:1017c800e0801900840f5000858f58000200340013
:1017d8000600ea006101b90068da880042da880088
:1017e800803e2000e0a7880010002000adff070021
:1017f8004f05be004f04be0000000600809fbe00db
:10180800829fbe00849fbe00869fbe00881f78000e
:101818003200f8000020200090018800000000003d
:1018280044aea8000001eb000203780082037800b0
:1018380001502100035821001101410071b897009f
:10184800000343001100900080834300e8804000bb
:10185800838f5000f8ff3a002c1be200160032007c
:101868002c3bef006110b800c808dd000080fd00c7
:10187800804078000040eb00a0a78800b1a788004e
:101888006130b800c808dd000080fd0080407800a5
:101898000040eb00c0a78800d1a788006138b800d5
:1018a800c808dd000080fd00804078000040eb00a3
:1018b80080a7880091a78800a4a78000b5a780000a
:1018c8006110b8004609dd00ca00de008100710021
:1018d8004600dd004e2cdd004221de0002017400ce
:1018e800c229de0002005000838058000400400036
:1018f80085804800a0a78800b1a78800c4a78000f9
:10190800d5a780006130b8004609dd00ca00de00b6
:10191800810071004600dd004e2bdd004221de0013
:1019280002017300c229de000200500083805800c3
:101938000400400085804800c0a78800d1a788001f
:1019480084a7800095a780006138b800460cdd00a8
:10195800ca00de00810074004600dd004e2bdd0069
:101968004221de0002017300c229de00020050009d
:1019780083805800040040008580480080a78800c4
:1019880091a7880044aea9000088a9003200f90098
:101998004f0478004f03be004f02be004f01be0047
:1019a8004f00be0000400600020e20000300200089
:1019b80080a7800091a7800038fb07004109dd005f
:1019c8004f00de0000007100cf08de0000000600b6
:1019d80001002000c001dd0002002000504c210061
:1019e800010020000200400083804800a2982200e5
:1019f8000300200019fb3700a298220003002000f2
:101a080026fb070002002800030020000000410018
:101a1800818049004008de0000000600881f780029
:101a28000004780020110700017e2100811f780042
:101a3800a1002000811f78008003eb001600200021
:101a48008602780024002000880178000204200023
:101a58008000eb00631107000080fb00e48757005b
:101a68004f047800000006000200fa00881f780082
:101a780000047800e1bf9f000b110700017e2100e0
:101a8800811f7800a1002000811f7800e88357009b
:101a9800160020008002eb00240020008801780056
:101aa80002042000850078004e1107000080fb002a
:101ab800e48757004f0478000080fa000000060011
:101ac800e101600003824100a0b321000000420050
:101ad80010017800828f50000100360082007800e3
:101ae8000100ea00820f5000010034008200ea0081
:101af80060b321000000420001087800030078006c
:101b0800cbfe070000000500881f78006104600014
:101b18005c9bab001b003200f00f20000800e000c7
:101b280035003a00a3d98000838f500001003400ab
:101b3800830078000100ea00830f500001003400a0
:101b48008300ea00830f510001003400030178008c
:101b58000200ea00830f5000010034000301ea008c
:101b680051da880032da880008007800cdfe0700d4
:101b7800ecfe0700803e2000e0a7880008007800ff
:101b88001d00370008024400a0b3210000004200f5
:101b980090017800838f50000100360083007800a0
:101ba8000100ea00830f5000010034008300ea00be
:101bb800830f510001003600030178000200ea009b
:101bc800830f5000010034000301ea00a0b4210093
:101bd800000042000108780060b4210000004200c3
:101be8000208780008007800aefe0700803e20005a
:101bf800e0a788000000eb004f0478000000060012
:101c0800b0da8800adfc070032da800051da8000d3
:101c18000000eb00bcff070042da800061da8000b8
:101c280010002000b8ff3700881f78008a9fbe0088
:101c3800610460004240dd0081b5210001004000e0
:101c48001005be000288be00e10f540024003a00cf
:101c58005c9bab00090032007000650007003a0089
:101c680032da800051da8000a7ff070042da8000ec
:101c780061da800008007800a3ff07005c1bab0056
:101c880017003a000a08a30015003200c2da8000e3
:101c98006e016100030020008301d1000281d3009e
:101ca80011002000e40020000500200010002000a2
:101cb800100007001000200000fe070090da8000e6
:101cc800a0da8800100020001dfe0700541be20067
:101cd80003003a00503bef001000200036fe0700da
:101ce800803e2000e0a788004f05be004f04780022
:101cf80000000600889fbe008100e9000300330051
:101d08000201410083814900fbff370002036200a2
:101d18008380620081047800060478000801be0010
:101d28004203dd0081b52100010343000482ea007b
:101d38008582ea00960090001603620085806000a4
:101d480081047800060478000802be0004017100ce
:101d580085817100b4ff07004f04be000000060033
:101d68000200fa00889fbe00d1bf9f00e104600016
:101d78004d100700017e2100811f7800a10020007e
:101d8800811f7800ea835700160020008002eb00cc
:101d9800240020008901780004017800850078007b
:101da8009010070000447800e48757000004e00022
:101db8000f003a003c100700017e2100811f7800c7
:101dc800a1002000811f7800ea8357001600200038
:101dd8008002eb00240020008901780004017800cb
:101de800010820007f10070000447800e4875700ae
:101df80009804400a1b3210001004000dfb897002a
:101e0800010878002dfc070032da800051da8000e2
:101e18000000eb003cff070042da800061da800036
:101e28001000200038ff07000880fb004f04be00a8
:101e38000080fa0000000600889fbe008a1f780014
:101e48000205780061006000220120008a8f50009e
:101e58000e003e0080044000e8b3210008844400de
:101e680001007800dafe0700000c780020b4210099
:101e7800808444000a007800d5fe0700800c7800b2
:101e8800803e2000e0a788000001eb0002007800f7
:101e98004f0578004f04be0000000600bd0e070085
:101ea800e6572100a500200064a521008041eb0031
:101eb800c26a210021c0b3008a103700a1a5210001
:101ec800914078008180fb005bdabf004800dd00ac
:101ed80001007000f1ab8000a1ff07000081fb004a
:101ee8000300200002db880013db88000004e00008
:101ef80002003a0080faa800e8ff07000000060088
:101f0800a1a52100914078008180fb005bdabf0029
:101f18004800dd0001007000f1ab8000d2fe070030
:101f28000081fb000300200002db880013db88002f
:101f38000004e00002003a0080faa800d7ff07007a
:101f480000000600a1a52100914078008180fb00d7
:101f58005bdabf004800dd000100700011002000be
:101f6800e400200005002000f2ab800003ac8000f4
:101f780060ff07005c1bab0017003a00a1a5210019
:101f8800914078008180fb005bdabf004800dd00eb
:101f9800010070000080ea0061006000110020006c
:101fa800e400200005002000f2ab800003ac8000b4
:101fb80050ff0700a1a52100914078008180fb0017
:101fc8005bdabf004800dd00010070000080ea0015
:101fd8006100600039fd070080faa800afff3700f4
:101fe800f2ab800003ac80000281ea008381ea0042
:101ff8008000eb00140020000500200010002000e5
:102008003cff070080faa800a4ff37004100200029
:102018000401200005002000f2ab800003ac800022
:102028001000200033ff070080faa8009bff37004c
:10203800889fbe008a9fbe00e95721009944780016
:102048005adabf00b1a52100914078006104600010
:102058008985fb008800440020b5210000804000ed
:102068000b0878000904e00004003a00e0b42100fd
:10207800008040000008eb000100370048fc070022
:102088005c1bab000e003a000800a20008054400e3
:1020980020b52100000045000b08780008007800f2
:1020a80027fd07000904e00005003a00e0b421001c
:1020b800000045000008eb00080078003efd07001e
:1020c80080faa80075ff07004f05be004f04be0048
:1020d80000000600a1a52100914078008180fb0046
:1020e8005bdabf004800dd000100700002ac800030
:1020f800f1ab800084fe07000081fb000300200094
:1021080002db880013db88000004e00001003a00cd
:1021180080faa80000000600f0ab8000b8fe0700b7
:10212800803e2000e0a7880080faa8005bff370007
:10213800a1a52100914078008180fb005bdabf00f7
:102148004800dd0001007000f1ab80005cfe070074
:102158000081fb000300200002db880013db8800fd
:102168000004e00001003a0080faa8000000060020
:10217800a1a52100914078005bdabf00e1806000f2
:1021880081804000e0b42100808040007ed5bf00ff
:102198000080fb008008780080faa8003fff370025
:1021a800a1a52100914078008180fb005bdabf0087
:1021b8004800dd000100700002ac8000f1ab800037
:1021c8001dff07000081fb000300200002db8800e0
:1021d80013db88000004e00002003a0080faa8003f
:1021e8002eff0700000006005adabf00b1a5210043
:1021f8009140780061006000a16a21000100400060
:10220800811f7800e157210011487800cf0078003d
:10221800803e2000e0a7880080faa8001fff370052
:1022280070a78000e657210055a7800064a521000b
:102238008041eb00c26a2100c14e21009140780024
:10224800a80f07000081fb000300200002db8800c4
:1022580013db88000004e00001003a0080faa800bf
:102268000000060081a521009140780059dabf00de
:10227800efc0600070a78000e6572100a50020008d
:1022880064a521008041eb00c26a2100950f070078
:102298000081fb000300200002db880013db8800bc
:1022a8000004e00001003a0080faa80000000600df
:1022b80058dabf000080fb0092a521001241780087
:1022c8004811dd000001710070a78000a400200003
:1022d800e3572100c16a2100ce0f07000081fb00ef
:1022e8000300200002db880013db88000004e00004
:1022f80001003a0080faa80000000600e657210015
:102308008202780064a5210013c0b300c26a2100cc
:10231800740f07000080fb000100200000db88002c
:1023280011db88000000ea004f00de0061001000a9
:1023380000000600565ae2001b003d00efff0700b0
:102348000000e00042003200c06a2100c1a821005c
:10235800914078008cfab7004800de00d1a821002f
:10236800914078008dfab7008e1aa800c1a5210007
:10237800914078008180fb005ddabf004800dd00f5
:1023880001007000f1a82100914078008ffab70091
:102398004800de0001a921009140780090fab700ba
:1023a8008efaa8000000060070a788000180fb00d4
:1023b80060a7880052a78800c1a521009140780035
:1023c8008180fb005ddabf004800dd00010070007d
:1023d80001003a0092ff3700e0572100e1a72100f1
:1023e800914078007efab7004800de00f1a721008e
:1023f800914078007ffab700c1a52100914078008c
:102408008180fb005ddabf004800dd00010070003c
:1024180011a821009140780081fab7004800de0039
:1024280021a821009140780082fab70080faa8001c
:102438004011210031a821009140780083fab700ab
:102448004800de0041a821009140780084fab700d6
:102458000000060080037800565ae20029003d007b
:1024680081a521009140780059dabf00efc06000d3
:10247800e6572100a500200064a5210013c0b30081
:10248800c26a210007007800160f07000081fb00d0
:102498000300200002db880013db88000004e00052
:1024a8003f003a00c06a2100c1a82100914078008d
:1024b8008cfab7004800de00d1a8210091407800ce
:1024c8008dfab7008e1aa800c1a5210091407800a6
:1024d8008180fb005ddabf004800dd00010070006c
:1024e800f1a82100914078008ffab7004800de007b
:1024f80001a921009140780090fab7008efaa8004f
:102508000000060070a78800c1a52100914078004e
:102518008180fb005ddabf004800dd00010070002b
:1025280001003a004fff3700e0572100e1a72100e2
:10253800914078007efab7004800de00f1a721003c
:10254800914078007ffab700c1a52100914078003a
:102558008180fb005ddabf004800dd0001007000eb
:1025680011a821009140780081fab7004800de00e8
:1025780021a821009140780082fab70080faa800cb
:102588006013210031a821009140780083fab70038
:102598004800de0041a821009140780084fab70085
:1025a8000000060080027800565ae20029003d002b
:1025b80058dabf000080fb0092a521001241780084
:1025c8004811dd0000017100a4002000e35721003c
:1025d800c16a2100050078000e0f07000081fb008a
:1025e8000300200002db880013db88000004e00001
:1025f8003f003a00c06a2100c1a82100914078003c
:102608008cfab7004800de00d1a82100914078007c
:102618008dfab7008e1aa800c1a521009140780054
:102628008180fb005ddabf004800dd00010070001a
:10263800f1a82100914078008ffab7004800de0029
:1026480001a921009140780090fab7008efaa800fd
:102658000000060070a78800c1a5210091407800fd
:102668008180fb005ddabf004800dd0001007000da
:1026780001003a000eff3700e0572100e1a72100d2
:10268800914078007efab7004800de00f1a72100eb
:10269800914078007ffab700c1a5210091407800e9
:1026a8008180fb005ddabf004800dd00010070009a
:1026b80011a821009140780081fab7004800de0097
:1026c80021a821009140780082fab70080faa8007a
:1026d800c015210031a821009140780083fab70085
:1026e8004800de0041a821009140780084fab70034
:1026f8000000060000000600889fbe0080047800e5
:10270800a40c0700cf0b070000047800b00190006c
:10271800c0c0b30030449800680144008000eb005a
:102728000300370001804400105978008100e80058
:10273800838f5000fbff3900960c070068034400a4
:10274800a5002000080278008041eb0082bc21002f
:1027580021c0b300630e07004f04be00000006004e
:102768008c0c0700e64d2100a5002000644d2100d7
:102778008041eb0082bc210021c0b300590e370014
:1027880071a521009140780010c5b30080cf50009a
:1027980010003e000040e90080cf500019003100d1
:1027a8006c40500080cf50001400320002003e0000
:1027b8000040e9000e003700a0c4b30080cf5000ed
:1027c800830032006440400080cf5000c5023a00c8
:1027d8006c00370030c6b30080cf500009003200cb
:1027e8006340400080cf5000b50232007340500073
:1027f80080cf5000bb023a0002003700e03f2800bb
:10280800ac1237005adabf000080fb00b1a52100e6
:1028180091407800c808dd008080700030082000f2
:10282800808f50002b003200a1a521009140780034
:102838008180fb005bdabf004800dd00010070000a
:10284800240032005adabf000080fb00b1a5210045
:1028580091407800c808dd008080700000042000e6
:10286800808f50001b0032005adabf000080fb0046
:10287800b1a5210091407800c808dd008080700073
:1028880010042000808f5000120032005adabf0076
:102898000080fb00b1a5210091407800c808dd0048
:1028a8008080700020042000808f500009003200d2
:1028b8005adabf000080fb00b1a5210091407800e2
:1028c800c808dd008080700030042000808f500030
:1028d8000b003a0071a521009140780000c5b300b3
:1028e80080cf500003003a002a0c070082bb20006a
:1028f80022003700270c0700a20020001f00370025
:102908005adabf000080fb00b1a521009140780091
:10291800c808dd008080700000062000808f50000d
:10292800090032005adabf000080fb00b1a521007f
:1029380091407800c808dd008080700000162000f3
:10294800808f500002003a00570d07000a00370038
:102958005adabf000080fb00b1a521009140780041
:10296800c808dd008080700000262000808f50009d
:102978005c023a00640b07004206200011c0b30055
:102988006cfe370058dabf000080fb0091a52100db
:1029980091407800c808dd00808070001030200069
:1029a800808f50004f023a0000db800011db80006e
:1029b8000200200013012a000200700083807000ca
:1029c8002a120700603bef00623bef0000000600a0
:1029d80081a52100914078008180fb0059dabf0071
:1029e8004800dd008100700020c12000808f500069
:1029f8003301320014003e006d005000808f5000fb
:102a08009d00320008003e000080e900808f5000e1
:102a18004900320071003e000000e900808f50003c
:102a280030023a002300370000c12000808f500098
:102a3800d3003200f6003e006a005000808f50003c
:102a480028023a00ac00370020c22000808f5000d6
:102a5800c101320008003e006e005000808f500017
:102a680054013200320139006d004000808f50005f
:102a78001c023a007201370010c32000808f5000fa
:102a8800ea01320004003e000000e900808f500097
:102a980014023a00db01370020c32000808f500069
:102aa800f70132000000e800808f50000d023a0064
:102ab80001023700565ae20007003d005adabf000b
:102ac800b1a521009140780061006000000040003d
:102ad800a1b321003f013700e0572100e1a7210001
:102ae800914078007efab7004800de00f1a7210087
:102af800914078007ffab700c1a521009140780085
:102b08008180fb005ddabf004800dd000100700035
:102b180011a821009140780081fab7004800de0032
:102b280021a821009140780082fab70080faa80015
:102b380020f62000ab013700565ae2000f003d0096
:102b4800a1a52100914078008180fb005bdabf00dd
:102b58004800dd0001007000b0fb07000081fb00a9
:102b68000300200002db880013db88000004e0007b
:102b7800dc013a0000bf80008b003700e0572100dd
:102b8800e1a72100914078007efab7004800de00f6
:102b9800f1a72100914078007ffab700c1a5210074
:102ba800914078008180fb005ddabf004800dd00bd
:102bb8000100700011a821009140780081fab70047
:102bc8004800de0021a821009140780082fab70071
:102bd80080faa80040f8200082013700565ae20027
:102be8000d003d005adabf00b1a5210091407800e0
:102bf800610060004200dd0081b521000100400055
:102c0800100078006e006000010020008100d100f3
:102c18000080d3005b013700e0572100e1a72100c5
:102c2800914078007efab7004800de00f1a7210045
:102c3800914078007ffab700c1a521009140780043
:102c48008180fb005ddabf004800dd0001007000f4
:102c580011a821009140780081fab7004800de00f1
:102c680021a821009140780082fab70080faa800d4
:102c780060fa20005b013700565ae20006003d006a
:102c8800e0da8000f1da80000080ea00610060008c
:102c9800010020003b013700e0572100e1a7210097
:102ca800914078007efab7004800de00f1a72100c5
:102cb800914078007ffab700c1a5210091407800c3
:102cc8008180fb005ddabf004800dd000100700074
:102cd80011a821009140780081fab7004800de0071
:102ce80021a821009140780082fab70080faa80054
:102cf80040ff20003b013700565ae20008003d0023
:102d0800e0da800070006000010020004c09dd005e
:102d18004400de0000007100c408de00190137001d
:102d2800e0572100e1a72100914078007efab70022
:102d38004800de00f1a72100914078007ffab70033
:102d4800c1a52100914078008180fb005ddabf00b9
:102d58004800dd000100700011a8210091407800b2
:102d680081fab7004800de0021a8210091407800d0
:102d780082fab70080faa800a000210019013700e4
:102d8800565ae2000a003d005adabf00b1a52100f8
:102d980091407800610060000000400021b52100ea
:102da8000100400010007800cf80de00f5003700f9
:102db800e0572100e1a72100914078007efab70092
:102dc8004800de00f1a72100914078007ffab700a3
:102dd800c1a52100914078008180fb005ddabf0029
:102de8004800dd000100700011a821009140780022
:102df80081fab7004800de0021a821009140780040
:102e080082fab70080faa800c0012100f500370057
:102e1800565ae20012003d005adabf00b1a521005f
:102e2800914078006100600000004000a1b42100da
:102e3800010040001000780090a688005adabf0010
:102e4800b1a52100914078006100600000004000b9
:102e580061b421000100400010007800950037009f
:102e6800e0572100e1a72100914078007efab700e1
:102e78004800de00f1a72100914078007ffab700f2
:102e8800c1a52100914078008180fb005ddabf0078
:102e98004800dd000100700011a821009140780071
:102ea80081fab7004800de0021a82100914078008f
:102eb80082fab70080faa800e0062100c9003700ae
:102ec800565ae20002003d00b0da8000b6ff370033
:102ed800e0572100e1a72100914078007efab70071
:102ee8004800de00f1a72100914078007ffab70082
:102ef800c1a52100914078008180fb005ddabf0008
:102f08004800dd000100700011a821009140780000
:102f180081fab7004800de0021a82100914078001e
:102f280082fab70080faa80000092100ad00370036
:102f3800565ae20007003d005adabf00b1a5210049
:102f4800914078006100600000004000e1b4210079
:102f580093ff3700e0572100e1a721009140780056
:102f68007efab7004800de00f1a721009140780002
:102f78007ffab700c1a52100914078008180fb004d
:102f88005ddabf004800dd000100700011a82100d3
:102f98009140780081fab7004800de0021a821009e
:102fa8009140780082fab70080faa800c00b21008f
:102fb8008c003700565ae20009003d005adabf007b
:102fc800b1a5210091407800610060000000400038
:102fd80061b321000100400010007800b7003700fd
:102fe800e0572100e1a72100914078007efab70060
:102ff8004800de00f1a72100914078007ffab70071
:10300800c1a52100914078008180fb005ddabf00f6
:103018004800dd000100700011a8210091407800ef
:1030280081fab7004800de0021a82100914078000d
:1030380082fab70080faa800c009210069003700a9
:10304800565ae2002c003d005adabf00b1a5210013
:10305800914078006100600000004000e1b3210069
:103068000100400010007800a49822000400b80075
:103078000200280003002000000041008180490070
:1030880091a688005adabf00b1a5210091407800c6
:10309800610060000000400021b4210001004000f0
:1030a800100078000400b800000041008180490049
:1030b8004008de00a0a68800204d2100c1a82100fc
:1030c800914078008cfab7004800de00d1a82100b2
:1030d800914078008dfab7008e1aa8008fdabf00e9
:1030e80040c0b3008ffab70090dabf00907aef00c3
:1030f8008efaa80000000600e0572100e1a7210091
:10310800914078007efab7004800de00f1a7210060
:10311800914078007ffab700c1a52100914078005e
:103128008180fb005ddabf004800dd00010070000f
:1031380011a821009140780081fab7004800de000c
:1031480021a821009140780082fab70080faa800ef
:10315800400d210023003700565ae2000a003d00c6
:103168005adabf00b1a521009140780061006000e3
:10317800a16a210001004000104078000080fb0097
:103188000100200039103700e0572100e1a7210095
:10319800914078007efab7004800de00f1a72100d0
:1031a800914078007ffab700c1a5210091407800ce
:1031b8008180fb005ddabf004800dd00010070007f
:1031c80011a821009140780081fab7004800de007c
:1031d80021a821009140780082fab70080faa8005f
:1031e800800f210031a821009140780083fab700b0
:1031f8004800de0041a821009140780084fab70019
:1032080000000600020e20000300200080a78000b6
:1032180091a7800021f507004109dd004f00de007d
:1032280000007100cf08de00240037005adabf0022
:10323800b1a5210091407800610060004200dd00e6
:10324800414f2100010040001000be004809dd0088
:103258004800de0000007100c808de00a2982200c5
:10326800030020000df507000200280003002000dd
:1032780000004100818049004008de000f0037004f
:10328800a1a52100914078008180fb005bdabf0096
:103298004800dd000100700003003a0012cebf00b4
:1032a8004500de000200370012cebf004400de00f9
:1032b800610060000100370090d98000da0f370004
:1032c80058dabf0091a52100914078000068a3005a
:1032d80002003200f40a07005efc3700f20a070019
:1032e800b0fc0700000006000400fa00889fbe003a
:1032f8008a9fbe00a7090700d2080700800078004f
:103308006c85570000c2b300914260001102900022
:1033180021019000f0ff210000046100b104900039
:10332800e88140006033b800a6bf9f00b7bf9f0088
:1033380001037800604d2100a74e2100365878001f
:10334800870f5000fdff3a0091409000a0c4b300e1
:1033580080cf5000e4013a0030c32000800f5200b3
:10336800d90132002c003e0020c12000800f5200fd
:103378001101320014003e006d005000800f520011
:10338800a100320008003e000080e900800f5200d2
:103398006200320080003e000000e900800f520009
:1033a800d1013a004f00370000c12000800f5200c1
:1033b800c4003200e8003e006a005000800f52004e
:1033c800c9013a00a600370020c22000800f520031
:1033d8005501320008003e006e005000800f520078
:1033e80014013200fd0039006d004000800f5200ca
:1033f800bd013a002701370010c32000800f52009a
:103408007501320098013e000000e900800f52006b
:10341800b5013a005c01370020d12000800f52002e
:10342800ec00320014003e006d005000800f520086
:103438008500320008003e000080e900800f52003d
:103448005100320066003e000000e900800f520083
:10345800a5013a002d00370000d12000800f52004e
:10346800ec003200cd003e006a005000800f520090
:103478009d013a008b00370020d22000800f5200b7
:103488003c01320008003e006e005000800f5200e0
:10349800fa003200df0039006d004000800f520052
:1034a80091013a001601370010d32000800f520016
:1034b8005b01320004003e000000e900800f52006a
:1034c80089013a003a01370020d32000800f5200ca
:1034d800740132000000e800800f520082013a00b7
:1034e8007c0137000504e00004003200610061003f
:1034f80000004000a1b32100d300370093007800fa
:103508000800780016fa070015003700610061000e
:1035180000004000a1b32100db0037000504e000f3
:103528000c003200080078003cf9070000447800dd
:1035380000bf8000cf80de00008dbe0015090700a7
:103548008880fb0084bc2100890178006c815700c9
:103558006a013700930078000800780042f90700f4
:10356800004478000b0907008880fb0084bc210018
:103578008001eb00030178006a0a07000804e000f4
:103588005f013a00f90037000800780023f90700c6
:1035980000bf8000a40037000504e0000a003200e4
:1035a800610061004200dd0081b52100010040009a
:1035b800100078006e006000010020008100d1003a
:1035c8000080d3001700370011002000e40020001d
:1035d800050020001301be00080078002f00370006
:1035e800610061004200dd0081b52100010040005a
:1035f800100078006e006000010020008100d100fa
:103608000080d300890037000504e000070032007d
:10361800e0da8000f1da80000080ea0061006000f2
:1036280001002000008dbe00180137001301be0004
:103638000281ea008381ea008000eb001400200088
:103648000500200014003700e0da8000f1da80007d
:103658000080ea006100600001002000730037006c
:103668000504e00008003200e0da80007000600025
:1036780001002000cc0bdd004400de000080730058
:10368800c408de00e7ff37004100200004012000e5
:10369800050020001301be001000200095f9070066
:1036a800ac003700e0da8000700060000100200004
:1036b8004c09dd004400de0000007100c408de0093
:1036c8005a00370024b52100610061000504e000bc
:1036d80003003200000040000400400045003700ad
:1036e800934478008985fb008000400004804000f6
:1036f8000b0878000904e00004003a00e0b4210057
:10370800008040000008eb0001003700a4f6070025
:103718005c1bab008f003a000880ea00610460007f
:103728000805440020b52100000045000b0878007a
:103738000800780082f707000904e00085003a00d5
:10374800e0b42100000045000008eb000800780004
:1037580099f707007f0037000504e0000a003200ef
:10376800e100610081804000a0b421000080400099
:10377800100d780060b4210080804000910078002e
:1037880011059800c10037001301900093007800dc
:1037980008007800dcf8070031003700610061009c
:1037a80000004000a1b4210081004000110d780004
:1037b80061b42100580037000504e000020032001f
:1037c800b0da80000c003700130078000cf907000d
:1037d8005e003700b0da800013003700e1b4210042
:1037e800610061000504e0000500320000004000af
:1037f8000100400010007800cf80de0089ff37000c
:1038080000004000010040009380fb0001087800a0
:1038180050003700610061000000400021b5210020
:103828000100400010007800cf80de00008dbe004f
:10383800aa0037000504e0000600320061006100bc
:103848000000400061b3210001004000100d780025
:103858008e003700930078000800780098f8070079
:10386800004478004b0807008880fb0084bc2100d6
:103878008001eb0003017800a000370061006100bf
:103888000000400061b3210001004000100d7800e5
:10389800920037000504e000140032006101610065
:1038a80002014100e0b3210000004100100078004f
:1038b800a39822000300b800040028000500200097
:1038c8000000420081804a00010d780020b42100e8
:1038d80000014100120078000300b8000000420017
:1038e80081804a0011059800680037001301900094
:1038f80093007800080078004ff90700150037009a
:103908006100610000004000e1b321008100400037
:10391800110d780021b4210001004000100078004a
:10392800100598006d003700a16a21006100610050
:103938000504e00003003200010040001080fb0095
:10394800510037000100400013487800803e2000f5
:10395800e0a788000f08070084bc21008001eb0065
:1039680003017800830078006e0907007cfb0700dc
:103978006300370061006100a16a21000100400076
:103988001080fb0054003700020e200003002000c6
:1039980080a7800091a7800040f30700410bdd005d
:1039a8004f00de0000007300cf08de00360037004d
:1039b800020e20000300200080a7800091a780004d
:1039c80036f30700c10bdd004f00de0000807300f6
:1039d800cf08de0040003700610061004200dd00d2
:1039e800414f2100010040001000be004809dd00e1
:1039f8004800de0000007100c808de00a29822001e
:103a08000300200025f3070002002800030020001f
:103a180000004100818049004008de001a0037009c
:103a2800610061004200dd00414f210001004000bb
:103a38001000be00480bdd004800de0000007300e7
:103a4800c808de00a29822000300200013f3070034
:103a58000200280003002000000041008180490086
:103a68004008de001c0037000800e00003003a00b0
:103a780012cebf004500de000200370012cebf00a4
:103a88004400de0061006000000d7800c1070700f7
:103a980084bc2100890178006c8157008000eb000c
:103aa800160037000800e00003003a0012cebf00fd
:103ab8004500de000200370012cebf004400de00e1
:103ac800610060000400370097d98000070d780076
:103ad800eeff370090d98000000d78006c80570009
:103ae80005fb070006003700aa07070084bc210071
:103af8008001eb00030178008080eb0009090700d2
:103b08004f05be004f04be000080fa00000006000a
:103b18003600f800809fbe00829fbe00849fbe00d2
:103b2800869fbe00889fbe008a9fbe008c9fbe00f5
:103b38008e1f7800ec8747000368a90031db8000fe
:103b48008100e80031db880040062000808f5000ab
:103b580087003a00663bef00a0f507008005780073
:103b68000004eb00a06a2100f0bf9f006cb42100a4
:103b7800aeb42100a4b32100e4bf9f0060b32100cc
:103b8800d0bf9f0084b52100c4bf9f00e0b42100ce
:103b9800b0bf9f002db521007fba97001404e00044
:103ba80012003200e38f550010003200e18f5500fb
:103bb8000e0032001d00e0000c003200800eeb0009
:103bc800080078005ef607005c1bab0007003a00af
:103bd8000880ea00610060008000400022b52100f2
:103be800828040008008eb0055f607004fb8970028
:103bf8001001be00e10261003fba97001400e00026
:103c0800070032005fb89700900078000100e000dc
:103c18003b003a006fba97009400780038003700ec
:103c28000582420020b52100000042008000eb0020
:103c38001000e000320032006e0061000100200038
:103c4800e40f5000e08f58000b003a000500e00038
:103c580003003a0012cebf004500de000200370024
:103c680012cebf004400de006100600023003a006d
:103c78009e00780022003700e60f5000e08f5800c1
:103c88001e003a0020b42100000042001001780014
:103c9800e0b32100000042009001780003055100c4
:103ca8004228dd00414f2100010040001000be0005
:103cb800480add004800de0000007200c808de0087
:103cc800800f51000100390000017800830f510076
:103cd80001003900820178009e0478006118b8005c
:103ce8001c811400cf91de006cf207006151b8000e
:103cf8004bf2070080804400010037009c007800e8
:103d08000840780049f507000804e8007fb89700e4
:103d18000000e800f0bf9f000c86e8000e87e8006e
:103d28006fba97000482e800e4bf9f005fb897006d
:103d38000080e800d0bf9f004fba9700640242009d
:103d4800c4bf9f003fb897000080e800b0bf9f0045
:103d58008d86e800e20f54008fff3a0090d980006a
:103d6800808f5500020032009bd98800b6f5070005
:103d780044dcbf00e14f500003003200e24f500026
:103d880005003a0003003700447cef0056fd0700a9
:103d980001003700447cef00cf00b1004f077800e6
:103da8004f06be004f05be004f04be004f03be00c5
:103db8004f02be004f01be004f00be003600f900a2
:103dc80000400600f00f200020268800002688000a
:103dd800dc24ef00f0092000302688001026880037
:103de8009004a80001c021004808de007026880061
:103df800ca24a800cc24ef00e224ef00ca24a900ba
:103e08000001eb006022b8006033b80001007800c0
:103e18000498be000698be000201e800e80f5100b1
:103e2800fbff3a00d000200000278800010037007f
:103e380002268800c0c4bf00e8406000fcff3a00ca
:103e48008000fd008efab70080fab7008000fd0000
:103e580081dabf000100780081fab70082dabf007a
:103e68000100780082fab700caa4a90000c12100a5
:103e7800d0d38800723aef006e3aef00743aef0040
:103e88007c3aef00703aef006c3aef0001007800de
:103e980086fab700883aef00000006000001eb0040
:103ea8008000eb0040072000700f07008a84a900fb
:103eb8000001200040248800000006008a84a80031
:103ec80000012000002688000001eb008000eb00c4
:103ed80050072000650f3700e0c4bf000018a3009a
:103ee80018003200c2d380001280fb00924090007c
:103ef800c808dd008080700000082000808f500016
:103f08000f003a00d0d380009080fb001040900052
:103f18004800dd000100700041082000810f5000ba
:103f280007003a001240780060496000c0c8b3003a
:103f380012497000124090000040eb0010419800b8
:103f4800e024a900000820000026880000000600e0
:103f58000080fb00000040008180fb000100400061
:103f6800000040000281fb00020040004300dd0029
:103f780001c0210001004000000006000040eb00e5
:103f880068fab700d1d380001141780080486100f9
:103f980011419000904098000130a20080487800bc
:103fa80090409800805ae2000f003d0031a821009f
:103fb800914078008180fb0084dabf004800dd0072
:103fc800010070000700320031a8210091407800fc
:103fd8008180fb0084dabf004800dd00010070002a
:103fe8000000010080faa900000006008fdabf0077
:103ff8000080fb0001a9210091407800c808dd007d
:104008008080700005042000f0032000808f50009d
:104018000e003e00f1a82100914078008180fb004d
:1040280090dabf004800dd008102700010c0b300c4
:10403800695ae2000400320069dabf00e14f50001b
:1040480002003a0020c0b30069fab700d1d380005b
:104058001181fb00114090004800dd000200700053
:104068004829de000200700011417800e048610034
:10407800914870004800de0011419000904098007f
:104088000580fb0021419000a0409800314090003d
:10409800c2cfb30002406000b0409800f1a82100f0
:1040a800914078008180fb0090dabf004800dd0075
:1040b8000100700005005000f1a82100914078002f
:1040c8008ffab7004800de0001a92100914078006e
:1040d80090fab70060a1210030d388008edabf00c3
:1040e8000002eb008001eb000008a3001200320080
:1040f8002500370032d38000c1a821009140780004
:104108008180fb008ddabf004800dd0001007000ef
:104118003059780032d38800c1a821009140780036
:104128008cfab7004800de00d1a821009140780041
:104138008dfab7008301e800858f5100edff3a0042
:104148000000060032d38000c1a821009140780009
:104158008180fb008ddabf004800dd00010070009f
:104168003059780032d38800c1a8210091407800e6
:104178008cfab7004800de00d1a8210091407800f1
:104188008dfab7000402e800850f5200edff3a00ef
:1041980000000600881f7800d0d380001080fb0044
:1041a8004600de00614460007a7aaa0040d48000ac
:1041b800e80f500008003a0058dabf000080fb0002
:1041c8006026880000012000cc04e20001003a00cb
:1041d8004000200040d4880068dabf00e14f50005a
:1041e80026003a00d1d3800060a12100414190000f
:1041f800c04098004800de0051419000d04098002f
:104208007aff070069dabf00e24f500009003a0060
:10421800d0d380009040780060c8600041c8b300e7
:1042280010c87000904090008040eb00114098004a
:1042380013003700d1d380000804e00007003a00db
:1042480011407800e048600080ccb30091487000cd
:1042580011409000984098000900370011407800fc
:10426800e048600080c8b300914870001140900099
:104278000040eb0090409800010037003fff070026
:104288004f0478000000060061a5210091407800e5
:1042980000c8b30080cf500050003a0000ccb300f3
:1042a8008efab70059dabf00e24f50000f00320013
:1042b800e34f500029003200e14f500046003a0019
:1042c80060bb2100c1a82100914078008cfab7009a
:1042d8004800de00d1a82100914078008dfab7008f
:1042e8008fdabf0020c1b3003500370058dabf00ad
:1042f8000080fb00000040006136280001004000fb
:1043080010007800c1a82100914078008cfab7000d
:104318004800de00d1a82100914078008dfab7004e
:10432800c1a82100914078008180fb008ddabf0090
:104338004800dd000100700010009000f1a8210085
:10434800914078008ffab7004800de0001a92100eb
:104358009140780090fab7000000060058dabf00d4
:10436800e34f50001a003e0058dabf000080fb00ff
:1043780000004000e13528000100400010007800ee
:10438800c1a82100914078008cfab7004800de00ef
:10439800d1a82100914078008dfab700c1a821006a
:1043a800914078008180fb008ddabf004800dd0075
:1043b800010070001080fb00f1a8210091407800f6
:1043c8008ffab70090dabf00907aef00000006007d
:1043d8008e7aef00000006008e7aef0000000600db
:1043e8008efaa800e224ef00857aef0058dabf00c1
:1043f80086fab700865ae20003003a00000120005e
:1044080040d48800000006000002200040d4880044
:104418001200200061a8210010002000130e3700b0
:10442800167aef00177aef0056dabf007f006000b7
:10443800e10f50000b003200e20f50000b00320079
:104448000000e0001c003a008efaa800161aa80026
:1044580050d48000e10f500017003a00163aa80027
:10446800150037008efaa800130037008efaa8004e
:104478005a5ae200050035005adabf006f006000a2
:104488000000400021a72100040037005adabf00cd
:104498006f00600000004000a1a72100010040005b
:1044a800100078001080fb000028a30002003200f2
:1044b80010c0b30016fab7008e5ae2000b003d0098
:1044c80060a12100c1a82100914078008cfab700b2
:1044d8004800de00d1a82100914078008dfab7008d
:1044e8008e1aa80020c0b3008ffab700000006009b
:1044f8000200fa0058dabf00e14f50000b003a0002
:1045080056dabf007f40600008003a008efaa80023
:1045180057dabf00e34f500003003a0010002000b4
:1045280050d48800010037008a3aef00585ae20058
:104538003e003a0056dabf007f406000e24f50006c
:104548003a003a005adabf006f4060003700320084
:104558008efaa8005a5ae200050035005adabf0060
:104568006f0060000000400021a721000400370010
:104578005adabf006f00600000004000a1a72100c8
:104588000100400010007800f0bf9f0057dabf001c
:10459800e34f500006003a007fb8970041c8b300c7
:1045a800014878008040eb00114098001f00370058
:1045b8005adabf006f00600000004000014e200082
:1045c800010040001010a100ffb99700a1a521002b
:1045d8009140780000c8b30000c1600009003200b3
:1045e8008049eb000041eb00924198006ff897007a
:1045f8000034a200e0ff9f00ffb8970000c4b3009a
:104608000800370080c8b3008049780092419800bc
:104618006ff897000034a200e0ff9f00ffb89700f2
:1046280080ccb30080487800924098000080fa005f
:104638000000060056dabf000046b20039003a0012
:1046480057dabf000080fb0001002000eb0f50008c
:10465800e08f580033003e000006010013003700c9
:10466800130037002f003700110037002d003700e6
:104678000600370009003700260037000900370018
:10468800070037000b0037001a0037008efaa80021
:104698008000200040d4880000000600fafe3700a1
:1046a8004fff370060a82100060037005cff370085
:1046b8008fff37005adabf000080fb0051a82100a5
:1046c80001004000c1a82100914078008cfab70091
:1046d8004800de00d1a82100914078008dfab7008b
:1046e8008e1aa80010c0b3008ffab7008efaa8007f
:1046f800000006008efaa8005adabf000080fb000e
:1047080051a821000100400081a52100114878002e
:10471800000006000001eb008000eb0020002000f4
:10472800520d070000000600d0d38000a040900082
:104738008041eb0023409800b0409000c2cfb30006
:1047480082c06000314098009040780003c8600043
:1047580081ccb30010c870009040900013409800be
:1047680000000600b1d380002140900000c4b300cf
:10477800a040980031409000c2cfb30002406000d2
:10478800b040980060a5210041419000c0409800c9
:104798004800de0051419000d04098001140780058
:1047a800e0486000c0c8b300914870001140900014
:1047b8000041eb0092409800d0d3800090407800f0
:1047c80002c8600041c8b30010c870009040900053
:1047d80012409800000006000200fa000080fb006a
:1047e800800140000180fb00008041004400dd00a2
:1047f80002c0210002014000f2bf9f000104e00056
:1048080006003a0020a7210080804100e0a6210090
:104818001100e00006003a000d003700a0a72100b3
:10482800808041001100e00009003200a0a62100ac
:1048380000804100100078000000e0000100320014
:104848008008780091007800f1bf9f0001003700d0
:10485800820878007fb897001074a1001064a10046
:104868006ff897000034a200e0ff9f007fb8970020
:104878001074a1001064a0000080fa000000060077
:10488800889fbe00004478000080fb0000004000c4
:10489800024e200002004000014878008184fb009d
:1048a8000938a300030032008040eb00084078007c
:1048b800c9ff07000928a3000300320011c0b30094
:1048c80008407800c4ff07004f04be00000006003f
:1048d80080417800014078000304e0001c003a00a1
:1048e800b1d380002140900000c4b300a0409800dc
:1048f80031409000c2cfb30002406000b040980041
:1049080060a5210041419000c04098004800de00a9
:1049180051419000d040980011407800e048600074
:10492800c0c8b300914870001140900093409800af
:10493800d0d380009040780060c8600041c8b300c0
:1049480010c87000904090001340980000000600c6
:104958008380fb00818040000080fb008080400055
:10496800c408dd0002c02100028140009281fb00e2
:10497800124090004800dd00030070004008b300ba
:10498800004978004800de001041980080c02100ee
:10499800808040001181fb00114090004800dd003c
:1049a800020070004008b300804878004800de002c
:1049b80090409800000006000080fb000104e00021
:1049c8000300320000004000a1a7210002003700c8
:1049d8000000400021a721000100400010007800dd
:1049e8009080fb00104090004800dd00010070003e
:1049f8004700de000000a200610060000000060021
:104a0800004378008082fb00814378000104e000c5
:104a18000300320005804200a1a7210002003700f0
:104a28000580420021a72100010040001002780003
:104a38008682fb0044409000424298004810de0005
:104a4800d4409000504298001480fb00944090009d
:104a58000004b2009440780060ca6000144a7000f4
:104a68004800de009440900010429800030178004e
:104a7800f23fb20024409000234298004811de0023
:104a880034409000c1cfb300014060000240700084
:104a9800304298009480fb00144090004800dd00ec
:104aa800010070008008b3009440780060ca60007c
:104ab800144a70004800de009440900010429800ac
:104ac8000704e0000300320005804200a1a721008e
:104ad800020037000580420021a7210001004000a4
:104ae8001034a2000400780000000600889fbe0071
:104af8008a9fbe0080407800cac4bf000058a30047
:104b0800780032008183fb0087834300a0a721003f
:104b180080834300970278001583fb0015429000bc
:104b28004822dd0006007200254390000683fb0042
:104b3800354290004822dd0086007200454390000f
:104b48000683fb00554290004822dd0006017200f2
:104b5800654390000683fb00754290004822dd0003
:104b68008601720008042000090020006055b80082
:104b78000000640081806400020165008381650093
:104b880015427800e04a6200954a70004802de004b
:104b9800154390009442980025429000a142980045
:104ba800480ade0035439000b44298004542900020
:104bb800c24298004812de0055439000d442980043
:104bc80065429000e34298004818de00f5409000e6
:104bd800f0429800970278001583fb001542900078
:104be8004822dd0006007200254390000683fb0082
:104bf800354290004822dd0086007200454390004f
:104c08000683fb00554290004822dd000601720031
:104c1800654390000683fb00754290004822dd0042
:104c28008601720000006c0081806c0002016d003a
:104c380083816d0015427800e04a6200954a700051
:104c48004802de00154390009442980025429000e7
:104c5800a1429800480ade0035439000b44298000b
:104c680045429000c24298004812de005543900029
:104c7800d442980065429000e34298004818de004c
:104c8800f5409000f04298001734a2001700780011
:104c98009080fb00104190000104b20010417800a0
:104ca8006048610010c87000c808de00104190001c
:104cb80011409800970078001181fb001140900086
:104cc8004800dd00020070000060a2001142780078
:104cd800e0486200914870004800de0011419000f1
:104ce800904098004f05be004f04be00000006002b
:104cf8000000eb00502688001026880040d4880069
:104d08000000060040d480000000e00013003a00d4
:104d18005026880010268800e0268800f009200028
:104d280030268800102688006bc8bf0081cfb300ea
:104d3800014060000014a0006be8b7002ac8a80072
:104d480001003700ca04a800cac4bf000008a300b5
:104d5800fcff32001000200040d48800000006004c
:104d6800881f7800caa4a9008edabf0001c8b30062
:104d78000142600004003a00805ae2005c003500fd
:104d880078fe07008400370080dabf000144600025
:104d980081003a0056dabf00014260005400320038
:104da8005cdabf000080fb00d2a521001241780028
:104db8004811dd0000017100f1a821009140780040
:104dc8008180fb0090dabf004800dd000100700020
:104dd800800f51000d003100c1a5210091407800dd
:104de8008180fb005ddabf004800dd000100700033
:104df800f1a82100914078008ffab7004800de0042
:104e080001a921009140780090fab70077fc0700cb
:104e180010c0b30068fab700b1d3800021409000f9
:104e280005c4b300a540980031409000c4cfb3003a
:104e380004406000b040980062a52100820178001b
:104e4800f30fb20041409000c34098004811de00c3
:104e580051409000d240980011407800e04860002e
:104e68001174a0001140900098409800623aef0039
:104e7800c1d3800021409000a540980031409000a7
:104e880004406000b040980041409000c340980042
:104e980051409000d240980011407800e0486000ee
:104ea80040c8b300914870001140900098409800a5
:104eb8001000200010d38800d0d3800061a1210009
:104ec8004041900041409800c808de0050419000e1
:104ed800514098009040780060c8600081ccb300d1
:104ee80010c8700090409000184098002a003700c1
:104ef80020c0b30068fab700c1a52100914078002e
:104f08008180fb005ddabf004800dd008101700090
:104f18000d003a00d0d38000a040900023409800b4
:104f2800b0409000c2cfb30082c06000314098000a
:104f38009040780060c8600081ccb30010c8700051
:104f48009040900013409800b1d380002140900019
:104f580000c4b300a040980031409000c2cfb30015
:104f680002406000b040980060a1210041419000db
:104f7800c04098004800de0051419000d0409800a1
:104f880011407800e048600080ccb3009148700080
:104f980011409000944098004f04780000000600eb
:104fa800d1d380001104e00005003d0011407800d5
:104fb800e0486000114090000040eb0090409800ed
:104fc800697aef00687aef008fdabf008f7aef0016
:104fd80090dabf00907aef008e7aef0081dabf0096
:104fe800817aef0082dabf00827aef00807aef00e0
:104ff80083dabf00837aef0084dabf00847aef0097
:105008008cfd07000001eb008000eb003000200061
:10501800160b070080dabf000058a30004003a000e
:105028008edabf000058a30001003a004cff0700c9
:1050380000000600805ae20001003500c9fd370073
:10504800d0d38000a04090008041eb00234098001e
:10505800b0409000c2cfb30082c0600031409800d9
:105068009040780003c8600081ccb30010c870007d
:10507800904090001340980080faa90000000600b4
:10508800c0d38000a040900030409000814178005b
:105098000181fb0011a82100914078008180fb006c
:1050a80082dabf004800dd0001007000800f510067
:1050b8000500360081dabf0021a821009140780060
:1050c800804178000e00370011a821009140780037
:1050d8008180fb0082dabf004800dd00010070001b
:1050e8000200500011a821009140780081fab70011
:1050f8004800de0021a821009140780082fab7001c
:105108000002eb0065a12100110037007edabf0024
:105118000080fb00f1a7210091407800c808dd005d
:10512800808070000280fb000500400090587800e5
:105138007edabf00010078007efab700c808de00fa
:105148007fdabf00010078007ffab7000402e800a8
:1051580004417800834f5200ecff3900b2d380003d
:1051680011a82100914078008180fb0082dabf00fd
:105178004800dd00810170002000320022409000cc
:1051880000c4b3002041980032409000c1cfb30062
:10519800014060003041980060a12100c2409000a9
:1051a800404198004800de00d240900050419800ed
:1051b800c0d3800003c4b30090c0610007003a0068
:1051c800124078006049600080ccb300124970003a
:1051d80012409000114198000000060092417800aa
:1051e80060c9610080c8b300124970001240900085
:1051f8000040eb001041980000000600224090009b
:1052080000c4b3002041980032409000c1cfb300e1
:10521800014060003041980060a52100c240900024
:10522800404198004800de00d2409000504198006c
:10523800124078006049600040c8b300124970000d
:10524800124090001341980080faa90080baa90082
:1052580031a82100914078008180fb0084dabf00ea
:105268004800dd00010070000700320031a821006d
:10527800914078008180fb0084dabf004800dd009f
:10528800010070000000010080dabf000058a30090
:1052980001003a0067ff07000000060068dabf0057
:1052a800e24f500001003a0075ff370033fb07005a
:1052b80013d380000300e00015003a00b1d380004a
:1052c8002140900000c4b300a040980031409000f5
:1052d800c2cfb30002406000b040980060a5210032
:1052e80041419000c04098004800de0051419000c4
:1052f800d040980011407800e0486000c0c8b30072
:1053080091487000114090009340980000000600fa
:10531800623aef000000060064dabf0080027800fd
:10532800b50fb20026003a0064dabf00c00fb20021
:105338000000d00001c0210081014000c3d38800d3
:10534800b3d38800767aaa00c0c3b3009340600044
:105358006840500080cf500018003a004340900049
:105368000080fb00d3409000c808dd000082700078
:1053780060a12100800f52000f003a0060a52100b3
:10538800c3409000c0419800c800de00534190001f
:10539800d1419800050178008002780084017800e6
:1053a8008500410003004100904878000201e800b0
:1053b800e80f5100faff3a00f9fe3700b7ff37004f
:1053c80064dabf00b00fb200e80f500001003a00e5
:1053d80070fb0700000006003600f800809fbe0042
:1053e800829fbe00849fbe00869fbe00889fbe002d
:1053f8008a1f78003200f800002020009001880001
:105408000000000040d48000e10f500006003a0080
:10541800f00f200000268800c204a800c284a8005b
:105428002000200040d4880088c4bf000048a300a2
:10543800060032008ac4bf000048a30003003200ff
:10544800000120004024880094fa070090c4bf009f
:105458000018a30071003a00c0c4bf000008a300f0
:1054680013003200c2c4bf000008a30010003200bd
:1054780054fa07004000200040d4880060a52100ad
:1054880020e0880010e0800001c02f0001006000cb
:105498000060a00010e0880030f02f00003cb6004b
:1054a800c0082000003cb70010002000002688003b
:1054b800c0c4bf000048a30006003200c2c4bf0039
:1054c8000048a300030032007cfa07000001200016
:1054d80000268800c0c4bf000028a30009003200cd
:1054e800c2c4bf000028a30006003200120020003a
:1054f8008000eb0030072000dc0907004000200096
:1055080000268800c044e20003003d00c244e200d7
:1055180001003d0070fa0700c0c4bf000018a300d6
:105528000b003200c2c4bf000018a30008003200fc
:10553800120020008000eb00f0ff2700cb090700d5
:10554800f00f200020268800200020000026880078
:1055580040d48000e30f500030003600c2c4bf00c2
:105568000038a3002d0032004ac0b300c0c4bf00f9
:105578000038a300290032004026800064fab700f2
:10558800800020000026880064dabf00000fb20007
:1055980002003a0060ff07001e00370064dabf000f
:1055a800000fb2004480de008044780048a6210045
:1055b800184478006804640043c4de0042a6210051
:1055c80012417800640161004291de000204a200e9
:1055d800884078005efa0700000178000980fb0027
:1055e8000804e00003003a0000004000e1a62100a2
:1055f8000200370000004000a1a621000100400081
:10560800020878000001eb0041a6210020072000d5
:10561800960907000a45e900d4ff3a000ac8a9001c
:105628003200f9004f0578004f04be004f03be005a
:105638004f02be004f01be004f00be003600f90009
:1056480000400600411320008100b800010021003d
:105658000100400000000600810278000203780083
:10566800421320008201b80001002100010141001d
:105678000000400041ac2100010040001000e000a3
:1056880002003a00941ae200fcff3c0041002000ae
:10569800941ae20017003200924090001280fb003a
:1056a8000068a30003003200014278008000200057
:1056b800030037000180fb004202de0020002000ca
:1056c80080014100850078000000eb0002003700ef
:1056d800b35878000000e800860f5000fcff39003e
:1056e8001280fb006f0060005100200001003a00aa
:1056f8008480fb00010078000000060010002000f4
:10570800b0d48800000006000000050061d68800bb
:10571800a0d688000188a8002188a80021c8bf0059
:105728000048a300fdff3a00000006003200f80020
:10573800881f7800082020009801880000000000d9
:105748004f0478000828a9002222a9003200f90095
:1057580000400600809fbe00829fbe00849fbe005e
