:020000040000fa
:080000000002040000000000f2
:020000040000fa
:040008008e0d000059
:020000040000fa
:04000c008e0d000055
:020000040000fa
:040010008e0d000051
:020000040000fa
:040014008e0d00004d
:020000040000fa
:040018008e0d000049
:020000040000fa
:04001c008e0d000045
:020000040000fa
:040020008e0d000041
:020000040000fa
:040024008e0d00003d
:020000040000fa
:040028008e0d000039
:020000040000fa
:04002c008e0d000035
:020000040000fa
:040030008e0d000031
:020000040000fa
:04003400fa020000cc
:020000040000fa
:040038008e0d000029
:020000040000fa
:04003c008e0d000025
:020000040000fa
:040040008e0d000021
:020000040000fa
:040044008e0d00001d
:020000040000fa
:040048008e0d000019
:020000040000fa
:04004c008e0d000015
:020000040000fa
:040050008e0d000011
:020000040000fa
:040054008e0d00000d
:020000040000fa
:040058008e0d000009
:020000040000fa
:04005c008e0d000005
:020000040000fa
:040060008e0d000001
:020000040000fa
:040064008e0d0000fd
:020000040000fa
:040068008e0d0000f9
:020000040000fa
:04006c008e0d0000f5
:020000040000fa
:040070008e0d0000f1
:020000040000fa
:040074008e0d0000ed
:020000040000fa
:040078002e05000051
:020000040000fa
:04007c008e0d0000e5
:020000040000fa
:040080008e0d0000e1
:020000040000fa
:040084008e0d0000dd
:020000040000fa
:040088008e0d0000d9
:020000040000fa
:04008c008e0d0000d5
:020000040000fa
:040090008e0d0000d1
:020000040000fa
:040094008e0d0000cd
:020000040000fa
:040098008e0d0000c9
:020000040000fa
:04009c008e0d0000c5
:020000040000fa
:0400a0008e0d0000c1
:020000040000fa
:0400a4008e0d0000bd
:020000040000fa
:0400a8008e0d0000b9
:020000040000fa
:0400ac008e0d0000b5
:020000040000fa
:0400b0008e0d0000b1
:020000040000fa
:0400b4008e0d0000ad
:020000040000fa
:0400b8008e0d0000a9
:020000040000fa
:0400bc008e0d0000a5
:020000040000fa
:0400c0008e0d0000a1
:020000040000fa
:0400c4008e0d00009d
:020000040000fa
:0400c8008e0d000099
:020000040000fa
:0400cc008e0d000095
:020000040000fa
:0400d0008e0d000091
:020000040000fa
:0400d4008e0d00008d
:020000040000fa
:0400d8008e0d000089
:020000040000fa
:0400dc008e0d000085
:020000040000fa
:0400e0008e0d000081
:020000040000fa
:0400e4008e0d00007d
:020000040000fa
:0400e8008e0d000079
:020000040000fa
:0400ec008e0d000075
:020000040000fa
:0400f0008e0d000071
:020000040000fa
:0400f4008e0d00006d
:020000040000fa
:0400f8008e0d000069
:020000040000fa
:0400fc008e0d000065
:020000040000fa
:040100008e0d000060
:020000040000fa
:040104008e0d00005c
:020000040000fa
:040108008e0d000058
:020000040000fa
:04010c008e0d000054
:020000040000fa
:040110008e0d000050
:020000040000fa
:040114008e0d00004c
:020000040000fa
:040118008e0d000048
:020000040000fa
:04011c008e0d000044
:020000040000fa
:040120008e0d000040
:020000040000fa
:040124008e0d00003c
:020000040000fa
:040128008e0d000038
:020000040000fa
:04012c008e0d000034
:020000040000fa
:040130008e0d000030
:020000040000fa
:040134008e0d00002c
:020000040000fa
:040138008e0d000028
:020000040000fa
:04013c008e0d000024
:020000040000fa
:040140008e0d000020
:020000040000fa
:040144008e0d00001c
:020000040000fa
:040148008e0d000018
:020000040000fa
:04014c008e0d000014
:020000040000fa
:040150008e0d000010
:020000040000fa
:040154008e0d00000c
:020000040000fa
:040158008e0d000008
:020000040000fa
:04015c008e0d000004
:020000040000fa
:040160008e0d000000
:020000040000fa
:040164008e0d0000fc
:020000040000fa
:040168008e0d0000f8
:020000040000fa
:04016c008e0d0000f4
:020000040000fa
:040170008e0d0000f0
:020000040000fa
:040174008e0d0000ec
:020000040000fa
:040178008e0d0000e8
:020000040000fa
:04017c008e0d0000e4
:020000040000fa
:040180008e0d0000e0
:020000040000fa
:040184008e0d0000dc
:020000040000fa
:040188008e0d0000d8
:020000040000fa
:04018c008e0d0000d4
:020000040000fa
:040190008e0d0000d0
:020000040000fa
:040194008e0d0000cc
:020000040000fa
:040198008e0d0000c8
:020000040000fa
:04019c008e0d0000c4
:020000040000fa
:0401a0008e0d0000c0
:020000040000fa
:0401a4008e0d0000bc
:020000040000fa
:0401a8008e0d0000b8
:020000040000fa
:0401ac008e0d0000b4
:020000040000fa
:0401b0008e0d0000b0
:020000040000fa
:0401b4008e0d0000ac
:020000040000fa
:0401b8008e0d0000a8
:020000040000fa
:0401bc008e0d0000a4
:020000040000fa
:0401c0008e0d0000a0
:020000040000fa
:0401c4008e0d00009c
:020000040000fa
:0401c8008e0d000098
:020000040000fa
:0401cc008e0d000094
:020000040000fa
:0401d0008e0d000090
:020000040000fa
:0401d4008e0d00008c
:020000040000fa
:0401d8008e0d000088
:020000040000fa
:0401dc008e0d000084
:020000040000fa
:0401e0008e0d000080
:020000040000fa
:0401e4008e0d00007c
:020000040000fa
:0401e8008e0d000078
:020000040000fa
:0401ec008e0d000074
:020000040000fa
:0401f0008e0d000070
:020000040000fa
:0401f4008e0d00006c
:020000040000fa
:0401f8008e0d000068
:020000040000fa
:0401fc008e0d000064
:020000040000fa
:040200008e0d00005f
:020000040000fa
:040204008e0d00005b
:020000040000fa
:040208008e0d000057
:020000040000fa
:04020c008e0d000053
:020000040000fa
:040210008e0d00004f
:020000040000fa
:040214008e0d00004b
:020000040000fa
:040218008e0d000047
:020000040000fa
:04021c008e0d000043
:020000040000fa
:040220008e0d00003f
:020000040000fa
:040224008e0d00003b
:020000040000fa
:040228008e0d000037
:020000040000fa
:04022c008e0d000033
:020000040000fa
:040230008e0d00002f
:020000040000fa
:040234008e0d00002b
:020000040000fa
:040238008e0d000027
:020000040000fa
:04023c008e0d000023
:020000040000fa
:040240008e0d00001f
:020000040000fa
:040244008e0d00001b
:020000040000fa
:040248008e0d000017
:020000040000fa
:04024c008e0d000013
:020000040000fa
:040250008e0d00000f
:020000040000fa
:040254008e0d00000b
:020000040000fa
:040258008e0d000007
:020000040000fa
:04025c008e0d000003
:020000040000fa
:040260008e0d0000ff
:020000040000fa
:040264008e0d0000fb
:020000040000fa
:040268008e0d0000f7
:020000040000fa
:04026c008e0d0000f3
:020000040000fa
:040270008e0d0000ef
:020000040000fa
:040274008e0d0000eb
:020000040000fa
:040278008e0d0000e7
:020000040000fa
:04027c008e0d0000e3
:020000040000fa
:040280008e0d0000df
:020000040000fa
:100400006f9326000eff27000e01880000000000f9
:10041000000020000000e000020032000001200087
:100420002002880014000700be0507000000e0005d
:1004300003003a00201223002100200002003700b0
:100440000000200001002000810f70000100320038
:100450000f000700000020000000e0000200320052
:1004600000000200000000002e290200020000002f
:100470000040da000000fe00600120000000e00003
:1004800002003200002020009001880000000600d9
:10049000a1028800800478000000eb001f003700f4
:1004a000e284440054a0b4009905ba00e2844400f8
:1004b00054a0b4009906ba00e284440054a0b400e9
:1004c0000006eb00476fde00fd07b200ae018800ba
:1004d000636ce10003003a000ad801000000eb0061
:1004e0000e003700606ce10008003a00004deb00a0
:1004f0000a05e800020039003420ec000af0a000f0
:100500008b05e900f9ff3e00040037006168e10057
:10051000010032000086eb000b00070019c7ba008b
:100520000e04e0001905ba0003003a000a00e000da
:10053000dbff3a0000000600fe07b200ae028800b2
:100540008a047800f5ff37000cd0a300e20f4d00bd
:100550001c00390089027800354dba000a05e80010
:10056000020039003420ec000af0a0008b05e900fd
:100570000f003200254dba000a05e80002003900dc
:100580003420ec000af0a0008b05e90008003200de
:100590000c00e0000600320015cdba000a05e800a4
:1005a000020039003420ec000af0a0008b05e900bd
:1005b0008984e80054a0b4000b00e000e2ff3a0098
:1005c000000006009902ba00055d78008b05e9007d
:1005d000f7ff3200c82ade00055d78008b05e900d0
:1005e000f3ff32000c00e000f1ff320019ddba0029
:1005f000eeff37003600f800809fbe00829fbe00ed
:10060000849fbe00869fbe000000fa000068a9001b
:10061000308080000000e80030808800308080005a
:10062000ea0f500004003a0050652000202d02001f
:10063000020000000201370030808000eb0f500004
:1006400004003a0010012000202d020002000000ea
:10065000fb00370030808000f40f500004003a00a7
:1006600050652000202d020002000000f400370039
:1006700030808000f50f500005003a0081c6b300bd
:10068000b0c0b300322d020002000000ec003700c1
:1006900030808000f60f500005003a00e1c3b3003f
:1006a000c0c0b300322d020002000000e400370099
:1006b00030808000f70f500005003a0021c8b300d9
:1006c000d0c0b300322d020002000000dc00370071
:1006d00030808000f80f500005003a00d1c4b3000c
:1006e000e0c0b300322d020002000000d400370049
:1006f00030808000f90f500005003a00f1c0b300cf
:10070000f0c0b300322d020002000000cc00370020
:1007100030808000fa0f500004003a0030032000bf
:10072000202d020002000000c5003700308080004c
:10073000fb0f500004003a0050552000202d02000d
:1007400002000000be00370030808000fe0f500025
:1007500007003a000830ef00100020009080880069
:10076000a08080000000e900a0808800b40037006d
:1007700030808000ff0f500015003a00408080005c
:10078000e80f50000b003a00908080000000e0006d
:1007900003003a00a08080000000e00002003a0060
:1007a0002068a900a6003700900020003080880053
:1007b000a300370040808000cf80de000001be0033
:1007c00000222000bc2c0200020000009c00370028
:1007d0003180800000022000808f500004003a0029
:1007e00020c0b3004e2d020002000000940037002c
:1007f0003180800010022000808f50001d003a00e0
:1008000020c0b3004e2d0200020000000001be0017
:10081000f0062000010020000202780003017800a9
:10082000800178000100780003026200000061008e
:100830008000eb00c000dd00000020000001be00d1
:100840006120b80000017100818171000280710097
:1008500000f0a7000000ea000000e9004f00de0001
:100860008000780090808000008060009080880088
:10087000730037003180800020022000808f5000fc
:1008800012003a00b0c0b3004e2d0200020000007a
:100890000001be0080062000010020000000690069
:1008a000818069000080700000f0a7000000ea006d
:1008b0000000e9004f00de0080007800908080009a
:1008c00000806000908088005d00370031808000eb
:1008d00030022000808f500012003a00c0c0b300e8
:1008e0004e2d0200020000000001be00e0032000c7
:1008f0000100200000006900818069000080700014
:1009000000f0a7000000ea000000e9004f00de0050
:1009100080007800908080000080600090808800d7
:10092000470037003180800040022000808f500057
:1009300012003a00d0c0b3004e2d020002000000a9
:100940000001be0020082000010020000000690016
:10095000818069000080700000f0a7000000ea00bc
:100960000000e9004f00de008000780090808000e9
:100970000080600090808800310037003180800066
:1009800050022000808f500012003a00e0c0b300f7
:100990004e2d0200020000000001be00d004200025
:1009a0000100200000006900818069000080700063
:1009b00000f0a7000000ea000000e9004f00de00a0
:1009c0008000780090808000008060009080880027
:1009d0001b0037003180800060022000808f5000b3
:1009e0000e003a00f0c0b3004e2d020002000000dd
:1009f0006f0068000080700000f0a7000000ea00af
:100a00000000e9004f00de00800078009080800048
:100a100000806000908088000900370031808000ed
:100a200070022000808f500005003a004080800056
:100a30000000e80040808800e0012000308088004d
:100a40000080fa004f03be004f02be004f01be00ff
:100a50004f00be003600f900004006003600f800e6
:100a6000809fbe00829fbe00849fbe00869fbe0006
:100a70001200fa000288a90000002400482c02009d
:100a80000200000010079800210798001e01900046
:100a9000ae019000f07f20000100200002027800eb
:100aa00003017800800178000100780003026200f1
:100ab000000061008000eb00c000dd0000002000ad
:100ac0000001be006120b800000171008181710049
:100ad00032079800430798001e019000ae01900075
:100ae00000002000110020000202780003017800bd
:100af00080017800010078000302620000006100bc
:100b00008000eb00c000dd00000020000001be00fe
:100b10006120b8000001710081817100e00f510077
:100b2000e08f59001f02320010002400482c020000
:100b30000200000050079800610798000000eb00d9
:100b4000000f78003e019000ce01900000f02000e0
:100b50000100200002027800030178008001780083
:100b60000100780003026200000061006101b8002a
:100b7000c011dd00020020000200be006121b800ab
:100b8000020070008380700002102000030020002b
:100b9000820f5000838f5800fa00320002102000ac
:100ba00003002000820f5000838f580004003e0095
:100bb000e00f5000e08f58000c003200f1013700c8
:100bc0000220200003002000820f5000838f580075
:100bd000c50132000260200003002000820f500097
:100be000838f5800c8013200e60137003e019000b3
:100bf000ce019000000f20000100200002027800ca
:100c0000030178008001780001007800030262008f
:100c1000000061006101b800c011dd000200200089
:100c20000200be006121b8000200700083807000e5
:100c30000203200003002000820f5000838f580021
:100c4000600032000203200003002000820f5000e9
:100c5000838f580009003e00e00f5000e08f5800dd
:100c60000c0032000202200003002000820f50001e
:100c7000838f580034003200c20137000204200084
:100c800003002000820f5000838f58009300320031
:100c9000bc0137003e019000ce019000f000200022
:100ca0000100200002027800030178008001780032
:100cb0000100780003026200000061008000eb0088
:100cc000c000dd00000020000001be006120b8006f
:100cd00000017100818171001000200001002000de
:100ce000800f5100818f5900060032002000200043
:100cf00001002000800f5100818f5900090032004f
:100d0000100037005e019000ee019000010021000c
:100d100010002000a02d020002000000000f78004b
:100d2000080037005e019000ee01900001002100f4
:100d300020002000a02d020002000000000f78001b
:100d4000000000008e0037003e019000ce019000b0
:100d5000f00020000100200002027800030178006a
:100d60008001780001007800030262000000610049
:100d70008000eb00c000dd00000020000001be008c
:100d80006120b8000001710081817100e00f510005
:100d9000e08f590001003200090037005e0090002a
:100da000ee009000000078006100600000407800d4
:100db0000004e000010032000000fe00000000001e
:100dc0006f0037003e019000ce019000f00020003f
:100dd0000100200002027800030178008001780001
:100de0000100780003026200000061008000eb0057
:100df000c000dd00000020000001be006120b8003e
:100e0000000171008181710020002000010020009c
:100e1000800f5100818f5900060032003000200001
:100e200001002000800f5100818f59000600320020
:100e3000290037005e009000ee00900010808800ce
:100e400021808800240037007e2d0200020000006f
:100e5000000f780012808000238080000080eb006b
:100e60008080eb00800f5100818f590008003a000c
:100e70008001eb000001eb000080eb008080eb00c4
:100e8000461f0200020000000000fe000f003700b5
:100e90006a01470010808000218080008100d1001d
:100ea0000080d3008201780042002000701e020002
:100eb000020000001080800021808000640040005b
:100ec000e08048001080880021808800922d020078
:100ed0000200000000000000290037003e019000e1
:100ee000ce019000f00020000100200002027800f6
:100ef000030178008001780001007800030262009d
:100f0000000061008000eb00c000dd000000200058
:100f10000001be006120b8000001710081817100f4
:100f2000e00f5100e08f590001003200130037003c
:100f30005e019000ee0190006000200001002000a2
:100f4000800f5100818f590003003a0010002000eb
:100f500000808800090037005e019000ee019000db
:100f6000800d200001002000800f5100818f59006a
:100f700002003a00200020000080880000000000ed
:100f8000000137003e019000ce019000f00f2000dc
:100f9000010020000202780003017800800178003f
:100fa0000100780003026200000061006101b800e6
:100fb000c011dd00020020000200be006121b80067
:100fc00002007000838070000203200003002000f4
:100fd000820f5000838f58008200320002032000ed
:100fe00003002000820f5000838f580023003e0032
:100ff0004201200003002000820f5000838f580020
:10100000580032004201200003002000820f5000ef
:10101000838f580009003e00e00f5000e08f580019
:10102000400032000201200003002000820f500027
:10103000838f580043003200d2003700c2012000e5
:1010400003002000820f5000838f580055003200ab
:101050000202200003002000820f5000838f5800fe
:10106000580032008201200003002000820f50004f
:10107000838f580043003200c2003700c2082000ae
:1010800003002000820f5000838f5800750032004b
:10109000c208200003002000820f5000838f5800f8
:1010a00010003e004208200003002000820f500084
:1010b000838f58005b00320082082000030020006c
:1010c000820f5000838f58005e003200020820001b
:1010d00003002000820f5000838f58004900320027
:1010e000a8003700420c200003002000820f5000af
:1010f000838f58006b003200020e20000300200096
:10110000820f5000838f58006e003200020c2000c6
:1011100003002000820f5000838f580059003200d6
:10112000980037005e019000ee0190003e009000b4
:1011300001002100a02d020002000000000f780035
:10114000680037005e019000ee0190003e009000c4
:1011500001002100a02d020002000000000f780015
:10116000600037005e019000ee0190003e009000ac
:1011700001002100a02d020002000000000f7800f5
:10118000580037005e019000ee0190003e00900094
:1011900001002100a02d020002000000000f7800d5
:1011a000500037005e019000ee0190003e0090007c
:1011b00001002100a02d020002000000000f7800b5
:1011c000480037005e019000ee0190003e00900064
:1011d00001002100a02d020002000000000f780095
:1011e000400037005e019000ee0190003e0090004c
:1011f00001002100a02d020002000000000f780075
:10120000380037005e019000ee0190003e00900033
:1012100001002100a02d020002000000000f780054
:10122000300037005e019000ee0190003e0090001b
:1012300001002100a02d020002000000000f780034
:10124000280037005e019000ee0190003e00900003
:1012500001002100a02d020002000000000f780014
:10126000200037005e019000ee0190003e009000eb
:1012700001002100a02d020002000000000f7800f4
:10128000180037005e019000ee0190003e009000d3
:1012900001002100a02d020002000000000f7800d4
:1012a000100037005e019000ee0190003e009000bb
:1012b00001002100a02d020002000000000f7800b4
:1012c000080037005e019000ee0190003e009000a3
:1012d00001002100a02d020002000000000f780094
:1012e00000000000270037005e009000ee00900034
:1012f0003e0290000001be0004007800bc2c0200f9
:10130000020000001f0037003e019000ce01900057
:10131000f00f200001002000020278000301780095
:101320008001780001007800030262000000610083
:101330008000eb00c000dd00000020000001be00c6
:101340006120b8000001710081817100f00320006c
:1013500001002000800f5100818f590008003e00dd
:101360005e019000ee0190003e009000010021001f
:10137000a02d020002000000000f780001003700dd
:10138000000000001e0078000000e000dc013a00d0
:101390006011b80010002400bc2c02000200000004
:1013a000d70137006000b80070079800010f98005f
:1013b0003e019000ce01900000f0200001002000ce
:1013c00002027800030178008001780001007800b3
:1013d00003026200000061006101b800c011dd007d
:1013e000020020000200be006121b800020070006f
:1013f000838070000220200003002000820f500034
:10140000838f58008f01320002202000030020004b
:10141000820f5000838f580009003e00e00f5000fb
:10142000e08f58001100320002102000030020005d
:10143000820f5000838f5800c5003200aa01370088
:101440000240200003002000820f5000838f5800cc
:10145000820132000260200003002000820f500051
:10146000838f5800830132009f0137003e019000b6
:10147000ce019000000f2000010020000202780041
:101480000301780080017800010078000302620007
:10149000000061008000eb00c000dd0000002000c3
:1014a0000001be006120b80000017100818171005f
:1014b000e00f5100e08f59000600320000032000c9
:1014c00001002000800f5100818f59004c00320034
:1014d000850137003e019000ce019000f000200011
:1014e00001002000020278000301780080017800ea
:1014f0000100780003026200000061006101b80091
:10150000c011dd00020020000200be006121b80011
:101510000200700083807000220020000300200081
:10152000820f5000838f58002400320022002000d8
:1015300003002000820f5000838f580009003e00f6
:10154000e00f5000e08f5800110032001200200020
:1015500003002000820f5000838f580011003200da
:10156000260037004200200003002000820f5000b8
:10157000838f5800170032008200200003002000f3
:10158000820f5000838f5800170032001b00370075
:10159000500120000100200070079800010f980002
:1015a00016003700100020004a320200020000003e
:1015b00070079800010f98001000370020002000ed
:1015c0004a3202000200000070079800010f9800e4
:1015d0000a003700d00020000100200070079800aa
:1015e000010f9800050037001000200001002000c6
:1015f00070079800010f98000000000053003700aa
:101600003e019000ce019000f0002000010020007b
:101610000202780003017800800178000100780060
:1016200003026200000061006101b800c011dd002a
:10163000020020000200be006121b800020070001c
:10164000838070002200200003002000820f5000e1
:10165000838f580027003200320020000300200052
:10166000820f5000838f58002700320012002000a4
:1016700003002000820f5000838f580001003200c9
:1016800031003700201020006101b800f00f200069
:101690000100200002027800030178008001780038
:1016a0000100780003026200000061008000eb008e
:1016b000c000dd00000020000001be006120b80075
:1016c0000001710081817100c011dd000200200065
:1016d00000002a008000eb000200400083804800e8
:1016e000000040008180480070079800010f9800ba
:1016f000150037001080800021808000700798005e
:10170000010f9800100037006e0147001080800024
:10171000218080008100d1000080d3008201780008
:1017200022002000c21d0200020000001080800084
:101730002180800064004000e08048001080880024
:10174000218088000000000000000000e600370053
:101750003e019000ce019000f00f2000010020001b
:10176000020278000301780080017800010078000f
:1017700003026200000061006101b800c011dd00d9
:10178000020020000200be006121b80002007000cb
:10179000838070000203200003002000820f5000ad
:1017a000838f5800760032000203200003002000df
:1017b000820f5000838f580023003e00420120001a
:1017c00003002000820f5000838f58005400320025
:1017d0004201200003002000820f5000838f580038
:1017e00009003e00e00f5000e08f5800400032003a
:1017f0000201200003002000820f5000838f580058
:1018000041003200b8003700c20120000300200070
:10181000820f5000838f58004d00320002022000da
:1018200003002000820f5000838f58004e003200ca
:101830008201200003002000820f5000838f580097
:101840003d003200a8003700c2082000030020003d
:10185000820f5000838f580061003200c2082000c0
:1018600003002000820f5000838f580010003e00bc
:101870004208200003002000820f5000838f580090
:101880004b0032008208200003002000820f50002d
:10189000838f58004c003200020820000300200013
:1018a000820f5000838f58003b0032008e003700bb
:1018b000420c200003002000820f5000838f58004c
:1018c00053003200020e200003002000820f50005f
:1018d000838f580054003200020c200003002000c7
:1018e000820f5000838f5800430032007e00370083
:1018f0003e0090004a32020002000000700798008b
:10190000010f98004e0037003e0090004a3202005e
:101910000200000070079800010f9800480037008f
:101920003e0090004a32020002000000700798005a
:10193000010f9800420037003e0090004a3202003a
:101940000200000070079800010f98003c0037006b
:101950003e0090004a32020002000000700798002a
:10196000010f9800360037003e0090004a32020016
:101970000200000070079800010f98003000370047
:101980003e0090004a3202000200000070079800fa
:10199000010f98002a0037003e0090004a320200f2
:1019a0000200000070079800010f98002400370023
:1019b0003e0090004a3202000200000070079800ca
:1019c000010f98001e0037003e0090004a320200ce
:1019d0000200000070079800010f980018003700ff
:1019e0003e0090004a32020002000000700798009a
:1019f000010f9800120037003e0090004a320200aa
:101a00000200000070079800010f98000c003700da
:101a10003e0090004a320200020000007007980069
:101a2000010f9800060037003e0090004a32020085
:101a30000200000070079800010f980000000000ed
:101a4000290037003e009000482c020002000000f0
:101a500070079800010f9800230037003e009000a7
:101a6000482c02000200000070079800010f980047
:101a70001d0037003e019000ce019000f00f2000c5
:101a80000100200002027800030178008001780044
:101a90000100780003026200000061008000eb009a
:101aa000c000dd00000020000001be006120b80081
:101ab0000001710081817100f0032000010020000d
:101ac000800f5100818f590006003e003e009000bb
:101ad0004a3202000200000070079800010f9800cf
:101ae00001003700000000007e0090008e0890008a
:101af0000001be0010002400bc2c02000200000007
:101b00000080fa004f03be004f02be004f01be002e
:101b10004f00be003600f900004006000040da0029
:081b20000000fe0000000500ba
:020000040000fa
:101b280005000000ff7f0000ff7f0000ff7f00002e
:101b3800ff7f00001810000000000000ffff0000f9
:0c1b4800ffff0000ffff0000ffff000097
:020000040000fa
:101b5400ff0000004c610000747400006963000021
:101b640065000000694300004563000075620000e1
:101b7400653200002032000030310000362e0000b3
:101b8400313200002e3200003739000031300000bd
:101b94000050000061720000743a000020690000e7
:101ba40043450000343000004c500000344b00002a
:101bb4002d4300004d380000310000004461000056
:101bc400746500003a2000004e6f0000762000008b
:101bd400362000003230000031390000203100008e
:101be400353a0000313500003a31000000ff0000b2
:101bf400390000007eaa0000997e00005100000018
:101c0400010500009200000020620000036700004c
:101c140072010000108200000000000011000000aa
:101c240001010000000000000000000000000000ae
:101c340000000000000000000000000000000000a0
:101c44000000000000000000000000000000000090
:101c54000000000000000000000000000000000080
:101c64000000000000000000000000000000000070
:101c74000000000000000000000000000000000060
:101c84000000000000000000000000000000000050
:101c94000000000000000000000000000000000040
:101ca4000000000000000000000000000000000030
:101cb4000000000000000000000000000000000020
:101cc4000000000000000000000000000000000010
:101cd4000000000000000000000000000000000000
:101ce40000000000000000000000000000000000f0
:101cf40000000000000000000000000000000000e0
:101d040000000000000000000000000000000000cf
:101d140000000000000000000000000000000000bf
:101d240000000000000000000000000000000000af
:101d3400000000000000000000000000000000009f
:101d4400000000000000000000000000000000008f
:101d5400000000000000000000000000000000007f
:101d6400000000000000000000000000000000006f
:101d7400000000000000000000000000000000005f
:101d8400000000000000000000000000000000004f
:101d9400000000000000000000000000000000003f
:101da400000000000000000000000000000000002f
:101db400000000000000000000000000000000001f
:101dc400000000000000000000000000000000000f
:101dd40000000000000000000000000000000000ff
:101de40000000000000000000000000000000000ef
:101df40000000000000000001000000000000000cf
:101e040000000000000000000000000000000000ce
:101e140000000000000000000000000000000000be
:101e240000000000000000000000000000000000ae
:101e3400000000000000000000000000000000009e
:10216400000000000040000000000000000000002b
:10217400000000000000000000000000000000005b
:10218400000000000000000000000000000000004b
:10219400000000000000000000000000000000003b
:1021a400000000000000000000000000000000002b
:1021b400000000000000000000000000000000001b
:1021c400000000000000000000000000000000000b
:1021d40000000000000000000000000000000000fb
:1021e40000000000000000000000000000000000eb
:1021f40000000000000000000000000000000000db
:1022040000000000000000000000000000000000ca
:10221400500000000000000000000000000000006a
:1022240000000000000000000000000000000000aa
:10223400000000000000000000200000000000007a
:10224400000000000000000000000000000000008a
:10225400000000000000000000000000000000007a
:10226400000000000000000000000000000000006a
:10227400000000000000000000000000000000005a
:10228400000000000000000000000000000000004a
:10229400000000000000000000000000000000003a
:1022a400000000000000000000000000000000002a
:1022b400000000000000000000000000000000001a
:1022c400000000000000000000000000000000000a
:1022d40000000000000000000000000000000000fa
:1022e400000000000000000000800000000000006a
:1022f40000000000000000000000000000000000da
:1023040000000000000000000000000000000000c9
:10231400000000000000000000c0000000000000f9
:10232400000000000802000000000000000000009f
:102334000000000000000000000000000000000099
:102344000000000000000000000000000000000089
:102354000000000000000000000000000000000079
:102364000000000000000000000000000000000069
:102374000000000000000000000000000000000059
:102384000000000000000000000000000000000049
:102394000000000000000000000000000000000039
:1023a4000000000000000000000000000000000029
:1023b4000000000000000000000000000000000019
:1023c4000000000000000000000000000000000009
:1023d40000000000000000000000000000000000f9
:1023e40000000000000000000000000000000000e9
:1023f40000000000000000000000000000070000d2
:1024040000000000000000000000000000000000c8
:1024140000000000000000000000000000000000b8
:1024240000000000000000000000000000000000a8
:102434000000000000000000000000000000000098
:102444000000000000000000000000000000000088
:102454000000000000000000000000000000000078
:102464000000000000000000000000000000000068
:102474000000000000000000000000000000000058
:102484000000000000000000000000000000000048
:102494000000000000000000000000000000000038
:1024a4000000000000000000000000000000000028
:1024b4000000000000000000000000000000000018
:1024c40000000000000000001000000000000000f8
:1024d40000000000000000000000000003000000f5
:1024e40000000000000000000000000000000000e8
:1024f40000000000000000000000000000000000d8
:1025040000000000000000000000000000000000c7
:1025140000000000000000000000000000000000b7
:1025240000000000000000000000000000000000a7
:102534000000000000000000000000000000000097
:102544000000000000000000000000000000000087
:102554000000000000000000000000000000000077
:102564000000000000000000000000000000000067
:10257400000000000000000000000000080000004f
:102584000000000000000000000000000000000047
:102594000000000000000000000000000000000037
:1025a4000000000000000000000000000000000027
:1025b4008000000000010000000000000000000096
:1025c4000000000000000000000000000000000007
:1025d40000000000000000000000000000000000f7
:1025e40000000000000000000000000000000000e7
:1025f40000000000000000000000000000000000d7
:1026040000000000000000000000000000000000c6
:1026140000000000000000000000000000000000b6
:1026240000000000000000000000000000000000a6
:102634000000000000000000000000000000000096
:102644000000000000000000000000000000000086
:102654000000000000040000000000000000000072
:102664000000000000000000000000000000000066
:102674000000000000000000000000000000000056
:102684000000000000000000000000000000000046
:102694000000000000000000000000000000000036
:1026a4000000000000000000000000000000000026
:1026b4000000000000000000000000000000000016
:1026c4000000000000000000000000000000000006
:1026d40000000000000000000000000000000000f6
:1026e40000000000000000000000000000000000e6
:1026f40000000000000000000000000000000000d6
:1027040000000000000000000000000000000000c5
:1027140000000000000000000000000000000000b5
:1027240000000000000000000000000000000000a5
:102734000000000000000000000000000000000095
:102744000000000000000000000000000000000085
:102754000000000000100000000000000000000065
:102764000000000040000000000000000000000025
:102774000000000000000000000000000000000055
:102784000000000000000000000000000000000045
:102794000000000000000000000000000000000035
:1027a4000000000000000000000000000000000025
:1027b4000000000000000000000000000000000015
:1027c4000000000000000000000000000000000005
:1027d40000000000000000000000000000000000f5
:1027e40000000000000000000000000000000000e5
:1027f40000000000000000000000000000000000d5
:1028040000000000000000000000000000000000c4
:1028140000000000000000000000000000000000b4
:1028240000000000000000000000000000000000a4
:102834000000000000400000000000000000000054
:102844000000000000000000000000000000000084
:102854000000000000000000000000000000000074
:102864000000000000000000000000000000000064
:102874000000000000000000000000000000000054
:102884000000000000000000000000000000000044
:102894000000000000000000000000000000000034
:1028a4000000000000000000000000000000000024
:1028b4000000000000000000000000000000000014
:1028c4000000000000000000000000000000000004
:1028d40000000000000000000000000000000000f4
:1028e40000000000000000000000000000000000e4
:1028f40000000000000000000000000000000000d4
:1029040000000000000000000000000000000000c3
:102914000000000000000000800000000000000033
:1029240000000000000000000000000000000000a3
:102934000000000000000000000000000000000093
:102944000000000000000000000000000000000083
:102954000000000000000000000000000000000073
:1045e40002000000000000000000000000000000c5
:1045f40000000000000000000000000000000000b7
:1046040000000000000000000000000000000000a6
:104614000000000000000000000000000000000096
:104624000000000000000000000000000000000086
:104634000000000000000000000000000000000076
:104644000000000000000000000000000000000066
:104654000000000000000000000000000000000056
:104664000000000000000000000000000000000046
:104674000000000000000000000000000000000036
:104684000000000000000000000000000000000026
:104694000000000000000000000000000000000016
:1046a4000000000000000000000000000000000006
:1046b40000000000000000000000000000000000f6
:1046c40000000000000000000000000000000000e6
:1046d40000000000000000000000000000000000d6
:1046e40000000000000000000000000000000000c6
:1046f40000000000000000000000000000000000b6
:1047040000000000000000000000000000000000a5
:104714000000000000000000000000000000000095
:104724000000000000000000000000000000000085
:104734000000000000000000000000000000000075
:104744000000000000000000000000000000000065
:104754000000000000000000000000000000000055
:104764000000000000000000000000000000000045
:104774000000000000000000000000000000000035
:104784000000000000000000000000000000000025
:104794000080000000000000000000000000000095
:1047a4000000000000000000000000000000000005
:1047b40000000000000000000000000000000000f5
:1047c40000000000000000000000000000000000e5
:1047d40000000000000000000000000000000000d5
:1047e40000000000000000000000000000000000c5
:1047f40000000000000000000000000000000000b5
:1048040000000000000000000000000000000000a4
:104814000000000000000000000000000000000094
:104824000000000000000000000000000000000084
:104834000000000000000000000000000000000074
:104844000000000000000000000000000000000064
:104854000000000000000000000000000000000054
:104864000000000000000000000000000000000044
:104874000000000000000000000000000000000034
:104884000000000000000000000000000000000024
:104894000000000000000000000000000000000014
:1048a4000000000000000000000000000000000004
:1048b40000000000000000000000000000000000f4
:1048c40000000000000000000000000000000000e4
:1048d40000000000000000000000000000000000d4
:1048e40000000000000000000000000000000000c4
:1048f40000000000000000000000000000000000b4
:1049040000000000000000000000000000000000a3
:104914000000000000000000000000000000000093
:104924000000000000000000000000000000000083
:104934000000000000000000000000000000000073
:1049440000000000008000000000000000000000e3
:104954000000000000000000000000000000000053
:104964000000000000000000000000000000000043
:104974000001000000000000000000000000000032
:104984000000000000000000000000000000000023
:104994000000000000000000000000000000000013
:1049a4000000000000000000000000000000000003
:1049b40000000000000000000000000000000000f3
:1049c40000000000000000000000000000000000e3
:1049d40000000000000000000000000000000000d3
:1049e40000000000000000000000000000000000c3
:1049f40000000000000000000000000000000000b3
:104a040000000000000000000000000000000000a2
:104a14000000000000000000000000000000000092
:104a24000001000000000000000000000000000081
:104a34000000000000000000000000000000000072
:104a44000000000000000000000000000000000062
:104a54000000000000000000000000000000000052
:104a64000000000000000000000000000000000042
:104cb40002000000000000000000000000000000ee
:104cc40000000000000000000000000000000000e0
:104cd40000000000000000000000000000000000d0
:104ce40000000000000000000000000000000000c0
:104cf40000000000000000000000000000000000b0
:104d0400000000000000000000000000000000009f
:104d1400000000000000000000000000000000008f
:104d2400000000000000000000000000000000007f
:104d3400000000000000000000000000000000006f
:104d4400000000000000000000000000000000005f
:104d5400000000000000000000000000000000004f
:104d6400000000000000000000000000000000003f
:104d7400000000000000000000000000000000002f
:104d840000000000000000004c00000000000000d3
:104d9400000000000000000000000000000000000f
:104da40000000000000000000000000000000000ff
:104db40000000000000000000000000000000000ef
:104dc40000000000000000000000000000000000df
:104dd40000000000000000000000000000000000cf
:104de40000000000000000000000000000000000bf
:104df40000000000000000000000000000000000af
:104e0400000000000000000000000000000000009e
:104e1400000000000000000000000000000000008e
:104e2400000000000000000000000000000000007e
:104e3400000000000000000000000000000000006e
:104e4400000000000000000000000000000000005e
:104e5400000000000000000000000000000000004e
:104e6400000c000000000000000000000000000032
:104e7400000000000000000000000000000000002e
:104e8400000000000000000000000000000000001e
:104e9400000000000000000000000000000000000e
:104ea40000000000000000000000000000000000fe
:104eb40000000000000000000000000000000000ee
:104ec40000000000000000000000000000000000de
:104ed40000000000000000000000000000000000ce
:104ee40000000000000000000000000000000000be
:104ef40000000000000000000000000000000000ae
:104f0400000000000000000000000000000000009d
:104f1400000000000000000000000000000000008d
:104f2400000000000000000000000000000000007d
:104f3400000000000000000000000000000000006d
:104f4400000000000000000000000000000000005d
:104f5400000000000000000000000000000000004d
:104f6400000000000000000000000000000000003d
:104f7400000000000000000000000000000000002d
:104f8400000000000000000000000000000000001d
:104f9400000000000000000000000000000000000d
:104fa40000000000000000000000000000000000fd
:104fb40000000000000000000000000000000000ed
:104fc40000000000000000000000000000000000dd
:104fd40000000000000000000000000000000000cd
:104fe40000000000000000000000000002000000bb
:104ff40000000000000000000000000000000000ad
:10500400000000000000000000000000000000009c
:10501400000000000080000000000000000000000c
:10502400000000000000000000000000000000007c
:10503400000000000000000000000000000000006c
:10504400000000000000000000000000000000005c
:10505400000000000000000000000000000000004c
:10506400000000000000000000000000000000003c
:10507400000000000000000000000000000000002c
:10508400000000000000000000000000000000001c
:10509400000000000000000000000000000000000c
:1050a40000000000000000000000000000000000fc
:1050b40000000000000000000000000000000000ec
:1050c40000000000000000000000000000000000dc
:1050d40000000000000000000000000000000000cc
:1050e40000000000000000000000000000000000bc
:1050f400400000000000000000000000000000006c
:10510400000000000000000000000000000000009b
:10511400000000000000000000000000000000008b
:10512400000000000000000000000000000000007b
:10513400000000000000000000000000000000006b
:10514400000000000000000000000000000000005b
:10515400000000000000000000000000000000004b
:10516400000000000000000000000000000000003b
:10517400000000000000000000000000000000002b
:10518400000000000000000000000000000000001b
:10519400000000000000000000000000000000000b
:1051a40000000000000000000000000000000000fb
:1051b40000000000000000000000000000000000eb
:1051c4000000000000000000000000002c000000af
:1051d40000000000000000000000000000000000cb
:1051e40000000000000000000000000000000000bb
:1051f40000000000000000000000000000000000ab
:10520400000000000000000000000000000000009a
:10563400000000000000000000a0000000000000c6
:105644000000000000000000000000000000000056
:105654000000000000000000000000000000000046
:105664000000000000000000000000000000000036
:105674000000000000000000000000000000000026
:1058940000000000000000000010000000000000f4
:1058a40000000000000000000000000000000000f4
:1058b40000000000000000000000000000000000e4
:1058c40000000000000000000000000000000000d4
:1058d40000000000000000000000000000000000c4
:10604400000000004000000000000000000000000c
:10605400000000000000000000000000000000003c
:10606400000000000000000000000000000000002c
:10607400000000000000000000000000000000001c
:10608400000000000000000000000000000000000c
:1062d400008000000000000000000000000000003a
:1062e40000000000000000000000000000000000aa
:1062f400000000000000000000000000000000009a
:106304000000000000000000000000000000000089
:106314000000000000000000000000000000000079
:106324000000000000000000000000000000000069
:106334000000000000000000000000000000000059
:106344000000000000000000000000000000000049
:106354000000000000000000000000000000000039
:106364000000000000000000000000000000000029
:106374000000000000000000000000000000000019
:106384000000000000000000000000000000000009
:1063940000000000000000000000000000000000f9
:1063a40000000000000000000000000048000000a1
:1063b40000000000000000000000000000000000d9
:1063c40000000000000000000000000000000000c9
:1063d40000000000000000000000000000000000b9
:1063e40000000000000000000000000000000000a9
:1063f4000000000000000000000000000000000099
:106404000000000000000000000000000000000088
:106414000000000000000000000000000000000078
:106424000000000000000000000000000000000068
:106434000000000000000000000000000000000058
:106444000000000000000000000000000000000048
:106454000000000000000000000000000000000038
:106464000000000000000000000000000000000028
:106474000000000000000000000000000000000018
:1064840000000000000c00000000000000000000fc
:1064940000000000000000000000000000000000f8
:1064a40000000000000000000000000000000000e8
:1064b40000000000000000000000000000000000d8
:1064c40000000000000000000000000000000000c8
:1064d40000000000000000000000000000000000b8
:1064e40000000000000000000000000000000000a8
:1064f4000000000000000000000000000000000098
:106504000000000000000000000000000000000087
:106514000000000000000000000000000000000077
:106524000000000000000000000000000000000067
:106534000000000000000000000000000000000057
:106544000000000000000000000000000000000047
:106554000000000000000000000000000000000037
:106564000005000000000000000000000000000022
:106574000000000000000000000000000000000017
:106584000000000000000000000000000000000007
:1065940000000000000000000000000000000000f7
:1065a40000000000000000000000000000000000e7
:1065b40000000000000000000000000000000000d7
:1065c40000000000000000000000000000000000c7
:1065d40000000000000000000000000000000000b7
:1065e40000000000000000000000000000000000a7
:1065f4000000000000000000000000000000000097
:106604000000000000000000000000000000000086
:106614000000000000000000000000000000000076
:106624000000000000000000000000000000000066
:10663400000000000000000000000000280000002e
:106644000000000000000000000000000000000046
:106654000000000000000000000000000000000036
:106664000000000000000000000000000000000026
:106674000000000000000000000000000000000016
:107c6400020000000000000000000000000000000e
:107c74000000000000000000000000000000000000
:107c840000000000000000000000000000000000f0
:107c940000000000000000000000000000000000e0
:107ca40000000000000000000000000000000000d0
:108404000000000000000000440000000000000024
:108414000000000000000000000000000000000058
:1084240000000000000000000380000000000000c5
:108434000000000000000000000000000000000038
:108444000000000000000000000000000000000028
:108454000000000000000000000000000000000018
:108464000000000000000000000000000000000008
:1084740000000000000000000000000000000000f8
:1084840000000000000000000000000000000000e8
:1084940000000000000000000000000000000000d8
:1084a40000000000000000000000000000000000c8
:1084b40000000000000000000000000000000000b8
:1084c40000000000000000000000000000000000a8
:1084d4000000000000000000000000000000000098
:1084e400000c000038000000000000000000000044
:1084f4000000000000000000000000000000000078
:108504000000000000000000000000000000000067
:108514000000000000000000000000000000000057
:108524000000000000000000000000000000000047
:108534000000000000000000000000000000000037
:108544000000000000000000000000000000000027
:108554000000000000000000000000000000000017
:108564000000000000000000000000000000000007
:1085740000000000000000000000000000000000f7
:1085840000000000000000000000000000000000e7
:1085940000000000000000000000000000000000d7
:1085a40000000000000000000000000000000000c7
:1085b40000000000000000000000000000000000b7
:1085c40000000000000000000000000000000000a7
:1085d4000000000000000000000000000000000097
:1085e4000000000000000000000000000000000087
:1085f4000000000000000000000000000000000077
:108604000000000000000000000000000000000066
:108614000000000000000000000000000000000056
:108624000000000000000000000000000000000046
:108634000000000000000000000000000000000036
:108644000000000000000000000000000000000026
:108654000000000000000000000000000000000016
:108664000000000000000000000000000000000006
:1086740000000000000000000000000000000000f6
:1086840000000000000000000000000000000000e6
:108694000000000000800000000000000000000056
:1086a40000000000000000000000000000000000c6
:1086b40000000000000000000000000000000000b6
:1086c40000000000000000000000000000000000a6
:1086d4000000000000000000000000000000000096
:1086e4000000000000000000000000000000000086
:1086f4000000000000000000000000000000000076
:108704000000000000000000000000000000000065
:108714000000000000000000000000000000000055
:108724000000000000000000000000000000000045
:108734000000000000000000000000000000000035
:108744000000000000000000000000000000000025
:108754000000000000000000000000000000000015
:108764000000000000000000000000000000000005
:1087740040000000000000000000000000000000b5
:1087840000000000000000000000000000000000e5
:1087940000000000000000000000000000000000d5
:1087a40000000000000000000000000000000000c5
:1087b40000000000000000000000000000000000b5
:1087c40000000000000000000000000000000000a5
:1087d4000001000000000000000000000000000094
:1087e4000000000000000000000000000000000085
:1087f4000000000000000000000000000000000075
:108804000000000000000000000000000000000064
:108814000000000000000000000000000000000054
:108824000000000000000000000000000000000044
:108834000000000000000000000000000000000034
:108844000000000000000000000000000000000024
:108854000000000000000000000000000000000014
:108864000000000000000000000000000000000004
:1088740000000000000000000000000000000000f4
:1088840000000000000000000000000000000000e4
:1088940000000000000000000000000000000000d4
:1088a40000000000000000000000000001000000c3
:1088b40000000000000000000000000000000000b4
:1088c40000000000000000000000000000000000a4
:1088d4000000000000000000000000000000000094
:1088e4000000000000000000000000000000000084
:108bd4000028000000000000000000000000000069
:108be4000000000000000000000000000000000081
:108bf4000000000000000000000000000000000071
:108c04000000000000000000000000000000000060
:108c14000000000000000000000000000000000050
:108e9400000000000001000080000000000000004d
:108ea40000000000000000000000000000000000be
:108eb40000000000000000000000000000000000ae
:108ec400000000000000000000000000000000009e
:108ed400000000000000000000000000000000008e
:108ee400000000000000000000000000000000007e
:108ef400000000000000000000000000000000006e
:108f0400000000000000000000000000000000005d
:108f14000000000000000000001800000000000035
:108f2400000000000000000000000000000000003d
:108f3400000000000000000000000000000000002d
:108f4400000000000000000000000000000000001d
:108f5400000000000000000000000000000000000d
:108f640000000000000000000000000000000000fd
:108f740000000000000000000000000000000000ed
:108f840000000000000000000000000000000000dd
:108f940000000000000000000000000000000000cd
:108fa40000000000000000000000000000000000bd
:108fb40000000000000000000000000000000000ad
:108fc400000000000000000000000000000000009d
:108fd400000000000000000000000000000000008d
:108fe400000000000000000000000000000000007d
:108ff400000000000000000000000000000000006d
:10900400000000000000000000000000000000005c
:10901400000000000000000000000000000000004c
:10902400000000000000000000000000000000003c
:10903400000000000000000000000000000000002c
:10904400000000000000000000000000000000001c
:10905400000000000000000000000000000000000c
:1090640000000000000000000000000000000000fc
:1090740000000000000000000000000000000000ec
:1090840000000000000000000000000000000000dc
:1090940000000000000000000000000000000000cc
:1090a40000000000000000000000000000000000bc
:1090b40000000000000000000000000000000000ac
:1090c400000000000000000000000000000000009c
:1090d400000000000000000000000000000000008c
:1090e400000000000000000000000000000000007c
:1090f4000000000000000000000000000400000068
:10910400000000000000000000000000000000005b
:10911400000000000000000000000000000000004b
:10912400000000000000000000000000000000003b
:10913400000000000000000000000000000000002b
:1094940000000000000000000000000001000000c7
:1094a40000000000000000000000000000000000b8
:1094b40000000000000000000000000000000000a8
:1094c4000000000000000000000000000000000098
:1094d4000000000000000000000000000000000088
:109a440000000000000000000000000040000000d2
:109a54000000000000000000000000000000000002
:109a640000000000000000000000000000000000f2
:109a740000000000000000000000000000000000e2
:109a840000000000000000000000000000000000d2
:109a940000000000000000000000000000000000c2
:109aa40000000000000000000000000000000000b2
:109ab40000000000000000000000000000000000a2
:109ac4000000000000000000000000000000000092
:109ad4000000000000000000000000000000000082
:109ae4000000000000000000000000000000000072
:109af4000000000000000000000000000000000062
:109b04000000000000000000000000000000000051
:109b14000000000000000000000000000000000041
:109b240000000000004000000000000000000000f1
:109b34000000000000000000000000000000000021
:109b44000000000000000000000000000000000011
:109b54000000000000000000000000000000000001
:109b640000000000000000000000000000000000f1
:109b740000000000000000000000000000000000e1
:109b840000000000000000000000000000000000d1
:109b940000000000000000000000000000000000c1
:109ba40000000000000000000000000000000000b1
:109bb40000000000000000000000000000000000a1
:109bc400000000000400000000000000000000008d
:109bd4000000000000000000000000000000000081
:109be4000000000000000000000000000000000071
:109bf4000000000000000000000000000000000061
:109c04000000000000000000000000000000000050
:109f14000004000000000000000000000000000039
:109f240010000000000000000000000000400000dd
:109f3400000000000000000000010000000000001c
:109f4400000000000000000000000000000000000d
:109f540000000000000000000000000000000000fd
:109f640000000000000000000000000000000000ed
:109f740000000000000000000000000000000000dd
:109f840000000000000000000000000000000000cd
:109f940000000000000000000000000000040000b9
:109fa40000000000000000000000000000000000ad
:109fb4000000000000040000000000000000000099
:109fc400000000001000000000000000000000007d
:109fd400004000000000000000000000000000003d
:109fe400000000000000000000000000000000006d
:109ff400000000000000000000000000000000005d
:10a00400000000000000000000000000000000004c
:10a01400000000000000000000000000000000003c
:10a02400000000000000000000000000000000002c
:10a03400000000000000000000000000000000001c
:10a04400000000000000000000000000000000000c
:10a0540000000000000000000000000000000000fc
:10a0640000000000000000000000000000000000ec
:10a0740000000000000000000000000000000000dc
:10a0840000000000000000000000000000000000cc
:10a0940000000000000000000000000000000000bc
:10a0a40000000000000000000000000000000000ac
:10a0b400000000000000000000000000000000009c
:10a0c4000000000000040000000000000000000088
:10a0d400000000001000000000000000000000006c
:10a0e400004000000000000000000000000100002b
:10a0f400000000000000000000000000000000005c
:10a10400000000000000000000000000000000004b
:10a11400000000000000000000000000000000003b
:10a12400000000000000000000000000000000002b
:10a13400000000000000000000000000000000001b
:10a14400000000000000000000000000000000000b
:10a1540000000000000000000000000000000000fb
:10a1640000000000000000000000000000000000eb
:10a1740000000000000000000000000000000000db
:10a1840000000000000000000000000000000000cb
:10a1940000000000000000000000000000000000bb
:10a1a400800000000000000000000000000000002b
:10a1b400000000000000000000000000400000005b
:10a1c400000000000000000001000000000000008a
:10a1d400000000000000000000000000000000007b
:10a1e400000000000000000000000000000000006b
:10a1f400000000000000000000000000000000005b
:10a20400000000000000000000000000000000004a
:10a214000000000000000000000000000001000039
:10a224000000000000000000000000000400000026
:10a23400000000000000000000100000000000000a
:10a244000000000004000000000000000000000006
:10a2540000100000000000000000000000000000ea
:10a2640040000000000000000000000001000000a9
:10a2740000000000000000000004000000000000d6
:10a2840000000000000000001000000000000000ba
:10a294000000000000400000040000000000000076
:10a2a4000001000010000000000000000000000099
:10a2b400000000000000000000000000000000009a
:10a2c400000000000000000000000000000000008a
:10a2d400000000000000000000000000000000007a
:10a2e400000000000000000000000000000000006a
:10a2f400000000000000000000000000000000005a
:10a304000000000000000000000000000000000049
:10a314000000000000000000000000000000000039
:10a324000000000000000000000000000000000029
:10a334000000000000000000000000000000000019
:10a344000000000000000000000000000000000009
:10a3540000000000000000000000000000000000f9
:10a3640000000000000000000000000000000000e9
:10a3740000000000000000000000000000000000d9
:10a3840000000000000000000000000000000000c9
:10a3940000000000000000000000000000000000b9
:10a3a40000000000000000000000000000000000a9
:10a3b4000000000000000000000000000000000099
:10a3c4000000000000000000000000000000000089
:10a3d4000000000000000000000000000000000079
:10a3e4000000000000000000000000000000000069
:10a3f4000000000000000000000000000000000059
:10a404000000000000000000000000000000000048
:10a4140000000000400000000000000000000000f8
:10a424000100000000000000000000000004000023
:10a434000000000000000000000000001000000008
:10a4440000000000000000000040000000000000c8
:10a4540000000000000000000000000000000000f8
:10a4640000000000000000000000000000000000e8
:10a4740000000000000000000000000000000000d8
:10a4840000000000000000000000000000000000c8
:10a4940000000000000000000000000000000000b8
:10a4a40000000000000000000000000000000000a8
:10a4b4000000000000000000000000000000000098
:10a4c4000000000000000000000000000000000088
:10a4d4000000000000000000000000000000000078
:10a4e4000000000000000000000000000000000068
:10a4f400000000003bc100008000000020000000bc
:10a504000000000000000000000000000000000047
:10a514000000000000000000002000000cf000001b
:10a5240040000000000000000000000000000000e7
:10a534000000000000000000000000000000000017
:10a544000000000000000000000000000000000007
:10a5540000000000000000000000000000000000f7
:10a5640000000000000000000000000000000000e7
:10a5740000000000000000000000000000000000d7
:10a5840000000000000000000000000000000000c7
:10a5940000000000000000000000000000000000b7
:10a5a40000000000000000000000000000000000a7
:10a5b4000000000000000000000000000000000097
:10a5c4000000000000000000000000000043000044
:10a5d400c0000000000000000000000000000000b7
:10a5e4000000000000000000000000000000000067
:10a5f4000000000000000000f00000000000000067
:10a604000000000000000000000000000000000046
:10a614000000000000000000000000000000000036
:10a624000000000000000000000000000000000026
:10a634000000000000000000000000000000000016
:10a644000000000000000000000000000000000006
:10a6540000000000000000000000000000000000f6
:10a6640000000000000000000000000000000000e6
:10a6740000000000000000000000000000000000d6
:10a6840000000000000000000000000000000000c6
:10a6940000000000000000000000000000000000b6
:10a6a400180000000000000000000000000000008e
:10a6b4000000000000000000000100008010000005
:10a6c400000300003c100000060000000000000031
:10a6d4000000000000000000000000000000000076
:10a6e4000000000000000000000000000000000066
:10a6f4000000000000000000000000000000000056
:10a704000000000000000000000000000000000045
:10a714000000000000000000000000000000000035
:10a724000000000000000000000000000000000025
:10a734000000000000000000000000000000000015
:10a744000000000000000000000000000000000005
:10a7540000000000000000000000000000000000f5
:10a7640000000000000000000000000000000000e5
:10a7740000000000000000000000000000000000d5
:10a7840000000000000000000000000000000000c5
:10a79400000000000000000020000000003c000059
:10a7a400080000000000000000000000000000009d
:10a7b4000000000000000000000000000000000095
:10a7c4000000000000000000000000000000000085
:10a7d4000000000000000000000000000000000075
:10a7e4000000000000000000000000000000000065
:10a7f4000000000000000000000000000000000055
:10a804000000000000000000000000000000000044
:10a814000000000000000000000000000000000034
:10a824000000000000000000000000000000000024
:10a834000000000000000000000000000000000014
:10a844000000000000000000000000000000000004
:10a8540000000000300000000000000000000000c4
:10a8640000000000000000000000000000000000e4
:10a874000000000000030000bc1000002c000000d9
:10a884000400000008f00000400000000000000088
:10a8940000000000000000000000000000000000b4
:10a8a40000000000000000000000000000000000a4
:10a8b4000000000000000000000000000000000094
:10a8c4000000000000000000000000000000000084
:10a8d4000000000000000000000000000000000074
:10a8e4000000000000000000000000000000000064
:10a8f4000000000000000000000000000000000054
:10a904000000000000000000000000000000000043
:10a914000000000000000000000000000000000033
:10a924000000000000000000000000000010000013
:10a934000000000000000000000000000000000013
:10a944000000000000000000000000000000000003
:10a95400003c0000000c0000000200000010000099
:10a96400f0000000000000000000000000000000f3
:10a9740000000000000000000000000000000000d3
:10a9840000000000000000000000000000000000c3
:10a9940000000000000000000000000000000000b3
:10a9a40000000000000000000000000000000000a3
:10a9b4000000000000000000000000000000000093
:10a9c4000000000000000000000000000000000083
:10a9d4000000000000000000000000000000000073
:10a9e4000001000000000000000000000000000062
:10a9f4000000000000000000000000000000000053
:10aa04000000000000000000000000000000000042
:10aa14000000000000000000000000000000000032
:10aa24000000000000000000000000000000000022
:10aa340000000000040000001af0000040000000c4
:10aa44000000000000000000000000000000000002
:10aa540000000000000000000000000000000000f2
:10aa640000000000000000000000000000000000e2
:10aa740000000000000000000000000000000000d2
:10aa840000000000000000000000000000000000c2
:10aa940000000000000000000000000000000000b2
:10aaa40000000000000000000000000000000000a2
:10aab4000000000000000000000000000100000091
:10aac4000000000000000000000000000000000082
:10aad4000000000000000000000000000000000072
:10aae4000000000000000000000000000000000062
:10aaf4000000000000000000000000000000000052
:10ab0400000000000000000000000000000200003f
:10ab140000000000f0000000000000000000000041
:10ab24000000000000000000000000000000000021
:10ab34000000000000000000000000000000000011
:10ab44000000000000000000000000000000000001
:10ab540000000000000000000000000000000000f1
:10ab640000000000000000000000000000000000e1
:10ab740000000000000000000000000000000000d1
:10ab840000000000000000000000000000000000c1
:10ab940000000000000000000000000000000000b1
:10aba40000000000000000000000000000000000a1
:10abb4000000000000000000000000000000000091
:10abc4000000000000000000000000000000000081
:10abd4000000000000000000000800001a0300004c
:10abe4003c100000200000001c0000000ef00000db
:10abf4004100000000000000000000000000000010
:10ac04000000000000000000000000000000000040
:10ac14000000000000000000000000000000000030
:10ac24000000000000000000000000000000000020
:10ac34000000000000000000000000000000000010
:10ac44000000000000000000000000000000000000
:10ac540000000000000000000000000000000000f0
:10ac640000000000000000000000000000000000e0
:10ac740000000000000000000000000000000000d0
:10ac840000000000000000000000000000000000c0
:10ac9400000000000000000000000000e0000000d0
:10aca40000000000000000000000000000000000a0
:10acb4000000000005000000043c0000000000004b
:10acc4000002000000100000f0000000000000007e
:10acd4000000000000000000000000000000000070
:10ace4000000000000000000000000000000000060
:10acf4000000000000000000000000000000000050
:10ad0400000000000000000000000000000000003f
:10ad1400000000000000000000000000000000002f
:10ad2400000000000000000000000000000000001f
:10ad3400000000000000000000000000000000000f
:10ad440000000000000000000000000000000000ff
:10ad540000000000000000000000000000000000ef
:10ad640000000000000000000000000000000000df
:10ad740000000000000000000000000000000000cf
:10ad840000000000000000000000000000000000bf
:10ad940000070000bc1000002000000000000000bc
:10ada400000000000001000000000000000000009e
:10adb400000000000000000000000000000000008f
:10adc400000000000000000000000000000000007f
:10add400000000000000000000000000000000006f
:10ade400000000000000000000000000000000005f
:10adf400000000000000000000000000000000004f
:10ae0400000000000000000000000000000000003e
:10ae1400000000000000000000000000000000002e
:10ae2400000000000000000000000000000000001e
:10ae3400000000000000000000000000000000000e
:10ae440000000000000000000000000000000000fe
:10ae540000000000000000000000000000000000ee
:10ae6400000000000000000000000000003c0000a2
:10ae740000000000000000000000000000000000ce
:10ae8400028000000000000000000000000000003c
:10ae940000000000000000000000000000000000ae
:10aea400000000000000000000000000000000009e
:10aeb400000000000000000000000000000000008e
:10aec400000000000000000000000000000000007e
:10aed400000000000000000000000000000000006e
:10aee400000000000000000000000000000000005e
:10aef400000000000000000000000000000000004e
:10af0400000000000000000000000000000000003d
:10af1400000000000000000000000000000000002d
:10af2400000000000000000000000000000000001d
:10af3400000000000000000000000000000000000d
:10af440000080000000000000000000000000000f5
:10af54000078000000000000000000000000000075
:10af640000000000000000000000000000000000dd
:10af740000000000000000000000000000000000cd
:10af840000000000000000000000000000000000bd
:10af940000000000000000000000000000000000ad
:10afa400000000000000000000000000000000009d
:10afb400000000000000000000000000000000008d
:10afc400000000000000000000000000000000007d
:10afd400000000000000000000000000000000006d
:10afe400000000000000000000000000000000005d
:10aff400000000000000000000000000000000004d
:10b0040000000000900000000000000000000000ac
:10b014000000000000000000000000000f0000001d
:10b024000000000000000000000000006c000000b0
:10b03400000000000000000000000000000000000c
:10b0440000000000000000000000000000000000fc
:10b0540000000000000000000000000000000000ec
:10b0640000000000000000000000000000000000dc
:10b0740000000000000000000000000000000000cc
:10b0840000000000000000000000000000000000bc
:10b0940000000000000000000000000000000000ac
:10b0a400000000000000000000000000000000009c
:10b0b400000000000000000000000000000000008c
:10b0c400000000000000000000000000000000007c
:10b0d400000000000000000000000000000000006c
:10b0e400000000000000000000000000000000005c
:10b0f4000003000000030000000000000000000046
:10b1040000000000000000000af000004100000000
:10b11400000000000000000000000000000000002b
:10b12400000000000000000000000000000000001b
:10b13400000000000000000000000000000000000b
:10b1440000000000000000000000000000000000fb
:10b1540000000000000000000000000000000000eb
:10b1640000000000000000000000000000000000db
:10b1740000000000000000000000000000000000cb
:10b1840000000000000000000000000000000000bb
:10b1940000000000000000000000000000000000ab
:10b1a400000000000000000000000000000000009b
:10b1b400000000000000000000000000000000008b
:10b1c4000000000000000000000000000200000079
:10b1d40000800000000000000000000000000000eb
:10b1e40000000000f000000000000000000000006b
:10b1f400000000000000000000000000000000004b
:10b20400000000000000000000000000000000003a
:10b21400000000000000000000000000000000002a
:10b22400000000000000000000000000000000001a
:10b23400000000000000000000000000000000000a
:10b2440000000000000000000000000000000000fa
:10b2540000000000000000000000000000000000ea
:10b2640000000000000000000000000000000000da
:10b274000001000080000000000000000000000049
:10b2840000000000000000000000000000000000ba
:10b2940000000000000000000000000000000000aa
:10b2a4000000000000000000100000000002000088
:10b2b400bc10000010000000000000001ef00000a0
:10b2c4004000000000010000b00000000000000089
:10b2d400000000000000000000000000000000006a
:10b2e400000000000000000000000000000000005a
:10b2f4000000000000000000000000000002000048
:10b3040080000000000000000000000000000000b9
:10b314000000000000000000000000000000000029
:10b324000000000000000000000000000000000019
:10b334000000000000000000000000000000000009
:10b3440000000000000000000000000000000000f9
:10b3540000000000000000000000000000000000e9
:10b3640000000000000000000000000000000000d9
:10b3740000000000000000000200000000000000c7
:10b384000020000000000000043c00000000000059
:10b394000000000024000000f00000000000000095
:10b3a40000a00000000000000000000000000000f9
:10b3b4000000000000000000000000000000000089
:10b3c4000000000000000000000000000000000079
:10b3d4000000000000000000000000000000000069
:10b3e4000000000000000000000000000000000059
:10b3f4000000000000000000000000000000000049
:10b404000000000000000000000000000000000038
:10b414000000000000000000000000000000000028
:10b424000000000000000000000000000000000018
:10b434000000000000000000000000000000000008
:10b444001800000000000000000000000060000080
:10b454000000000000000000000100008003000064
:10b464009c020000bc100000060000000000000068
:10b474000af0000040180000000000000033000043
:10b48400c100000060000000000000000000000097
:10b4940000000000000000000000000000000000a8
:10b4a4000000000000000000000000000000000098
:10b4b4000000000000000000000000000000000088
:10b4c4000000000000000000000000000000000078
:10b4d4000000000000000000000000000000000068
:10b4e4000000000000000000000000000000000058
:10b4f4000000000000000000000000000000000048
:10b504000000000000000000000000000000000037
:10b514000000000000000000000000000000000027
:10b524000000000000000000000000000000000017
:10b534000000000000020000009e0000003c00002b
:10b54400044000000000000000100000f0000000b3
:10b55400000000000000000043c0000040000000a4
:10b5640000000000000000000000000000000000d7
:10b5740000000000000000000000000000100000b7
:10b584000000000000000000000000004000000077
:10b5940000000000000000000000000000000000a7
:10b5a4000000000000000000000000000000000097
:10b5b4000000000000000000000000000000000087
:10b5c4000000000000000000000000000000000077
:10b5d4000000000000000000000000000000000067
:10b5e4000000000000000000000000000000000057
:10b5f4000000000000000000000000000000000047
:10b6040000400000000000000000000000010000f5
:10b61400002700001e0600003c100000240000006b
:10b62400006800001af0000040000000005800000c
:10b6340000730000c1000000c00000000000000012
:10b6440000000000000000000000000000000000f6
:10b6540000000000000000000000000000000000e6
:10b664000000000000400000000000000000000096
