:020000040000fa
:080000000002040000000000f2
:020000040000fa
:100008009402000094020000940200009402000090
:100018009402000094020000940200009402000080
:10002800940200009402000094020000d01b00001b
:100038009402000094020000940200007a0b000071
:100048004c08000094020000cc0800009402000054
:100058009402000094020000940200009402000040
:10006800940200002428000094020000940200007a
:100078009402000094020000940200009402000020
:10008800940200009402000094020000500800004e
:1000980084270000e2160000940200009402000089
:1000a80094020000940200009402000094020000f0
:1000b80094020000940200009402000094020000e0
:1000c80094020000940200009402000094020000d0
:1000d80094020000940200009402000094020000c0
:1000e80094020000940200009402000094020000b0
:1000f80094020000940200009402000094020000a0
:10010800940200009402000094020000940200008f
:10011800940200009402000094020000940200007f
:10012800940200009402000094020000940200006f
:10013800940200009402000094020000940200005f
:10014800940200009402000094020000940200004f
:10015800940200009402000094020000940200003f
:10016800940200009402000094020000940200002f
:10017800940200009402000094020000940200001f
:10018800940200009402000094020000940200000f
:1001980094020000940200009402000094020000ff
:1001a80094020000940200009402000094020000ef
:1001b80094020000940200009402000094020000df
:1001c80094020000940200009402000094020000cf
:1001d80094020000940200009402000094020000bf
:1001e80094020000940200009402000094020000af
:0801f8009402000094020000d3
:020000040000fa
:10020800940200009402000094020000940200008e
:10021800940200009402000094020000940200007e
:10022800940200009402000094020000d01b000019
:100238009402000094020000940200007a0b00006f
:100248004c08000094020000f60800009402000028
:10025800940200009402000094020000940200003e
:100268009402000024280000940200009402000078
:10027800940200009402000094020000940200001e
:100288009402000094020000940200008608000016
:1002980084270000e2160000940200009402000087
:1002a80094020000940200009402000094020000ee
:1002b80094020000940200009402000094020000de
:1002c80094020000940200009402000094020000ce
:1002d80094020000940200009402000094020000be
:1002e80094020000940200009402000094020000ae
:1002f800940200009402000094020000940200009e
:10030800940200009402000094020000940200008d
:10031800940200009402000094020000940200007d
:10032800940200009402000094020000940200006d
:10033800940200009402000094020000940200005d
:10034800940200009402000094020000940200004d
:10035800940200009402000094020000940200003d
:10036800940200009402000094020000940200002d
:10037800940200009402000094020000940200001d
:10038800940200009402000094020000940200000d
:1003980094020000940200009402000094020000fd
:1003a80094020000940200009402000094020000ed
:1003b80094020000940200009402000094020000dd
:1003c80094020000940200009402000094020000cd
:1003d80094020000940200009402000094020000bd
:1003e80094020000940200009402000094020000ad
:0803f8009402000094020000d1
:020000040000fa
:10040000cf9b21000e7f22000e018800000000001b
:1004100000012000200288000c000700a0b8220084
:100420000100200011000700000020000000e00093
:10043000020032000000020000000000e40402009c
:10044000000000000040da000000fe004440a90067
:10045000400020000000e000030032000000200007
:10046000a00188004440a800000006009101880017
:10047000800078000000eb0015003700e2804000ab
:1004800032a0b4009101ba00e280400032a0b40072
:100490009102ba00e280400032a0b4000002eb00fa
:1004a000472bde00f507b200602ce10004003a00a3
:1004b0000059eb008301e900fdff3e000400370016
:1004c0006128e100010032000082eb000400070017
:1004d0001101ba000200e000e8ff3a000000060047
:1004e0003159ba008301e9000c0032002159ba00e9
:1004f0008301e900080032000400e00003003a0034
:10050000e280400032a0b400f5ff370011d9ba00f4
:100510008301e900faff3a008100e800e180400031
:1005200032a0b400000006000040da000000fe0027
:10053000020ab900001bb9000200b80081004200a5
:1005400081004300000006006022b800060220007f
:100550000000d0008180d2000482d2008582d200c7
:100560000000a0000202520083825a000300310002
:100570000202420083824a000000a1000603e90053
:10058000f3ff3a0000000600839f68000100e000ce
:1005900002003d0060001000e08018000300e00051
:1005a00002003d0060011100e0811900e6ff070034
:1005b0004f00e00002003b0060001000e0801800e7
:0405c0000000060031
:020000040000fa
:0805c400ffff0000ffff000033
:020000040000fa
:1005cc00f06d80006703b900f4ee21001100090002
:1005dc000403d8008000fd00f06d880000000600c8
:1005ec00c00df800ba11f90000000600010020004f
:1005fc00e2748000f3748000caff0700823e200082
:10060c0003002000cdff0700920020000300200013
:10061c00c4ff07000271220003002000c7ff07007f
:10062c006022b800ea0f5000e08f5800020036003c
:10063c006a025000e08258000400780000000600b6
:10064c007067a90004fe2f00463580008602620008
:10065c000510a00045358800753680000502620043
:10066c007400b30074368800f40f2e0075368000c9
:10067c0005036200058020000503730076368800b0
:10068c000636800086036200067020000683730025
:10069c00063688001636800006026200850272005b
:1006ac001536880041e2a9004322a9004302a800a4
:1006bc0042c2a9004342a80042a2a8001412800022
:1006cc000420a0000430a1000440a00014128800f3
:1006dc00300020004222b7004402a800041280001f
:1006ec000420a0000430a1000440a00004128800e3
:1006fc0041e2a8008540a9009540a900440580006e
:10070c000480a1000490a00004a0a000440588006f
:10071c00000006007067a90004fe2f00463580001b
:10072c00860262000510a0004535880075368000f1
:10073c00050262007400b30074368800f40f2e00ba
:10074c0075368000050362000580200005037300e8
:10075c00763688000636800086036200067020001c
:10076c000683730006368800163680000602620087
:10077c00850272001536880041e2a9004322a900c7
:10078c004302a90042c2a9004342a80042a2a80009
:10079c00141280000420a0000430a1000440a0002a
:1007ac0014128800300020004222b7004402a80036
:1007bc00041280000420a0000430a1000440a0001a
:1007cc000412880041e2a8008540a9009540a900c8
:1007dc00440580000480a1000490a00004a0a000a7
:1007ec00440588000000060014002000346f8800c7
:1007fc0094e0a80000000600e62def0084e0a800bd
:10080c00000006000082eb00843b8800943b8800cb
:10081c00a43b8800b43b88007087a9007167a900cd
:10082c007187a90071a7a90064198800cd62a8007e
:10083c00cd82a800c482a800c402a900c422a800ca
:10084c00c982a900c082a900c962a900c002a9007e
:10085c00c022a900cc02a800c802a900cc22a90081
:10086c00c822a900cce2a800c8e2a9007667a900ba
:10087c0004102800743a880004fe2f0066358000ae
:10088c0086026200a500b30065358800263680001c
:10089c0086026200a500b30025368800353680003c
:1008ac0005026200b400b300343688006322a9004c
:1008bc006302a80062c2a90062a2a80014138000ff
:1008cc000420a0000430a1000440a00014138800f0
:1008dc00300020006222b7006402a80061e2a80088
:1008ec008820a9009820a900a40580000440a0003d
:1008fc000450a1000460a100a405880064058000d8
:10090c000440a1000450a0000460a100640588000c
:10091c008620a9009620a900f67080000603e90045
:10092c001608880005e1a800f4ff2c0025058000be
:10093c000502620004e0a000240588009460a80071
:10094c00940580000403b3000460a10094058800a2
:10095c0087a0a90097a0a80034422f006408880043
:10096c00000320001021b70011e1a800340580001d
:10097c0004c0a00004d0a10004e0a100340588004c
:10098c000464200074088800940880000440a000cf
:10099c000450a1009408880013e1a800940580007d
:1009ac000400a1000410a0000420a10094058800fc
:1009bc008780a9009780a90000000600889fbe00d0
:1009cc00000020000080fb0001002000c000dd00c2
:1009dc000000200004402a0004004000e080480091
:1009ec000220200003002000dd120700cca2a90089
:1009fc0011002000b0c0b3000613070061006000b6
:100a0c004500dd00441680000450a1000002720075
:100a1c0044168800620e0700e00f5000e08f58006b
:100a2c0004003200000e20004220b700004c0200ef
:100a3c0000000000016e80000040eb00f512070082
:100a4c00006e8800e6fe0700116e800010c0b30037
:100a5c00f0120700106e880011718000f0c0b30016
:100a6c00ec120700107188003171800050c2b30085
:100a7c00e812070030718800146e80004822de00f6
:100a8c00e40eb20005062000850f520034003a0037
:100a9c0050052000a0748800962eef004174800051
:100aac00e0c1b300db120700010020004074880095
:100abc0051748800823e2000030020006074800086
:100acc00717480009dfe070080007800f0c1b300b7
:100adc00d0120700843e20000400b8006074880027
:100aec00717488008174800000c2b300c9120700c1
:100afc00010020008074880091748800a17480002b
:100b0c0010c2b300c312070001002000a0748800bb
:100b1c00b17488004206200003002000c0748000dd
:100b2c00d174800085fe07008000780020c2b300dd
:100b3c00b8120700440620000400b800c0748800f6
:100b4c00d1748800e174800030c2b300b112070088
:100b5c0001002000e0748800f17488000c0037005c
:100b6c00882eef008a2eef008c2eef008e2eef00d9
:100b7c00902eef00922eef00942eef00962eef00a9
:100b8c00982eef009a2eef009c2eef009e2eef0079
:100b9c00146e80004822de006f026200e50f5200e6
:100bac0008003a000174800020c1b30099120700bc
:100bbc00007488001174800030c1b30095120700d6
:100bcc0010748800156e8000c82ade006f826200e7
:100bdc00e50f520008003200e80f52000600320008
:100bec00e90f520004003200e50eb20004062000aa
:100bfc00848f520008003a00c1738000d0c0b3004b
:100c0c0084120700c0738800d1738000e0c0b30069
:100c1c0080120700d0738800146e80004822de001a
:100c2c00ef026200e58f520004003200e40eb200c5
:100c3c0005062000850f520008003a00e173800081
:100c4c0000c1b30073120700e0738800f1738000d9
:100c5c0010c1b3006f120700f0738800146e80008f
:100c6c006f026200e20f520007003a00406eef0084
:100c7c0010c0b30041eeb7000440780042eeb7005c
:100c8c0030c0b30043eeb70009dc200028c0b3002d
:100c9c008840e8005901be0008407800791207002e
:100cac00808cbe0008c4e800ea4f5400f8ff3a00fc
:100cbc0061e62000914078008180fb0008407800bc
:100ccc005412070066eeb700f97f20000004eb0019
:100cdc000880d100744040008000eb004d120700ea
:100cec00610264004322dd000400de00806c7800a9
:100cfc000804e800f40f5400f5ff3a00a16f8000df
:100d0c0040c2b30043120700a06f8800046e80003d
:100d1c000402e800f46d8800bafe07000140fe00f2
:100d2c00feff370004708000160020000433dd0045
:100d3c0044708000557080008603e90020708000ac
:100d4c000780b900840340008703d100f761880055
:100d5c00e10f530002003a00042820000300370082
:100d6c008502d1000482d3000428b00004628800fc
:100d7c0000000600881f780000047800040028009a
:100d8c000512800005026200e00f520044003200a0
:100d9c009460a90041e2a90061e2a90040a7a80063
:100dac001400fc00a50920000003eb0084072000c0
:100dbc0037742000844b7800854b7800864b780084
:100dcc007505200016002000640420002774200004
:100ddc00844b7800854b7800864b78004207ab003b
:100dec00feff3a000a0037000040fe0061e2a80056
:100dfc0001c9b3000040eb00860f070001c8b30027
:100e0c000040eb00830f070061e2a9000804e90031
:100e1c00e00f5400f4ff3a001400fc00a509200078
:100e2c00260020008407200037742000844b7800b3
:100e3c00854b7800864b7800750520001600200045
:100e4c006404200027742000844b7800854b7800c4
:100e5c00864b78004207ab00feff3a0040a7a90082
:100e6c00040028000100370041e2a80006128000af
:100e7c0086026200e08f5200fbff32000200370056
:100e8c0061e2a8000100370004002800061380006e
:100e9c0086026200e08f5200f9ff32003900370001
:100eac009460a90061e2a90040a7a8001400fc000e
:100ebc00a60920008507200037742000854b780098
:100ecc00864b7800844b78007505200016002000b6
:100edc006404200027742000844b7800854b780034
:100eec00864b78004207ab00feff3a000a00370041
:100efc000040fe0061e2a80001c9b3000040eb0015
:100f0c00440f070001c8b3000040eb00410f07007d
:100f1c0061e2a9000804e900e00f5400f4ff3a0074
:100f2c001400fc00a50920002600200084072000e6
:100f3c0037742000844b7800854b7800864b780002
:100f4c007505200016002000640420002774200082
:100f5c00844b7800854b7800864b78004207ab00b9
:100f6c00feff3a0040a7a90004002800010037004a
:100f7c0061e2a8000613800086026200e08f520036
:100f8c00fbff32009460a8004f04780000000600bc
:100f9c00b47180008402d100e3826200030032004d
:100fac00e28f520004003a0002003700cd82a90003
:100fbc0001003700cd82a8004322de0063026200ec
:100fcc0003003200e20f520004003a000200370026
:100fdc00c482a90000000600c482a800000006001c
:100fec00b4718000c522de00e3826200030032008f
:100ffc00e28f520004003a0002003700cd82a900b3
:10100c0001003700cd82a8004722de006302620097
:10101c0003003200e20f520004003a0002003700d5
:10102c00c482a90000000600c482a80000000600cb
:10103c00cd82a900c482a90000000600881f780098
:10104c000004eb00a86e8800c87088002400200003
:10105c00b47088007667a90004102800743a8800e0
:10106c0062e6200012417800e1c0b300084078002d
:10107c00e20d0700eeff0700783a88007667a900ba
:10108c00ddfd07004f047800000006008500a90074
:10109c0000400600849fbe00861f780055418000ea
:1010ac001502780044128800c402a90084738000e1
:1010bc000402e800f6728000860f52000200320033
:1010cc008582e80008003700064180000603e9002d
:1010dc00064188000002eb0025822000840f53009b
:1010ec0001003a009760a90084738800554188007c
:1010fc008760a9004f0378004f02be000040060035
:10110c00849fbe00869fbe00c402a900554180008a
:10111c001502780044128800847380000402e800f1
:10112c00d6728000e6728800f7728000870f52003a
:10113c00020032008582e8000e0037000602e8004b
:10114c00d4728800b5728000850f52000100360001
:10115c005a2eef00064180000603e9000641880084
:10116c000002eb0025822000840f530001003a009e
:10117c009760a90084738800554188008760a90096
:10118c004f03be004f02be0000400600c402a80080
:10119c00849fbe00861f78008540a9004512800000
:1011ac00868120008473800066427a00e04f5200f2
:1011bc000800320084618000051a78008461880080
:1011cc0095618000850f520002003a0004832000d4
:1011dc00846188004f0378004f02be000040060077
:1011ec00809fbe00829fbe00849fbe00869fbe0073
:1011fc00889fbe008540a900c402a800451280004b
:10120c00847380008681200066437a00e04f53008f
:10121c00fe003200a6728000e7728000e08f53005f
:10122c00a1003a00e00f530016003a006128b90003
:10123c004222dd00a6c52000040243003401400018
:10124c00a48148000200be00028abe00c472800065
:10125c000402e900030033008180d1000080d30038
:10126c00fbff370084618000000a780084738000e3
:10127c004222dd0004034300000beb003613780020
:10128c0080003700e10f530027003a0004034200ae
:10129c0021c420008680400011037800cfb3de000b
:1012ac006129b90006034100878349004222dd0011
:1012bc00a0c42000040040001001be008381d100b6
:1012cc000281d3000603410087834900850878001a
:1012dc000688be00a5c520000482420034004300ed
:1012ec00a4804b000003be00008abe00c4728000c4
:1012fc000482e8000402e900030033008783d10074
:10130c000683d300fbff370084618000060a780057
:10131c00847380004222dd0084824200800aeb004c
:10132c00b512780057003700e20f530021003a0045
:10133c004220dd00a1c42000808040001101be00cd
:10134c000402420026c42000040243001403780067
:10135c00cfb3de00612cb9000603440087834c0038
:10136c00020441008384490008014100898149003d
:10137c004e1cdd004211de0002017400c299de0039
:10138c000603410087834900050a78008688be0061
:10139c00a4c520008002420035004300a5804b000c
:1013ac000003be00808abe00c5728000e38242004a
:1013bc0028003700e30f530032003a004220dd00d2
:1013cc00a1c42000808040001103be000402420032
:1013dc0022c420000402410014017800cf91de00e9
:1013ec00612cb9000201440083814c00423cdd00b9
:1013fc00ce34de00890474004234dd00080443005e
:10140c0089844b000804430089844b000803430083
:10141c0089834b004d3cdd004333de000603740032
:10142c00c3bbde000203430083834b00050a780034
:10143c008688be00a4c5200080024200350043000f
:10144c00a5804b000003be00808abe00c5728000e0
:10145c00e48242008502e900030033008783d10057
:10146c000683d300fbff370085618000860a780075
:10147c0085738000c22add0005024200000aeb00e1
:10148c0034127800846180000482e8008461880052
:10149c0095618000850f52005c003a0004832000a7
:1014ac008461880059003700e00f530005003a00b2
:1014bc004222dd00a6c5200004024300612bb900c6
:1014cc0050003700e10f530015003a0004034200ae
:1014dc0021c420008680400011037800cfb3de00c9
:1014ec006129b90006034100878349004222dd00cf
:1014fc00a0c42000040040001001be008381d10074
:10150c000281d300060341008783490085087800d7
:10151c000688be00a5c520000482420039003700b1
:10152c00e20f530015003a004220dd00a1c4200058
:10153c00808040001101be000402420026c420003d
:10154c000402430014037800cfb3de00612cb90011
:10155c000603440087834c00020441008384490045
:10156c0008014100898149004e1cdd004211de005a
:10157c0002017400c299de001c003700e30f530017
:10158c0022003a004220dd00a1c4200080804000ef
:10159c001103be000402420022c4200004024100d8
:1015ac0014017800cf91de00612cb90002014400d7
:1015bc0083814c00423cdd00ce34de008904740093
:1015cc004234dd000804430089844b0008044300c6
:1015dc0089844b000803430089834b004d3cdd009c
:1015ec004333de0006037400c3bbde00020343007a
:1015fc0083834b00050a78008688be00a4c52000b2
:10160c0000024200140a430054924b004f04be00e7
:10161c004f03be004f02be004f01be004f00be0084
:10162c00004006000200fa00881f780001047800d0
:10163c00c0ff9f0070e7a90054022000241088000e
:10164c0004042900341088009620a80071e7a90032
:10165c00743e2000e408880021e1a8009780a800cf
:10166c001300200003017800e480570060c3b3002e
:10167c00160f0700e00f500005003a0080017800bb
:10168c0022002000e480570060c3b3001f0f070046
:10169c009780a90021e1a90071e7a8009620a90074
:1016ac000622ef0070e7a800cffa97000582fb0036
:1016bc004822dd00dffa97008582fb00050242001c
:1016cc0005002000048cbe0044002000e00f5000f8
:1016dc0001003a0024002000040078004f04780038
:1016ec000080fa00000006003600f800809fbe0063
:1016fc00829fbe00849fbe00869fbe0084e0a9002e
:10170c001400200014768800d46d8000e00f520085
:10171c0006003a00a1eb200020c0b300c1ff070077
:10172c00e1eb200040c0b300beff0700d46d800089
:10173c000402e800d46d8800f40f52000c00320053
:10174c00f475800005768000f60f2000860f52009d
:10175c00e08f5a0006003600d4758000e5758000d5
:10176c00f61f2000860f5200e08f5a0001003e0049
:10177c00ba2def00c22eef00346f8000e00f520044
:10178c0001003a0094e0a9004f03be004f02be00d6
:10179c004f01be004f00be003600f90000400600ad
:1017ac00000278000408b20016003a00f4c3b3003b
:1017bc00844060004600de00e6cf500003003a0093
:1017cc00614060004300200006003700e3cf50006a
:1017dc0007003a00ae2cef00b02cef006140600027
:1017ec0023002000e2ca2000000c0700750137001e
:1017fc0061406000040c07000080fb000100200029
:10180c006e013700f00fb2006102b8000408b1009d
:10181c000580b100e6072000860f5200e08f5a00c9
:10182c0069013e00046001007e0037007f00370034
:10183c00820037008c0037006301370062013700eb
:10184c008e0037008f0037005f0137005e013700d4
:10185c005d0137005c0137005b0137005a0137002e
:10186c008c0037008e003700900037009200370054
:10187c0055013700540137009500370097003700a9
:10188c0051013700500137004f0137004e0137002e
:10189c004d0137004c0137004b0137004a0137002e
:1018ac004901370090003700920037009300370051
:1018bc00a6003700a7003700a80037004201370008
:1018cc0041013700400137003f013700c2003700ab
:1018dc00c4003700c6003700c8003700ca00370004
:1018ec00cc003700ce003700d0003700360137006f
:1018fc00d1003700d20037003301370032013700f6
:10190c0031013700d1003700d20037002e013700eb
:10191c002d0137002c0137002b0137002a0137002d
:10192c002901370028013700cc003700cb003700e5
:10193c00ca003700c90037002301370022013700e5
:10194c0021013700200137001f0137001e0137002d
:10195c001d0137001c0137001b0137001a0137002d
:10196c001901370018013700c2003700d8003700c2
:10197c00150137001401370013013700120137002d
:10198c0011013700100137000f0137000e0137002d
:10199c000d0137000c0137000b0137000a0137002d
:1019ac000901370008013700cc003700cd003700a3
:1019bc00cf003700d0003700d200370002013700cb
:1019cc0001013700d1003700d2003700fe0037008c
:1019dc00fd003700fc003700fb003700fa00370031
:1019ec00f9003700f8003700f7003700f600370031
:1019fc00f5003700c9003700f3003700f20037005c
:101a0c00f1003700f0003700d2003700d400370067
:101a1c00d6003700d8003700da003700dc0037007a
:101a2c00de003700046e8000af003700d0052000c8
:101a3c0070658800b02cef00e20037000400200035
:101a4c000482fb0005002000c022dd000400200001
:101a5c000600250006024200e0824a000402420011
:101a6c0085824a0002003700447780005577800059
:101a7c007465880085658800d2003700146e80007c
:101a8c00990037004500200075658800b02cef00e8
:101a9c00cc00370064e620001442780009003700bf
:101aac0074e62000144278000600370084e620001b
:101abc001442780003003700441680004522de00f3
:101acc00614262000482fb0005002000e8ff370041
:101adc00d0758000e1758000b8003700f475800087
:101aec0005768000e2ff37001073800021738000c0
:101afc00b2003700847280007b00370054db20007a
:101b0c001442780084cf5000070032009472800099
:101b1c000402e8009472880085728000850f5200e0
:101b2c0001003600522eef0094728000500020000d
:101b3c00e00f5200a5003500c5e42000e5427a0014
:101b4c008582fb004822dd007f003700a4728000f4
:101b5c0065003700b47280006300370054db20004e
:101b6c001442780084cf500006003200246f8000ad
:101b7c000402e800246f8800ea0f520001003400d0
:101b8c00e42def00246f800050002000e00f520085
:101b9c008e003500040342000580200065417b0067
:101bac000281fb00030020006120b900c000dd00b1
:101bbc000000200002004000838048000603e8007b
:101bcc0065437b004833dd00cfb3de0000024300e9
:101bdc0081824b00a6ff3700606f8000716f800020
:101bec0076003700e46f8000f56f8000a0ff3700af
:101bfc00007080001170800070003700247080002d
:101c0c00357080009aff3700407080005170800062
:101c1c006a003700647080007570800094ff370094
:101c2c00807080009170800064003700c46f800069
:101c3c00d56f80008eff3700b47180002a0037000a
:101c4c00406f8000516f80005c0037000471800091
:101c5c003e003700a46f800023003700000cb10059
:101c6c004200dd0044dc2000000042001002be00f7
:101c7c007fff37007671800007002000c833dd003d
:101c8c00060020006471800005002000c022dd00e9
:101c9c0004002000040273008582730046718000ea
:101cac0007002000060272008782720050718000cb
:101cbc0001002000480bdd00c803de008703730021
:101ccc004803dd00060272008782720068ff37004d
:101cdc00807180009171800038003700747580002d
:101cec001a003700140880000500200060ff370040
:101cfc00f4708000150037008475800044a2de006b
:101d0c00120037001471800010003700247180001d
:101d1c000e003700347180000c00370034748000e2
:101d2c0025748000e2036200c23bdd006283620026
:101d3c000603430006834300e182620085024300f0
:101d4c00610262000402420004824200cfa2de0063
:101d5c0047ff3700447480005574800044ff3700ff
:101d6c0060748000717480001400370084748000eb
:101d7c00957480003eff3700a0748000b174800021
:101d8c000e003700c4748000d574800038ff370013
:101d9c00e0748000f1748000080037001674800035
:101dac0007002000c033dd00060020000474800012
:101dbc00050020000600420087804a0070658800fc
:101dcc0081658800300005005000200000000600ee
:101ddc00889fbe008a1f78000105780002047800f5
:101dec00a96e8000e08f540005003a008002780054
:101dfc00f50fb200c40b2000848f520039023a0058
:101e0c00000278000408b20013003a00f4c3b300d7
:101e1c00844060004600de00e6cf500003003a002c
:101e2c00614060004300200004003700e3cf500005
:101e3c0005003a0061406000230020000a01780090
:101e4c00d60a070007023700614060001a4178008b
:101e5c006a0a070003023700f00fb2006102b800f3
:101e6c000408b1000580b100f6072000860f52006f
:101e7c00e08f5a001a023e00046001007f00370018
:101e8c001702370016023700820037008300370034
:101e9c00f4013700ad003700110237001002370093
:101eac000f023700b1003700ee0137000c0237008b
:101ebc000b023700af003700b9003700bb0037000a
:101ecc00bd00370006023700050237000402370058
:101edc00030237000202370001023700000237000c
:101eec00ff013700fe013700fd013700fc01370010
:101efc00fb013700fa013700bc003700bf00370088
:101f0c00c6003700d6003700d8003700eb0037008a
:101f1c00f3013700f2013700f101370003013700fc
:101f2c00090137001301370016013700190137007a
:101f3c001d0137002001370023013700260137002f
:101f4c00290137002a0137004e013700e401370020
:101f5c00e3013700e20137004d0137006201370021
:101f6c00df013700de0137006401370070013700f4
:101f7c007f01370081013700d90137008401370018
:101f8c00830137008201370081013700d40137000b
:101f9c00d3013700d2013700d1013700d00137000f
:101fac00cf013700ce013700cd013700cc0137000f
:101fbc00cb013700ca013700c90137007f01370058
:101fcc008b013700c6013700c5013700c40137004b
:101fdc00c3013700c2013700c1013700c00137000f
:101fec00bf013700be013700bd013700bc0137000f
:101ffc00bb013700ba013700b9013700b80137000f
:10200c00b70137007f013700b50137008001370079
:10201c00b3013700b2013700810137008501370069
:10202c00af013700ae013700ad013700ac0137000e
:10203c00ab013700aa013700a9013700a80137000e
:10204c00a7013700a6013700a5013700a40137000e
:10205c00a3013700a2013700a1013700a00137000e
:10206c009f0137009e013700780137009c01370033
:10207c009b0137009a0137007c0137001a05780064
:10208c000a6e880056f90700016e80000040eb00d4
:10209c00730137001a02be00290037001900200016
:1020ac0054db20001442780084cf51008d013200a3
:1020bc004677800057778000e10f4300e08f4b009c
:1020cc0009003a00000e20004220b7008a01780077
:1020dc00080178000600be0092070700d50807002b
:1020ec000000fe001100370019028000c54cde0014
:1020fc00e7c46400000e20004220b7008700d10026
:10210c000680d3008a01780008017800f2070700e6
:10211c00678264004522dd00f9f12f001502800072
:10212c00858464008484740019028800cfc4de00a6
:10213c0044778000557780000402440085824c006f
:10214c004477880055778800460137009a0078005c
:10215c006f82600059002000e20f520061013a00ca
:10216c00116e880010c0b3003d0137000000fe0066
:10217c003c0137009a0290005900200044232100b2
:10218c00848f520057013a009a0078000140780081
:10219c0066eeb7008180fb00a0c0b30030013700b1
:1021ac001a40780067eeb7002e0137001a4078000d
:1021bc0068eeb7002b0137001a427800e14262004a
:1021cc00e1826200c52add00441680000450a100a3
:1021dc0005027200441688001a4578008a80fb00bc
:1021ec00e1806000b0c0b3001d0137001a02be00d0
:1021fc0014738800257388001a0137001a02be0078
:10220c0059002000e30f5200e08f5a0035013e00c8
:10221c001a0578008a728800120137000a027800c9
:10222c00544378008682fb0059002000867280009f
:10223c00868f52002b013e001a437800e14f430079
:10224c0002003200c7e4200086f37a0014427800c2
:10225c000482fb000402e90094728800010137003b
:10226c001a057800aa728800fe0037001a0278005e
:10227c00b4728800582eef00e10f52000b003200b0
:10228c00e30f520002003a00240020000700370040
:10229c00e70f520002003a00340020000300370020
:1022ac00ef0f520002003a0044002000c472880074
:1022bc00646f8000756f8000260037000a84e80088
:1022cc001842780059002000e94f520005013e00e9
:1022dc00ba429000e1cf42000f0032000482fb00b2
:1022ec0004024200058020001a40780080727a00b7
:1022fc00984278000582fb00040242001580200001
:10230c001a43900086727a0018427800744042009a
:10231c009a007800c90c0700184478000882fb006a
:10232c000402e900246f8800ce0037005900200019
:10233c00341f2000b56d8000848f5200e9003400fa
:10234c0019758800c70037001a02be00646f880038
:10235c00756f8800c67280000603e9000300330025
:10236c000402420085824a00fbff3700b46f8800ec
:10237c00bc0037001a02be00e46f8800f56f8800bd
:10238c00b80037001a02be0004708800157088006f
:10239c00030037001a02be002470880035708800d4
:1023ac0060fa0700af0037001a02be0044708800c4
:1023bc0055708800faff37001a02be00647088005e
:1023cc0075708800a70037001a02be008470880060
:1023dc0095708800a30037001a02be00c46f8800f5
:1023ec00d56f88009f0037001a02be00040037002a
:1023fc001a02be00e00f5200e08f5a0005003a00ae
:10240c00647388007573880054002000247588005c
:10241c00940037006103620019002000b100320003
:10242c00b47188006120b8004d0bdd00c303de00e1
:10243c00870373004d03dd00053020000783620025
:10244c0007002000c033dd0006002000c6718800a4
:10245c00d77188004f0bdd00c103de0087037300ca
:10246c004f03dd000782620005002000c022dd0062
:10247c0004002000e4718800f5718800c4fa07009c
:10248c009800370019002000597588009500370016
:10249c001a4578000a82fb00610262000471880010
:1024ac0008003a0044cebf0040eeb70045cebf0056
:1024bc0041eeb70046cebf0042eeb70047cebf009c
:1024cc000700370048cebf0040eeb70049cebf0032
:1024dc0041eeb7004acebf0042eeb7004bcebf0074
:1024ec0043eeb7005f0037001a027800a46f880033
:1024fc009a00780040c2b30059003700e401200074
:10250c00d46e88001a407800b2f1b7001a409000df
:10251c00b3f1b7002a42900061026200146f880088
:10252c009bfa070054002000547388004d003700bc
:10253c0019002000a96e8800e4012000d46e8800e8
:10254c001a027800b46e88002a429000634262003e
:10255c0004407800d8edb700550020000522dd00be
:10256c0004407800d9edb7009ff807005d003700f4
:10257c0034002000e46e88003a0037001a407800de
:10258c00deedb70054002000046f880035003700e2
:10259c00000cb1001a01be004202dd0045dc200037
:1025ac0004824200028abe000040e8000040400065
:1025bc008040e800470c07002a0037009a42780058
:1025cc000582fb00447188001a4290000482fb00d3
:1025dc00547188002a4290000482fb0064718800c8
:1025ec003a4290000482fb00747188001d00370091
:1025fc001a02be008471880095718800a57188004c
:10260c00180037001a057800fa708800150037009a
:10261c009a00780011718800f0c0b30010003700e8
:10262c001a4578000a82fb0061026200247188005e
:10263c000c0037001a4578008a80fb00e1806000ae
:10264c003171880050c2b300050037001a02be0079
:10265c00a4748800b57488009a00780010c2b30086
:10266c00f60b0700190020001e003700146e8000c6
:10267c004822de00e40eb2001900200005062000fe
:10268c00850f520017003a003a429000e24f520078
:10269c0014003a001ff80700cc02a9001a027800b7
:1026ac004322de00f5ff2000850f520001003600aa
:1026bc0005027800aa429000ce2add0005024200f5
:1026cc0005002100050242004412880040a2ab0024
:1026dc00feff3a0044128000cc02a800e1ff370054
:1026ec0059002000090078004f0578004f04be0007
:1026fc00000006000200fa00889fbe008a1f7800c6
:10270c0000447800c46d80000402e800c46d8800a9
:10271c00e50f520002003a00c482a9000400370001
:10272c00ea0f520002003a00c482a800b82def0054
:10273c00f4ff2000c4bf9f0001cdb3000840780017
:10274c003409070001ceb3000840780031090700b6
:10275c00011b210008407800b3080700230020006b
:10276c006881570031c0b300084078008b0807001f
:10277c004fba97008404e800c9bf9f0004042000ee
:10278c00848f5400010034008404780052c3b300d9
:10279c00b1c0b300084078001808070024002000de
:1027ac00110009008404d800c5c620000002eb000b
:1027bc0002003700802aeb000402e800800f520070
:1027cc00fcff350089017800e2c6200051c0b3003f
:1027dc000840780071080700cfba97008982520030
:1027ec00c5bf9f000a40200021003700e04f540075
:1027fc0005003a005616800006026500e00f5200f4
:10280c00fcff320003003700ac090700e00f50005a
:10281c00fdff3200cfbc970004032000848f5400ce
:10282c000100340084047800240020001100090009
:10283c008404d800c5c620000002eb00020037005b
:10284c00802aeb000402e800800f5200fcff3500e8
:10285c0089017800e2c6200051c0b300084078001e
:10286c004e0807004fba970009025200c4bf9f00e0
:10287c00cfba9700e08f5200dcff3a0012c0b300d1
:10288c00b1c0b30008407800dc070700e04f5400eb
:10289c0006003a00044020005616800086026200b2
:1028ac00e08f5200fcff3a00030037008309070059
:1028bc00e10f5000fdff32004f0578004f04be00c1
:1028cc000080fa00000006000200fa00889fbe009b
:1028dc008a9fbe008c1f78000044780044002000c2
:1028ec00a4bf9f00a46e8000e00f52000b003a00c2
:1028fc0065002000a5bf9f0080c0b300f8eeb700b4
:10290c0004407800f9eeb700c00df800fa0ef9009b
:10291c00c20df800fc0ef90012003700f86eef0043
:10292c00d8cdbf00f9eeb700d60df800fa0ef900bd
:10293c00a4778000e00f52000a00320004407800b7
:10294c00f8eeb700e30f520006003a0084002000b6
:10295c00a4bf9f007465800085658000e4778800c3
:10296c00f5778800f42eef00afba97008502e900e6
:10297c00a5bf9f0001cdb30008407800a508070053
:10298c0001ceb30008407800a2080700a46e8000b6
:10299c0062026200011b210001003a00411b210070
:1029ac000840780020080700230020006c815700a5
:1029bc0031c0b30008407800f80707002fbb970020
:1029cc008604e800a9bf9f0004042000848f5400f3
:1029dc00010034008404780052c3b300b1c0b300ca
:1029ec0008407800850707008901780082ef2000f5
:1029fc0051c0b30008407800e80707002fb89700d3
:102a0c0009005000a0bf9f000c4020000b032000c9
:102a1c0018003700e04f540005003a0055168000ae
:102a2c0005026600e00f5200fcff32000300370085
:102a3c0022090700e00f5000fdff32002fbd970068
:102a4c008b0f5500010034000a03200082ef200098
:102a5c00028144008a01780051c0b300084078001c
:102a6c00ce0707002fbb97000a035300a6bf9f0099
:102a7c008a8444002fb89700e00f5000e5ff3a001d
:102a8c0012c0b300b1c0b300084078005b07070068
:102a9c00e04f540006003a00044020005616800017
:102aac0086026200e08f5200fcff3a000300370000
:102abc0002090700e10f5000fdff320001ccb3000a
:102acc00084078005308070001cfb3000840780095
:102adc0050080700811b210008407800d20707002e
:102aec0052c0b300b1c0b3000840780043070700e0
:102afc00091920000a402000e04f540005003a005c
:102b0c005016800000026500e00f520004003200f5
:102b1c0007003700e9080700e10f500004003200fd
:102b2c008904e900f4ff3a000905780046003700f3
:102b3c00230020006c81570031c0b300084078009e
:102b4c002a0707002fba97008404e8000005eb0061
:102b5c0044102000848f54003b003c00ec03200008
:102b6c000b4020001800370052c3b300b1c0b300b3
:102b7c000840780021070700e04f540005003a0098
:102b8c005516800005826500e00f5200fcff3200f4
:102b9c0003003700c9080700e00f5000fdff3200aa
:102bac0082ef2000020145000303200051c0b30056
:102bbc00084078000d0707002fbb97000603b100f3
:102bcc00a6bf9f000a03b0002fba97008c0f5200cb
:102bdc00e5ff3c0012c0b300b1c0b3000840780060
:102bec0006070700e04f540006003a00044020009e
:102bfc005616800086026200e08f5200fcff3a00fd
:102c0c0003003700ad080700e10f5000fdff320054
:102c1c0082ef2000020145002fb897008001e800e8
:102c2c0051c0b30008407800f00607008040eb006c
:102c3c0008407800f40607000002b2001a002000d9
:102c4c00010032000005eb0001c8b3000840780019
:102c5c00f0070700e00f550051003200e40120009e
:102c6c00d46e880084ef2000144278000482fb00ac
:102c7c00e1026200170032006202620009003200b9
:102c8c00a46e8000e00f52003b00320091ef200058
:102c9c0091407800d0778000c1fa0700a0778800b7
:102cac00090037006481540093ef200093417800b1
:102cbc00c1ef2000d077800045fc0700a07788008a
:102ccc00e00f50002c003200940120004475880065
:102cdc0029003700b4758000e00f52002500320047
:102cec00d57780000502780016f82f00868f5200e9
:102cfc0001003d0006027800f6072000860f520006
:102d0c00010034000602780086758000060342003c
:102d1c008675880007802000870f530003003c0055
:102d2c0007802f00870f530001003d008775880036
:102d3c004322dd007475880004712200848f5200d8
:102d4c000b003c00048f2d00848f520008003500ce
:102d5c00c61220000503430084252000840f530075
:102d6c0002003e000002eb00010037000502780073
:102d7c00c4758800f42eef00f9cebf00b5edb70096
:102d8c00b4758000e00f5200050032003e0cf800d4
:102d9c000e01f900400cf8000a01f9008500a900a9
:102dac00b62eef004f0678004f05be004f04be0054
:102dbc000080fa00000006003600f800809fbe007c
:102dcc00829fbe00849fbe00869fbe00889fbe006f
:102ddc008a9fbe000200fa0087a0a900047580003b
:102dec00e00f5200320032007667a9000410280070
:102dfc00743a8800b87580000040eb00b2fe070002
:102e0c00e00f54001d003200257680008502e8009a
:102e1c0025768800b471800006022000868f52004f
:102e2c000c003600c42eef008402d100e382620055
:102e3c00e18f520001003a00cd82a8004322de004f
:102e4c0063026200e10f52000c003a00c482a80039
:102e5c000a0037008402d100e3826200e18f520045
:102e6c0001003a00cd82a9004322de006302620019
:102e7c00e10f520001003a00c482a9004e27ef0076
:102e8c007667a90044758000e00f520008003200fc
:102e9c000402e90044758800f40f52000400340069
:102eac00146f8000e00f520001003a0087a0a800c8
:102ebc0058738000e00f54000f0032000804e90042
:102ecc00587388000c003a0034002000a46e88006f
:102edc007667a90004102800743a880072e6200076
:102eec0012417800e1c0b3000840780043060700a7
:102efc00783a88007667a90014758000e00f5200bc
:102f0c00d60032000402e90014758800e10f52006b
:102f1c00b9003a00560eec0001002000626f8000f0
:102f2c00736f80007ff507000001be000090200049
:102f3c00d103200091f50700047080000402e90021
:102f4c00030033008180d1000080d300fbff3700e9
:102f5c00847080009570800061014200e0814a001d
:102f6c0076f50700e07088007667a9000410280049
:102f7c00743a88008a7280000a02e800f4728800b1
:102f8c00e30f520002003a0044002000f472880063
:102f9c00f572800007822000140020000003eb0073
:102fac0048102a0086417800044178001700370049
:102fbc008680e800110009008500d800c9e42000d3
:102fcc00e9c078008180fb0009e42000e9c07800aa
:102fdc00c908dd0088ab40008a0f530005003e0095
:102fec00110009000502d8008981200082f47800c4
:102ffc0004003700110009000502d8008981200067
:10300c0083f478000603e8000402e800850f5300ff
:10301c00e7ff3500117180000040eb0098070700b6
:10302c00e46f80000402e800f4bf9f00220020003f
:10303c008f80e90030c0b300fc05070009708000e8
:10304c00180020000940dd000000e900cf80de0000
:10305c00227080003370800032f5070044708000cd
:10306c00557080000005420081854a008904e90002
:10307c00030033008b05d1000a85d300fbff37001a
:10308c00cfd5de000a01be0000202e00410020003a
:10309c003af5070030768800d1f70700340020009d
:1030ac007441880040708000517080000a0050000c
:1030bc008b805800626f8000736f80001ff50700d3
:1030cc00847280000402e80000a2b90004024200ed
:1030dc00008320000002420084618800e46f8000bd
:1030ec0084024200957388004222dd0000004200f9
:1030fc00906188002c68ef00047080000444dd00af
:10310c000844e900084078002de8b700c422a80064
:10311c000002eb0085252000000000000402e800fe
:10312c00850f5200fcff3a00c402a80044f50700ca
:10313c008540a9009540a800762eef0024708000f1
:10314c004222dd00a440880045708000c22add00c8
:10315c00b540880005d02700850f520003003e00c3
:10316c0005e82300850f52000200360024002000e1
:10317c0001003700140020009475880094758000bd
:10318c004b22dd00a47588005a2eef00248220000b
:10319c0054418800702eef006a2cef006c2cef006d
:1031ac00646f8000756f80004228dd00ce20de0049
:1031bc00810070004220dd00f2728000cf91de00b1
:1031cc00def407000002e90004738800a47280009a
:1031dc00e00f520003003a00b4728000e00f52007e
:1031ec000200320083e0a8000100370083e0a90050
:1031fc00a02eef0019003700e00f520017003a0024
:10320c008500ab00010032008500a9008500ab00f1
:10321c00feff320071c7a900600ef8001a01f90018
:10322c001fe1a8008405800004c0a10004d0a00008
:10323c0004e0a000840588008760a9009760a900bd
:10324c000021ef00b44080000402e900140888005b
:10325c008460a90014002000347588002475800057
:10326c00e00f5200340032000402e900247588009b
:10327c0031003a0041e2a90061e2a900c8e2a800cd
:10328c00743a88007667a900cd62a900cd82a900a6
:10329c00c482a900341088009540a9009820a90088
:1032ac009460a90094e0a9009780a9009620a90039
:1032bc009680a90097a0a9006673800077738000a0
:1032cc00e00f5300e08f5b001900320040a7a8000c
:1032dc001400fc00a609200085072000377420008c
:1032ec00854b7800864b7800844b78007505200060
:1032fc00160020006404200027742000844b780002
:10330c00854b7800864b78004207ab00feff3a00f5
:10331c0064738000757380000040fe0061025200ef
:10332c00e0825a00fcff3a000000fe00faff370072
:10333c000040fe00feff370034758000e00f5200a5
:10334c0007003a00d46e8000e00f520004003200f7
:10335c000402e900d46e880001003a0037f7070038
:10336c00e46e8000e00f5200040032000402e90019
:10337c00e46e880001003a0030f70700006f80000f
:10338c00e00f50000f0032000000e900006f8800d1
:10339c000c003a007667a90004102800743a8800e3
:1033ac00f4ff2000f4bf9f00230020000f81e900f0
:1033bc0031c0b30079050700decdbf00cdfc07009e
:1033cc00fdff37000080fa004f05be004f04be0021
:1033dc004f03be004f02be004f01be004f00be00a7
:1033ec003600f900004006000200fa00889fbe007b
:1033fc008a9fbe0004c8b30095dd20001542420030
:10340c0000404200f8eeb700c4822000144278005d
:10341c0004407800f9eeb7000442e800044078005c
:10342c002ce8b700e46f80000482e800b4bf9f0072
:10343c0000cdb300ef05070000ceb300ed0507008b
:10344c00001b21006405070051c3b300b0c0b300da
:10345c00ad04070080ef2000400507003fba97003d
:10346c000484e900b8bf9f00e4032000840f5400db
:10347c00010034000404780088007800a06180000a
:10348c0007050700bfba970088825200b5bf9f009e
:10349c000b4020000a0c20000f003700571680004c
:1034ac0007826500e00f5200fcff32008a8f540047
:1034bc0001003400090c200008007800340cb40022
:1034cc0089007800f60407003fba97000902520001
:1034dc00b4bf9f0009044400bfbc9700e08f5400a8
:1034ec00eeff3a0011c0b300b0c0b3008604070071
:1034fc00044020005516800005046200e00f5400c3
:10350c00fcff3a00d482200014427800c7822000cd
:10351c001742620099003a0000ccb300b5050700d1
:10352c0000cfb300b3050700801b21002a0507005c
:10353c0051c0b300b0c0b300730407000ea1ef007c
:10354c0058088800f51820000440200004003700bb
:10355c005016800000036200e00f530005003a0093
:10356c0056088000850f5300f9ff36000004eb006d
:10357c003400370022002000ea80570030c0b3002e
:10358c006e0407000004eb003fba9700e70f5200ef
:10359c002c003c00ea0320000940200011003700f9
:1035ac0051c3b300b0c0b3005704070055168000d8
:1035bc0005826400e00f5200fcff32000800780026
:1035cc00740eb400800078000203200050c0b300d9
:1035dc005a0407003fba97000403b100b4bf9f0020
:1035ec000803b000bfbb97008a8f5300ecff3c0070
:1035fc0011c0b300b0c0b300430407000440200066
:10360c005016800080046200e08f5400fcff3a00ea
:10361c003fba97000401e80008007800740eb4006b
:10362c008000780050c0b3004404070009407800c3
:10363c00280407000002b20018002000010032002c
:10364c000904780000c8b3006a050700e00f5400b5
:10365c002f003200762eef00e4012000d46e88009b
:10366c00a473800094429000f2cf5200020032000a
:10367c00e8cf420014003a00441f2000b46d8800cb
:10368c001e0ef8000201f9000021ef008460a80072
:10369c009460a8001400200004758800a62eef008a
:1036ac007067a80004712200d4708800c402a900bd
:1036bc008000eb000040eb00f105070034f607003a
:1036cc004e27ef002b0037001402fb00957580008d
:1036dc0005a3b90006007800b00eb4000003780012
:1036ec0086758800a7758000870f530003003c0087
:1036fc008703ea00870f530001003d00877588009f
:10370c00c32add0004aab900747588001d003700b7
:10371c00b47380000402e800b4738800e570800084
:10372c00850f520017003a00441f2000b46d88002a
:10373c001e0ef8000201f900080888008460a80039
:10374c009460a80014002000047588003875880067
:10375c007067a80004712200d4708800c402a9000c
:10376c008800780008407800c505070008f60700b7
:10377c00783a88007667a9000200370000c8b300c9
:10378c001c0507004f05be004f04be000080fa0068
:10379c00000006003600f800809fbe00829fbe002d
:1037ac00849fbe00869fbe00889fbe008a1f780043
:1037bc008460a9003575800087758000667580006f
:1037cc0074758000e08f52009f0032000683430026
:1037dc0004024300c9a2de00f41fb2006475880025
:1037ec00d482200014427800c08220001044620071
:1037fc00844f540003003a00b44080000402e900f6
:10380c0002003700a44080000402e9008502520047
:10381c0015088800794180006148b900e26f80008a
:10382c00f36f80003ff307008102d1000082d300c8
:10383c00040242000583200005024200a4618800b6
:10384c008904e80079418800e48f540001003a00b3
:10385c002e28ef00e04f540044003a009760a90076
:10386c000000000000000000c402ab00feff3200ac
:10387c0087738000f672800054638000656380005b
:10388c0005003700e00f520001003a0006027800f4
:10389c000402e9008502e800870f5200f9ff3a00a4
:1038ac005463880065638800f4728000848f520032
:1038bc001d0035008482520065638800856180009c
:1038cc00847280000482ea000402420004824200f6
:1038dc0006832000860f520003003100967380008f
:1038ec000603430006024200976180000003eb00d0
:1038fc0009003700941a7800878f520001003a00b3
:10390c00058320000482e800870f520001003a0072
:10391c00048320000603e800500eec00800f5300d7
:10392c00f4ff390085618800b47280000402e8005d
:10393c00040242008070800091708000610340009e
:10394c00e083480006a3b900047080001500200035
:10395c00842add0005b2b90004418800a4002000cf
:10396c00a40888008760a8009760a80024768000cf
:10397c000402e8002476880035768000850f52001a
:10398c000d003900c42eef00b4718000c522de009a
:10399c00e3826200e18f520001003a00cd82a80060
:1039ac004722de0063026200e10f52000f003a0072
:1039bc00c482a8000d003700ea0f52000b003a0039
:1039cc00b4718000c522de00e3826200e18f5200f8
:1039dc0001003a00cd82a9004722de00630262009a
:1039ec00e10f520001003a00c482a900c4822000f9
:1039fc0014427800e04f520009003a00ba0ef80069
:103a0c00c80ef900be0ef800ca0ef900ae0ef80092
:103a1c00d80ef90085758000c4aade00d576880022
:103a2c000482fb00c422de00858242006f02620029
:103a3c0086ec200066807a000400de0061406000a5
:103a4c0069fe0700d60037000683430004034300d9
:103a5c00cab3de00f63fb200667588000608800027
:103a6c0074382100840f53000c003e00c675800092
:103a7c00f4708000e00f5300050032000402e900ee
:103a8c000603520016088800c5758800030037002d
:103a9c000402e9000702520014088800b46d80008b
:103aac000402e800b46d8800e20f520004003a00f2
:103abc00cd62a800c8e2a900bc2def00b000370011
:103acc00ea0f52000e003a007667a9000410280095
:103adc00743a88000040eb00df04070062e6200027
:103aec0012417800e1c0b3000040eb004303070033
:103afc004e27ef007667a9004df50700a0003700b0
:103b0c00eb0f520030003a00a46e8000e00f520020
:103b1c001a0032001f0037007667a9007a3a880035
:103b2c000840780068fb0700783a88007667a9009f
:103b3c00a3f20700630060000080e8008df407002a
:103b4c00000000000804e800f40f5400fcff3a00e9
:103b5c00e46d80000402e800e46d8800e70f520079
:103b6c0003003a0054758000e00f5200140032003c
:103b7c008460a800b96d8800020037000a10280084
:103b8c00a9002000a86e8000e00f5400e2ff320074
:103b9c007b00370014002000b475880087a0a800b3
:103bac00e46d80000402e800e46d8800e70f520029
:103bbc0073003a0054758000e00f520070003a0018
:103bcc00a40520006d003700a57080006a834200b8
:103bdc00860f520002003a00a40020006700370054
:103bec00f6052000860f520065003200461f2000ab
:103bfc00860f5200620032000603e800860f520066
:103c0c0035003a00a46e8000e00f5200290032000b
:103c1c002e00370010768000e00f500056003a005e
:103c2c007667a900793a880027fb070064f2070041
:103c3c0063006000b470800004004000d570800008
:103c4c00e08f52000800340006ff2f000683b900f5
:103c5c0006824200d47088004240a90002003c0059
:103c6c00c422a800c402a9004e27ef007667a90061
:103c7c0040f40700c4708000880f520007003c001d
:103c8c000402e800c4708800450b2000850f520028
:103c9c0002003a00c4032000b47088000002eb005c
:103cac00000000000402e800f40f5200fcff3a0090
:103cbc000200370009102800380b2000a46e800089
:103ccc00e00f5200d3ff32002b003700140020000d
:103cdc00b47588002300370047758000e08f5300cf
:103cec0022003200860f520020003400361f2000c4
:103cfc0005034300840f53001c003500156f800032
:103d0c00e08f520017003200b56f800006fa2000d9
:103d1c00868f520003003a006102620018003200e4
:103d2c0010003700067d2000868f52000300320001
:103d3c0006322000868f520004003a0063026200b3
:103d4c00e10f52000e003a00060037000619200061
:103d5c00868f520003003a0055202000850f520038
:103d6c0007003a0087a0a80005003700451fb000e7
:103d7c00850f520002003a00441f2000b46d8800e9
:103d8c00d4708000e00f5200050034000402e900fa
:103d9c00d470880002003a00c422a800c402a90012
:103dac004f0578004f04be004f03be004f02be000b
:103dbc004f01be004f00be003600f9000040060067
:103dcc0002034000e08348000c003700910188009a
:103ddc009002ba001082ba0085497800c82ade0029
:103dec0095419800a44198004822de00b441980007
:103dfc00e481410062004000e0804800860f5000e2
:103e0c00878f5800f1ff390000000600889fbe0024
:103e1c008a9fbe008c1f78000002be004008de00a6
:103e2c0000037800900188000000eb00800078000f
:103e3c0004047800fb0f20000a402000880378005f
:103e4c00880440001906ba009984ba00e10f4600b4
:103e5c0003003a00f90fb2008b8f540001003200be
:103e6c00110020000080e8008a0f5000f3ff3a0098
:103e7c00e08f50000c00320020042400003b88002e
:103e8c0096018800040abb000700fc0050052000c6
:103e9c00303b8800a00a2000303b880061e7a80076
:103eac0000000000000000000282e900e13f200059
:103ebc008280400002815100150024009601880088
:103ecc00040441008401780000042000d30478002d
:103edc0058057800890bbb008a9bbb000000e900e9
:103eec00faff3a00053b88000700fc005005200053
:103efc00303b8800a00a2000303b880061e7a80016
:103f0c0000000000000000000408b000810f520007
:103f1c00eaff3a004f0678004f05be004f04be0082
:103f2c0000000600889fbe008a9fbe008c9fbe00ca
:103f3c008e1f78000005be0082067800030678000c
:103f4c0006c02f00000363008b0278000602780085
:103f5c000404be00308d8000418d8000880f50001d
:103f6c00898f58001d003200e00f5000e08f580080
:103f7c0004003500ac31ec00c31b2100c25b2100f6
:103f8c00a2ff0700e00f5400e08f5c001100350029
:103f9c00aa31ec00990188000803be000002eb0076
:103fac00c25b2100c11b2100002020001607ba00b3
:103fbc009681ba00840242000eb17a0083b07a0076
:103fcc000402e80062034300e0834b00800f5200c0
:103fdc00f6ff3a00388d8800498d8800fa3fb20010
:103fec000a05d1000002eb00c75b2100c61b2100b3
:103ffc0011003700fa1fb2008a0245000580430009
:10400c001c4190004811dd009c4178008380fb002e
:10401c000108410085024300bc409000c808dd0047
:10402c002c4090000080fb00808a4000640242001b
:10403c000a05e800640646008d0f5200edff3900ba
:10404c004f0778004f06be004f05be004f04be0060
:10405c0000000600889fbe008a9fbe008c9fbe0099
:10406c008e1f78000005be0002067800030778005a
:10407c000004eb000d402000100037008a0478008b
:10408c00f93fb20089845600080256008984440026
:10409c00848f5400010036008404780088014700a6
:1040ac00090178000a00be009eff07000902d1003a
:1040bc0004054500e0854d00090444008c0f5400b4
:1040cc00eeff39004f0778004f06be004f05be00cb
:1040dc004f04be0000000600040020000482fb0018
:1040ec0005002000c022dd00040020000600250091
:1040fc0006024200e0824a00840f5000858f58006f
:10410c00020031000000420081804a00e6bf2a0014
:10411c000700200062034300e0834b0004002000f2
:10412c000482fb0005002000c022dd0004002000fa
:10413c000602420087824a00840f5000858f580087
:10414c0001003100c3ff070000000600f40f20003f
:10415c00060020000403630007002000c033dd00cc
:10416c00060020000500250005034300e0834b00fa
:10417c000603430087834b0062035300e0835b001c
:10418c00970188009602ba001683ba000700200037
:10419c00c033dd000600200005034300e0834b0024
:1041ac000702620084027800060278000400be0058
:1041bc0000000600889fbe008a9fbe00f00f200002
:1041cc000100200004002000000262000500200015
:1041dc00c022dd000400200006002500060242007b
:1041ec00e0824a000401420085814a0062015100cc
:1041fc00e08159006033b8000f003700950188004a
:10420c009400ba001484ba0080846000c808de00f0
:10421c00610db80009054500e0854d000a03430017
:10422c008b834b008000640001034300e0834b0050
:10423c0062024200e0824a00820f5200838f5a00d1
:10424c00eeff39000782fb0084027800060278003a
:10425c000400be004f05be004f04be000000060067
:10426c00ea874700889fbe008a9fbe008c9fbe00d5
:10427c008e1f7800060020000683fb00070020003c
:10428c00c033dd00060020000200250003002000e2
:10429c0006044100878449006022b80037003700cb
:1042ac000200420083804a000000430081804b00e2
:1042bc00910188000c4020000d00200000064600f3
:1042cc0081864e00dcb79f00edb79f00fe0f2000eb
:1042dc00f0b79f0081bf9f005fb69700efb69700c5
:1042ec00d6b79f00e7b79f000403be001002ba00c8
:1042fc009082ba00e10f42000c003a00f50fb200b8
:10430c008e8f520009003a0062004000e0804800a5
:10431c008c0f50008d8f5800f4ff3a000602be003f
:10432c005fb39700efb39700100037000602be0092
:10433c007fb597008fbd97005fb39700efb39700e1
:10434c0020042400003b88000a0dbb000700fc0081
:10435c0050052000303b8800a00a2000303b88002c
:10436c0061e7a800000000000000000000402000f1
:10437c00010020000402400085824800880f520092
:10438c00898f5a00c6ff39004f0778004f06be00d0
:10439c004f05be004f04be00af00b1000000060088
:1043ac00889fbe00f70f2000040020000702620067
:1043bc0005002000c022dd000400200006002500be
:1043cc0006024200e0824a00950188001403ba00fc
:1043dc001482ba00e10f430004003a00f40fb2005b
:1043ec00870f52000e003a000e0037000520200007
:1043fc00850f53000a003a00e44f520008003a00bf
:10440c006cff07000004be0050ff070014002000e2
:10441c0005002000800f5400818f5c0002003200e8
:10442c008fff07006022b8000400be004f04be00de
:10443c0000000600f2874700889fbe008a9fbe00de
:10444c008c9fbe008e1f78005aff07000004be0030
:10445c003eff0700800f5400818f5c000200320089
:10446c007fff070095003700080025000900200099
:10447c0004c0240004045400e0845c000600200006
:10448c0007002000f20f200003002000060061004e
:10449c0001002000c000dd000000200008044000e6
:1044ac008984480000002000020060000100200008
:1044bc00c000dd00000020000002540081825c007e
:1044cc00b4b79f00c5b79f006022b8000207780000
:1044dc00d0b79f00e1b79f0096b79f00a7b79f008a
:1044ec007100370002c024000300200000002500ea
:1044fc0000004100e08049000000420081804a0039
:10450c005fb39700efb397000000430081804b002e
:10451c009fb397000703670007002000c033dd003e
:10452c00060020000003430081834b00020142007f
:10453c0083814a005fb69700efb6970002014600f0
:10454c0083814e00830078000000eb0009402000be
:10455c00f4b79f0085bf9f000606be0007037800d6
:10456c000205be00960188008c0340001704ba00b7
:10457c009783ba00910188008a0240009501ba0025
:10458c009582ba00830f540008003a00858f5300bf
:10459c0006003a000080e800890f5000f1ff3a0055
:1045ac007fb297008fba97003b0037007fb297001d
:1045bc008fba97000c03be0020042400003b880037
:1045cc00910188000a0dbb000700fc00500520007b
:1045dc00303b8800a00a2000303b880061e7a8002f
:1045ec00000000000000000008402000090020002e
:1045fc000c0444008d844c000c0155008d815d0031
:10460c001b0024001e003700910188001002ba0024
:10461c009082ba0002064000838648009d01880003
:10462c00040ebb00058ebb000a05e90062004000c9
:10463c00e0804800e00f5500f3ff3a000602be0090
:10464c007fb397008fbb97000b3b88000700fc00e3
:10465c0050052000303b8800a00a2000303b880029
:10466c0061e7a80000000000000000000608b00090
:10467c000780b000880f5300898f5b000600320062
:10468c000600be000a042000f6b79f0087bf9f00fb
:10469c000403be00dcff37000640200007002000aa
:1046ac000402430085824b003fb09700cfb09700c7
:1046bc00800f5200818f5a008aff35004f07780017
:1046cc004f06be004f05be004f04be002f01b100c7
:1046dc0000000600cce2a9000064a0000080fb00f2
:1046ec00401388006822ef0060a2ab00feff3a0086
:1046fc004413800060a2ab00feff3a004013800020
:10470c00cce2a80000000600cce2a9000080fb006f
:10471c00401388008180fb004113880060a2ab002d
:10472c00feff3a004413800060a2ab00feff3a008b
:10473c0044138000cce2a80000000600889fbe0055
:10474c008a1f780080447800010478000205780004
:10475c0091c1b300b0c0b300ebff0700cce2a900dd
:10476c000964a0008984fb004913880005138000ac
:10477c000502b200fdff3a00441380000a027800e3
:10478c00e00f55000c00320006138000620363003a
:10479c00fdff3a00461388000a05e90060a2ab0051
:1047ac00f7ff3a004613800006f47a000402e90091
:1047bc008502e800f2ff370005044400e00f5200c8
:1047cc000600320060a2ab00feff3a0045138000e9
:1047dc00055c78000402e900f8ff3700cce2a80081
:1047ec004f0578004f04be00000006000140780021
:1047fc008200780003017800d0ff37000140780078
:10480c0082407800c0ff3700881f78000144780090
:10481c0092c1b300b1c0b300f8ff070008407800a4
:10482c00acff07004f04780000000600cce2a900a2
:10483c000080fb004013880060a2ab00feff3a0032
:10484c004413800002027800e00f51000b0032008c
:10485c006022ab00feff3a00314378008682fb00f9
:10486c00451388000201e90060a2ab00f6ff3a0094
:10487c00451380000402e900f3ff3700e00f5200fb
:10488c000500320060a2ab00feff3a004513800029
:10489c000402e900f9ff3700cce2a8000000060092
:1048ac00cce2a90054002000441388000102e80067
:1048bc008002eb00e88f5000120034009042780028
:1048cc00451388009042900045138800a042900048
:1048dc0045138800b042900045138800c0429000f8
:1048ec0045138800d042900045138800e0429000a8
:1048fc0045138800f042900045138800e880500072
:10490c008500200005004000e08f50000a003200b6
:10491c006022ab00feff3a00b042780045138800dd
:10492c008100e90060a2ab00f7ff3a00451380005c
:10493c000402e900f4ff3700e00f520005003200da
:10494c0060a2ab00feff3a00451380000402e900b0
:10495c00f9ff3700cce2a80000000600cce2a90069
:10496c00540020004413880010427800441388003f
:10497c001042900044138800440020000402e90017
:10498c000400320060a2ab00feff3a004513800029
:10499c00faff3700cce2a8000000060001407800c6
:1049ac008200780003017800a0ff37000041eb0083
:1049bc008240780091ff370043002000e21821006c
:1049cc0061c0b30089ff37004200200080007800ee
:1049dc0060c0b30095ff3700cce2a9006400200052
:1049ec004413880010427800441388001042900051
:1049fc0044138800204290004413880030429000f9
:104a0c0044138800640020000402e9000400320012
:104a1c0060a2ab00feff3a0045138000faff37009e
:104a2c00cce2a80000000600430020000101780041
:104a3c0061c0b300d9ff3700889fbe0000447800e6
:104a4c00814478000281fb00d41721006441790075
:104a5c00541621001441710051c3b3000840780072
:104a6c0066ff0700894078000840780066ff070061
:104a7c004f04be0000000600889fbe008a1f78000d
:104a8c000044780081447800024578008381fb0063
:104a9c00d417210064c1790054162100144171000f
:104aac0051c3b3000840780054ff07000a41780056
:104abc00894078000840780050ff07004f057800c7
:104acc004f04be0000000600889fbe008a9fbe00f7
:104adc00004478000a13210019c0b3005a41780031
:104aec00894078000840780044ff07008944e800ba
:104afc00e5cf5400f9ff3a006a13210079c0b300e6
:104b0c00abc2b3005a417800894078000840780065
:104b1c003aff07008944e8008bcf5400f9ff3a00b4
:104b2c00fa1621008044eb00894178005a41780044
:104b3c00a1c2b30008407800cfff07008944e80009
:104b4c00e8cf5400f8ff3a00aa152100b9c2b3000f
:104b5c006bc3b3005a417800894078000840780054
:104b6c0026ff07008944e8008bcf5400f9ff3a0078
:104b7c00721621001241780071c3b300084078000e
:104b8c001eff07007a1721008044eb008941780052
:104b9c005a41780081c3b30008407800b6ff070083
:104bac008944e800e5cf5400f8ff3a008a1621004a
:104bbc0099c3b300dbc3b3005a4178008940780035
:104bcc00084078000dff07008944e8008bcf5400a3
:104bdc00f9ff3a00e216210012417800e1c3b3005c
:104bec000840780005ff07004f05be004f04be00cb
:104bfc0000000600cce2a9000080fb0040138800f6
:104c0c0060a2ab00feff3a0044138000cce2a80087
:104c1c000000060001407800f6ff3700881f78007e
:104c2c000044780001417800e1c0b30008407800ee
:104c3c00f2fe0700c2c0b30021c0b30008407800e8
:104c4c00eefe070021c0b30008407800eefe07001e
:104c5c006c406000fbff3a0061c2b3000840780072
:104c6c00e9fe07008042780067c2620004407800c9
:104c7c0092f1b7004328de006100600093f1b700a9
:104c8c0081c2b30008407800dffe070094f1b70042
:104c9c0091c2b30008407800dbfe070095f1b70025
:104cac0093d1bf000100320030c0b3004f04780034
:104cbc0000000600889fbe000044780001cbb300c2
:104ccc0008407800d3ff0700d2c1b300c1c1b300c4
:104cdc0008407800c9fe07008044eb0022c0b300f6
:104cec008240780008407800c4fe070021c0b30061
:104cfc0008407800c4fe070062406000fbff3a00e9
:104d0c0031c2b30008407800bffe07006f4060005e
:104d1c0096f1b70064405000e44f50000300360099
:104d2c008944e800eacf5400ecff3a00d2c3b30048
:104d3c00c1c1b30008407800b0fe070012c1b30037
:104d4c0021c0b30008407800acfe070021c0b300be
:104d5c0008407800acfe070071406000fbff3a0091
:104d6c00e1c1b30008407800acff07008044780034
:104d7c00a1c5b30008407800a8ff07008944700063
:104d8c0061c9b30008407800a4ff070080c4740018
:104d9c0001c8b300084078009eff0700e0cf540024
:104dac002a003a0031c2b3000840780096fe070092
:104dbc00804278006fc262000440780096f1b70020
:104dcc004428de006100600097f1b70041c2b300d7
:104ddc00084078008cfe07007f40600098f1b70017
:104dec0051c2b3000840780087fe0700804278006b
:104dfc006fc262000440780099f1b7007f806200b6
:104e0c004400de009af1b700b1c1b300084078004d
:104e1c007dfe07009bf1b700c1c1b30008407800cc
:104e2c0079fe07009cf1b700741921001442780038
:104e3c00e04f520004003a00a419210014427800fb
:104e4c00e04f52000100320029c0b3000940780045
:104e5c004f04be0000000600881f78000044780054
:104e6c0008407800d1fe07000840780016ff0700c4
:104e7c00084078008fff07004f0478000000060000
:104e8c00889fbe0000447800e38460005418210021
:104e9c0064c17c0041c2b3000840780057fe070093
:104eac009418210064c17c00d1c2b3000840780082
:104ebc0052fe07004f04be00000006000000050073
:104ecc000002eb00c5ff20004223dd0006834200f8
:104edc00000beb0036137800740342004233dd0004
:104eec0006834200000beb00361378000402e80046
:104efc00f40f5200f4ff3a00000006003600f800f0
:104f0c00809fbe00829fbe00849fbe00869fbe0015
:104f1c003400f80000002000a001880054858000b7
:104f2c00e00f520003003a00140020005485880062
:104f3c00e3ff0700e419210014427800e14f52000e
:104f4c000b003a000862ab0007003a00a830ed00f5
:104f5c0044858000e00f520005003a0004407800c0
:104f6c009ef1b70002003700a400200044858800a1
:104f7c00e419210014427800e34f5200040032007f
:104f8c00e419210014427800e74f520023003a0044
:104f9c00a031ec00058d800044062000848f520067
:104fac0008003400a031ef0044828000558280005c
:104fbc0061024200e0824a004482880055828800e7
:104fcc000642a8000862ab0003003200248d80006a
:104fdc00e00f520011003200a031ef00e419210063
:104fec0014427800e34f520002003a0044c0b30070
:104ffc000100370084c0b300044078009ef1b70074
:10500c00248d8000e00f520003003200a431ef0029
:10501c000622a800010037000602a8008780a9001c
:10502c003400f9004f03be004f02be004f01be001a
:10503c004f00be003600f90000400600801f7800cb
:10504c00849fbe00869fbe003400f8000000200044
:10505c00a00188000200fa008620a900044020006c
:10506c004010800000026200e00f52002700320066
:10507c000942a900e4192100144278000482fb00c3
:10508c004222dd00c5ff20000482420016002000f1
:10509c0007002000140a430054924b00a610f8009d
:1050ac00a010f900a410f8009e10f900e4192100da
:1050bc00144278000482fb000500200064025200b8
:1050cc00e0825a00e80f5200e08f5a000f003e00b9
:1050dc0004600100080037000700370006003700a5
:1050ec000a003700060037000500370004003700bf
:1050fc00030037000200370034c0b3000100370052
:10510c0074c0b300044078009ef1b700e41921008c
:10511c00144278000482fb00050020006202520059
:10512c00e0825a00ea0f5200e08f5a0061003e0004
:10513c00046001005d0037005e0037000800370096
:10514c0011003700480037005a0037001e003700a6
:10515c00250037002e00370030003700480037009c
:10516c00c4092100144278000482fb0004024200ae
:10517c0014108800f4848000e00f520010003200fc
:10518c0054c0b300430037000400280045108000d1
:10519c0005026200e00f520018003a0004858000fe
:1051ac00344378008682fb00151088000485880043
:1051bc009e30ed00f4848000e00f52003d003a0078
:1051cc0064c0b30033003700c409210014427800d6
:1051dc000482fb00040242000400a00014108800aa
:1051ec0094c0b3002b003700040028004510800049
:1051fc0005026200e00f5200030032000642a800d4
:10520c00a2b0ef002200370004108000f4bf9f0012
:10521c000662a800b4c0b3001e0037000822ab0021
:10522c00040032000510800004858000055a7800c7
:10523c00048588009e30ed00f4848000e00f52005d
:10524c0003003a0006a2a800c4c0b3000200370055
:10525c0006a2a900a4c0b300044078009ef1b700d8
:10526c000682a800130037000400280045108000b7
:10527c0005026200e00f520001003200a2b0ef0004
:10528c00148d8000e00f520005003a000642a80081
:10529c0024c0b300044078009ef1b700050037002d
:1052ac0014002000248d880001003700a431ef0089
:1052bc009e71ef000080fa003400f9004f03be002d
:1052cc004f02be004f00780000400600a230ef00f5
:1052dc009cf0b700f28488009e10f800a410f9002e
:1052ec000185880031858800138d880030c0b3009b
:1052fc009ef1b700e419210014427800e04f5200ef
:10530c00fcff3a001085800000000600a230ef0080
:10531c009cf0b700f28488009e10f800a410f900ed
:10532c000185880031858800138d880070c0b3001a
:10533c009ef1b700e419210014427800e04f5200ae
:10534c00fcff3a001085800000000600a40020003d
:10535c004485880010c0b3009ef1b700e419210009
:10536c0014427800e04f5200fcff3a0000000600a7
:10537c0001037800448980005589800095018800dc
:10538c0000004000cf80de000000420081804a0017
:10539c001002ba001080ba00040b7800000006005e
:1053ac00448980005589800036002400063b880023
:1053bc00950188008180fb000110b10000004000c5
:1053cc006103b9000602420087824a00020abb0050
:1053dc00018abb000700fc0050052000303b880010
:1053ec00a00a2000303b880061e7a8000000000004
:1053fc0000000000000006000800fa00889fbe00b4
:10540c008a9fbe008c9fbe00804478000105780006
:10541c000004eb008985fb008b05e80011003700c8
:10542c00c11221000800780084bf9f0095bf9f0027
:10543c00cfff07000fba97009fba9700e14f4000cb
:10544c000e0032000080fb008b0f500004003a006d
:10545c000001eb008040eb0008007800d0ff070053
:10546c000804e8006142b9002c8980003d89800065
:10547c008c0f52008d8f5a00e9ff39008c0f5200af
:10548c008d8f5a002d003a0074825700252e28006b
:10549c0003000900355a78000004eb000a003700bd
:1054ac0008004400cf80de004489800055898000cc
:1054bc000000420081804a00f48157004200200025
:1054cc0098fa07000804e8006143b90024898000b9
:1054dc0035898000840f5300858f5b00f0ff390005
:1054ec00f48157000001eb000080eb008080eb00a2
:1054fc008cfa0700bb0a21004a0d2100180020007d
:10550c008004eb009c0220000042eb00db4f1200f9
:10551c00050032001a0178008840780009007800f4
:10552c009fff07008904e8000804e8000a85e800ea
:10553c008c0f5400f4ff3a00040037008940e80057
:10554c000a0178000800780095ff07004f06be009e
:10555c004f05be004f04be000080fa00000006009c
:10556c000400fa00889fbe008a1f780040898800da
:10557c00518988002289880033898800b40a210067
:10558c008502200084824200006aeb00850f5200e5
:10559c00fdff3a000004eb001ac0b300490d2100d6
:1055ac0013003700e112210008007800b2bf9f0001
:1055bc00c3bf9f006eff07003fb99700cfb997009c
:1055cc00e14f40000e003200e04f50000700320067
:1055dc000080fb000000e900c40a21000a72780078
:1055ec000000400074898000843478000804e800ce
:1055fc006142b900820f5200838f5a00e9ff3900d3
:10560c00080078004f0578004f04be000080fa00b7
:10561c00000006000082fb00c50a2100e5427a006a
:10562c00e0cf52000300320004024200450d21007d
:10563c00e5007a0001007800000006000082fb0003
:10564c00c50a2100e5427a00e0cf52000500320085
:10565c0084024200460d2100e6827a00818f5200be
:10566c000700320084024200460d210001b37a008b
:10567c0016c0b300c50a210086727a005eff0700cf
:10568c00000006000400fa00889fbe000144780068
:10569c0083007800c2bf9f00d3bf9f00ddff0700cf
:1056ac0080047800cfb8970008407800d9ff070035
:1056bc00000278006148b800c000dd000000200046
:1056cc0004004000e08048004f04be000080fa0057
:1056dc00000006000400fa00881f780001447800de
:1056ec0083007800d2bf9f00e3bf9f00d3ff070069
:1056fc00dfb8970008407800d0ff07004f0478000f
:08570c000080fa000000060015
:020000040000fa
:10571400bc1100000008000000000000a6110000f9
:105724000400000002000000ffffff00ff00000073
:10573400aa1100000400000000000000c00d0000d9
:1057440036010000020000000000020060fc870037
:105754006400000000000000e0221f001260c80086
:105764005c000000000000000000000000000000d9
:105774000000000000000000000000000000000025
:10578400000064000000000000000000000959004f
:10579400640064000000000000010000000200003a
:1057a4000000ee0002000000b6030000000000004c
:1057b40000000300000000002000020000000000c0
:1057c4000000380001803e000000000000000000de
:1057d40000002700000800002700000000d0f000af
:1057e4000000000000ab000000000000000000000a
:1057f400000005000701020005070100020406007d
:105804000003000001020300030000000000000088
:105814000000000000000000000000000000000084
:1058240000000000006400003200000000000000de
:105834000000000000000000360c00000000000022
:105844000000000080008000001100001100000032
:105854000000000000000000000000000000000044
:105864000000000000000000000000000000000034
:105874000000010000000000000000000000000023
:1058840000000000000000000000010000d007003c
:105894000000000000000000000000000000000004
:1058a4000000000000640000000000000000000090
:1058b40000000000000000000000000000000000e4
:1058c40000000000000000000000000000000000d4
:1058d40000000000000000000000000000000000c4
:1058e4000000000000000000b011000004000000ef
:1058f400020000003474c5008c000000b4110000e4
:1059040004000000020000003475c5008c00000093
:10591400b811000004000000020000003476c50045
:105924008c00000000080000c0050000000000001a
:10593400f80e000004010000000000003011000017
:105944005e00000002000000006200003fc0000092
:105954000000000000020100199e00000e960000e5
:10596400043c7800ef40100040726f00c23de70035
:1059740000f11700422a6000ff80d0000070000090
:1059840000dce0003747f700f03751001515000040
:10599400007700000000000000000000003449000f
:1059a40000808000000a0000001020002420000075
:1059b400102030004050600070ffff007f7f3700f0
:1059c40020242000000000008e11000010000000c0
:1059d400000000009e11000008000000020000000a
:1059e400000000000000000000000000fc0f0000a8
:1059f400b000000000000000ac10000084000000b3
:085a040000000000000000009a
:020000040000fa
:0497fc000000fe006b
:020000040000fa
:10980000f8874700889fbe008a9fbe008c9fbe00dd
:109810008e1f780002002000070025000282fb0056
:1098200005002000c022dd000400200007024200e5
:10983000e0824a00950188001403ba001482ba003d
:1098400005202000850f530002003a00e44f52002b
:10985000010032000000fe00f60f2000060161004a
:1098600003002000c011dd000200200007024100bb
:10987000e082490002002000060161000300200090
:10988000c011dd000200200006c0240006014100d6
