:020000040000fa
:080000000002040000000000f2
:020000040000fa
:100008009402000094020000940200009402000090
:100018009402000094020000940200009402000080
:1000280094020000940200009402000002210000e3
:10003800940200009402000094020000660d000083
:100048000e09000094020000720c000094020000e7
:1000580094020000f60c00009402000094020000d4
:10006800940200005a2d000094020000940200003f
:100078009402000094020000940200009402000020
:10008800940200009402000094020000120900008b
:10009800ba2c00002a1b0000940200009402000001
:1000a80094020000940200009402000094020000f0
:1000b80094020000940200009402000094020000e0
:1000c80094020000940200009402000094020000d0
:1000d80094020000940200009402000094020000c0
:1000e80094020000940200009402000094020000b0
:1000f80094020000940200009402000094020000a0
:10010800940200009402000094020000940200008f
:10011800940200009402000094020000940200007f
:10012800940200009402000094020000940200006f
:10013800940200009402000094020000940200005f
:10014800940200009402000094020000940200004f
:10015800940200009402000094020000940200003f
:10016800940200009402000094020000940200002f
:10017800940200009402000094020000940200001f
:10018800940200009402000094020000940200000f
:1001980094020000940200009402000094020000ff
:1001a80094020000940200009402000094020000ef
:1001b80094020000940200009402000094020000df
:1001c80094020000940200009402000094020000cf
:1001d80094020000940200009402000094020000bf
:1001e80094020000940200009402000094020000af
:0801f8009402000094020000d3
:020000040000fa
:10020800940200009402000094020000940200008e
:10021800940200009402000094020000940200007e
:1002280094020000940200009402000002210000e1
:10023800940200009402000094020000660d000081
:100248000e090000940200009c0c000094020000bb
:1002580094020000f60c00009402000094020000d2
:10026800940200005a2d000094020000940200003d
:10027800940200009402000094020000940200001e
:100288009402000094020000940200004809000053
:10029800ba2c00002a1b00009402000094020000ff
:1002a80094020000940200009402000094020000ee
:1002b80094020000940200009402000094020000de
:1002c80094020000940200009402000094020000ce
:1002d80094020000940200009402000094020000be
:1002e80094020000940200009402000094020000ae
:1002f800940200009402000094020000940200009e
:10030800940200009402000094020000940200008d
:10031800940200009402000094020000940200007d
:10032800940200009402000094020000940200006d
:10033800940200009402000094020000940200005d
:10034800940200009402000094020000940200004d
:10035800940200009402000094020000940200003d
:10036800940200009402000094020000940200002d
:10037800940200009402000094020000940200001d
:10038800940200009402000094020000940200000d
:1003980094020000940200009402000094020000fd
:1003a80094020000940200009402000094020000ed
:1003b80094020000940200009402000094020000dd
:1003c80094020000940200009402000094020000cd
:1003d80094020000940200009402000094020000bd
:1003e80094020000940200009402000094020000ad
:0803f8009402000094020000d1
:020000040000fa
:100400000f6a22000e7f22000e018800000000000b
:1004100000012000200288000c000700000c2300cf
:100420000100200011000700000020000000e00093
:1004300002003200000002000000000084050200fb
:10044000000000000040da000000fe004440a90067
:10045000400020000000e000030032000000200007
:10046000a00188004440a800000006009101880017
:10047000800078000000eb0015003700e2804000ab
:1004800032a0b4009101ba00e280400032a0b40072
:100490009102ba00e280400032a0b4000002eb00fa
:1004a000472bde00f507b200602ce10004003a00a3
:1004b0000059eb008301e900fdff3e000400370016
:1004c0006128e100010032000082eb000400070017
:1004d0001101ba000200e000e8ff3a000000060047
:1004e0003159ba008301e9000c0032002159ba00e9
:1004f0008301e900080032000400e00003003a0034
:10050000e280400032a0b400f5ff370011d9ba00f4
:100510008301e900faff3a008100e800e180400031
:1005200032a0b400000006000040da000000fe0027
:10053000020ab900001bb9000200b80081004200a5
:1005400081004300000006006022b800060220007f
:100550000000d0008180d2000482d2008582d200c7
:100560000000a0000202520083825a000300310002
:100570000202420083824a000000a1000603e90053
:10058000f3ff3a0000000600839f68000100e000ce
:1005900002003d0060001000e08018000300e00051
:1005a00002003d0060011100e0811900e6ff070034
:1005b0004f00e00002003b0060001000e0801800e7
:0405c0000000060031
:020000040000fa
:0805c400ffff0000ffff000033
:020000040000fa
:1005cc0020d380006703b900f4ee2100110009006c
:1005dc000403d8008000fd0020d388000000060032
:1005ec00661af8009e1ef9000000060001002000ab
:1005fc0002dc800013dc8000caff0700823e200072
:10060c0003002000cdff0700920020000300200013
:10061c00c4ff07000271220003002000c7ff07007f
:10062c006022b800ea0f5000e08f5800020036003c
:10063c006a025000e08258000400780000000600b6
:10064c00889fbe008a9fbe000003400004b62100b4
:10065c0064027b000412b800c12bdd004f22de00c7
:10066c0004827300cf2ade00e00f51000900320033
:10067c00c7b5210067037b0006024200e0824a00f6
:10068c00e10f4200e08f5a0002003600f4ff2f0009
:10069c0005002000c308dd00063220000683b900e7
:1006ac000684400029c4200008034400068344004b
:1006bc00c82dde00c82bdd004825de000a8573003e
:1006cc008a037800f70fb200780040004800dd0084
:1006dc00008b43000803e800060343004822dd00ba
:1006ec0084347b0002007800c0ff07000884e80017
:1006fc000804440080347c004f05be004f04be004b
:10070c0000000600430bdd00013220000182b9001d
:10071c0084004300e38040008180400000004000e2
:10072c000010dd0024c4200000b278000000060098
:10073c00430add00013220000180b90000004200b4
:10074c00640040000000400024c420000232780005
:10075c0000000600430add00013220000180b900d0
:10076c0000004200e502400024c4200085824200c3
:10077c0003b27a00e60240008582420003b27a009e
:10078c0067004000000040000232780000000600c4
:10079c00658c210000024000e08f50000800320000
:1007ac0004824200460620000683b9000680400001
:1007bc004400dd0025c42000050a400000000600ae
:1007cc0081327a00000006007067a90004fe2f0039
:1007dc0046358000860262000510a0004535880071
:1007ec0075368000050262007400b3007436880010
:1007fc00f40f2e00763680000602620004b0a000d2
:10080c007436880041e2a9004322a9004302a800e3
:10081c0042c2a9004342a80042a2a80014128000c0
:10082c000420a0000430a1000440a0001412880091
:10083c00300020004222b7004402a80004128000bd
:10084c000420a0000430a1000440a0000412880081
:10085c0041e2a8008540a9009540a900440580000c
:10086c000480a1000490a00004a0a000440588000e
:10087c00000006001400200064d4880094e0a80056
:10088c00000006008c3aef0084e0a800000006008f
:10089c0070a7ef0072a7ef0074a7ef0076a7ef0028
:1008ac007087a9007167a9007187a90071a7a900b9
:1008bc0044d380004822de006f026200e50f520034
:1008cc001f003a007007a90034ff2f00641988003c
:1008dc0021e3a900000e20002023b7002343a80029
:1008ec00141980000420a0000430a1000440a100d1
:1008fc000450a10014198800f40f2e002019800058
:10090c00000262000490a0002419880010c0b300fb
:10091c0024e3b700c40020008419880021e3a80058
:10092c00540580000440a0000450a1000460a00005
:10093c005405880085a0a90095a0a80001003700e7
:10094c002ca3ef00cd62a800cd82a800c482a80021
:10095c00c402a900c422a900c982a900c082a900ae
:10096c00c962a900c002a900c022a900cc62a900da
:10097c00c862a90044d380004822de006f026200e6
:10098c00e50f520003003a00c802a800c822a800d4
:10099c0004003700cc02a900c802a900cc22a9008f
:1009ac00c822a900cce2a800c8e2a9007667a90079
:1009bc0004102800743a880004fe2f00663580006d
:1009cc0086026200a500b3006535880020368000e1
:1009dc0080026200a500b300253688003536800001
:1009ec0005026200b400b300343688006322a9000b
:1009fc006302a80062c2a90062a2a80014138000be
:100a0c000420a0000430a1000440a00014138800ae
:100a1c00300020006222b7006402a80061e2a80046
:100a2c008820a9009820a900a40580000440a000fb
:100a3c000450a1000460a100a40588006405800096
:100a4c000440a1000450a0000460a10064058800cb
:100a5c008620a9009620a90026d680000603e9006e
:100a6c001608880005e1a800f4ff2c002005800082
:100a7c000002620004e0a000240588009460a80035
:100a8c00940580000403b3000460a1009405880061
:100a9c0087a0a90097a0a80034422f006408880002
:100aac00000320001021b70011e1a80034058000dc
:100abc0004c0a00004d0a10004e0a100340588000b
:100acc000464200074088800940880000440a0008e
:100adc000450a1009408880013e1a800940580003c
:100aec000400a1000410a0000420a10094058800bb
:100afc008780a9009780a90000000600889fbe008f
:100b0c00000020000080fb0001002000c000dd0080
:100b1c000000200004402a0004004000e08048004f
:100b2c00022020000300200028150700cca2a900f9
:100b3c0011002000b0c0b300511507006100600027
:100b4c004500dd00441680000450a1000002720034
:100b5c0044168800ad100700e00f5000e08f5800dd
:100b6c0004003200000e20004220b700004c0200ae
:100b7c000000000031d380000040eb00401507005e
:100b8c0030d3880096fe070041d3800010c0b3001c
:100b9c003b15070040d3880031d68000f0c0b3006d
:100bac003715070030d6880051d6800050c2b300ec
:100bbc003315070050d6880044d380004822de004d
:100bcc006f02620064025200e10f520043003e00cb
:100bdc000001200060db88006e3bef000424240041
:100bec0084db8800f400200094db8800743bef0069
:100bfc00763bef00783bef007a3bef0000242400bb
:100c0c00e0db8800f0002000f0db8800841a26006e
:100c1c0004dc8800823bef0001012000e0c1b3003e
:100c2c00171507000100200060db880071db8800cd
:100c3c00823e20000300200080db800091db8000de
:100c4c003efe070080007800f0c1b3000c150700d1
:100c5c00843e20000400b80080db880091db880013
:100c6c00a1db800000c2b3000515070001002000c5
:100c7c00a0db8800b1db8800c1db800010c2b300b0
:100c8c00ff14070001002000c0db8800d1db8800c6
:100c9c004206200003002000e0db8000f1db800036
:100cac0026fe07008000780020c2b300f414070071
:100cbc00440620000400b800e0db8800f1db88006b
:100ccc0001dc800030c2b300ed14070001002000ed
:100cdc0000dc880011dc88000c0037006c3bef0056
:100cec006e3bef00703bef00723bef00743bef008c
:100cfc00763bef00783bef007a3bef007c3bef005c
:100d0c007e3bef00803bef00823bef0044d3800042
:100d1c004822de006f026200e50f520008003a0024
:100d2c0021db800020c1b300d514070020db880034
:100d3c0031db800030c1b300d114070030db8800f8
:100d4c0045d38000c82ade006f826200e50f520096
:100d5c0008003200e80f520006003200e90f520082
:100d6c0004003200e50eb20004062000848f52000d
:100d7c0008003a00e1da8000d0c0b300c0140700cc
:100d8c00e0da8800f1da8000e0c0b300bc140700a0
:100d9c00f0da880044d380004822de00ef026200c3
:100dac00e58f520004003200e40eb200050620006c
:100dbc00850f520008003a0001db800000c1b3002f
:100dcc00af14070000db880011db800010c1b300fa
:100ddc00ab14070010db880044d380006f02620064
:100dec00e20f520007003a001868ef0010c0b30081
:100dfc0019e8b700044078001ae8b70030c0b30017
:100e0c001be8b700c638ef00c838ef0069a6210010
:100e1c0028c0b3008840e8005901be0008407800a3
:100e2c00b3140700808cbe0008c4e800ea4f5400dd
:100e3c00f8ff3a0061b02100914078008180fb00fe
:100e4c00084078008e14070006fbb700f97f2000dd
:100e5c000004eb000880d100744040008000eb00df
:100e6c0087140700610264004322dd000400de00e9
:100e7c00806c78000804e800f40f5400f5ff3a0089
:100e8c00d1d4800040c2b3007d140700d0d48800b8
:100e9c0034d380000402e80024d388007cfe0700d1
:100eac000140fe00feff370034d580001600200004
:100ebc000433dd0074d5800085d580008603e900fd
:100ecc0050d580000780b900840340008703d1000f
:100edc0027c78800e10f530002003a0004282000c5
:100eec00030037008502d1000482d3000428b0002f
:100efc0034c7880000000600881f780000047800c2
:100f0c00040028000512800005026200e00f520068
:100f1c00440032009460a90041e2a90061e2a900fa
:100f2c0040a7a8001400fc00a50920000003eb005a
:100f3c008407200037742000844b7800854b7800a0
:100f4c00864b7800750520001600200064042000f4
:100f5c0027742000844b7800854b7800864b7800f2
:100f6c004207ab00feff3a000a0037000040fe00cb
:100f7c0061e2a80001c9b3000040eb00c0110700fa
:100f8c0001c8b3000040eb00bd11070061e2a900ed
:100f9c000804e900e00f5400f4ff3a001400fc00d0
:100fac00a5092000260020008407200037742000ab
:100fbc00844b7800854b7800864b780075052000b3
:100fcc00160020006404200027742000844b780055
:100fdc00854b7800864b78004207ab00feff3a0049
:100fec0040a7a900040028000100370041e2a80036
:100ffc000612800086026200e08f5200fbff320076
:10100c000200370061e2a80001003700040028004c
:10101c000613800086026200e08f5200f9ff320056
:10102c00390037009460a90061e2a90040a7a8002c
:10103c001400fc00a609200085072000377420004e
:10104c00854b7800864b7800844b78007505200022
:10105c00160020006404200027742000844b7800c4
:10106c00854b7800864b78004207ab00feff3a00b8
:10107c000a0037000040fe0061e2a80001c9b3007d
:10108c000040eb007e11070001c8b3000040eb00ec
:10109c007b11070061e2a9000804e900e00f54008d
:1010ac00f4ff3a001400fc00a509200026002000e3
:1010bc008407200037742000844b7800854b78001f
:1010cc00864b780075052000160020006404200073
:1010dc0027742000844b7800854b7800864b780071
:1010ec004207ab00feff3a0040a7a900040028000d
:1010fc000100370061e2a80006138000860262003e
:10110c00e08f5200fbff32009460a8004f0478007f
:10111c0000000600d4d680008402d100e382620075
:10112c0003003200e28f520004003a000200370044
:10113c00cd82a90001003700cd82a8004322de0039
:10114c006302620003003200e20f520004003a0016
:10115c0002003700c482a90000000600c482a80067
:10116c0000000600d4d68000c522de00e3826200b7
:10117c0003003200e28f520004003a0002003700f4
:10118c00cd82a90001003700cd82a8004722de00e5
:10119c006302620003003200e20f520004003a00c6
:1011ac0002003700c482a90000000600c482a80017
:1011bc0000000600cd82a900c482a9000000060030
:1011cc00881f78000004eb00d8d38800f8d588007d
:1011dc0024002000e4d588007667a90004102800bc
:1011ec00743a880062b0210012417800e1c0b3006b
:1011fc00084078001c100700eeff0700783a8800c2
:10120c007667a9009ffd07004f04780000000600d8
:10121c008500a90000400600849fbe00861f780050
:10122c00754180001502780044128800c402a900a0
:10123c0084d880000402e800b6d78000860f5200e4
:10124c00020032008582e800080037002641800049
:10125c000603e900264188000002eb0065822000ad
:10126c00840f530001003a009760a90084d88800cd
:10127c00754188008760a9004f0378004f02be00bb
:10128c0000400600809fbe00829fbe00849fbe006f
:10129c00869fbe00e4d78000f4d78800e00f520090
:1012ac0024003a00c402a9007641800016007800a0
:1012bc004012880085d880008583d10007c788003c
:1012cc0015c788008502e800b7d78000878f5200c9
:1012dc00020032000682e80013003700c5d78000f8
:1012ec00e08f520007003a00264180000603e90017
:1012fc0026418800648220000b003a009760a90008
:10130c000900370015002000e5d78800840278001a
:10131c006482200056d98000f7c68000868f530067
:10132c0001003a002043a80085d888007441880049
:10133c0063013700e10f520011013a0085d880009b
:10134c0036d98000868f52007a003a00f6d8800099
:10135c00f7c68000868f53002c003a0096d9800087
:10136c00b6d988003a1bf8003e1bf900341bf80074
:10137c00381bf9003c1bf800401bf900d218f80090
:10138c00d618f900c2d8800002007800641bbc009b
:10139c00c41bdd004c11de0002817300cc19de0091
:1013ac00d2c68800e00f53000c003200323bef0035
:1013bc003a3bef0036c68000e00f530006003200c7
:1013cc0014da8800ce38ef0024c4200014c688003c
:1013dc0034da8800010037004a3ba800f4d98000b9
:1013ec00e00f520009003200423bef003a3bef00a5
:1013fc00cc62a90004802100441288004822ef002e
:10140c00d238ef00543bef004a3ba80014d98000bf
:10141c00f6c68000840f530046003a0014da8000b0
:10142c00e00f52004300320074c68000e00f5200ff
:10143c003e003a00cc62a90016c680003600780047
:10144c004012880086037800370278004412880026
:10145c00070278003400780090c6880034007800c9
:10146c00a0da88003400780070c6880014c68800a2
:10147c0014007800e00f50001d0032000482e800d8
:10148c0014c6880036da8000840f530005003e0035
:10149c000483e80036da8800000ae90016027800b6
:1014ac000500370014037800e00f530007003200ea
:1014bc00060ae900140290004422dd0026c4200034
:1014cc000602420014c688001a003700000a780091
:1014dc00ec83430017c6880034c68000848f530009
:1014ec0008003200848f5300120036000c003700c5
:1014fc006e03430016c6880034c68000840f530068
:10150c0005003a0044db8000e00f52000900320075
:10151c0024c42000ebff3700840f53000500360075
:10152c0014002000d4d98800020037000402e9001e
:10153c0074c6880044d98000848f520076003a002b
:10154c0004d98000f6c68000840f530026003a00b0
:10155c00d418f800d818f900d2d88000020078000e
:10156c00661bbc00441add004c11de000201720047
:10157c00cc19de00e2c68800c4d98000e00f52000e
:10158c000d003200343bef003c3bef0044c68000c2
:10159c00e00f5200070032001400200024da88000b
:1015ac00d038ef002428210024c6880044da8800b3
:1015bc00010037004a5ba80004da8000e00f5200fb
:1015cc0009003200443bef003c3bef00cc62a90029
:1015dc0004902100441288004822ef00d438ef0018
:1015ec00563bef004a5ba80024d98000f6c6800069
:1015fc00840f530048003a0024da8000e00f5200b8
:10160c004500320084c68000e00f520040003a00d2
:10161c00cc62a90026c68000b60378004712880069
:10162c0086037800370078004012880007027800a3
:10163c0034007800a0c6880034007800b0da880046
:10164c003400780080c6880024c688001400780016
:10165c00e00f50001f0032000482e80024c688000e
:10166c0046da8000840f530006003e000483e80035
:10167c0046da8800000ae90047062000168243007b
:10168c000600370014037800e00f53000800320006
:10169c00060ae900140290004406b0004422dd0062
:1016ac0026c420000602420024c688001a00370017
:1016bc00000a7800ec83430027c6880044c68000eb
:1016cc00848f530008003200848f530012003600c0
:1016dc000c0037006e03430026c6880044c6800009
:1016ec00840f530005003a0054db8000e00f5200d9
:1016fc000900320024282100ebff3700840f53002f
:10170c000500360014002000e4d9880002003700e0
:10171c000402e90084c688008502e800c4d7800072
:10172c00848f520014003a00f4c680000402e800d2
:10173c00f4c68800e5d88000850f520001003900fe
:10174c00de38ef00d4d78000e00f520007003a00db
:10175c00244180000402e9002441880001003a0081
:10176c009760a900fc3aef0002003700240020002b
:10177c00e4d788008002eb0085d888005000370041
:10178c00e20f52004e003a0084d880000402e800b8
:10179c00d5d78000850f520048003a0084da8000cb
:1017ac00e00f52003e003200f4c6800065d9800084
:1017bc00850f52000d003a00a7da8000b0da8000e5
:1017cc00d6c680008002eb00b1c68000810f5300aa
:1017dc000100310005022000870370004633dd0054
:1017ec000683730085027300c5da880075d9800002
:1017fc00850f52000e003a00a7da8000b4da8000a0
:10180c00e6c680008002eb00c0c68000800f53004b
:10181c000100310005022000048273000440a00086
:10182c004633dd000602720085027200d5da8800ac
:10183c0064da800084024200a461800086b5210035
:10184c00669a7a004c3bec00a4618800b56180007c
:10185c00850f520002003a0044832000a4618800e6
:10186c0084da8000e10f520009003400a46180008a
:10187c00d0da8000001a78004c3bef00a46188009d
:10188c00850f520002003a0044832000a4618800b6
:10189c0064da8000e10f5200010034004c3bef0091
:1018ac00244180000402e9002441880001003a0030
:1018bc009760a900fc3aef000002eb0084d8880086
:1018cc008760a9004f03be004f02be004f01be004f
:1018dc004f00be0000400600c402a800849fbe005a
:1018ec00861f78008540a90045128000c681200023
:1018fc0084d8800066427a00e04f52000800320023
:10190c00a4618000051a7800a4618800b56180008c
:10191c00850f520002003a0044832000a461880025
:10192c004f0378004f02be0000400600849fbe00ab
:10193c00869fbe008540a900f4d78000e00f5200be
:10194c001f003a00c402a80045128000c681200086
:10195c0084d8800066427a00e04f52001d003200ad
:10196c00a461800096da8000e00f53000a00320078
:10197c0006c780000603430047b52100e7037b0040
:10198c0016c78000063bde00610363000500a10062
:10199c00050a730001003700050a7800a461800075
:1019ac000482e800a4618800b5618000850f5200b4
:1019bc0008003a0044832000a46188000500370029
:1019cc00e10f520003003a00cc62a80044128000e0
:1019dc00441280004f03be004f02be0000400600c0
:1019ec002043a90085a0a9000003f800181bf900ea
:1019fc000203f8001a1bf900004006000200fa006e
:101a0c00881f780001047800c0ff9f0070e7a900d0
:101a1c00540220002410880004042900341088008b
:101a2c009620a80071e7a900743e2000e408880005
:101a3c0021e1a8009780a800130020000301780082
:101a4c00e480570060c3b300bb100700e00f5000e8
:101a5c0005003a008001780022002000e480570045
:101a6c0060c3b300c41007009780a90021e1a9004e
:101a7c0071e7a8009620a9000622ef0070e7a800e5
:101a8c00cffa97000582fb004822dd00dffa9700b1
:101a9c008582fb000502420005002000048cbe007c
:101aac0044002000e00f500001003a002400200008
:101abc00040078004f0478000080fa000000060053
:101acc003600f800809fbe00829fbe00849fbe003f
:101adc00869fbe0084e0a9001400200034dd88003d
:101aec0004d38000e00f520006003a00e1b9210057
:101afc0020c0b300c1ff070021ba210040c0b300d1
:101b0c00beff070004d380000402e80004d3880061
:101b1c00f40f52000c00320014dd800025dd800033
:101b2c00f60f2000860f5200e08f5a000600360098
:101b3c00f4dc800005dd8000f61f2000860f5200cb
:101b4c00e08f5a0001003e00603aef00a63bef0028
:101b5c0064d48000e00f520001003a0094e0a90028
:101b6c004f03be004f02be004f01be004f00be002f
:101b7c003600f90000400600000278000408b200ac
:101b8c0016003a00f4c3b300844060004600de0047
:101b9c00e6cf500003003a00614060004300200093
:101bac0006003700e3cf500007003a005439ef002d
:101bbc005639ef006140600023002000429521005f
:101bcc00a50d0700a001370061406000a90d0700ba
:101bdc000080fb000100200099013700f00fb200db
:101bec006102b8000408b1000580b100f6072000be
:101bfc00860f5200e08f5a0094013e0004600100f1
:101c0c007f00370080003700830037008d003700dd
:101c1c008e0137008d0137008f00370090003700a0
:101c2c008a013700890137008801370087013700a6
:101c3c0086013700850137008d0037008f00370093
:101c4c009100370093003700800137007f01370087
:101c5c0096003700980037007c0137007b01370075
:101c6c007a013700790137007801370077013700a6
:101c7c007601370075013700740137009100370089
:101c8c009300370094003700a7003700a8003700f6
:101c9c00a90037006d0137006c0137006b0137006c
:101cac006a013700c3003700c5003700c700370092
:101cbc00c9003700cb003700cd003700cf0037000c
:101ccc00d100370061013700d2003700d300370054
:101cdc005e0137005d0137005c0137005b013700a6
:101cec00d100370059013700580137005701370030
:101cfc0056013700550137005401370053013700a6
:101d0c00cb003700ca003700c9003700c8003700c5
:101d1c004e0137004d0137004c0137004b013700a5
:101d2c004a013700490137004801370047013700a5
:101d3c0046013700450137004401370043013700a5
:101d4c00c1003700d7003700400137003f01370092
:101d5c003e0137003d0137003c0137003b013700a5
:101d6c003a013700390137003801370037013700a5
:101d7c0036013700350137003401370033013700a5
:101d8c00cb003700cc003700ce003700cf00370037
:101d9c00d10037002d0137002c013700d00037005f
:101dac00d1003700290137002801370027013700ff
:101dbc0026013700250137002401370023013700a5
:101dcc00220137002101370020013700c8003700fd
:101ddc001e0137001d013700d3003700d800370033
:101dec00dd003700df003700e1003700e30037008b
:101dfc00e5003700e7003700e9003700ee00370058
:101e0c0034d38000ad003700d0052000a0ca880074
:101e1c005639ef000c013700040020000482fb004f
:101e2c0005002000c022dd00040020000600250073
:101e3c0006024200e0824a000402420085824a0007
:101e4c000200370064de800075de8000a4ca8800c2
:101e5c00b5ca8800fc00370044d3800097003700d7
:101e6c0035002000a5ca88005639ef00f60037006f
:101e7c0064b02100144278000900370074b02100ce
:101e8c00144278000600370084b021001442780018
:101e9c0003003700441680004522de0061426200d8
:101eac000482fb0005002000e8ff3700f0dc800016
:101ebc0001dd8000e200370014dd800025dd8000ac
:101ecc00e2ff370010d8800021d88000dc003700fa
:101edc0044d7800079003700b4a521001442780063
:101eec0084cf50000700320054d780000402e80071
:101efc0054d7880045d78000850f5200010036006a
:101f0c00ea3aef0054d7800050002000e00f520056
:101f1c00cf00350045ae2100e5427a008582fb00fa
:101f2c004822dd007d00370064d780006300370055
:101f3c0074d7800061003700b4a5210014427800ea
:101f4c0084cf50000600320054d480000402e80014
:101f5c0054d48800ea0f5200010034008a3aef0092
:101f6c0054d4800050002000e00f5200b80035001f
:101f7c00040342000580200065417b000281fb00c8
:101f8c00030020006120b900c000dd00000020002b
:101f9c0002004000838048000603e80065437b0094
:101fac004833dd00cfb3de000002430081824b00da
:101fbc00a6ff370090d48000a1d48000a000370089
:101fcc0014d5800025d58000a0ff370030d58000c7
:101fdc0041d580009a00370054d5800065d580002b
:101fec009aff370070d5800081d5800094003700af
:101ffc0094d58000a5d5800094ff3700b0d5800023
:10200c00c1d580008e003700f4d4800005d5800047
:10201c008eff3700d4d680002800370070d48000a3
:10202c0081d4800086003700d4d480002300370090
:10203c00000cb1004200dd00a4a62100000042000b
:10204c001002be0081ff370096d6800007002000ea
:10205c00c833dd000600200084d680000500200077
:10206c00c022dd000400200004027300858273008e
:10207c0066d680000700200006027200878272007c
:10208c0070d6800001002000480bdd00c803de0084
:10209c00870373004803dd0006027200878272001a
:1020ac006aff3700a0d68000b1d6800064003700ec
:1020bc0094dc80001a003700140880000500200012
:1020cc0062ff370024d6800015003700a4dc8000a6
:1020dc0044a2de001200370034d680001000370016
:1020ec0044d680000e00370054d680000c00370018
:1020fc0054db800045db8000e2036200c23bdd0064
:10210c00628362000603430006834300e18262009f
:10211c008502430061026200040242000482420014
:10212c00cfa2de0049ff3700f6da8000070020005e
:10213c00c033dd0006002000e4da80003d003700eb
:10214c0016db800007002000c033dd0006002000f5
:10215c0004db80003700370064db800075db800017
:10216c003aff370080db800091db800034003700c1
:10217c00a4db8000b5db800034ff3700c0db8000bf
:10218c00d1db80002e003700e4db8000f5db800023
:10219c002eff370000dc800011dc800028003700a7
:1021ac0036db800007002000c033dd000600200075
:1021bc0024db80001f003700c2d8800002007800aa
:1021cc00641bbc00c418dd004c11de0002817000e1
:1021dc00cc19de00b5c6800005f0a7008502ea0028
:1021ec000502ea004f22de0002a2b900d4c6880024
:1021fc00d2d8800002007800661bbc00c418dd0039
:10220c004c11de0002817000cc19de00c6c68000c5
:10221c0006f0a7000603ea000603ea004f33de00cf
:10222c0002b3b900e6c6880007002000c033dd0009
:10223c0006002000050020000600420087804a00ae
:10224c00a0ca8800b1ca88003000050050002000e8
:10225c0000000600889fbe008a1f780001057800e8
:10226c0002047800d9d38000e08f540005003a00b6
:10227c0080027800f50fb200c40b2000848f52004e
:10228c003c033a00000278000408b20013003a0044
:10229c00f4c3b300844060004600de00e6cf50007b
:1022ac0003003a0061406000430020000400370046
:1022bc00e3cf500005003a0061406000230020008d
:1022cc000a017800500c07001803370061406000c9
:1022dc001a417800e40b070014033700f00fb2002a
:1022ec006102b8000408b1000580b100f6072000b7
:1022fc00860f5200e08f5a001d033e00046001005f
:10230c007f0037001a0337001903370082003700ab
:10231c008300370005033700ad0037001403370086
:10232c001303370012033700b1003700ff023700e8
:10233c000f0337000e033700af003700ba00370029
:10234c00bc003700be003700090337000803370014
:10235c000703370006033700050337000403370073
:10236c000303370002033700010337000003370073
:10237c00ff023700fe023700fd023700bd003700b8
:10238c00d4003700db003700eb003700ed003700de
:10239c00fe003700f6023700f5023700f402370072
:1023ac00160137001c0137004e0137005101370070
:1023bc0054013700580137005b0137005e013700cc
:1023cc00610137006401370065013700890137006e
:1023dc00e7023700e6023700e5023700e402370077
:1023ec0087013700e2023700e1023700890137002c
:1023fc0095013700a4013700a6013700dc02370035
:10240c00a9013700a8013700a7013700a601370042
:10241c00d7023700d6023700d5023700d402370076
:10242c00d3023700d2023700d1023700d002370076
:10243c00cf023700ce023700cd023700cc02370076
:10244c00a4013700b0013700c9023700c8023700b9
:10245c00c7023700c6023700c5023700c402370076
:10246c00c3023700c2023700c1023700c002370076
:10247c00bf023700be023700bd023700bc02370076
:10248c00bb023700ba023700a4013700b80237008c
:10249c00a5013700b6023700b5023700a601370098
:1024ac00aa013700b2023700b1023700b002370080
:1024bc00af023700ae023700ad023700ac02370076
:1024cc00a8013700b2013700c6013700ca01370036
:1024dc00d1013700a6023700dc013700e6013700d6
:1024ec00f6013700fb013700040237000902370000
:1024fc000e023700170237001c0237002d0237007e
:10250c001a0578003ad3880035f8070031d38000db
:10251c000040eb00420037001a02be0029003700d1
:10252c0019002000b4a521001442780084cf51007a
:10253c009002320066de800077de8000e10f4300ff
:10254c00e08f4b0009003a00000e20004220b7003b
:10255c008a017800080178000600be000c0907000b
:10256c004f0a07000000fe0011003700190280001e
:10257c00c54cde00e7c46400000e20004220b7000a
:10258c008700d1000680d3008a017800080178000a
:10259c006c090700678264004522dd00f9f12f0009
:1025ac0015028000858464008484740019028800fc
:1025bc00cfc4de0064de800075de800004024400bf
:1025cc0085824c0064de880075de88005702370077
:1025dc009a0078006f82600059002000e20f5200d0
:1025ec0064023a0041d3880010c0b3000c003700dd
:1025fc000000fe004d0237009a02900059002000a6
:10260c0044232100848f52005a023a009a00780029
:10261c000140780006fbb7008180fb00a0c0b3002e
:10262c00a10e0700410237001a40780007fbb700e3
:10263c003e0237001a40780008fbb7003b02370017
:10264c001a427800e1426200e1826200c52add0094
:10265c00441680000450a100050272004416880044
:10266c001a4578008a80fb00e1806000b0c0b3009e
:10267c00ebff37001a02be0014d8880025d888005a
:10268c00c82bde004828dd004823de00060370005e
:10269c006103630076da880006003200ca2bde0084
:1026ac004628dd004a23de00060370006f0363003a
:1026bc000603e80086da8800472bdd004922de009d
:1026cc0004027300c92ade006102620094da8800f9
:1026dc00160237001a02be0059002000e30f520008
:1026ec00e08f5a0023023e001a0578004ad7880072
:1026fc000e0237000a027800544078008082fb00fa
:10270c005900200046d78000868f520019023e00e7
:10271c001a437800e14f43000200320047ae21001b
:10272c0086f37a00144278000482fb000402e9006c
:10273c0054d78800fd0137001a0578006ad7880045
:10274c00fa0137001a02780074d78800f03aef00cb
:10275c00e10f52000b003200e30f520002003a006e
:10276c002400200007003700e70f520002003a0057
:10277c003400200003003700ef0f52004f003a00e6
:10278c004400200084d788004c0037000a84e800fd
:10279c001842780059002000e94f5200f5013e0024
:1027ac00ba429000e1cf42000f0032000482fb00dd
:1027bc0004024200058020001a43780086727a00d9
:1027cc00184078000082fb00040242008502e800f9
:1027dc001a43900086727a001842780074404200c6
:1027ec009a007800300e0700184478000882fb002d
:1027fc000402e90054d48800cc01370059002000b1
:10280c00341f2000e5d28000848f5200d90134009f
:10281c0039dc8800c50137001a04be0098d4880042
:10282c00a9d48800e00f5400e08f5c00090032004e
:10283c000801be0000fa2000010020003ff707004d
:10284c00e0d8880005192000850f5400e08f5c004b
:10285c000e003e001e3bef004400200004d988000f
:10286c002400200014d988006400200024d988009a
:10287c007400200064d988008400200074d988007a
:10288c00263bef00283bef00090037001e3bef0012
:10289c00203bef00223bef00243bef002c3bef00f2
:1028ac002e3bef00263bef001400200044d988009b
:1028bc00e6d880000603e90056d9880094d480003d
:1028cc00a5d4800086d780000603e90003003300fe
:1028dc000402420085824a00fbff3700e4d48800e2
:1028ec00920137001a02be0014d5880025d5880045
:1028fc008e0137001a02be0034d5880045d58800f9
:10290c00030037001a02be0054d5880065d5880034
:10291c0065f90700850137001a02be0074d58800de
:10292c0085d58800faff37001a02be0094d58800be
:10293c00a5d588007d0137001a02be00b4d58800e9
:10294c00c5d58800790137001a02be00f4d488007e
:10295c0005d58800750137001a02be000400370047
:10296c001a02be00e00f5200e08f5a0005003a0038
:10297c0064d8880075d888005400200044dc880096
:10298c006a013700610362001900200079013200ee
:10299c00d4d688006120b8004d0bdd00c303de00e7
:1029ac00870373004d03dd000530200007836200b0
:1029bc0007002000c033dd0006002000e6d68800aa
:1029cc00f7d688004f0bdd00c103de0087037300d0
:1029dc004f03dd000782620005002000c022dd00ed
:1029ec000400200004d7880015d78800c9f9070017
:1029fc00600137001900200079dc88005d01370088
:102a0c009a027800d5d488009a00780040c2b300ae
:102a1c0003ff3700e401200004d488001a4078003a
:102a2c0096feb7001a40900097feb7002a4290001d
:102a3c006102620044d48800b6f9070054002000fb
:102a4c0054d888003901370019002000d9d38800e8
:102a5c00e401200004d488001a027800e4d3880032
:102a6c002a42900063426200044078007efab7006c
:102a7c00550020000522dd00044078007ffab700e5
:102a8c007cf707003b0137003400200014d4880089
:102a9c00260137001a40780084fab7005400200051
:102aac0034d4880021013700000cb1001a01be009b
:102abc004202dd00a5a6210004824200028abe006b
:102acc000040e800004040008040e8009c0d0700fa
:102adc00160137009a4278000582fb0064d6880004
:102aec001a4290000482fb0074d688002a4290009f
:102afc000482fb0084d688003a4290000482fb00da
:102b0c0094d68800090137001a02be00a4d68800aa
:102b1c00b5d68800c5d68800040137001a057800a0
:102b2c002ad68800010137009a00780031d6880037
:102b3c00f0c0b300bafe37001a4578000a82fb00d9
:102b4c006102620044d68800f80037001a4578000c
:102b5c008a80fb00e180600051d6880050c2b3002f
:102b6c00affe3700aa4090005900200034c6b300d5
:102b7c0084cf5000ff003e008180fb003a40900063
:102b8c00610060001a017800e9f60700e7003700e1
:102b9c000a84e800984078005900200034c6b3003d
:102bac0084cf5000f3003e00e30445008180fb001d
:102bbc00194378000680fb00610060001a01780060
:102bcc009ff60700994478000980fb004601de005f
:102bdc00184478008880fb0061006000c9f607008b
:102bec00d20037003a409000610060009a007800f3
:102bfc00e7f60700cd0037003a4290006102620010
:102c0c000402420085b62100048242001a057800b5
:102c1c00610a6500c5003700aa40900059002000e9
:102c2c0034c6b30084cf5000d2003e009a01780025
:102c3c004819de008180fb003a4090006100600082
:102c4c008381fb00c3f60700b80037006302450020
:102c5c00144078008082fb00e18262008582420091
:102c6c00c6b521001ab37a001442780061406200a4
:102c7c006d4040004d00370044d380004822de00f8
:102c8c006f02620059002000890f5200b9003a000f
:102c9c0063024500144378008682fb00e1826200e7
:102cac008582420006b621001ab37a0014427800dd
:102cbc0061406200704040003c0037001a02be00c8
:102ccc0064db880075db88009a007800e0c1b300f3
:102cdc0053fe37001a02be0084db880095db8800a7
:102cec001a00be00823e20000300200013f60700ed
:102cfc0080007800f0c1b30049fe37001a02be0014
:102d0c00a4db8800b5db88009a00780000c2b30011
:102d1c0043fe37001a02be00c4db8800d5db8800f6
:102d2c009a00780010c2b3003dfe37001a02be00b4
:102d3c00e4db8800f5db88001a00be0042062000a8
:102d4c0003002000fdf507008000780020c2b300ce
:102d5c0033fe37001a02be0004dc880015dc880044
:102d6c009a00780030c2b3002dfe370044d38000a7
:102d7c004822de006f02620059002000890f5200c9
:102d8c007c003a0063024500144378008682fb0005
:102d9c00e18262008582420046b621001ab37a00b5
:102dac001442780061406200724040009a00780042
:102dbc001bfe37003a4290000482fb000500200005
:102dcc0059002000e30f5200e08f5a0069003e00ca
:102ddc000460010003003700080037002d003700a5
:102dec00540037007067a800c422a900cc02a900c7
:102dfc00c402a900cc62a9004c003700c422a80070
:102e0c00cc02a8000002eb00057d200000000000b1
:102e1c000402e800850f5200fcff3a00c402a8002f
:102e2c00cc62a80068f60700cc62a90004802300dd
:102e3c0044128800041020004412880040a2ab0009
:102e4c00feff3a004412800040a2ab00feff3a00a5
:102e5c0044128000cc62a8000000000000000000ba
:102e6c000000000000000000cc62a9000400230058
:102e7c0044128800043020004412880040a2ab00a9
:102e8c00feff3a004412800040a2ab00feff3a0065
:102e9c0022003700cc62a9008a84e8000a0478007a
:102eac00584278000480fb004800dd009a4278000c
:102ebc000582fb0004004000ccf5070019437800a4
:102ecc000682fb006102620004024200658d210053
:102edc0080327a00994478000982fb00610262001a
:102eec00780242004822dd00184478008882fb00fa
:102efc0005024200441288001a4578000a82fb0041
:102f0c004822dd004412880040a2ab00feff3a00cc
:102f1c004412800040a2ab00feff3a004412800035
:102f2c00cc62a8008438210004d688001900200047
:102f3c001000370095a0a9002043a800040022002f
:102f4c002004800080026200e08f5200fcff3200ff
:102f5c002043a90085a0a9000003f800181bf90064
:102f6c000203f8001a1bf90095a0a800efff370028
:102f7c0059002000090078004f0578004f04be006e
:102f8c00000006000200fa00889fbe008a1f78002d
:102f9c0000447800f4d280000402e800f4d28800e7
:102fac00e50f520002003a00c482a9000400370069
:102fbc00ea0f520002003a00c482a8005e3aef0009
:102fcc00f4ff2000c4bf9f0001cdb300084078007f
:102fdc00ab09070001ceb30008407800a809070030
:102fec0041e92100084078002a090700230020004d
:102ffc006881570031c0b30008407800020907000f
:10300c004fba97008404e800c9bf9f000404200055
:10301c00848f5400010034008404780052c3b30040
:10302c00b1c0b300084078008f08070024002000ce
:10303c00110009008404d800259121000002eb0046
:10304c0002003700802aeb000402e800800f5200d7
:10305c00fcff3500890178004291210051c0b3007a
:10306c0008407800e8080700cfba97008982520020
:10307c00c5bf9f000a40200021003700e04f5400dc
:10308c0005003a005616800006026500e00f52005b
:10309c00fcff320003003700230a0700e00f50004a
:1030ac00fdff3200cfbc970004032000848f540036
:1030bc000100340084047800240020001100090071
:1030cc008404d800259121000002eb000200370097
:1030dc00802aeb000402e800800f5200fcff350050
:1030ec00890178004291210051c0b300084078005a
:1030fc00c50807004fba970009025200c4bf9f00d1
:10310c00cfba9700e08f5200dcff3a0012c0b30038
:10311c00b1c0b3000840780053080700e04f5400da
:10312c0006003a0004402000561680008602620019
:10313c00e08f5200fcff3a0003003700fa09070049
:10314c00e10f5000fdff32004f0578004f04be0028
:10315c000080fa00000006000200fa00889fbe0002
:10316c008a9fbe008c1f7800004478004400200029
:10317c00a4bf9f00d4d38000e00f52000b003a0094
:10318c0065002000a5bf9f0080c0b300dcfbb7002a
:10319c0004407800ddfbb700661af800de1bf9006e
:1031ac00681af800e01bf90012003700dc7bef0016
:1031bc007edabf00ddfbb7007c1af800de1bf900dd
:1031cc00c4de8000e00f52000a0032000440780098
:1031dc00dcfbb700e30f520006003a00840020002d
:1031ec00a4bf9f00a4ca8000b5ca800004df880079
:1031fc0015df8800d83bef00afba97008502e900d5
:10320c00a5bf9f0001cdb300084078001c09070042
:10321c0001ceb3000840780019090700d4d3800010
:10322c006202620041e9210001003a0081e92100bb
:10323c000840780097080700230020006c81570095
:10324c0031c0b300084078006f0807002fbb97000f
:10325c008604e800a9bf9f0004042000848f54005a
:10326c00010034008404780052c3b300b1c0b30031
:10327c0008407800fc07070089017800c2bd2100d6
:10328c0051c0b300084078005f0807002fb89700c2
:10329c0009005000a0bf9f000c4020000b03200031
:1032ac0018003700e04f540005003a005516800016
:1032bc0005026600e00f5200fcff320003003700ed
:1032cc0099090700e00f5000fdff32002fbd970059
:1032dc008b0f5500010034000a032000c2bd2100f1
:1032ec00028144008a01780051c0b3000840780084
:1032fc00450807002fbb97000a035300a6bf9f0089
:10330c008a8444002fb89700e00f5000e5ff3a0084
:10331c0012c0b300b1c0b30008407800d207070058
:10332c00e04f540006003a0004402000561680007e
:10333c0086026200e08f5200fcff3a000300370067
:10334c0079090700e10f5000fdff320001ccb300fa
:10335c0008407800ca08070001cfb3000840780085
:10336c00c7080700c1e92100084078004908070098
:10337c0052c0b300b1c0b30008407800ba070700d0
:10338c00091920000a402000e04f540005003a00c3
:10339c005016800000026500e00f5200040032005d
:1033ac000700370060090700e10f500004003200ed
:1033bc008904e900f4ff3a0009057800460037005b
:1033cc00230020006c81570031c0b3000840780006
:1033dc00a10707002fba97008404e8000005eb0052
:1033ec0044102000848f54003b003c00ec03200070
:1033fc000b4020001800370052c3b300b1c0b3001b
:10340c000840780098070700e04f540005003a0088
:10341c005516800005826500e00f5200fcff32005b
:10342c000300370040090700e00f5000fdff320099
:10343c00c2bd2100020145000303200051c0b300ae
:10344c0008407800840707002fbb97000603b100e3
:10345c00a6bf9f000a03b0002fba97008c0f520032
:10346c00e5ff3c0012c0b300b1c0b30008407800c7
:10347c007d070700e04f540006003a00044020008e
:10348c005616800086026200e08f5200fcff3a0064
:10349c000300370024090700e10f5000fdff320044
:1034ac00c2bd2100020145002fb897008001e80041
:1034bc0051c0b30008407800670707008040eb005c
:1034cc00084078006b0707000002b2001a002000c9
:1034dc00010032000005eb0001c8b3000840780081
:1034ec0067080700e00f550051003200e40120008e
:1034fc0004d48800c4bd2100144278000482fb006f
:10350c00e102620017003200620262000900320020
:10351c00d4d38000e00f52003b003200d1bd21001b
:10352c0091407800f0de800093f90700c0de88003f
:10353c000900370064815400d3bd21009341780009
:10354c0001be2100f0de800042fb0700c0de8800d7
:10355c00e00f50002c0032009401200064dc880045
:10356c0029003700d4dc8000e00f52002500320027
:10357c00f5de80000502780016f82f00868f5200c9
:10358c0001003d0006027800f6072000860f52006d
:10359c000100340006027800a6dc8000060342001d
:1035ac00a6dc880007802000870f530003003c0036
:1035bc0007802f00870f530001003d00a7dc880017
:1035cc004322dd0094dc880004712200848f5200b9
:1035dc000b003c00048f2d00848f52000800350036
:1035ec00c61220000503430084252000840f5300dd
:1035fc0002003e000002eb000100370005027800db
:10360c00e4dc8800d83bef00dddbbf005bfab700e1
:10361c00d4dc8000e00f520005003200e418f80002
:10362c000e01f900e618f8000a01f9008500a9005e
:10363c009a3bef004f0678004f05be004f04be00ca
:10364c000080fa00000006003600f800809fbe00e3
:10365c00829fbe00849fbe00869fbe00889fbe00d6
:10366c008a9fbe000200fa0087a0a90024dc80001b
:10367c00e00f5200320032007667a90004102800d7
:10368c00743a8800d8dc80000040eb00b2fe0700e2
:10369c00e00f54001d00320045dd80008502e8007b
:1036ac0045dd8800d4d6800006022000868f5200ab
:1036bc000c003600a83bef008402d100e3826200cc
:1036cc00e18f520001003a00cd82a8004322de00b7
:1036dc0063026200e10f52000c003a00c482a800a1
:1036ec000a0037008402d100e3826200e18f5200ad
:1036fc0001003a00cd82a9004322de006302620081
:10370c00e10f520001003a00c482a9004e27ef00dd
:10371c007667a90064dc8000e00f520008003200dc
:10372c000402e90064dc8800f40f52000400340049
:10373c0044d48000e00f520001003a0087a0a8009a
:10374c0058d88000e00f54000f0032000804e90044
:10375c0058d888000c003a0034002000d4d38800dc
:10376c007667a90004102800743a880072b0210012
:10377c0012417800e1c0b30008407800ba06070097
:10378c00783a88007667a90034dc8000e00f52009c
:10379c00020132000402e90034dc8800e10f52001f
:1037ac00e5003a00ee1aec000100200092d48000f3
:1037bc00a3d480005bf307000001be000090200042
:1037cc00d10320006df3070034d580000402e9001a
:1037dc00030033008180d1000080d300fbff370051
:1037ec00b4d58000c5d5800061014200e0814a005b
:1037fc0052f3070010d688007667a9000410280041
:10380c00743a88004ad780000a02e800b4d78800ce
:10381c00e30f520002003a0044002000b4d78800a5
:10382c00b5d7800047822000140020000003eb0075
:10383c0048102a00864178000441780014003700b3
:10384c008680e800110009008500d80049ae2100ef
:10385c00e9c07800c908dd0088ab40008a0f53002e
:10386c0005003e00110009000502d800c9812000a6
:10387c0082f4780004003700110009000502d8001a
:10388c00c981200083f478000603e8000402e800f4
:10389c00850f5300eaff350031d680000040eb0065
:1038ac001208070014d580000402e800f4bf9f0042
:1038bc00220020008f80e90030c0b300760607009c
:1038cc0039d58000180020000940dd000000e90017
:1038dc00cf80de0052d5800063d5800011f3070045
:1038ec0074d5800085d580000005420081854a0092
:1038fc008904e900030033008b05d1000a85d3004d
:10390c00fbff3700cfd5de000a01be0000202e00e1
:10391c004100200019f3070050dd880011f6070064
:10392c00340020009441880070d5800081d580003f
:10393c000a0050008b80580092d48000a3d48000e1
:10394c00fef2070045d780008502e80084da80008b
:10395c000482420000a2b90004024200408320000d
:10396c0000024200a461880014d580008402420049
:10397c0095d888004222dd0000004200b06188002a
:10398c003068ef0034d580000444dd000844e900c1
:10399c000840780031e8b700c422a800cc02a80087
:1039ac000002eb00057d2000000000000402e8008e
:1039bc00850f5200fcff3a00c402a800cc62a8009c
:1039cc0081f30700cc62a900048023004412880014
:1039dc00041020004412880040a2ab00feff3a0005
:1039ec004412800040a2ab00feff3a00441280005b
:1039fc00cc62a800000000000000000000000000e5
:103a0c0000000000cc62a9000400230044128800ce
:103a1c00043020004412880040a2ab00feff3a00a4
:103a2c0044128000041280000402b200fdff3a0030
:103a3c0045128000cc62a8008540a9009540a800e2
:103a4c00b4d8880054d580004222dd00a440880000
:103a5c0075d58000c22add00b540880005d027004e
:103a6c00850f520003003e0005e82300850f52002d
:103a7c000200360024002000010037001400200052
:103a8c00b4dc8800b4dc80004b22dd00c4dc880090
:103a9c00f23aef00fc3aef00fe3aef0096d48000c9
:103aac00a7d4800004192000840f5300e08f5b0022
:103abc0002003e001400200001003700240020000a
:103acc00c4d78800b4d78000c5d78000850f5200ba
:103adc000200340005005200020037006320b900d8
:103aec0005005000d0d788004c3bef0060822000ce
:103afc0070418800103bef001039ef001239ef00d5
:103b0c004238dd00ce30de00810070004230dd0036
:103b1c0004814200d6d7800006014100cf91de001f
:103b2c0086f207000002e90004d8880083e0a800b0
:103b3c00843bef0019003700e00f520017003a00e9
:103b4c008500ab00010032008500a9008500ab00a8
:103b5c00feff320071c7a900001bf8001a01f90022
:103b6c001fe1a8008405800004c0a10004d0a000bf
:103b7c0004e0a000840588008760a9009760a90074
:103b8c000021ef00b54080008502e900150888008f
:103b9c008460a9001400200054dc880044dc800000
:103bac00e00f5200340032000402e90044dc8800cb
:103bbc0031003a0041e2a90061e2a900c8e2a80084
:103bcc00743a88007667a900cd62a900cd82a9005d
:103bdc00c482a900341088009540a9009820a9003f
:103bec009460a90094e0a9009780a9009620a900f0
:103bfc009680a90097a0a90066d8800077d880008d
:103c0c00e00f5300e08f5b001900320040a7a800c2
:103c1c001400fc00a6092000850720003774200042
:103c2c00854b7800864b7800844b78007505200016
:103c3c00160020006404200027742000844b7800b8
:103c4c00854b7800864b78004207ab00feff3a00ac
:103c5c0064d8800075d880000040fe0061025200dc
:103c6c00e0825a00fcff3a000000fe00faff370029
:103c7c000040fe00feff370054dc8000e00f5200d5
:103c8c0007003a0004d48000e00f52000400320018
:103c9c000402e90004d4880001003a0048f507004a
:103cac0014d48000e00f5200040032000402e9003a
:103cbc0014d4880001003a0041f5070030d480008c
:103ccc00e00f50000f0032000000e90030d48800f3
:103cdc000c003a007667a90004102800743a88009a
:103cec00f4ff2000f4bf9f00230020000f81e900a7
:103cfc0031c0b300c405070084dabf00a1fc070083
:103d0c00fdff37000080fa004f05be004f04be00d7
:103d1c004f03be004f02be004f01be004f00be005d
:103d2c003600f9000040060004802000b604800034
:103d3c0086026200e08f5200fcff3a0040e2ab00ca
:103d4c00feff32009540a900068d21000480210061
:103d5c0007a02100cc62a900441288004822ef0081
:103d6c0040a2ab00feff3a00451280000512800015
:103d7c000502b200fdff3a0040128000cc62a800a0
:103d8c00052b78000000000000000000000000007f
:103d9c000410b000870f5200eeff3a00000006003e
:103dac000200fa00889fbe008a9fbe00a4b42100c6
:103dbc0014427800f5a721001542420005c8b30053
:103dcc000542420000404200dcfbb70004832000a7
:103ddc001442780004407800ddfbb7000442e80090
:103dec000440780030e8b70014d580000482e80065
:103dfc00b4bf9f0000cdb3001906070000ceb3007e
:103e0c001706070040e921008e05070051c3b300d7
:103e1c00b0c0b300d7040700c0bd21006a0507007d
:103e2c003fba97000484e900b8bf9f00e403200068
:103e3c00840f5400010034000404780088007800da
:103e4c00c061800031050700bfba9700888252001c
:103e5c00b5bf9f000b4020000a0c20000f0037005c
:103e6c005716800007826500e00f5200fcff3200fd
:103e7c008a8f540001003400090c200008007800df
:103e8c00380cb40089007800200507003fba970071
:103e9c0009025200b4bf9f0009044400bfbc970044
:103eac00e08f5400eeff3a0011c0b300b0c0b30075
:103ebc00b004070004402000551680000504620081
:103ecc00e00f5400fcff3a001483200014427800e9
:103edc000783200017426200c1003a0000ccb300f7
:103eec00df05070000cfb300dd050700c0e92100a6
:103efc005405070051c0b300b0c0b3009d040700c7
:103f0c000ea1ef0058088800f5182000044020008e
:103f1c00040037005016800000036200e00f5300cd
:103f2c0005003a0056088000850f5300f9ff360053
:103f3c000004eb003400370022002000ea80570018
:103f4c0030c0b300980407000004eb003fba9700a0
:103f5c00e70f52002c003c00ea032000094020002f
:103f6c001100370051c3b300b0c0b3008104070087
:103f7c005516800005826400e00f5200fcff3200f1
:103f8c0008007800141bb4008000780002032000a5
:103f9c0050c0b300840407003fba97000403b1007b
:103fac00b4bf9f000803b000bfbb97008a8f5300bb
:103fbc00ecff3c0011c0b300b0c0b3006d040700af
:103fcc00044020005016800080046200e08f5400f2
:103fdc00fcff3a003fba97000401e80008007800a3
:103fec00141bb4008000780050c0b3006e040700ae
:103ffc0009407800520407000002b20018002000ab
:10400c00010032000904780000c8b30094050700d1
:10401c00e00f54004b003200163bef00e40120008f
:10402c0004d48800a4d8800094429000f2cf5200af
:10403c0002003200e8cf42000b003a00441f20007f
:10404c00e4d28800c41af8000201f9000021ef0044
:10405c008460a8009460a8001400200024dc880070
:10406c008a3bef00470037001402fb00b5dc8000f0
:10407c0005a3b90006007800941bb4000003780077
:10408c00a6dc8800c7dc8000870f530003003c00cf
:10409c008703ea00870f530001003d00a7dc88006e
:1040ac00c32add0004aab90094dc8800a4d88000df
:1040bc009442900004b3210094c262000582fb007c
:1040cc00b6b421001643780006036a00610363004e
:1040dc0006003200e10362001600200002003200ec
:1040ec0096d9880001003700d6d98800b6b42100d3
:1040fc001643780006036a00620363000600320070
:10410c00e20362001600200002003200a6d98800eb
:10411c0001003700e6d988006103620002003a0012
:10412c000a00fc004a3ba9006202620002003a004d
:10413c000a00fc004a5ba900054078004bfbb70065
:10414c0029003700b4d880000402e800b4d88800f5
:10415c0015d68000850f520023003a00441f200022
:10416c00e4d28800c41af8000201f900080888009b
:10417c008460a8009460a8001400200024dc88004f
:10418c0058dc880044d380004822de006f026200b5
:10419c00e50f520001003a00e3fe07007067a8002b
:1041ac000471220004d68800cc02a900423bef0027
:1041bc00443bef00543bef00563bef00c402a90018
:1041cc00cc62a9008000eb000040eb00c7050700a3
:1041dc00d0f307004e27ef007667a90002003700e6
:1041ec0000c8b3001e0507004f05be004f04be00fb
:1041fc000080fa00000006003600f800809fbe0028
:10420c00829fbe00849fbe00869fbe00889fbe001a
:10421c008a1f78008460a90055dc8000a7dc800030
:10422c0086dc800094dc8000e08f52009f0032001e
:10423c000683430004024300c9a2de00f41fb2004f
:10424c0084dc880014832000144278000083200052
:10425c0010446200844f540003003a00b4408000c4
:10426c000402e90002003700a44080000402e900c7
:10427c008502520015088800994180006148b900f8
:10428c0012d5800023d58000a6f007008102d10052
:10429c000082d30004024200458320000502420044
:1042ac00c46188008904e80099418800e48f5400b7
:1042bc0001003a003228ef00e04f540044003a006d
:1042cc009760a9000000000000000000c402ab00d1
:1042dc00feff320087d88000b6d7800084c88000eb
:1042ec0095c8800005003700e00f520001003a002d
:1042fc00060278000402e9008502e800870f5200ec
:10430c00f9ff3a0084c8880095c88800b4d78000ab
:10431c00848f52001d0035008482520095c888009d
:10432c00a561800044d780000482ea0004024200a8
:10433c000482420046832000860f520003003100a5
:10434c0096d880000603430006024200b761800045
:10435c000003eb0009003700941a7800878f520095
:10436c0001003a00458320000482e800870f5200c8
:10437c0001003a00448320000603e800e81aec0030
:10438c00800f5300f4ff3900a561880074d78000ba
:10439c000402e80004024200b0d58000c1d58000c0
:1043ac0061034000e083480006a3b90034d58000c7
:1043bc0015002000842add0005b2b90024418800d4
:1043cc00a4002000a40888008760a8009760a800bb
:1043dc0044dd80000402e80044dd880055dd8000e7
:1043ec00850f52000d003900a83bef00d4d6800099
:1043fc00c522de00e3826200e18f520001003a0028
:10440c00cd82a8004722de0063026200e10f520059
:10441c000f003a00c482a8000d003700ea0f5200ca
:10442c000b003a00d4d68000c522de00e382620085
:10443c00e18f520001003a00cd82a9004722de0034
:10444c0063026200e10f520001003a00c482a9002d
:10445c000483200014427800e04f520009003a0017
:10446c009e1bf800ac1bf900a21bf800ae1bf90058
:10447c00921bf800bc1bf900a5dc8000c4aade006e
:10448c00f5dd88000482fb00c422de008582420038
:10449c006f026200c6ba210066807a000400de005a
:1044ac00614060003efe0700d800370006834300e1
:1044bc0004034300cab3de00f63fb20086dc88007a
:1044cc000608800074382100840f53000c003e0055
:1044dc00e6dc800024d68000e00f5300050032009b
:1044ec000402e9000603520016088800e5dc880087
:1044fc00030037000402e900070252001408880088
:10450c00e4d280000402e800e4d28800e20f5200fa
:10451c0004003a00cd62a800c8e2a900623aef009c
:10452c00b1003700ea0f52000e003a007667a9007e
:10453c0004102800743a88000040eb00e1040700e6
:10454c0062b0210012417800e1c0b3000040eb00e2
:10455c00450307004e27ef007667a90015f3070007
:10456c00a1003700eb0f520030003a00d4d380008a
:10457c00e00f52001a0032001f0037007667a900c6
:10458c007a3a880008407800f3fa0700783a8800f5
:10459c007667a9000af00700630060000080e8005d
:1045ac0055f20700000000000804e800f40f540066
:1045bc00fcff3a0014d380000402e80014d38800f6
:1045cc00e70f520003003a0074dc8000e00f520049
:1045dc00140032008460a800e9d288000200370081
:1045ec000a102800a9002000d8d38000e00f540046
:1045fc00e2ff32007c00370014002000d4dc88007d
:10460c0087a0a80014d380000402e80014d388000b
:10461c00e70f520074003a0074dc8000e00f520087
:10462c0071003a00a40520006e003700d5d580003b
:10463c006a834200860f520002003a00a400200058
:10464c0068003700f6052000860f52006600320025
:10465c00461f2000860f5200630032000603e8005c
:10466c00860f520036003a00d4d38000e00f52007f
:10467c002a0032002f00370030dd8000e00f5000a0
:10468c0057003a007667a900793a8800b2fa070019
:10469c00cbef070063006000e4d58000040040000d
:1046ac0005d68000e08f52000900340006ff2f0071
:1046bc000683b9000682420004d688004240a90055
:1046cc0003003c00c422a900c402a900cc62a900ca
:1046dc004e27ef007667a90007f20700f4d580009b
:1046ec00880f520007003c000402e800f4d5880053
:1046fc00450b2000850f520002003a00c403200035
:10470c00e4d588000002eb00000000000402e80081
:10471c00f40f5200fcff3a00020037000910280089
:10472c00380b2000d4d38000e00f5200d2ff3200af
:10473c002b00370014002000d4dc88002300370045
:10474c0067dc8000e08f530022003200860f52009d
:10475c0020003400361f200005034300840f530053
:10476c001c00350045d48000e08f52001700320049
:10477c00e5d4800006fa2000868f520003003a0030
:10478c00610262001800320010003700067d200024
:10479c00868f52000300320006322000868f5200b2
:1047ac0004003a0063026200e10f52000e003a006e
:1047bc000600370006192000868f520003003a00cd
:1047cc0055202000850f520007003a0087a0a80052
:1047dc0005003700451fb000850f520002003a005b
:1047ec00441f2000e4d2880004d68000e00f520061
:1047fc00060034000402e90004d6880003003a00e5
:10480c00c422a900c402a900cc62a9004f057800fb
:10481c004f04be004f03be004f02be004f01be004e
:10482c004f00be003600f9000040060002034000b5
:10483c00e08348000c003700910188009002ba0018
:10484c001082ba0085497800c82ade00954198008c
:10485c00a44198004822de00b4419800e481410054
:10486c0062004000e0804800860f5000878f58009f
:10487c00f1ff390000000600889fbe008a9fbe0031
:10488c008c1f78000002be004008de000003780098
:10489c00900188000000eb00800078000404780090
:1048ac00fb0f20000a402000880378008804400099
:1048bc001906ba009984ba00e10f460003003a00c9
:1048cc00f90fb2008b8f5400010032001100200050
:1048dc000080e8008a0f5000f3ff3a00e08f500090
:1048ec000c00320020042400003b88009601880054
:1048fc00040abb000700fc0050052000303b880078
:10490c00a00a2000303b880061e7a80000000000ee
:10491c00000000000282e900e13f2000828040009c
:10492c000281510015002400960188000404410006
:10493c008401780000042000d30478005805780026
:10494c00890bbb008a9bbb000000e900faff3a0010
:10495c00053b88000700fc0050052000303b880018
:10496c00a00a2000303b880061e7a800000000008e
:10497c00000000000408b000810f5200eaff3a006a
:10498c004f0678004f05be004f04be000000060025
:10499c00889fbe008a9fbe008c9fbe008e1f780031
:1049ac000005be00820678000306780006c02f00c2
:1049bc00000363008b027800060278000404be003a
:1049cc0050f4800061f48000880f5000898f5800eb
:1049dc001d003200e00f5000e08f5800040035003d
:1049ec00903eec0003ea2100022a2200a2ff0700fd
:1049fc00e00f5400e08f5c00110035008e3eec009f
:104a0c00990188000803be000002eb00022a220074
:104a1c0001ea2100002020001607ba009681ba0096
:104a2c00840242000eb17a0083b07a000402e800de
:104a3c0062034300e0834b00800f5200f6ff3a0004
:104a4c0058f4880069f48800fa3fb2000a05d100d6
:104a5c000002eb00072a220006ea210011003700b1
:104a6c00fa1fb2008a024500058043001c419000e9
:104a7c004811dd009c4178008380fb000108410057
:104a8c0085024300bc409000c808dd002c4090001b
:104a9c000080fb00808a4000640242000a05e800a6
:104aac00640646008d0f5200edff39004f07780069
:104abc004f06be004f05be004f04be0000000600ae
:104acc00889fbe008a9fbe008c9fbe008e1f780000
:104adc000005be0002067800030778000004eb0016
:104aec000d402000100037008a047800f93fb20016
:104afc00898456000802560089844400848f54002f
:104b0c000100360084047800880147000901780010
:104b1c000a00be009eff07000902d10004054500f3
:104b2c00e0854d00090444008c0f5400eeff390061
:104b3c004f0778004f06be004f05be004f04be0065
:104b4c0000000600040020000482fb000500200089
:104b5c00c022dd00040020000600250006024200f1
:104b6c00e0824a00840f5000858f5800020031000b
:104b7c000000420081804a00e6bf2a0007002000a6
:104b8c0062034300e0834b00040020000482fb001e
:104b9c0005002000c022dd000400200006024200b7
:104bac0087824a00840f5000858f58000100310025
:104bbc00c3ff070000000600f40f200006002000d1
:104bcc000403630007002000c033dd000600200052
:104bdc000500250005034300e0834b00060343005a
:104bec0087834b0062035300e0835b0097018800ce
:104bfc009602ba001683ba0007002000c033dd000d
:104c0c000600200005034300e0834b00070262000e
:104c1c0084027800060278000400be000000060042
:104c2c00889fbe008a9fbe00f00f2000010020006c
:104c3c00040020000002620005002000c022dd00fc
:104c4c00040020000600250006024200e0824a0013
:104c5c000401420085814a0062015100e081590043
:104c6c006033b8000f003700950188009400ba003b
:104c7c001484ba0080846000c808de00610db8009e
:104c8c0009054500e0854d000a0343008b834b006a
:104c9c008000640001034300e0834b006202420089
:104cac00e0824a00820f5200838f5a00eeff3900d7
:104cbc000782fb0084027800060278000400be0024
:104ccc004f05be004f04be0000000600ea874700f7
:104cdc00889fbe008a9fbe008c9fbe008e1f7800ee
:104cec00060020000683fb0007002000c033dd0017
:104cfc0006002000020025000300200006044100ed
:104d0c00878449006022b800370037000200420057
:104d1c0083804a000000430081804b009101880091
:104d2c000c4020000d0020000006460081864e003d
:104d3c00dcb79f00edb79f00fe0f2000f0b79f007f
:104d4c0081bf9f005fb69700efb69700d6b79f0064
:104d5c00e7b79f000403be001002ba009082ba00ad
:104d6c00e10f42000c003a00f50fb2008e8f52009a
:104d7c0009003a0062004000e08048008c0f5000af
:104d8c008d8f5800f4ff3a000602be005fb3970007
:104d9c00efb39700100037000602be007fb59700f6
:104dac008fbd97005fb39700efb3970020042400ea
:104dbc00003b88000a0dbb000700fc0050052000da
:104dcc00303b8800a00a2000303b880061e7a80037
:104ddc000000000000000000004020000100200046
:104dec000402400085824800880f5200898f5a00c7
:104dfc00c6ff39004f0778004f06be004f05be00b6
:104e0c004f04be00af00b10000000600889fbe003a
:104e1c00f70f2000040020000702620005002000ac
:104e2c00c022dd000400200006002500060242001e
:104e3c00e0824a00950188001403ba001482ba007b
:104e4c00e10f430004003a00f40fb200870f520048
:104e5c000e003a000e00370005202000850f53008d
:104e6c000a003a00e44f520008003a006cff0700b9
:104e7c000004be0050ff07001400200005002000b5
:104e8c00800f5400818f5c00020032008fff0700fe
:104e9c006022b8000400be004f04be0000000600f3
:104eac00f2874700889fbe008a9fbe008c9fbe0081
:104ebc008e1f78005aff07000004be003eff07005b
:104ecc00800f5400818f5c00020032007fff0700ce
:104edc0095003700080025000900200004c02400bc
:104eec0004045400e0845c0006002000070020004d
:104efc00f20f2000030020000600610001002000da
:104f0c00c000dd0000002000080440008984480037
:104f1c00000020000200600001002000c000dd0045
:104f2c00000020000002540081825c00b4b79f0096
:104f3c00c5b79f006022b80002077800d0b79f0069
:104f4c00e1b79f0096b79f00a7b79f00710037008d
:104f5c0002c02400030020000000250000004100d6
:104f6c00e08049000000420081804a005fb3970056
:104f7c00efb397000000430081804b009fb3970074
:104f8c000703670007002000c033dd000600200087
:104f9c000003430081834b000201420083814a00dd
:104fac005fb69700efb697000201460083814e0072
:104fbc00830078000000eb0009402000f4b79f004c
:104fcc0085bf9f000606be00070378000205be00e1
:104fdc00960188008c0340001704ba009783ba002e
:104fec00910188008a0240009501ba009582ba00ae
:104ffc00830f540008003a00858f530006003a00d6
:10500c000080e800890f5000f1ff3a007fb2970052
:10501c008fba97003b0037007fb297008fba97008a
:10502c000c03be0020042400003b88009101880082
:10503c000a0dbb000700fc0050052000303b880027
:10504c00a00a2000303b880061e7a80000000000a7
:10505c000000000008402000090020000c0444005f
:10506c008d844c000c0155008d815d001b002400cb
:10507c001e003700910188001002ba009082ba001d
:10508c0002064000838648009d018800040ebb0088
:10509c00058ebb000a05e90062004000e080480074
:1050ac00e00f5500f3ff3a000602be007fb39700f5
:1050bc008fbb97000b3b88000700fc0050052000bd
:1050cc00303b8800a00a2000303b880061e7a80034
:1050dc0000000000000000000608b0000780b000cf
:1050ec00880f5300898f5b00060032000600be005b
:1050fc000a042000f6b79f0087bf9f000403be0080
:10510c00dcff3700064020000700200004024300ab
:10511c0085824b003fb09700cfb09700800f5200b4
:10512c00818f5a008aff35004f0778004f06be006a
:10513c004f05be004f04be002f01b1000000060059
:10514c00cce2a9000064a0000080fb0040138800a2
:10515c006822ef0060a2ab00feff3a00441380000f
:10516c0060a2ab00feff3a0040138000cce2a80026
:10517c0000000600cce2a9000080fb004013880070
:10518c008180fb004113880060a2ab00feff3a0057
:10519c004413800060a2ab00feff3a004413800071
:1051ac00cce2a80000000600889fbe008a1f780091
:1051bc0080447800010478000205780091c1b300a6
:1051cc00b0c0b300ebff0700cce2a9000964a0005b
:1051dc008984fb0049138800051380000502b20086
:1051ec00fdff3a00441380000a027800e00f5500de
:1051fc000c0032000613800062036300fdff3a00ce
:10520c00461388000a05e90060a2ab00f7ff3a00dc
:10521c004613800006f47a000402e9008502e800d7
:10522c00f2ff370005044400e00f52000600320084
:10523c0060a2ab00feff3a0045138000055c7800cd
:10524c000402e900f8ff3700cce2a8004f05780013
:10525c004f04be0000000600014078008200780078
:10526c0003017800d0ff37000140780082407800bd
:10527c00c0ff3700881f78000144780092c1b3004a
:10528c00b1c0b300f8ff070008407800acff07007e
:10529c004f04780000000600cce2a9000080fb005f
:1052ac004013880060a2ab00feff3a00441380005c
:1052bc0002027800e00f51000b0032006022ab00bc
:1052cc00feff3a00314378008682fb0045138800cc
:1052dc000201e90060a2ab00f6ff3a004513800022
:1052ec000402e900f3ff3700e00f52000500320022
:1052fc0060a2ab00feff3a00451380000402e900f7
:10530c00f9ff3700cce2a80000000600cce2a900af
:10531c0054002000441388000102e8008002eb00d6
:10532c00e88f50001200340090427800451388003a
:10533c009042900045138800a042900045138800cd
:10534c00b042900045138800c0429000451388007d
:10535c00d042900045138800e0429000451388002d
:10536c00f042900045138800e88050008500200032
:10537c0005004000e08f50000a0032006022ab00b4
:10538c00feff3a00b0427800451388008100e90026
:10539c0060a2ab00f7ff3a00451380000402e9005d
:1053ac00f4ff3700e00f52000500320060a2ab00a2
:1053bc00feff3a00451380000402e900f9ff3700b4
:1053cc00cce2a80000000600cce2a90054002000aa
:1053dc004413880010427800441388001042900057
:1053ec0044138800440020000402e9000400320049
:1053fc0060a2ab00feff3a0045138000faff3700b5
:10540c00cce2a80000000600014078008200780081
:10541c0003017800a0ff37000041eb0082407800c8
:10542c0091ff37004300200022e7210061c0b30048
:10543c0089ff3700420020008000780060c0b30074
:10544c0095ff3700cce2a9006400200044138800cb
:10545c0010427800441388001042900044138800d6
:10546c00204290004413880030429000441388007e
:10547c00640020000402e9000400320060a2ab00ca
:10548c00feff3a0045138000faff3700cce2a8007b
:10549c0000000600430020000101780061c0b30049
:1054ac00d9ff3700889fbe00004478008144780003
:1054bc000281fb0014e621006441790094e4210090
:1054cc001441710051c3b3000840780066ff070017
:1054dc00894078000840780066ff07004f04be0042
:1054ec0000000600889fbe008a1f780000447800e8
:1054fc0081447800024578008381fb0014e621008a
:10550c0064c1790094e421001441710051c3b300cb
:10551c000840780054ff07000a4178008940780061
:10552c000840780050ff07004f0578004f04be007c
:10553c0000000600889fbe008a9fbe0000447800d1
:10554c004ae1210019c0b3005a4178008940780023
:10555c000840780044ff07008944e800e5cf540078
:10556c00f9ff3a00aae1210079c0b300abc2b30045
:10557c005a41780089407800084078003aff0700cb
:10558c008944e8008bcf5400f9ff3a003ae521003a
:10559c008044eb00894178005a417800a1c2b300e5
:1055ac0008407800cfff07008944e800e8cf54009a
:1055bc00f8ff3a00eae32100b9c2b3006bc3b300b1
:1055cc005a417800894078000840780026ff07008f
:1055dc008944e8008bcf5400f9ff3a00b2e4210073
:1055ec001241780071c3b300084078001eff070019
:1055fc00bae521008044eb00894178005a417800db
:10560c0081c3b30008407800b6ff07008944e80066
:10561c00e5cf5400f8ff3a00cae4210099c3b30067
:10562c00dbc3b3005a417800894078000840780009
:10563c000dff07008944e8008bcf5400f9ff3a00b6
:10564c0022e5210012417800e1c3b3000840780044
:10565c0005ff07004f05be004f04be00000006000a
:10566c00cce2a9000080fb004013880060a2ab00d4
:10567c00feff3a0044138000cce2a80000000600b4
:10568c0001407800f6ff3700881f7800004478004e
:10569c0001417800e1c0b30008407800f2fe070039
:1056ac00c2c0b30021c0b30008407800eefe070072
:1056bc0021c0b30008407800eefe07006c4060008b
:1056cc00fbff3a0061c2b30008407800e9fe070016
:1056dc008042780067c262000440780076feb70012
:1056ec004328de006100600077feb70081c2b30082
:1056fc0008407800dffe070078feb70091c2b300c7
:10570c0008407800dbfe070079feb70077debf00ab
:10571c000100320030c0b3004f04780000000600d6
:10572c00889fbe000044780001cbb300084078008d
:10573c00d3ff0700d2c1b300c1c1b3000840780049
:10574c00c9fe07008044eb0022c0b3008240780001
:10575c0008407800c4fe070021c0b3000840780060
:10576c00c4fe070062406000fbff3a0031c2b30088
:10577c0008407800bffe07006f4060007afeb7005b
:10578c0064405000e44f5000030036008944e800a8
:10579c00eacf5400ecff3a00d2c3b300c1c1b3004e
:1057ac0008407800b0fe070012c1b30021c0b3005e
:1057bc0008407800acfe070021c0b3000840780018
:1057cc00acfe070071406000fbff3a00e1c1b30082
:1057dc0008407800acff070080447800a1c5b300f6
:1057ec0008407800a8ff07008944700061c9b30025
:1057fc0008407800a4ff070080c4740001c8b300ff
:10580c00084078009eff0700e0cf54002a003a00c1
:10581c0031c2b3000840780096fe07008042780041
:10582c006fc26200044078007afeb7004428de00a4
:10583c00610060007bfeb70041c2b30008407800f5
:10584c008cfe07007f4060007cfeb70051c2b300a5
:10585c000840780087fe0700804278006fc2620023
:10586c00044078007dfeb7007f8062004400de00bb
:10587c007efeb700b1c1b300084078007dfe070082
:10588c007ffeb700c1c1b3000840780079fe070065
:10589c0080feb700b4e7210014427800e04f5200bc
:1058ac0004003a00e4e7210014427800e04f520073
:1058bc000100320029c0b300094078004f04be003b
:1058cc0000000600881f780000447800084078002b
:1058dc00d1fe07000840780016ff0700084078004a
:1058ec008fff07004f04780000000600889fbe0061
:1058fc0000447800e384600094e6210064c17c00dd
:10590c0041c2b3000840780057fe0700d4e62100de
:10591c0064c17c00d1c2b3000840780052fe07007d
:10592c004f04be0000000600000005000002eb0062
:10593c0005ce21004223dd0006834200000beb0064
:10594c0036137800740342004233dd0006834200b4
:10595c00000beb00361378000402e800f40f520041
:10596c00f4ff3a00000006003600f800809fbe00ed
:10597c00829fbe00849fbe00869fbe003400f8004c
:10598c0000002000a001880074ec8000e00f5200a1
:10599c0003003a001400200074ec8800e3ff0700b9
:1059ac0024e8210014427800e14f52000b003a0029
:1059bc000862ab0007003a008c3ded0064ec8000ff
:1059cc00e00f520005003a000440780082feb70058
:1059dc0002003700a400200064ec880024e82100b9
:1059ec0014427800e34f52000400320024e82100f6
:1059fc0014427800e74f520023003a00843eec003a
:105a0c0025f4800044062000848f520008003400e6
:105a1c00843eef0064e9800075e980006102420079
:105a2c00e0824a0064e9880075e988000642a80013
:105a3c000862ab000300320044f48000e00f520017
:105a4c0011003200843eef0024e82100144278005b
:105a5c00e34f520002003a0044c0b300010037008b
:105a6c0084c0b3000440780082feb70044f4800088
:105a7c00e00f520003003200883eef000622a8001f
:105a8c00010037000602a8008780a9003400f90045
:105a9c004f03be004f02be004f01be004f00be00c0
:105aac003600f90000400600801f7800849fbe007d
