:020000040000fa
:080000000002040000000000f2
:020000040000fa
:100008009402000094020000940200009402000090
:100018009402000094020000940200009402000080
:10002800940200009402000094020000621a00008a
:10003800940200009402000094020000880a000064
:100048005a07000094020000da070000940200003a
:100058009402000094020000940200009402000040
:1000680094020000b62600009402000094020000ea
:100078009402000094020000940200009402000020
:100088009402000094020000940200005e07000041
:10009800162600007a150000940200009402000061
:1000a80094020000940200009402000094020000f0
:1000b80094020000940200009402000094020000e0
:1000c80094020000940200009402000094020000d0
:1000d80094020000940200009402000094020000c0
:1000e80094020000940200009402000094020000b0
:1000f80094020000940200009402000094020000a0
:10010800940200009402000094020000940200008f
:10011800940200009402000094020000940200007f
:10012800940200009402000094020000940200006f
:10013800940200009402000094020000940200005f
:10014800940200009402000094020000940200004f
:10015800940200009402000094020000940200003f
:10016800940200009402000094020000940200002f
:10017800940200009402000094020000940200001f
:10018800940200009402000094020000940200000f
:1001980094020000940200009402000094020000ff
:1001a80094020000940200009402000094020000ef
:1001b80094020000940200009402000094020000df
:1001c80094020000940200009402000094020000cf
:1001d80094020000940200009402000094020000bf
:1001e80094020000940200009402000094020000af
:0801f8009402000094020000d3
:020000040000fa
:10020800940200009402000094020000940200008e
:10021800940200009402000094020000940200007e
:10022800940200009402000094020000621a000088
:10023800940200009402000094020000880a000062
:100248005a0700009402000004080000940200000d
:10025800940200009402000094020000940200003e
:1002680094020000b62600009402000094020000e8
:10027800940200009402000094020000940200001e
:100288009402000094020000940200009407000009
:10029800162600007a15000094020000940200005f
:1002a80094020000940200009402000094020000ee
:1002b80094020000940200009402000094020000de
:1002c80094020000940200009402000094020000ce
:1002d80094020000940200009402000094020000be
:1002e80094020000940200009402000094020000ae
:1002f800940200009402000094020000940200009e
:10030800940200009402000094020000940200008d
:10031800940200009402000094020000940200007d
:10032800940200009402000094020000940200006d
:10033800940200009402000094020000940200005d
:10034800940200009402000094020000940200004d
:10035800940200009402000094020000940200003d
:10036800940200009402000094020000940200002d
:10037800940200009402000094020000940200001d
:10038800940200009402000094020000940200000d
:1003980094020000940200009402000094020000fd
:1003a80094020000940200009402000094020000ed
:1003b80094020000940200009402000094020000dd
:1003c80094020000940200009402000094020000cd
:1003d80094020000940200009402000094020000bd
:1003e80094020000940200009402000094020000ad
:0803f8009402000094020000d1
:020000040000fa
:100400000f9b21000e7f22000e01880000000000db
:1004100000012000200288000c000700c0a122007b
:100420000100200011000700000020000000e00093
:10043000020032000000020000000000660402001a
:10044000000000000040da000000fe004440a90067
:10045000400020000000e000030032000000200007
:10046000a00188004440a800000006009101880017
:10047000800078000000eb0015003700e2804000ab
:1004800032a0b4009101ba00e280400032a0b40072
:100490009102ba00e280400032a0b4000002eb00fa
:1004a000472bde00f507b200602ce10004003a00a3
:1004b0000059eb008301e900fdff3e000400370016
:1004c0006128e100010032000082eb000400070017
:1004d0001101ba000200e000e8ff3a000000060047
:1004e0003159ba008301e9000c0032002159ba00e9
:1004f0008301e900080032000400e00003003a0034
:10050000e280400032a0b400f5ff370011d9ba00f4
:100510008301e900faff3a008100e800e180400031
:1005200032a0b400000006000040da000000fe0027
:10053000020ab900001bb9000200b80081004200a5
:1005400081004300000006006022b800060220007f
:100550000000d0008180d2000482d2008582d200c7
:100560000000a0000202520083825a000300310002
:100570000202420083824a000000a1000603e90053
:10058000f3ff3a0000000600839f68000100e000ce
:1005900002003d0060001000e08018000300e00051
:1005a00002003d0060011100e0811900e6ff070034
:1005b0004f00e00002003b0060001000e0801800e7
:0405c0000000060031
:020000040000fa
:0805c400ffff0000ffff000033
:020000040000fa
:1005cc00106e80006703b900f4ee210011000900e1
:1005dc000403d8008000fd00106e880000000600a7
:1005ec00c40df800ae11f900000006000100200057
:1005fc0092748000a3748000caff0700823e200022
:10060c0003002000cdff0700920020000300200013
:10061c00c4ff07000271220003002000c7ff07007f
:10062c006022b800ea0f5000e08f5800020036003c
:10063c006a025000e08258000400780000000600b6
:10064c007067a90004fe2f00463580008602620008
:10065c000510a00045358800753680000502620043
:10066c007400b30074368800f40f2e0076368000c8
:10067c000602620004b0a0007436880041e2a900b2
:10068c004322a9004302a80042c2a9004342a80089
:10069c0042a2a800141280000420a0000430a10083
:1006ac000440a00014128800300020004222b70041
:1006bc004402a800041280000420a0000430a10011
:1006cc000440a0000412880041e2a8008540a90063
:1006dc009540a900440580000480a1000490a0006e
:1006ec0004a0a000440588000000060014002000af
:1006fc00546f880094e0a80000000600ea2def007b
:10070c0084e0a800000006000082eb00843b880017
:10071c00943b8800a43b8800b43b88007087a900f8
:10072c007167a9007187a90071a7a90064198800d5
:10073c00cd62a800cd82a800c482a800c402a90082
:10074c00c422a900c982a900c082a900c962a9005b
:10075c00c002a900c022a900cc02a900c802a900ad
:10076c00cc22a900c822a900cce2a800c8e2a900aa
:10077c007667a90004102800743a880004fe2f0044
:10078c006635800086026200a500b30065358800de
:10079c002636800086026200a500b300253688004c
:1007ac003536800005026200b400b3003436880090
:1007bc006322a9006302a80062c2a90062a2a80079
:1007cc00141380000420a0000430a1000440a000f9
:1007dc0014138800300020006222b7006402a800c5
:1007ec0061e2a8008820a9009820a900a405800037
:1007fc000440a0000450a1000460a100a4058800de
:10080c00640580000440a1000450a0000460a10015
:10081c00640588008620a9009620a9001671800026
:10082c000603e9001608880005e1a800f4ff2c0077
:10083c00250580000502620004e0a0002405880064
:10084c009460a800940580000403b3000460a10028
:10085c009405880087a0a90097a0a80034422f0017
:10086c0064088800000320001021b70011e1a800e3
:10087c003405800004c0a00004d0a10004e0a10055
:10088c0034058800046420007408880094088000f3
:10089c000440a0000450a1009408880013e1a800b3
:1008ac00940580000400a1000410a0000420a10005
:1008bc00940588008780a9009780a9000000060095
:1008cc00889fbe00000020000080fb00010020007b
:1008dc00c000dd000000200004402a00040040009d
:1008ec00e080480002202000030020006512070071
:1008fc00cca2a90011002000b0c0b3008e120700da
:10090c00610060004500dd00441680000450a10029
:10091c000002720044168800ea0d0700e00f500038
:10092c00e08f580004003200000e20004220b70077
:10093c00004c020000000000216e80000040eb0023
:10094c007d120700206e880025ff0700316e8000a5
:10095c0010c0b30078120700306e8800217180003f
:10096c00f0c0b30074120700207188004171800040
:10097c0050c2b30070120700407188007e2eef0049
:10098c00802eef00822eef00842eef00862eef00db
:10099c00882eef008a2eef008c2eef008e2eef00ab
:1009ac00902eef00922eef00942eef00346e80000c
:1009bc004822de006f026200e50f520008003a0088
:1009cc00b173800020c1b3005b120700b0738800c4
:1009dc00c173800030c1b30057120700c073880088
:1009ec00356e8000c82ade006f826200e50f52006f
:1009fc0008003200e80f520006003200e90f5200e6
:100a0c0004003200e50eb20004062000848f520070
:100a1c0008003a0071738000d0c0b3004612070082
:100a2c007073880081738000e0c0b300421207002d
:100a3c0080738800346e80004822de00ef02620072
:100a4c00e58f520004003200e40eb20005062000cf
:100a5c00850f520008003a009173800000c1b3006a
:100a6c003512070090738800a173800010c1b30089
:100a7c0031120700a0738800346e80006f02620090
:100a8c00e20f520007003a001868ef0010c0b300e4
:100a9c0019e8b700044078001ae8b70030c0b3007a
:100aac001be8b70049dc200028c0b3008840e800f0
:100abc005901be00084078003b120700808cbe0034
:100acc0008c4e800ea4f5400f8ff3a00c1e52000e2
:100adc00914078008180fb000840780016120700d6
:100aec005ceeb700f97f20000004eb000880d10019
:100afc00744040008000eb000f120700610264009c
:100b0c004322dd000400de00806c78000804e8005d
:100b1c00f40f5400f5ff3a00c16f800040c2b300df
:100b2c0005120700c06f8800246e80000402e800e4
:100b3c00146e8800f4fe07000140fe00feff370033
:100b4c0024708000160020000433dd0064708000e7
:100b5c00757080008603e900407080000780b90042
:100b6c00840340008703d10017628800e10f530013
:100b7c0002003a0004282000030037008502d1004f
:100b8c000482d3000428b000246288000000060010
:100b9c00881f7800000478000400280005128000eb
:100bac0005026200e00f5200440032009460a9007c
:100bbc0041e2a90061e2a90040a7a8001400fc00d2
:100bcc00a50920000003eb008407200037742000e7
:100bdc00844b7800854b7800864b78007505200097
:100bec00160020006404200027742000844b780039
:100bfc00854b7800864b78004207ab00feff3a002d
:100c0c000a0037000040fe0061e2a80001c9b300f1
:100c1c000040eb00480f070001c8b3000040eb0098
:100c2c00450f070061e2a9000804e900e00f540039
:100c3c00f4ff3a001400fc00a50920002600200057
:100c4c008407200037742000844b7800854b780093
:100c5c00864b7800750520001600200064042000e7
:100c6c0027742000844b7800854b7800864b7800e5
:100c7c004207ab00feff3a0040a7a9000400280081
:100c8c000100370041e2a8000612800086026200d3
:100c9c00e08f5200fbff32000200370061e2a80037
:100cac000100370004002800061380008602620051
:100cbc00e08f5200f9ff3200390037009460a90030
:100ccc0061e2a90040a7a8001400fc00a6092000be
:100cdc008507200037742000854b7800864b780000
:100cec00844b780075052000160020006404200059
:100cfc0027742000844b7800854b7800864b780055
:100d0c004207ab00feff3a000a0037000040fe002d
:100d1c0061e2a80001c9b3000040eb00060f070018
:100d2c0001c8b3000040eb00030f070061e2a9000b
:100d3c000804e900e00f5400f4ff3a001400fc0032
:100d4c00a50920002600200084072000377420000d
:100d5c00844b7800854b7800864b78007505200015
:100d6c00160020006404200027742000844b7800b7
:100d7c00854b7800864b78004207ab00feff3a00ab
:100d8c0040a7a900040028000100370061e2a80078
:100d9c000613800086026200e08f5200fbff3200d7
:100dac009460a8004f04780000000600c471800015
:100dbc008402d100e382620003003200e28f520011
:100dcc0004003a0002003700cd82a9000100370070
:100ddc00cd82a8004322de006302620003003200d1
:100dec00e20f520004003a0002003700c482a9004e
:100dfc0000000600c482a80000000600c471800038
:100e0c00c522de00e382620003003200e28f520052
:100e1c0004003a0002003700cd82a900010037001f
:100e2c00cd82a8004722de0063026200030032007c
:100e3c00e20f520004003a0002003700c482a900fd
:100e4c0000000600c482a80000000600cd82a900a4
:100e5c00c482a90000000600881f78000004eb0083
:100e6c00c86e8800e870880024002000d4708800c8
:100e7c007667a90004102800743a8800c2e52000a7
:100e8c0012417800e1c0b30008407800a40d0700bf
:100e9c00eeff0700783a88007667a90017fe070076
:100eac004f047800000006008500a90000400600f1
:100ebc00849fbe00861f7800754180001502780063
:100ecc0044128800c402a900347380000402e800b4
:100edc00a6728000860f5200020032008582e80064
:100eec0008003700264180000603e90026418800ef
:100efc000002eb0065822000840f530001003a00d1
:100f0c009760a90034738800754188008760a90038
:100f1c004f0378004f02be0000400600849fbe00c5
:100f2c00869fbe00c402a90075418000150278009e
:100f3c0044128800347380000402e800867280003a
:100f4c0096728800a7728000870f52000200320050
:100f5c008582e8000e0037000602e80084728800e3
:100f6c0065728000850f520001003600502eef0094
:100f7c00264180000603e900264188000002eb00b0
:100f8c0065822000840f530001003a009760a9008d
:100f9c0034738800754188008760a9004f03be0038
:100fac004f02be0000400600c402a800849fbe0091
:100fbc00861f78008540a90045128000c68120005c
:100fcc003473800066427a00e04f52000800320011
:100fdc00a4618000051a7800a4618800b5618000c6
:100fec00850f520002003a0044832000a46188005f
:100ffc004f0378004f02be0000400600809fbe00e9
:10100c00829fbe00849fbe00869fbe00889fbe004c
:10101c008540a900c402a8004512800034738000ea
:10102c00c681200066437a00e04f5300fe00320078
:10103c005672800097728000e08f5300a1003a0036
:10104c00e00f530016003a006128b9004222dd007f
:10105c00e6c520000402430034014000a48148008e
:10106c000200be00028abe00747280000402e90015
:10107c00030033008180d1000080d300fbff3700d8
:10108c00a4618000000a7800347380004222dd00e5
:10109c0004034300000beb0036137800800037008c
:1010ac00e10f530027003a000403420061c4200002
:1010bc008680400011037800cfb3de006129b900af
:1010cc0006034100878349004222dd00e0c4200072
:1010dc00040040001001be008381d1000281d300c6
:1010ec000603410087834900850878000688be0006
:1010fc00e5c520000482420034004300a4804b006c
:10110c000003be00008abe00747280000482e800f6
:10111c000402e900030033008783d1000683d30067
:10112c00fbff3700a4618000060a7800347380004e
:10113c004222dd0084824200800aeb00b512780066
:10114c0057003700e20f530021003a004220dd0027
:10115c00e1c42000808040001101be000402420066
:10116c0066c420000402430014037800cfb3de00f1
:10117c00612cb9000603440087834c000204410033
:10118c008384490008014100898149004e1cdd001f
:10119c004211de0002017400c299de000603410018
:1011ac0087834900050a78008688be00e4c52000c4
:1011bc008002420035004300a5804b000003be00b6
:1011cc00808abe0075728000e382420028003700de
:1011dc00e30f530032003a004220dd00e1c420004e
:1011ec00808040001103be000402420062c4200053
:1011fc000402410014017800cf91de00612cb9008b
:10120c000201440083814c00423cdd00ce34de0000
:10121c00890474004234dd000804430089844b00c7
:10122c000804430089844b000803430089834b0066
:10123c004d3cdd004333de0006037400c3bbde000f
:10124c000203430083834b00050a78008688be00a6
:10125c00e4c520008002420035004300a5804b000d
:10126c000003be00808abe0075728000e4824200da
:10127c008502e900030033008783d1000683d30085
:10128c00fbff3700a5618000860a7800357380006b
:10129c00c22add0005024200000aeb00341278007d
:1012ac00a46180000482e800a4618800b56180001c
:1012bc00850f52005c003a0044832000a461880032
:1012cc0059003700e00f530005003a004222dd00c0
:1012dc00e6c5200004024300612bb9005000370022
:1012ec00e10f530015003a000403420061c42000d2
:1012fc008680400011037800cfb3de006129b9006d
:10130c0006034100878349004222dd00e0c420002f
:10131c00040040001001be008381d1000281d30083
:10132c000603410087834900850878000688be00c3
:10133c00e5c520000482420039003700e20f53005b
:10134c0015003a004220dd00e1c4200080804000fe
:10135c001101be000402420066c4200004024300d6
:10136c0014037800cfb3de00612cb90006034400ef
:10137c0087834c000204410083844900080141002a
:10138c00898149004e1cdd004211de00020174000f
:10139c00c299de001c003700e30f530022003a0014
:1013ac004220dd00e1c42000808040001103be001b
:1013bc000402420062c420000402410014017800bf
:1013cc00cf91de00612cb9000201440083814c00f6
:1013dc00423cdd00ce34de00890474004234dd0072
:1013ec000804430089844b000804430089844b00a3
:1013fc000803430089834b004d3cdd004333de0082
:10140c0006037400c3bbde000203430083834b005e
:10141c00050a78008688be00e4c520000002420060
:10142c00140a430054924b004f04be004f03be00fd
:10143c004f02be004f01be004f00be000040060030
:10144c000200fa00881f780001047800c0ff9f009a
:10145c0070e7a9005402200024108800040429001d
:10146c00341088009620a80071e7a900743e200073
:10147c00e408880021e1a8009780a8001300200050
:10148c0003017800e480570060c3b300d80e070056
:10149c00e00f500005003a00800178002200200087
:1014ac00e480570060c3b300e10e07009780a900e9
:1014bc0021e1a90071e7a8009620a9000622ef00ff
:1014cc0070e7a800cffa97000582fb004822dd00e8
:1014dc00dffa97008582fb00050242000500200020
:1014ec00048cbe0044002000e00f500001003a00c4
:1014fc0024002000040078004f0478000080fa00db
:10150c00000006003600f800809fbe00829fbe00df
:10151c00849fbe00869fbe0084e0a90014002000ba
:10152c00c4758800f46d8000e00f520006003a008c
:10153c0001eb200020c0b300c1ff070041eb2000ed
:10154c0040c0b300beff0700f46d80000402e80049
:10155c00f46d8800f40f52000c003200a47580006a
:10156c00b5758000f60f2000860f5200e08f5a00f0
:10157c00060036008475800095758000f61f2000eb
:10158c00860f5200e08f5a0001003e00be2def0086
:10159c00b82eef00546f8000e00f520001003a00ab
:1015ac0094e0a9004f03be004f02be004f01be00e5
:1015bc004f00be003600f900004006000002780023
:1015cc000408b20016003a00f4c3b3008440600073
:1015dc004600de00e6cf500003003a006140600098
:1015ec004300200006003700e3cf500007003a000c
:1015fc00b22cef00b42cef006140600023002000ff
:10160c0022cb2000c20b0700730137006140600041
:10161c00c60b07000080fb00010020006c013700a6
:10162c00f00fb2006102b8000408b1000580b100ef
:10163c00e6072000860f5200e08f5a0067013e003b
:10164c00046001007e0037007f0037008200370005
:10165c008c00370061013700600137008e003700c5
:10166c008f0037005d0137005c0137005b013700ec
:10167c005a01370059013700580137008c003700e8
:10168c008e0037009000370092003700530137006e
:10169c005201370095003700970037004f01370093
:1016ac004e0137004d0137004c0137004b0137001c
:1016bc004a0137004901370048013700470137001c
:1016cc00900037009200370093003700a6003700d7
:1016dc00a7003700a8003700400137003f01370052
:1016ec003e0137003d013700c2003700c40037000f
:1016fc00c6003700c8003700ca003700cc003700de
:10170c00ce003700d000370034013700d10037004d
:10171c00d200370031013700300137002f0137007c
:10172c002e013700d00037002c0137002b01370079
:10173c002a0137002901370028013700270137001b
:10174c0026013700ca003700c9003700c80037002f
:10175c00c700370021013700200137001f01370077
:10176c001e0137001d0137001c0137001b0137001b
:10177c001a0137001901370018013700170137001b
:10178c0016013700c0003700d600370013013700b0
:10179c001201370011013700100137000f0137001b
:1017ac000e0137000d0137000c0137000b0137001b
:1017bc000a0137000901370008013700070137001b
:1017cc0006013700ca003700cb003700cd003700c8
:1017dc00ce003700d000370000013700ff00370083
:1017ec00cf003700d0003700fc003700fb0037007b
:1017fc00fa003700f9003700f8003700f70037001f
:10180c00f6003700f5003700f4003700f30037001e
:10181c00c7003700f1003700f0003700ef00370049
:10182c00ee003700d0003700d2003700d40037006c
:10183c00d6003700d8003700da003700dc0037005c
:10184c00246e8000ad003700d00520009065880024
:10185c00b42cef00e0003700040020000482fb00f1
:10186c0005002000c022dd00040020000600250039
:10187c0006024200e0824a000402420085824a00cd
:10188c0002003700f47680000577800094658800ac
:10189c00a5658800d0003700346e800097003700b3
:1018ac002500200095658800b42cef00ca00370095
:1018bc00c4e520001442780009003700d4e520006c
:1018cc001442780006003700e4e52000144278004a
:1018dc0003003700441680004522de00614262009e
:1018ec000482fb0005002000e8ff370080758000b3
:1018fc0091758000b6003700a4758000b575800026
:10190c00e2ff3700c0728000d1728000b000370057
:10191c00347280007900370094db20001442780088
:10192c0084cf500007003200447280000402e800ab
:10193c004472880035728000850f52000100360019
:10194c00482eef004472800050002000e00f52003f
:10195c00a300350025e42000e5427a008582fb00d7
:10196c004822dd007d003700547280006300370090
:10197c00647280006100370094db20001442780010
:10198c0084cf500006003200446f80000402e8004f
:10199c00446f8800ea0f520001003400e82def007c
:1019ac00446f800050002000e00f52008c00350086
:1019bc00040342000580200065417b000281fb008e
:1019cc00030020006120b900c000dd0000002000f1
:1019dc0002004000838048000603e80065437b005a
:1019ec004833dd00cfb3de000002430081824b00a0
:1019fc00a6ff3700806f8000916f80007400370065
:101a0c000470800015708000a0ff370020708000eb
:101a1c00317080006e00370044708000557080007b
:101a2c009aff37006070800071708000680037008a
:101a3c00847080009570800094ff3700a070800047
:101a4c00b170800062003700e46f8000f56f800099
:101a5c008eff3700c471800028003700606f800053
:101a6c00716f80005a003700c46f8000230037006c
:101a7c00000cb1004200dd0084dc200000004200bc
:101a8c001002be0081ff3700867180000700200025
:101a9c00c833dd00060020007471800005002000b2
:101aac00c022dd0004002000040273008582730054
:101abc0056718000070020000602720087827200b7
:101acc006071800001002000480bdd00c803de00bf
:101adc00870373004803dd000602720087827200e0
:101aec006aff370090718000a171800038003700c8
:101afc00247580001a0037001408800005002000af
:101b0c0062ff3700147180001500370034758000b7
:101b1c0044a2de0012003700247180001000370050
:101b2c00347180000e003700447180000c003700c7
:101b3c00e4738000d5738000e2036200c23bdd00d9
:101b4c00628362000603430006834300e182620065
:101b5c0085024300610262000402420004824200da
:101b6c00cfa2de0049ff3700f473800005748000bb
:101b7c0046ff370010748000217480001400370079
:101b8c00347480004574800040ff3700507480002e
:101b9c00617480000e0037007474800085748000be
:101bac003aff370090748000a17480000800370061
:101bbc00c673800007002000c033dd000600200043
:101bcc00b4738000050020000600420087804a00a4
:101bdc0090658800a1658800300005005000200049
:101bec0000000600889fbe00010278000204780005
:101bfc00c96e8000e08f540005003a0000037800a5
:101c0c00f60fb200c50b2000850f530002023a00fc
:101c1c00800278000508b20013003a00f5c3b30047
:101c2c00854060004600de00e6cf500003003a001d
:101c3c00614060004300200004003700e3cf5000f7
:101c4c0005003a0061406000230020000401780088
:101c5c009b0a0700e60137006140600014417800e0
:101c6c002f0a0700e2013700f00fb2006103b80041
:101c7c000608b1000780b100f5072000850f53005e
:101c8c00e08f5b00e3013e00066001007f0037003f
:101c9c00e0013700df013700820037008300370096
:101cac00d3013700ad003700da013700d901370016
:101cbc00d8013700b1003700cd013700d50137000e
:101ccc00d4013700af003700b9003700bb00370034
:101cdc00bd003700cf013700ce013700cd013700f2
:101cec00cc013700cb013700ca013700c9013700de
:101cfc00c8013700c7013700c6013700c5013700de
:101d0c00c4013700c3013700bc003700bf003700e7
:101d1c00c6003700d6003700d8003700eb0037007c
:101d2c00bc013700bb013700ba0137000301370093
:101d3c00090137001301370016013700190137006c
:101d4c001d01370020013700230137002601370021
:101d5c00290137002c01370050013700ad01370045
:101d6c00ac013700ab013700aa0137004e01370038
:101d7c00a8013700a7013700500137005c0137007c
:101d8c006b0137006d013700a2013700700137007d
:101d9c006f0137006e0137006d0137009d01370070
:101dac009c0137009b0137009a01370099013700dd
:101dbc0098013700970137009601370095013700dd
:101dcc009401370093013700920137006b01370003
:101ddc00770137008f0137008e0137008d013700f6
:101dec008c0137008b0137008a01370089013700dd
:101dfc0088013700870137008601370085013700dd
:101e0c0084013700830137008201370081013700dc
:101e1c00800137006b0137007e0137006c01370001
:101e2c007c0137007b0137006d01370072013700f0
:101e3c0078013700770137007601370075013700dc
:101e4c0074013700730137007201370071013700dc
:101e5c00700137006f0137006e0137006d013700dc
:101e6c006c0137006b0137006a01370069013700dc
:101e7c0068013700670137006601370065013700dc
:101e8c0064013700630137005901370014027800f0
:101e9c00246e8800d2f90700216e80000040eb0010
:101eac005a0137001403be00290037001900200026
:101ebc0095db20009542780085cf51005601320009
:101ecc00f676800007778000e10f4300e08f4b002f
:101edc0009003a00000e20004220b700840178006f
:101eec00080178000600be00570707009a08070093
:101efc000000fe001100370019028000c54cde0006
:101f0c00e7c46400000e20004220b7008700d10017
:101f1c000680d3008401780008017800b707070019
:101f2c00678264004522dd00f9f12f001502800064
:101f3c00858464008484740019028800cfc4de0098
:101f4c00f6768000077780000603440087834c00f8
:101f5c00f676880007778800250137009400780012
:101f6c006f82600059002000e20f52002a013a00f3
:101f7c00316e880010c0b300240137000000fe0051
:101f8c001b01370014039000590020004523210049
:101f9c00850f530020013a0094007800014078002e
:101fac005ceeb7008180fb00a0c0b30017013700c6
:101fbc00144078005deeb7000d0137001440780036
:101fcc005eeeb7000a0137009442780061c36200ec
:101fdc00610363004533dd00451680000550a10008
:101fec008682720045168800144278008480fb00bb
:101ffc00e1806000b0c0b300040137001403be00e0
:10200c00c6728800d7728800f90037001403be002e
:10201c0059002000e30f5300e08f5b00fe003e00f0
:10202c001402780034728800f100370084027800c2
:10203c00d54378000783fb005900200037728000dd
:10204c00870f5300f4003e0014427800e14f420029
:10205c000200320027e4200084737b009542780054
:10206c000582fb000402e90044728800e00037009e
:10207c001402780054728800dd00370014027800d6
:10208c00647288004e2eef00e10f52000b003200fc
:10209c00e30f520002003a00240020000700370032
:1020ac00e70f520002003a00340020000300370012
:1020bc00ef0f520002003a004400200074728800b6
:1020cc00846f8000956f8000260037000484e80040
:1020dc009842780059002000e9cf5200ce003e0013
:1020ec0034439000e14f43000f0032008582fb0027
:1020fc0085824200068020001440780000f37a00ac
:10210c00184378008682fb008582420016802000ee
:10211c009443900007f37a009842780074c0420010
:10212c00940078008e0c0700184478000882fb009d
:10213c000402e900446f8800ad003700590020000c
:10214c00341f2000d56d8000848f5200b200340003
:10215c00c9748800a60037001402be00846f880082
:10216c00956f8800767280000603e9000300330047
:10217c000402420085824a00fbff3700d46f8800be
:10218c009b0037001403be0006708800177088008f
:10219c00970037001403be00267088003770880043
:1021ac00030037001403be00467088005770880087
:1021bc0063fa07008e0037001403be0066708800b7
:1021cc0077708800faff37001403be008670880011
:1021dc0097708800860037001403be00a670880034
:1021ec00b7708800820037001403be00e66f8800c9
:1021fc00f76f88007e0037001403be00167388004a
:10220c0027738800060037001402be00e00f52004e
:10221c00e08f5a0005003a0014738800257388007b
:10222c0054002000d47488007100370061036200f0
:10223c001900200078003200c47188006120b800b9
:10224c004d0bdd00c303de00870373004d03dd007f
:10225c00053020000783620007002000c033dd003a
:10226c0006002000d6718800e77188004f0bdd0056
:10227c00c103de00870373004f03dd000782620099
:10228c0005002000c022dd0004002000f47188004d
:10229c0005728800c5fa07005f003700190020009e
:1022ac00097588005c00370094037800c76f8800bc
:1022bc009400780040c2b30054003700e5012000c0
:1022cc00f56e880014407800a6f1b7001440900019
:1022dc00a7f1b7002442900061026200346f8800bd
:1022ec00b2fa070054002000047388004000370045
:1022fc0019002000c96e8800e5012000f56e8800e9
:10230c0094027800d56e88002442900063426200eb
:10231c0004407800dcedb700550020000522dd00fc
:10232c0004407800ddedb700f0f807003a00370004
:10233c0034002000046f88002d0037001440780012
:10234c00e2edb70054002000246f8800280037000d
:10235c00000cb1001401be004202dd0085dc20003f
:10236c0004824200028abe000040e80000404000a7
:10237c008040e800200c07001d0037001443780053
:10238c008682fb0055718800944290008582fb0088
:10239c0065718800a44290008582fb0075718800ed
:1023ac00344290000482fb008471880010003700d6
:1023bc001402be0094718800a5718800b571880064
:1023cc000b003700140278001471880008003700e5
:1023dc009400780021718800f0c0b3000b00370026
:1023ec00144278000482fb006102620034718800a0
:1023fc001900200008003700144278008480fb008c
:10240c00e18060004171880050c2b300d40b07001a
:10241c00f7ff370059002000090078004f04be0078
:10242c00000006000200fa00889fbe008a1f780098
:10243c0000447800e46d80000402e800e46d88003c
:10244c00e50f520002003a00c482a90004003700d4
:10245c00ea0f520002003a00c482a800bc2def0023
:10246c00f4ff2000c4bf9f0001cdb30008407800ea
:10247c003109070001ceb300084078002e0907008f
:10248c00411a210008407800b00807002300200002
:10249c006881570031c0b3000840780088080700f5
:1024ac004fba97008404e800c9bf9f0004042000c1
:1024bc00848f5400010034008404780052c3b300ac
:1024cc00b1c0b300084078001508070024002000b4
:1024dc00110009008404d80005c720000002eb009d
:1024ec0002003700802aeb000402e800800f520043
:1024fc00fcff35008901780022c7200051c0b300d1
:10250c00084078006e080700cfba97008982520005
:10251c00c5bf9f000a40200021003700e04f540047
:10252c0005003a005616800006026500e00f5200c6
:10253c00fcff320003003700a9090700e00f500030
:10254c00fdff3200cfbc970004032000848f5400a1
:10255c0001003400840478002400200011000900dc
:10256c008404d80005c720000002eb0002003700ed
:10257c00802aeb000402e800800f5200fcff3500bb
:10258c008901780022c7200051c0b30008407800b0
:10259c004b0807004fba970009025200c4bf9f00b6
:1025ac00cfba9700e08f5200dcff3a0012c0b300a4
:1025bc00b1c0b30008407800d9070700e04f5400c1
:1025cc0006003a0004402000561680008602620085
:1025dc00e08f5200fcff3a0003003700800907002f
:1025ec00e10f5000fdff32004f0578004f04be0094
:1025fc000080fa00000006000200fa00889fbe006e
:10260c008a9fbe008c1f7800004478004400200094
:10261c00a4bf9f00c46e8000e00f52000b003a0074
:10262c0065002000a5bf9f0080c0b300eceeb70092
:10263c0004407800edeeb700c40df800ee0ef90082
:10264c00c60df800f00ef90012003700ec6eef002a
:10265c00dccdbf00edeeb700da0df800ee0ef900a0
:10266c0054778000e00f52000a00320004407800da
:10267c00eceeb700e30f520006003a008400200095
:10268c00a4bf9f0094658000a565800084778800b6
:10269c0095778800ea2eef00afba97008502e90023
:1026ac00a5bf9f0001cdb30008407800a208070029
:1026bc0001ceb300084078009f080700c46e80006c
:1026cc0062026200411a210001003a00811a2100c5
:1026dc00084078001d080700230020006c8157007b
:1026ec0031c0b30008407800f50707002fbb9700f6
:1026fc008604e800a9bf9f0004042000848f5400c6
:10270c00010034008404780052c3b300b1c0b3009c
:10271c00084078008207070089017800c2ee20008b
:10272c0051c0b30008407800e50707002fb89700a8
:10273c0009005000a0bf9f000c4020000b0320009c
:10274c0018003700e04f540005003a005516800081
:10275c0005026600e00f5200fcff32000300370058
:10276c001f090700e00f5000fdff32002fbd97003e
:10277c008b0f5500010034000a032000c2ee20002c
:10278c00028144008a01780051c0b30008407800ef
:10279c00cb0707002fbb97000a035300a6bf9f006f
:1027ac008a8444002fb89700e00f5000e5ff3a00f0
:1027bc0012c0b300b1c0b30008407800580707003e
:1027cc00e04f540006003a000440200056168000ea
:1027dc0086026200e08f5200fcff3a0003003700d3
:1027ec00ff080700e10f5000fdff320001ccb300e1
:1027fc00084078005008070001cfb300084078006b
:10280c004d080700c11a210008407800cf070700c7
:10281c0052c0b300b1c0b3000840780040070700b5
:10282c00091920000a402000e04f540005003a002e
:10283c005016800000026500e00f520004003200c8
:10284c0007003700e6080700e10f500004003200d3
:10285c008904e900f4ff3a000905780046003700c6
:10286c00230020006c81570031c0b3000840780071
:10287c00270707002fba97008404e8000005eb0037
:10288c0044102000848f54003b003c00ec032000db
:10289c000b4020001800370052c3b300b1c0b30086
:1028ac00084078001e070700e04f540005003a006e
:1028bc005516800005826500e00f5200fcff3200c7
:1028cc0003003700c6080700e00f5000fdff320080
:1028dc00c2ee2000020145000303200051c0b300ea
:1028ec00084078000a0707002fbb97000603b100c9
:1028fc00a6bf9f000a03b0002fba97008c0f52009e
:10290c00e5ff3c0012c0b300b1c0b3000840780032
:10291c0003070700e04f540006003a000440200073
:10292c005616800086026200e08f5200fcff3a00cf
:10293c0003003700aa080700e10f5000fdff32002a
:10294c00c2ee2000020145002fb897008001e8007c
:10295c0051c0b30008407800ed0607008040eb0042
:10296c0008407800f10607000002b2001a002000af
:10297c00010032000005eb0001c8b30008407800ec
:10298c00ed070700e00f550051003200e401200074
:10299c00f46e8800c4ee2000144278000482fb0020
:1029ac00e10262001700320062026200090032008c
:1029bc00c46e8000e00f52003b003200d1ee2000cc
:1029cc009140780070778000fcfa070050778800ff
:1029dc000900370064815400d3ee20009341780045
:1029ec0001ef2000707780007efc07005077880094
:1029fc00e00f50002c00320094012000f474880089
:102a0c002900370064758000e00f52002500320069
:102a1c00757780000502780016f82f00868f52001b
:102a2c0001003d0006027800f6072000860f5200d8
:102a3c00010034000602780036758000060342005f
:102a4c003675880007802000870f530003003c0078
:102a5c0007802f00870f530001003d003775880059
:102a6c004322dd002475880004712200848f5200fb
:102a7c000b003c00048f2d00848f520008003500a1
:102a8c00c61220000503430084252000840f530048
:102a9c0002003e000002eb00010037000502780046
:102aac0074758800ea2eef00edcebf00b9edb700cb
:102abc0064758000e00f520005003200420cf800f3
:102acc000e01f900440cf8000a01f9008500a90078
:102adc00ac2eef004f0678004f05be004f04be0031
:102aec000080fa00000006003600f800809fbe004f
:102afc00829fbe00849fbe00869fbe00889fbe0042
:102b0c008a9fbe000200fa0087a0a900b47480005e
:102b1c00e00f5200320032007667a9000410280042
:102b2c00743a8800687580000040eb00b2fe070024
:102b3c00e00f54001d003200d57580008502e800be
:102b4c00d5758800c471800006022000868f520063
:102b5c000c003600ba2eef008402d100e382620032
:102b6c00e18f520001003a00cd82a8004322de0022
:102b7c0063026200e10f52000c003a00c482a8000c
:102b8c000a0037008402d100e3826200e18f520018
:102b9c0001003a00cd82a9004322de0063026200ec
:102bac00e10f520001003a00c482a9004e27ef0049
:102bbc007667a900f4748000e00f52000800320020
:102bcc000402e900f4748800f40f5200040034008d
:102bdc00346f8000e00f520001003a0087a0a8007b
:102bec0008738000e00f54000f0032000804e90065
:102bfc00087388000c003a0034002000c46e880072
:102c0c007667a90004102800743a8800d2e52000e9
:102c1c0012417800e1c0b30008407800400607007c
:102c2c00783a88007667a900c4748000e00f5200df
:102c3c00d30032000402e900c4748800e10f520092
:102c4c00b6003a004c0eec0001002000826f8000b0
:102c5c00936f800033f607000001be000090200047
:102c6c00d103200045f60700247080000402e9001f
:102c7c00030033008180d1000080d300fbff3700bc
:102c8c00a4708000b570800061014200e0814a00b0
:102c9c002af60700007188007667a9000410280046
:102cac00743a88003a7280000a02e800a472880024
:102cbc00e30f520002003a0044002000a472880086
:102ccc00a572800047822000140020000003eb0056
:102cdc0048102a008641780004417800140037001f
:102cec008680e800110009008500d80029e4200046
:102cfc00e9c07800c908dd0088ab40008a0f53009a
:102d0c0005003e00110009000502d800c981200011
:102d1c0082f4780004003700110009000502d80085
:102d2c00c981200083f478000603e8000402e8005f
:102d3c00850f5300eaff3500217180000040eb0045
:102d4c0098070700047080000402e800f4bf9f009d
:102d5c00220020008f80e90030c0b300fc05070082
:102d6c0029708000180020000940dd000000e900f7
:102d7c00cf80de004270800053708000e9f50700c0
:102d8c0064708000757080000005420081854a00e7
:102d9c008904e900030033008b05d1000a85d300b8
:102dac00fbff3700cfd5de000a01be0000202e004d
:102dbc0041002000f1f50700e07588000ff80700ce
:102dcc003400200094418800607080007170800095
:102ddc000a0050008b805800826f8000936f800037
:102dec00d6f50700347280000402e80000a2b90096
:102dfc00040242004083200000024200a4618800cb
:102e0c000470800084024200457388004222dd0079
:102e1c0000004200b06188003068ef002470800030
:102e2c000444dd000844e9000840780031e8b700ac
:102e3c00c422a8000002eb00852520000000000041
:102e4c000402e800850f5200fcff3a00c402a800ff
:102e5c00fbf507008540a9009540a8006c2eef00fb
:102e6c00447080004222dd00a44088006570800020
:102e7c00c22add00b540880005d02700850f52001e
:102e8c0003003e0005e82300850f520002003600c7
:102e9c002400200001003700140020004475880035
:102eac00447580004b22dd0054758800502eef00d5
:102ebc006482200074418800662eef006e2cef00b7
:102ecc00702cef00846f8000956f80004228dd002d
:102edc00ce20de00810070004220dd00a272800056
:102eec00cf91de0095f507000002e900b47288006e
:102efc0054728000e00f520003003a0064728000ac
:102f0c00e00f52000200320083e0a80001003700fd
:102f1c0083e0a900962eef0019003700e00f520055
:102f2c0017003a008500ab00010032008500a900b3
:102f3c008500ab00feff320071c7a900560ef800e9
:102f4c001a01f9001fe1a8008405800004c0a1004b
:102f5c0004d0a00004e0a000840588008760a900cc
:102f6c009760a9000021ef00b44080000402e90042
:102f7c00140888008460a90014002000e474880000
:102f8c00d4748000e00f5200340032000402e900d7
:102f9c00d474880031003a0041e2a90061e2a90032
:102fac00c8e2a800743a88007667a900cd62a9002f
:102fbc00cd82a900c482a900341088009540a900d4
:102fcc009820a9009460a90094e0a9009780a9001a
:102fdc009620a9009680a90097a0a90016738000de
:102fec0027738000e00f5300e08f5b001900320064
:102ffc0040a7a8001400fc00a609200085072000ab
:10300c0037742000854b7800864b7800844b780011
:10301c007505200016002000640420002774200091
:10302c00844b7800854b7800864b78004207ab00c8
:10303c00feff3a0014738000257380000040fe00f0
:10304c0061025200e0825a00fcff3a000000fe00d0
:10305c00faff37000040fe00feff3700e4748000ea
:10306c00e00f520007003a00f46e8000e00f5200af
:10307c00040032000402e900f46e880001003a00fa
:10308c0075f70700046f8000e00f52000400320057
:10309c000402e900046f880001003a006ef7070093
:1030ac00206f8000e00f50000f0032000000e9009c
:1030bc00206f88000c003a007667a90004102800e5
:1030cc00743a8800f4ff2000f4bf9f002300200016
:1030dc000f81e90031c0b30079050700e2cdbf00d4
:1030ec00d0fc0700fdff37000080fa004f05be0042
:1030fc004f04be004f03be004f02be004f01be0086
:10310c004f00be003600f900004006000200fa0035
:10311c00889fbe008a9fbe0004c8b300d5dd200086
:10312c001542420000404200eceeb7000483200040
:10313c001442780004407800edeeb7000442e80039
:10314c000440780030e8b700047080000482e80086
:10315c00b4bf9f0000cdb300ef05070000ceb30055
:10316c00ed050700401a21006405070051c3b300a8
:10317c00b0c0b300ad040700c0ee2000400507004e
:10318c003fba97000484e900b8bf9f00e403200015
:10319c00840f540001003400040478008800780087
:1031ac00c061800007050700bfba970088825200f3
:1031bc00b5bf9f000b4020000a0c20000f00370009
:1031cc005716800007826500e00f5200fcff3200aa
:1031dc008a8f540001003400090c2000080078008c
:1031ec00380cb40089007800f60407003fba970049
:1031fc0009025200b4bf9f0009044400bfbc9700f1
:10320c00e08f5400eeff3a0011c0b300b0c0b30021
:10321c008604070004402000551680000504620057
:10322c00e00f5400fcff3a00148320001442780095
:10323c00078320001742620099003a0000ccb300cb
:10324c00b505070000cfb300b3050700c01a210075
:10325c002a05070051c0b300b0c0b30073040700c7
:10326c000ea1ef0058088800f5182000044020003b
:10327c00040037005016800000036200e00f53007a
:10328c0005003a0056088000850f5300f9ff360000
:10329c000004eb003400370022002000ea805700c5
:1032ac0030c0b3006e0407000004eb003fba970077
:1032bc00e70f52002c003c00ea03200009402000dc
:1032cc001100370051c3b300b0c0b300570407005e
:1032dc005516800005826400e00f5200fcff32009e
:1032ec00080078006a0eb400800078000203200009
:1032fc0050c0b3005a0407003fba97000403b10052
:10330c00b4bf9f000803b000bfbb97008a8f530067
:10331c00ecff3c0011c0b300b0c0b3004304070085
:10332c00044020005016800080046200e08f54009e
:10333c00fcff3a003fba97000401e800080078004f
:10334c006a0eb4008000780050c0b300440407003b
:10335c0009407800280407000002b2001800200081
:10336c00010032000904780000c8b3006a050700a8
:10337c00e00f54002f0032006c2eef00e40120000f
:10338c00f46e88005473800094429000f2cf520087
:10339c0002003200e8cf420014003a00441f200023
:1033ac00d46d8800220ef8000201f9000021ef0014
:1033bc008460a8009460a80014002000b4748800f5
:1033cc009c2eef007067a80004712200f470880036
:1033dc00c402a9008000eb000040eb00f1050700df
:1033ec0072f607004e27ef002b0037001402fb008b
:1033fc004575800005a3b90006007800a60eb40040
:10340c00000378003675880057758000870f5300cd
:10341c0003003c008703ea00870f530001003d00c6
:10342c0037758800c32add0004aab900247588000a
:10343c001d003700647380000402e8006473880088
:10344c0005718000850f520017003a00441f2000c0
:10345c00d46d8800220ef8000201f90008088800db
:10346c008460a8009460a80014002000b474880044
:10347c00e87488007067a80004712200f47088005a
:10348c00c402a9008800780008407800c505070030
:10349c0046f60700783a88007667a90002003700e4
:1034ac0000c8b3001c0507004f05be004f04be004a
:1034bc000080fa00000006003600f800809fbe0075
:1034cc00829fbe00849fbe00869fbe00889fbe0068
:1034dc008a1f78008460a900e5748000377580002d
:1034ec001675800024758000e08f52009f0032001a
:1034fc000683430004024300c9a2de00f41fb2009d
:10350c001475880014832000144278000083200076
:10351c0010446200844f540003003a00b440800011
:10352c000402e90002003700a44080000402e90014
:10353c008502520015088800994180006148b90045
:10354c000270800013708000f6f307008102d10036
:10355c000082d30004024200458320000502420091
:10356c00c46188008904e80099418800e48f540004
:10357c0001003a003228ef00e04f540044003a00ba
:10358c009760a9000000000000000000c402ab001e
:10359c00feff320037738000a672800074638000d7
:1035ac008563800005003700e00f520001003a00ef
:1035bc00060278000402e9008502e800870f520039
:1035cc00f9ff3a007463880085638800a472800058
:1035dc00848f52001d003500848252008563880060
:1035ec00a5618000347280000482ea00040242006b
:1035fc000482420046832000860f520003003100f3
:10360c00467380000603430006024200b761800047
:10361c000003eb0009003700941a7800878f5200e2
:10362c0001003a00458320000482e800870f520015
:10363c0001003a00448320000603e800460eec002b
:10364c00800f5300f4ff3900a5618800647280007c
:10365c000402e80004024200a0708000b1708000f7
:10366c0061034000e083480006a3b9002470800089
:10367c0015002000842add0005b2b9002441880021
:10368c00a4002000a40888008760a8009760a80008
:10369c00d47580000402e800d4758800e5758000bc
:1036ac00850f52000d003900ba2eef00c471800056
:1036bc00c522de00e3826200e18f520001003a0075
:1036cc00cd82a8004722de0063026200e10f5200a7
:1036dc000f003a00c482a8000d003700ea0f520018
:1036ec000b003a00c4718000c522de00e382620048
:1036fc00e18f520001003a00cd82a9004722de0082
:10370c0063026200e10f520001003a00c482a9007a
:10371c000483200014427800e04f520009003a0064
:10372c00b00ef800be0ef900b40ef800c00ef90091
:10373c00a40ef800ce0ef90035758000c4aade0088
:10374c00857688000482fb00c422de00858242005c
:10375c006f026200e6eb200066807a000400de0057
:10376c006140600069fe0700d60037000683430005
:10377c0004034300cab3de00f63fb200167588009e
:10378c000608800074382100840f53000c003e00a2
:10379c007675800014718000e00f53000500320034
:1037ac000402e900060352001608880075758800ab
:1037bc00030037000402e9000702520014088800d5
:1037cc00d46d80000402e800d46d8800e20f520032
:1037dc0004003a00cd62a800c8e2a900c02def0099
:1037ec00b0003700ea0f52000e003a007667a900cd
:1037fc0004102800743a88000040eb00df04070036
:10380c00c2e5200012417800e1c0b3000040eb009b
:10381c00430307004e27ef007667a9008bf50700de
:10382c00a0003700eb0f520030003a00c46e80004d
:10383c00e00f52001a0032001f0037007667a90013
:10384c007a3a8800084078006bfb0700783a8800c9
:10385c007667a9005af30700630060000080e80057
:10386c00cbf40700000000000804e800f40f54003b
:10387c00fcff3a00046e80000402e800046e88002d
:10388c00e70f520003003a0004758000e00f52006d
:10389c00140032008460a800d96d88000200370043
:1038ac000a102800a9002000c86e8000e00f540008
:1038bc00e2ff32007b0037001400200064758800a2
:1038cc0087a0a800046e80000402e800046e880043
:1038dc00e70f520073003a0004758000e00f5200ad
:1038ec0070003a00a40520006d003700c570800000
:1038fc006a834200860f520002003a00a4002000a6
:10390c0067003700f6052000860f52006500320074
:10391c00461f2000860f5200620032000603e800aa
:10392c00860f520035003a00c46e8000e00f520042
:10393c00290032002e003700c0758000e00f5000c7
:10394c0056003a007667a900793a88002afb0700ee
:10395c001bf3070063006000d4708000040040007b
:10396c00f5708000e08f52000800340006ff2f0035
:10397c000683b90006824200f47088004240a90018
:10398c0002003c00c422a900c402a9004e27ef008b
:10399c007667a9007ef40700e4708000880f52005f
:1039ac0007003c000402e800e4708800450b20008e
:1039bc00850f520002003a00c4032000d470880026
:1039cc000002eb00000000000402e800f40f5200bb
:1039dc00fcff3a000200370009102800380b2000c9
:1039ec00c46e8000e00f5200d3ff32002b00370072
:1039fc00140020006475880023003700f7748000e1
:103a0c00e08f530022003200860f52002000340059
:103a1c00361f200005034300840f53001c003500a3
:103a2c00356f8000e08f520017003200d56f800098
:103a3c0006fa2000868f520003003a0061026200f1
:103a4c001800320010003700067d2000868f5200cf
:103a5c000300320006322000868f520004003a0028
:103a6c0063026200e10f52000e003a0006003700bc
:103a7c0006192000868f520003003a0055202000c2
:103a8c00850f520007003a0087a0a80005003700f8
:103a9c00451fb000850f520002003a00441f200061
:103aac00d46d8800f4708000e00f520005003400e3
:103abc000402e900f470880002003a00c422a90054
:103acc00c402a9004f0578004f04be004f03be008e
:103adc004f02be004f01be004f00be003600f90081
:103aec000040060002034000e08348000c00370051
:103afc00910188009002ba001082ba0085497800c2
:103b0c00c82ade0095419800a44198004822de00a6
:103b1c00b4419800e481410062004000e08048001c
:103b2c00860f5000878f5800f1ff39000000060007
:103b3c00889fbe008a9fbe008c1f78000002be00ca
:103b4c004008de0000037800900188000000eb00c4
:103b5c008000780004047800fb0f20000a4020004d
:103b6c0088037800880440001906ba009984ba00ca
:103b7c00e10f460003003a00f90fb2008b8f54009e
:103b8c0001003200110020000080e8008a0f500074
:103b9c00f3ff3a00e08f50000c00320020042400a8
:103bac00003b880096018800040abb000700fc005b
:103bbc0050052000303b8800a00a2000303b8800d4
:103bcc0061e7a80000000000000000000282e9008c
:103bdc00e13f20008280400002815100150024004a
:103bec009601880004044100840178000004200040
:103bfc00d304780058057800890bbb008a9bbb0066
:103c0c000000e900faff3a00053b88000700fc00c1
:103c1c0050052000303b8800a00a2000303b880073
:103c2c0061e7a80000000000000000000408b000dc
:103c3c00810f5200eaff3a004f0678004f05be0094
:103c4c004f04be0000000600889fbe008a9fbe0085
:103c5c008c9fbe008e1f78000005be008206780087
:103c6c000306780006c02f00000363008b02780067
:103c7c00060278000404be00d08c8000e18c800029
:103c8c00880f5000898f58001d003200e00f500043
:103c9c00e08f580004003500a031ec00031b21001c
:103cac00025b2100a2ff0700e00f5400e08f5c00d4
:103cbc00110035009e31ec00990188000803be000c
:103ccc000002eb00025b2100011b21000020200000
:103cdc001607ba009681ba00840242000eb17a002f
:103cec0083b07a000402e80062034300e0834b00d7
:103cfc00800f5200f6ff3a00d88c8800e98c8800bf
:103d0c00fa3fb2000a05d1000002eb00075b21006c
:103d1c00061b210011003700fa1fb2008a02450071
:103d2c00058043001c4190004811dd009c41780047
:103d3c008380fb000108410085024300bc409000d9
:103d4c00c808dd002c4090000080fb00808a4000f9
:103d5c00640242000a05e800640646008d0f52001a
:103d6c00edff39004f0778004f06be004f05be002f
:103d7c004f04be0000000600889fbe008a9fbe0054
:103d8c008c9fbe008e1f78000005be0002067800d6
:103d9c00030778000004eb000d40200010003700f2
:103dac008a047800f93fb200898456000802560054
:103dbc0089844400848f5400010036008404780008
:103dcc0088014700090178000a00be009eff070029
:103ddc000902d10004054500e0854d0009044400aa
:103dec008c0f5400eeff39004f0778004f06be00d1
:103dfc004f05be004f04be0000000600040020006a
:103e0c000482fb0005002000c022dd00040020001d
:103e1c000600250006024200e0824a00840f500092
:103e2c00858f5800020031000000420081804a005a
:103e3c00e6bf2a000700200062034300e0834b002a
:103e4c00040020000482fb0005002000c022dd00dd
:103e5c00040020000602420087824a00840f5000b2
:103e6c00858f580001003100c3ff070000000600d9
:103e7c00f40f20000600200004036300070020005c
:103e8c00c033dd00060020000500250005034300bb
:103e9c00e0834b000603430087834b00620353000f
:103eac00e0835b00970188009602ba001683ba0083
:103ebc0007002000c033dd0006002000050343008e
:103ecc00e0834b000702620084027800060278004f
:103edc000400be0000000600889fbe008a9fbe0042
:103eec00f00f2000010020000400200000026200fe
:103efc0005002000c022dd00040020000600250083
:103f0c0006024200e0824a000401420085814a0018
:103f1c0062015100e08159006033b8000f00370096
:103f2c00950188009400ba001484ba008084600063
:103f3c00c808de00610db80009054500e0854d009c
:103f4c000a0343008b834b00800064000103430091
:103f5c00e0834b0062024200e0824a00820f520072
:103f6c00838f5a00eeff39000782fb008402780031
:103f7c00060278000400be004f05be004f04be00d0
:103f8c0000000600ea874700889fbe008a9fbe009b
:103f9c008c9fbe008e1f7800060020000683fb005d
:103fac0007002000c033dd000600200002002500c1
:103fbc000300200006044100878449006022b800f9
:103fcc00370037000200420083804a0000004300a3
:103fdc0081804b00910188000c4020000d002000d6
:103fec000006460081864e00dcb79f00edb79f00af
:103ffc00fe0f2000f0b79f0081bf9f005fb69700b7
:10400c00efb69700d6b79f00e7b79f000403be003a
:10401c001002ba009082ba00e10f42000c003a0084
:10402c00f50fb2008e8f520009003a00620040007a
:10403c00e08048008c0f50008d8f5800f4ff3a0040
:10404c000602be005fb39700efb397001000370075
:10405c000602be007fb597008fbd97005fb3970037
:10406c00efb3970020042400003b88000a0dbb002e
:10407c000700fc0050052000303b8800a00a2000ff
:10408c00303b880061e7a800000000000000000041
:10409c0000402000010020000402400085824800fe
:1040ac00880f5200898f5a00c6ff39004f077800dd
:1040bc004f06be004f05be004f04be00af00b1005e
:1040cc0000000600889fbe00f70f200004002000af
:1040dc000702620005002000c022dd000400200061
:1040ec000600250006024200e0824a009501880085
:1040fc001403ba001482ba00e10f430004003a0022
:10410c00f40fb200870f52000e003a000e00370079
:10411c0005202000850f53000a003a00e44f52009e
:10412c0008003a006cff07000004be0050ff0700b7
:10413c001400200005002000800f5400818f5c00cb
:10414c00020032008fff07006022b8000400be009e
:10415c004f04be0000000600f2874700889fbe0097
:10416c008a9fbe008c9fbe008e1f78005aff0700ee
:10417c000004be003eff0700800f5400818f5c00de
:10418c00020032007fff0700950037000800250071
:10419c000900200004c0240004045400e0845c00e6
:1041ac000600200007002000f20f20000300200072
:1041bc000600610001002000c000dd0000002000ae
:1041cc0008044000898448000000200002006000c0
:1041dc0001002000c000dd0000002000000254009f
:1041ec0081825c00b4b79f00c5b79f006022b80005
:1041fc0002077800d0b79f00e1b79f0096b79f00e9
:10420c00a7b79f007100370002c0240003002000f4
:10421c000000250000004100e08049000000420041
:10422c0081804a005fb39700efb397000000430012
:10423c0081804b009fb397000703670007002000a5
:10424c00c033dd00060020000003430081834b00d7
:10425c000201420083814a005fb69700efb69700d7
:10426c000201460083814e00830078000000eb00c1
:10427c0009402000f4b79f0085bf9f000606be00d2
:10428c00070378000205be00960188008c034000ed
:10429c001704ba009783ba00910188008a02400083
:1042ac009501ba009582ba00830f540008003a00b9
:1042bc00858f530006003a000080e800890f5000fb
:1042cc00f1ff3a007fb297008fba97003b0037009e
:1042dc007fb297008fba97000c03be002004240015
:1042ec00003b8800910188000a0dbb000700fc0010
:1042fc0050052000303b8800a00a2000303b88008d
:10430c0061e7a80000000000000000000840200049
:10431c00090020000c0444008d844c000c01550055
:10432c008d815d001b0024001e0037009101880068
:10433c001002ba009082ba00020640008386480040
:10434c009d018800040ebb00058ebb000a05e90028
:10435c0062004000e0804800e00f5500f3ff3a0097
:10436c000602be007fb397008fbb97000b3b880003
:10437c000700fc0050052000303b8800a00a2000fc
:10438c00303b880061e7a80000000000000000003e
:10439c000608b0000780b000880f5300898f5b00bf
:1043ac00060032000600be000a042000f6b79f008b
:1043bc0087bf9f000403be00dcff370006402000cf
:1043cc00070020000402430085824b003fb0970099
:1043dc00cfb09700800f5200818f5a008aff3500b2
:1043ec004f0778004f06be004f05be004f04be00bd
:1043fc002f01b10000000600cce2a9000064a0006f
:10440c000080fb00401388006822ef0060a2ab0024
:10441c00feff3a004413800060a2ab00feff3a009e
:10442c0040138000cce2a80000000600cce2a900fa
:10443c000080fb00401388008180fb004113880042
:10444c0060a2ab00feff3a004413800060a2ab00f8
:10445c00feff3a0044138000cce2a80000000600e6
:10446c00889fbe008a1f7800804478000104780081
:10447c000205780091c1b300b0c0b300ebff070098
:10448c00cce2a9000964a0008984fb0049138800d0
:10449c00051380000502b200fdff3a0044138000b2
:1044ac000a027800e00f55000c0032000613800061
:1044bc0062036300fdff3a00461388000a05e90019
:1044cc0060a2ab00f7ff3a004613800006f47a00b6
:1044dc000402e9008502e800f2ff370005044400fd
:1044ec00e00f52000600320060a2ab00feff3a0063
:1044fc0045138000055c78000402e900f8ff3700e2
:10450c00cce2a8004f0578004f04be000000060066
:10451c00014078008200780003017800d0ff37005a
:10452c000140780082407800c0ff3700881f780077
:10453c000144780092c1b300b1c0b300f8ff07008a
:10454c0008407800acff07004f047800000006001c
:10455c00cce2a9000080fb004013880060a2ab00f5
:10456c00feff3a004413800002027800e00f510075
:10457c000b0032006022ab00feff3a0031437800a2
:10458c008682fb00451388000201e90060a2ab00a3
:10459c00f6ff3a00451380000402e900f3ff3700f0
:1045ac00e00f52000500320060a2ab00feff3a00a3
:1045bc00451380000402e900f9ff3700cce2a800a3
:1045cc0000000600cce2a90054002000441388002f
:1045dc000102e8008002eb00e88f5000120034006a
:1045ec009042780045138800904290004513880053
:1045fc00a042900045138800b042900045138800fb
:10460c00c042900045138800d042900045138800aa
:10461c00e042900045138800f0429000451388005a
:10462c00e88050008500200005004000e08f50001d
:10463c000a0032006022ab00feff3a00b042780064
:10464c00451388008100e90060a2ab00f7ff3a0037
:10465c00451380000402e900f4ff3700e00f52001c
:10466c000500320060a2ab00feff3a00451380004b
:10467c000402e900f9ff3700cce2a80000000600b4
:10468c00cce2a900540020004413880010427800aa
:10469c00441388001042900044138800440020000a
:1046ac000402e9000400320060a2ab00feff3a00f5
:1046bc0045138000faff3700cce2a800000006008a
:1046cc00014078008200780003017800a0ff3700d9
:1046dc000041eb008240780091ff3700430020003e
:1046ec002218210061c0b30089ff3700420020006e
:1046fc008000780060c0b30095ff3700cce2a900c1
:10470c006400200044138800104278004413880091
:10471c0010429000441388002042900044138800fb
:10472c003042900044138800640020000402e90029
:10473c000400320060a2ab00feff3a00451380007b
:10474c00faff3700cce2a80000000600430020006e
:10475c000101780061c0b300d9ff3700889fbe000b
:10476c0000447800814478000281fb00141721007a
:10477c0064417900941521001441710051c3b300b8
:10478c000840780066ff07008940780008407800f0
:10479c0066ff07004f04be0000000600889fbe00a5
:1047ac008a1f780000447800814478000245780024
:1047bc008381fb001417210064c17900941521003a
:1047cc001441710051c3b3000840780054ff070036
:1047dc000a417800894078000840780050ff0700b3
:1047ec004f0578004f04be0000000600889fbe00f5
:1047fc008a9fbe00004478004a12210019c0b30001
:10480c005a417800894078000840780044ff07003e
:10481c008944e800e5cf5400f9ff3a00aa122100c0
:10482c0079c0b300abc2b3005a417800894078001c
:10483c00084078003aff07008944e8008bcf540009
:10484c00f9ff3a003a1621008044eb0089417800c8
:10485c005a417800a1c2b30008407800cfff07008e
:10486c008944e800e8cf5400f8ff3a00ea1421002c
:10487c00b9c2b3006bc3b3005a41780089407800c9
:10488c000840780026ff07008944e8008bcf5400cd
:10489c00f9ff3a00b21521001241780071c3b30040
:1048ac00084078001eff0700ba1621008044eb0078
:1048bc00894178005a41780081c3b30008407800e0
:1048cc00b6ff07008944e800e5cf5400f8ff3a0032
:1048dc00ca15210099c3b300dbc3b3005a41780059
:1048ec0089407800084078000dff07008944e800f3
:1048fc008bcf5400f9ff3a002216210012417800a8
:10490c00e1c3b3000840780005ff07004f05be0067
:10491c004f04be0000000600cce2a9000080fb00a2
:10492c004013880060a2ab00feff3a0044138000e5
:10493c00cce2a8000000060001407800f6ff37002a
:10494c00881f78000044780001417800e1c0b30072
:10495c0008407800f2fe0700c2c0b30021c0b300cb
:10496c0008407800eefe070021c0b3000840780034
:10497c00eefe07006c406000fbff3a0061c2b30022
:10498c0008407800e9fe07008042780067c26200a8
:10499c000440780086f1b7004328de006100600017
:1049ac0087f1b70081c2b30008407800dffe070032
:1049bc0088f1b70091c2b30008407800dbfe070015
:1049cc0089f1b70087d1bf000100320030c0b300bd
:1049dc004f04780000000600889fbe000044780059
:1049ec0001cbb30008407800d3ff0700d2c1b3005d
:1049fc00c1c1b30008407800c9fe07008044eb0039
:104a0c0022c0b3008240780008407800c4fe070042
:104a1c0021c0b30008407800c4fe0700624060006b
:104a2c00fbff3a0031c2b30008407800bffe07001c
:104a3c006f4060008af1b70064405000e44f5000b2
:104a4c00030036008944e800eacf5400ecff3a003a
:104a5c00d2c3b300c1c1b30008407800b0fe070058
:104a6c0012c1b30021c0b30008407800acfe0700af
:104a7c0021c0b30008407800acfe07007140600014
:104a8c00fbff3a00e1c1b30008407800acff07001f
:104a9c0080447800a1c5b30008407800a8ff070047
:104aac008944700061c9b30008407800a4ff070076
:104abc0080c4740001c8b300084078009eff070052
:104acc00e0cf54002a003a0031c2b300084078000d
:104adc0096fe0700804278006fc2620004407800a6
:104aec008af1b7004428de00610060008bf1b7004a
:104afc0041c2b300084078008cfe07007f40600084
:104b0c008cf1b70051c2b3000840780087fe070053
:104b1c00804278006fc26200044078008df1b700cb
:104b2c007f8062004400de008ef1b700b1c1b3009b
:104b3c00084078007dfe07008ff1b700c1c1b300bb
:104b4c000840780079fe070090f1b700b4182100f6
:104b5c0014427800e04f520004003a00e41821009f
:104b6c0014427800e04f52000100320029c0b3001b
:104b7c00094078004f04be0000000600881f780032
:104b8c000044780008407800d1fe07000840780007
:104b9c0016ff0700084078008fff07004f047800cd
:104bac0000000600889fbe0000447800e38460008b
:104bbc009417210064c17c0041c2b3000840780006
:104bcc0057fe0700d417210064c17c00d1c2b3008a
:104bdc000840780052fe07004f04be00000006009b
:104bec00000005000002eb0005ff20004223dd0061
:104bfc0006834200000beb0036137800740342006e
:104c0c004233dd0006834200000beb0036137800c4
:104c1c000402e800f40f5200f4ff3a000000060012
:104c2c003600f800809fbe00829fbe00849fbe00ad
:104c3c00869fbe003400f80000002000a001880010
:104c4c00f4848000e00f520003003a0014002000ae
:104c5c00f4848800e3ff0700241921001442780033
:104c6c00e14f52000b003a000862ab0007003a001b
:104c7c009c30ed00e4848000e00f520005003a0007
:104c8c000440780092f1b70002003700a400200025
:104c9c00e48488002419210014427800e34f520068
:104cac00040032002419210014427800e74f52000e
:104cbc0023003a009431ec00a58c800044062000bf
:104ccc00848f5200080034009431ef00e48180009e
:104cdc00f581800061024200e0824a00e481880094
:104cec00f58188000642a8000862ab000300320080
:104cfc00c48c8000e00f5200110032009431ef00a0
:104d0c002419210014427800e34f520002003a00ab
:104d1c0044c0b3000100370084c0b30004407800e5
:104d2c0092f1b700c48c8000e00f520003003200f7
:104d3c009831ef000622a800010037000602a800f7
:104d4c008780a9003400f9004f03be004f02be005b
:104d5c004f01be004f00be003600f90000400600b7
:104d6c00801f7800849fbe00869fbe003400f80030
:104d7c0000002000a00188000200fa008620a90093
:104d8c00044020004010800000026200e00f52003e
:104d9c00270032000942a90024192100144278008e
:104dac000482fb004222dd0005ff20000482420049
:104dbc001600200007002000140a430054924b00f8
:104dcc009a10f8009410f9009810f8009210f9005d
:104ddc0024192100144278000482fb0005002000f5
:104dec0064025200e0825a00e80f5200e08f5a0031
:104dfc000f003e0004600100080037000700370078
:104e0c00060037000a00370006003700050037009f
:104e1c0004003700030037000200370034c0b30031
:104e2c000100370074c0b3000440780092f1b70061
:104e3c0024192100144278000482fb000500200094
:104e4c0062025200e0825a00ea0f5200e08f5a00d0
:104e5c0061003e00046001005d0037005e00370019
:104e6c000800370011003700480037005a0037009f
:104e7c001e003700250037002e00370030003700a9
:104e8c004800370004092100144278000482fb001a
:104e9c00040242001410880094848000e00f520039
:104eac001000320054c0b300430037000400280047
:104ebc004510800005026200e00f520018003a0015
:104ecc00a4848000344378008682fb00151088008f
:104edc00a48488009230ed0094848000e00f52008e
:104eec003d003a0064c0b3003300370004092100d0
:104efc00144278000482fb00040242000400a0006b
:104f0c001410880094c0b3002b0037000400280054
:104f1c004510800005026200e00f520003003200d1
:104f2c000642a80096b0ef00220037000410800063
:104f3c00f4bf9f000662a800b4c0b3001e00370087
:104f4c000822ab000400320005108000a48480000d
:104f5c00055a7800a48488009230ed009484800077
:104f6c00e00f520003003a0006a2a800c4c0b30030
:104f7c000200370006a2a900a4c0b30004407800c8
:104f8c0092f1b7000682a800130037000400280035
:104f9c004510800005026200e00f52000100320053
:104fac0096b0ef00b48c8000e00f520005003a0080
:104fbc000642a80024c0b3000440780092f1b70068
:104fcc000500370014002000c48c88000100370055
:104fdc009831ef009271ef000080fa003400f90074
:104fec004f03be004f02be004f0078000040060089
:104ffc009630ef0090f0b700928488009210f80081
:10500c009810f900a1848800d1848800b38c8800a2
:10501c0030c0b30092f1b70024192100144278007b
:10502c00e04f5200fcff3a00b08480000000060004
:10503c009630ef0090f0b700928488009210f80040
:10504c009810f900a1848800d1848800b38c880062
:10505c0070c0b30092f1b7002419210014427800fb
:10506c00e04f5200fcff3a00b084800000000600c4
:10507c00a4002000e484880010c0b30092f1b700b3
:10508c002419210014427800e04f5200fcff3a0032
:10509c000000060001037800e4888000f588800099
:1050ac009501880000004000cf80de000000420027
:1050bc0081804a001002ba001080ba00040b7800fc
:1050cc0000000600e4888000f5888000360024008b
:1050dc00063b8800950188008180fb000110b1001f
:1050ec00000040006103b9000602420087824a00ba
:1050fc00020abb00018abb000700fc00500520001f
:10510c00303b8800a00a2000303b880061e7a800f3
:10511c000000000000000000000006000800fa007b
:10512c00889fbe008a9fbe008c9fbe008044780082
:10513c00010578000004eb008985fb008b05e80075
:10514c0011003700011221000800780084bf9f0075
:10515c0095bf9f00cfff07000fba97009fba97002b
:10516c00e14f40000e0032000080fb008b0f50001e
:10517c0004003a000001eb008040eb0008007800ce
:10518c00d0ff07000804e8006142b900cc88800019
:10519c00dd8880008c0f52008d8f5a00e9ff39009a
:1051ac008c0f52008d8f5a002d003a0074825700dc
:1051bc00252e280003000900355a78000004eb0066
:1051cc000a00370008004400cf80de00e48880002d
:1051dc00f58880000000420081804a00f48157006d
:1051ec004200200098fa07000804e8006143b90067
:1051fc00c4888000d5888000840f5300858f5b00a5
:10520c00f0ff3900f48157000001eb000080eb0047
:10521c008080eb008cfa0700fb0921008a0c21002e
:10522c00180020008004eb009c0220000042eb00e0
:10523c00db4f1200050032001a017800884078001c
:10524c00090078009fff07008904e8000804e800c3
:10525c000a85e8008c0f5400f4ff3a000400370074
:10526c008940e8000a0178000800780095ff0700e3
:10527c004f06be004f05be004f04be000080fa0072
:10528c00000006000400fa00889fbe008a1f780008
:10529c00e0888800f1888800c2888800d38888005c
:1052ac00f40921008502200084824200006aeb0090
:1052bc00850f5200fdff3a000004eb001ac0b3004a
:1052cc00890c2100130037002112210008007800fe
:1052dc00b2bf9f00c3bf9f006eff07003fb997008e
:1052ec00cfb99700e14f40000e003200e04f500064
:1052fc00070032000080fb000000e900040a2100d6
:10530c000a72780000004000148980008434780010
:10531c000804e8006142b900820f5200838f5a00e2
:10532c00e9ff3900080078004f0578004f04be00f3
:10533c000080fa00000006000082fb00050a210034
:10534c00e5427a00e0cf5200030032000402420032
:10535c00850c2100e5007a000100780000000600b1
:10536c000082fb00050a2100e5427a00e0cf5200e2
:10537c000500320084024200860c2100e6827a008d
:10538c00818f52000700320084024200860c2100fb
:10539c0001b37a0016c0b300050a210086727a00a8
:1053ac005eff0700000006000400fa00889fbe00a4
:1053bc000144780083007800c2bf9f00d3bf9f00d8
:1053cc00ddff070080047800cfb897000840780014
:1053dc00d9ff0700000278006148b800c000dd006a
:1053ec000000200004004000e08048004f04be0094
:1053fc000080fa00000006000400fa00881f780004
:10540c000144780083007800d2bf9f00e3bf9f0067
:10541c00d3ff0700dfb8970008407800d0ff0700e3
:0c542c004f0478000080fa000000060029
:020000040000fa
:10543800b011000000080000000000009a110000f0
:105448000400000002000000ffffff00ff00000052
:105458009e1100000400000000000000c40d0000c0
:1054680028010000020000000000020000fc870084
:105478006400000000000000e0221f001260c80065
:105488005c000000000000000000000000000000b8
:105498000000000000000000000000000000000004
:1054a800000064000000000000000000000959002e
:1054b8006400640000000000000100000002000019
:1054c8000000ee0002000000b6030000000000002b
:1054d800000003000000000020000200000000009f
:1054e8000000380001803e000000000000000000bd
:1054f80027000800002700000000d000f00000008e
:105508000000ab00000000000000000000000000e8
:10551800000102000303000000000000000000007a
:105528000000000000000000000000000000000073
:1055380000006400003200000000000000000000cd
:1055480000000000003a0c0000000000000000000d
:105558000080000080001100001100000000000021
:105568000000000000000000000000000000000033
:105578000000000000000000000000000000000023
:105588000100000000000000000000000000000012
:1055980000000000000000000100d000070000002b
:1055a80000000000000000000000000000000000f3
:1055b800000064000000000000000000000000007f
:1055c80000000000000000000000000000000000d3
:1055d80000000000000000000000000000000000c3
:1055e80000000000000000000000000000000000b3
:1055f80000000000a41100000400000002000000e8
:105608003474c5008c000000a811000004000000dc
:10561800020000003475c5008c000000ac110000c9
:1056280004000000020000003476c5008c00000071
:1056380000080000c405000000000000ec0e000097
:105648000401000000000000241100005e000000ba
:1056580002000000006200003fc0000000000000df
:1056680000020100199e00000e960000043c78001c
:10567800ef40100040726f00c23de70000f11700d4
:10568800422a6000ff80d0000070000000dce000cb
:105698003747f700f0375100151500000077000074
:1056a8000000000000000000003449000080800075
:1056b800000a000000102000242000001020300004
:1056c8004050600070ffff007f7f370020242000db
:1056d800000000008211000010000000000000001f
:1056e8009211000008000000020000000000000005
:1056f8000000000000000000f00f0000b0000000f3
:1057080000000000a010000084000000000000005d
:04571800000000008d
:020000040000fa
:0497fc000000fe006b
:020000040000fa
:10980000f8874700889fbe008a9fbe008c9fbe00dd
:109810008e1f780002002000070025000282fb0056
:1098200005002000c022dd000400200007024200e5
:10983000e0824a00950188001403ba001482ba003d
:1098400005202000850f530002003a00e44f52002b
:10985000010032000000fe00f60f2000060161004a
:1098600003002000c011dd000200200007024100bb
:10987000e082490002002000060161000300200090
:10988000c011dd000200200006c0240006014100d6
:10989000e0814900820f5200838f5a00010031009d
:1098a0000401be006022b8000a002000010025006b
:1098b000610bb80086b79f0097b79f000a83fb0033
:1098c00007002000c034dd0008002000e8af9f0042
:1098d000f9af9f00720037000fb697009fb6970050
:1098e0000c0342008d834a006fac9700ffac9700d9
:1098f0000603440087834c00050478000000eb0059
:109900000406be00d2b79f00e3b79f0007027800ad
:109910008a0278000605be000503780094018800dd
:109920008a0340009704ba009783ba009801880020
:109930008c0240009501ba009582ba00838f5400d2
:109940000b003a00858f530009003a000080e800c0
:1099500005402000850f5000f0ff3a000c02be00c9
:109960005fb19700efb19700060578004800370017
:109970000c02be005fb19700efb1970006007800bf
:109980000a03be000005780029042400093b880072
:10999000980188000c0ebb000700fc005005200059
:1099a000303b8800a00a2000303b880061e7a80017
:1099b0000000000000000000084020000900200016
:1099c0000604440087844c000606560087865e0025
:1099d000acb79f00bdb79f00260037009d018800ef
:1099e0001c02ba009c82ba00c5b79f00d4b79f0082
:1099f0002fb39700bfb397000602460087824e0040
:109a000095018800dfb397004fb39700070abb00aa
:109a1000068abb000000e90062064600e0864e00b0
:109a2000e00f5000edff3a007fb297008fba970029
:109a30000a03be000e0578001c0024000c3b8800c1
:109a40000700fc0050052000303b8800a00a2000e1
:109a5000303b880061e7a800000000000000000023
:109a60000608b0000780b000880f5300898f5b00a4
:109a7000070032000606be00000420000a07780036
:109a80000605be00f4b79f0085bf9f00d3ff3700d7
:109a900006402000070020000402430085824b009e
:109aa000820f5200838f5a008bff3900f60f20007f
:109ab000060565000b002000c055dd000a002000ef
:109ac00001054500e0854d006022b8000800250032
:109ad00009002000020020000601610003002000b0
:109ae000c011dd00020020003400370008034200ee
:109af00089834a0006034100878349009701880053
:109b00000c4020000d0020000600460087804e001b
:109b1000a0b79f00b1b79f000600be00d2b79f005c
:109b2000e3b79f000601be000403be001002ba00a6
:109b30009082ba00e10f42000d003a00e18f42002e
:109b40000b003a0062004000e08048002fb297000e
:109b5000bfb29700840f5000858f5800f3ff3a0082
:109b60000602be005fb19700efb197000f0037000b
:109b70000602be000203be005fb19700efb197007e
