:020000040000fa
:080000000002040000000000f2
:020000040000fa
:100008009402000094020000940200009402000090
:100018009402000094020000940200009402000080
:1000280094020000940200009402000000200000e6
:100038009402000094020000940200000e0d0000db
:10004800c00800009402000094020000940200001e
:100058009402000094020000940200009402000040
:10006800940200001a2d000094020000940200007f
:10007800620c000094020000940200009402000048
:100088009402000094020000940200009402000010
:100098007a2c00009a1b00009402000094020000d1
:1000a80094020000940200009402000094020000f0
:1000b80094020000940200009402000094020000e0
:1000c80094020000940200009402000094020000d0
:1000d80094020000940200009402000094020000c0
:1000e80094020000940200009402000094020000b0
:1000f80094020000940200009402000094020000a0
:10010800940200009402000094020000940200008f
:10011800940200009402000094020000940200007f
:10012800940200009402000094020000940200006f
:10013800940200009402000094020000940200005f
:10014800940200009402000094020000940200004f
:10015800940200009402000094020000940200003f
:10016800940200009402000094020000940200002f
:10017800940200009402000094020000940200001f
:10018800940200009402000094020000940200000f
:1001980094020000940200009402000094020000ff
:1001a80094020000940200009402000094020000ef
:1001b80094020000940200009402000094020000df
:1001c80094020000940200009402000094020000cf
:1001d80094020000940200009402000094020000bf
:1001e80094020000940200009402000094020000af
:0801f8009402000094020000d3
:020000040000fa
:10020800940200009402000094020000940200008e
:10021800940200009402000094020000940200007e
:1002280094020000940200009402000000200000e4
:100238009402000094020000940200000e0d0000d9
:10024800c00800009402000094020000940200001c
:10025800940200009402000094020000940200003e
:10026800940200001a2d000094020000940200007d
:10027800620c000094020000940200009402000046
:10028800940200009402000094020000940200000e
:100298007a2c00009a1b00009402000094020000cf
:1002a80094020000940200009402000094020000ee
:1002b80094020000940200009402000094020000de
:1002c80094020000940200009402000094020000ce
:1002d80094020000940200009402000094020000be
:1002e80094020000940200009402000094020000ae
:1002f800940200009402000094020000940200009e
:10030800940200009402000094020000940200008d
:10031800940200009402000094020000940200007d
:10032800940200009402000094020000940200006d
:10033800940200009402000094020000940200005d
:10034800940200009402000094020000940200004d
:10035800940200009402000094020000940200003d
:10036800940200009402000094020000940200002d
:10037800940200009402000094020000940200001d
:10038800940200009402000094020000940200000d
:1003980094020000940200009402000094020000fd
:1003a80094020000940200009402000094020000ed
:1003b80094020000940200009402000094020000dd
:1003c80094020000940200009402000094020000cd
:1003d80094020000940200009402000094020000bd
:1003e80094020000940200009402000094020000ad
:0803f8009402000094020000d1
:020000040000fa
:100400004f6121000e7f22000e01880000000000d5
:1004100000012000200288000c00070040eb2200b1
:100420000100200011000700000020000000e00093
:10043000020032000000020000000000b6040200ca
:10044000000000000040da000000fe004440a90067
:10045000400020000000e000030032000000200007
:10046000a00188004440a800000006009101880017
:10047000800078000000eb0015003700e2804000ab
:1004800032a0b4009101ba00e280400032a0b40072
:100490009102ba00e280400032a0b4000002eb00fa
:1004a000472bde00f507b200602ce10004003a00a3
:1004b0000059eb008301e900fdff3e000400370016
:1004c0006128e100010032000082eb000400070017
:1004d0001101ba000200e000e8ff3a000000060047
:1004e0003159ba008301e9000c0032002159ba00e9
:1004f0008301e900080032000400e00003003a0034
:10050000e280400032a0b400f5ff370011d9ba00f4
:100510008301e900faff3a008100e800e180400031
:1005200032a0b400000006000040da000000fe0027
:10053000839f68000100e00002003d0060001000a1
:10054000e08018000300e00002003d00600111009f
:10055000e0811900050007004f00e00002003b00a9
:1005600060001000e0801800000006006022b80063
:10057000060220000000d0008180d2000482d20058
:100580008582d2000000a0000202520083825a003d
:10059000030031000202420083824a000000a100f1
:1005a0000603e900f3ff3a0000000600020ab90062
:1005b000001bb9000200b800810042008100430026
:0405c0000000060031
:020000040000fa
:0805c400ffff0000ffff000033
:020000040000fa
:1005cc00405a80006703b900f4ee210011000900c5
:1005dc000403d8008000fd00405a8800000006008b
:1005ec000208f8000e0ef9000000060001002000c1
:1005fc00524c8000634c8000e9ff0700823e2000d3
:10060c0003002000d6ff070092002000030020000a
:10061c00e3ff07000271220003002000d0ff070057
:10062c006022b800ea0f5000e08f5800020036003c
:10063c006a025000e08258000400780000000600b6
:10064c008102780000024000a696200066007a0025
:10065c000028b800410bdd004f00de0000007300e5
:10066c00cf08de00e08f52000900320065962000b2
:10067c0065027a0004004000e0804800e10f400071
:10068c00e08f580002003600f0ff2f000100200020
:10069c00000006007067a90004fe2f00463580009c
:1006ac00860262007500b30045358800553680001f
:1006bc00050262007400b30054368800f40f2e005b
:1006cc00563680000602620004b0a0005436880042
:1006dc0041e2a9004402a8004322a9004302a80059
:1006ec0042c2a90042a2a800141280000420a1005a
:1006fc008401b30014128800300020004222b7009d
:10070c00041280000420a1008401b30004128800ac
:10071c0041e2a8008540a9009540a900440580004d
:10072c000480a0000490a10004a0a000440588004f
:10073c0000000600140020004441880070a7a900a6
:10074c00f40f2e0035368000050262000430b30031
:10075c003436880021e2a8002822ef002342a800aa
:10076c0094e0a800000006002828ef0084e0a80010
:10077c00000006000082eb00843b8800943b88005c
:10078c00a43b8800b43b88007087a9007167a9005e
:10079c007187a90071a7a90064198800c482a800f8
:1007ac00c082a900cdc2a900c9c2a900ccc2a900af
:1007bc006b00a800c8c2a800cc02a900c802a900fe
:1007cc00cc22a900c822a900c402a800c002a9001a
:1007dc00c422a800c022a9007667a9000410280032
:1007ec00743a880004fe2f00663580008602620091
:1007fc005500b30065358800f60f2e0015368000c5
:10080c008503630005a020008583730017368800dc
:10081c001736800007026200b400b300143688005b
:10082c006322a9006302a80062c2a90062a2a80008
:10083c00141380000420a0000430a1000440a00088
:10084c0014138800300020006222b7006402a80054
:10085c0061e2a8008820a9009820a900a4058000c6
:10086c000440a0000450a1000460a100a40588006d
:10087c00640580000440a1000450a0000460a100a5
:10088c00640588008620a9009620a90004438000f6
:10089c000402e9001408880005e1a800f4ff2c000c
:1008ac00270580000702620004e0a00024058800f0
:1008bc009460a800940580000403b3000460a100b8
:1008cc009405880087a0a90097a0a80034422f00a7
:1008dc0064088800000320001021b70011e1a80073
:1008ec003405800004c0a00004d0a10004e0a100e5
:1008fc003405880004642000740888009408800083
:10090c000440a0000450a1009408880013e1a80042
:10091c00940580000400a1000410a0000420a10094
:10092c00940588008780a9009780a9000434800072
:10093c000403630085027300053488008220a8003c
:10094c00740580000400a0000410a1000420a00085
:10095c00740588008680a9009680a9000000060016
:10096c00889fbe00000020000080fb0001002000da
:10097c00c000dd000000200004402a0004004000fc
:10098c00e0804800022020000300200060160700d1
:10099c00cd82a90011002000b0c0b3008916070059
:1009ac00610060004c00dd004416800004c0a10012
:1009bc000002720044168800ca100700e00f5000b5
:1009cc00e08f580004003200000e20004220b700d7
:1009dc00004c020000000000114080000040eb00c1
:1009ec007816070010408800fdfe070021408000ab
:1009fc0010c0b3007316070020408800114380001c
:100a0c00f0c0b3006f16070010438800314380001c
:100a1c0050c2b3006b16070030438800244080009e
:100a2c004822de00ef026200e58f52000a0032001d
:100a3c00e88f52001b003200e98f5200190032007f
:100a4c0084037800c70eb20006062000868f530080
:100a5c0069003a001300370004012000b44b8800f1
:100a6c007829ef0004242400d44b8800f4002000e3
:100a7c00e44b88007e29ef008029ef008229ef00eb
:100a8c008429ef0004242400344c8800f400200056
:100a9c00444c8800841a2600544c88008c29ef00a2
:100aac0024003700e8825200e18f520011003e0012
:100abc0004012000b44b88007829ef0004c42900fd
:100acc00d44b88007c29ef007e29ef008029ef00b1
:100adc008229ef008429ef00449c2000344c8800cc
:100aec008829ef0054052000544c88008c29ef0015
:100afc001000370004037800e60eb2000506200053
:100b0c00850f530004003a0054052000144c880053
:100b1c008429ef0007003700f40eb20025062000f0
:100b2c00850f520003003a00c4042000144c8800c6
:100b3c008429ef00b14b8000e0c1b30021160700ff
:100b4c0001002000b04b8800c14b8800823e200081
:100b5c0003002000d04b8000e14b800080fe07009a
:100b6c0080007800f0c1b30016160700843e200008
:100b7c000400b800d04b8800e14b8800f14b80009a
:100b8c0000c2b3000f16070001002000f04b8800d4
:100b9c00014c8800114c800010c2b30009160700ec
:100bac0001002000104c8800214c880042062000d7
:100bbc0003002000304c8000414c800068fe070090
:100bcc008000780020c2b300fe1507004406200008
:100bdc000400b800304c8800414c8800514c800017
:100bec0030c2b300f715070001002000504c8800fc
:100bfc00614c88000c0037007629ef007829ef0053
:100c0c007a29ef007c29ef007e29ef008029ef0084
:100c1c008229ef008429ef008629ef008829ef0054
:100c2c008a29ef008c29ef00244080004822de0046
:100c3c006f026200e50f520008003a00714b800011
:100c4c0020c1b300df150700704b8800814b80007a
:100c5c0030c1b300db150700804b880025408000b5
:100c6c00c82ade006f826200e50f520008003200d5
:100c7c00e80f520006003200e90f52000400320067
:100c8c00e50eb20004062000848f520008003a00e2
:100c9c00314b8000d0c0b300ca150700304b880020
:100cac00414b8000e0c0b300c6150700404b8800e4
:100cbc00244080004822de00ef026200e58f5200e3
:100ccc0004003200e40eb20005062000850f52002d
:100cdc0008003a00514b800000c1b300b915070061
:100cec00504b8800614b800010c1b300b515070054
:100cfc00604b88004469a8004269a8002440800029
:100d0c00050021008502620002003200150020005f
:100d1c00354a8800ef026200e58f52000f003a005e
:100d2c00c822de00f50eb2000002eb002006200007
:100d3c0007022000669d200021922000808f520027
:100d4c0001003200218a200061737a000402e8005d
:100d5c00870f5200f7ff3a0021003700e48f520052
:100d6c0008003a00148c2000559d2000060220003b
:100d7c0004034300d46a7800860f5200fdff3a004a
:100d8c0017003700e38f520015003a00350024009d
:100d9c00850f52000300320035002500850f5200ec
:100dac0008003a0014902000559d200006022000f7
:100dbc0004034300d46a7800860f5200fdff3a000a
:100dcc0007003700148e2000559d200006022000dd
:100ddc0004034300d46a7800860f5200fdff3a00ea
:100dec0025408000c82ade006f826200e50f5200a9
:100dfc0001003a004489a800f50eb2000606200056
:100e0c00868f520004003a00000320004429b700ea
:100e1c000000e8000b00370016062000868f5200f9
:100e2c0003003a0044a9a800100220000500370076
:100e3c0026062000868f520003003a004489a80041
:100e4c00100120004229b700e80f520002003a00be
:100e5c004429a80005003700e90f520003003a00ae
:100e6c00600020004429b7004249a80029802000d6
:100e7c0028c0b3008840e8005901be000840780043
:100e8c006c150700808cbe0008c4e800ea4f5400c3
:100e9c00f8ff3a00a1952000914078008180fb007a
:100eac0008407800471507005ae9b700199c200044
:100ebc000004eb000880d100744040008000eb007f
:100ecc0040150700610264004322dd000400de00cf
:100edc00806c78000804e800f40f5400f5ff3a0029
:100eec00b141800040c2b30036150700b041880004
:100efc00144080000402e800445a88001dfe0700dc
:100f0c000140fe00feff3700144280001600200056
:100f1c000433dd0054428000654280008603e90002
:100f2c00304280000780b900840340008703d10061
:100f3c00b74f8800e10f530002003a00042820004c
:100f4c00030037008502d1000482d3000428b000ce
:100f5c00c44f880000000600881f78000004780049
:100f6c00040028000512800005026200e00f520008
:100f7c00440032009460a90041e2a90061e2a9009a
:100f8c0040a7a8001400fc00a50920000003eb00fa
:100f9c008407200037742000844b7800854b780040
:100fac00864b780075052000160020006404200094
:100fbc0027742000844b7800854b7800864b780092
:100fcc004207ab00feff3a000a0037000040fe006b
:100fdc0061e2a80001c9b3000040eb0067110700f3
:100fec0001c8b3000040eb006411070061e2a900e6
:100ffc000804e900e00f5400f4ff3a001400fc0070
:10100c00a50920002600200084072000377420004a
:10101c00844b7800854b7800864b78007505200052
:10102c00160020006404200027742000844b7800f4
:10103c00854b7800864b78004207ab00feff3a00e8
:10104c0040a7a900040028000100370041e2a800d5
:10105c000612800086026200e08f5200fbff320015
:10106c000200370061e2a8000100370004002800ec
:10107c000613800086026200e08f5200f9ff3200f6
:10108c00390037009460a90061e2a90040a7a800cc
:10109c001400fc00a60920008507200037742000ee
:1010ac00854b7800864b7800844b780075052000c2
:1010bc00160020006404200027742000844b780064
:1010cc00854b7800864b78004207ab00feff3a0058
:1010dc000a0037000040fe0061e2a80001c9b3001d
:1010ec000040eb002511070001c8b3000040eb00e5
:1010fc002211070061e2a9000804e900e00f540086
:10110c00f4ff3a001400fc00a50920002600200082
:10111c008407200037742000844b7800854b7800be
:10112c00864b780075052000160020006404200012
:10113c0027742000844b7800854b7800864b780010
:10114c004207ab00feff3a0040a7a90004002800ac
:10115c000100370061e2a8000613800086026200dd
:10116c00e08f5200fbff32009460a8004f0478001f
:10117c00000006008500a900004006000200fa00ed
:10118c00889fbe008a9fbe008c1f7800c8c2a90031
:10119c008083fb00471288001900200038002000d3
:1011ac00eb4f50001200320004003e0000c0e9007a
:1011bc00e14f500009003e000b0037008804780016
:1011cc000004eb00b7cab300874f50000800320090
:1011dc0087cdb300874f5000030032008004eb0032
:1011ec0009047800020037008004eb00380020006e
:1011fc004340dd00170020000a0037000205be0046
:10120c00000678000c06e900030033008b05d100c2
:10121c000a85d300fbff3700fa0fb2004a12880090
:10122c008703e800680050000705e900880f5500a7
:10123c00f2ff35000000eb00030037004822ef00fe
:10124c008703e8000000e800890f5000fbff350021
:10125c00070178000000eb0065054200e0854a00bc
:10126c001a00370087014000e48f51000c00340055
:10127c0040a2ab00feff3a0043128000c3f79f0070
:10128c00e00f5100020034000201e90004003700b5
:10129c00e00f530002003200cff19700035b78009f
:1012ac00840f5400858f5c0007003100e08f5000e4
:1012bc0004003200314478008881fb00431288001e
:1012cc0001003700411288000000e8006104b900f9
:1012dc008a0f54008b8f5c00e2ff3900c8c2a80053
:1012ec004f0678004f05be004f04be000080fa0088
:1012fc00000006000200fa000f83e9008000eb00fa
:10130c0014002000050020006011b80050c0b3008c
:10131c009aff0700effa97000582fb00610262005a
:10132c00f5ff3a000080fa0000000600889fbe001e
:10133c000004be000003eb00860078006022b800b9
:10134c000401be0060c0b3008cff0700e9ff07007a
:10135c000003eb00860078006022b8000801be0094
:10136c0080cdb30085ff0700e2ff07004f04be00ed
:10137c0000000600889fbe008a9fbe008c1f78006c
:10138c000004be000205be00040678000003eb005a
:10139c00860078006022b8000401be0060c0b30073
:1013ac0076ff0700d3ff07000003eb008c007800ea
:1013bc000a02be000801be0020c0b3006fff070088
:1013cc00ccff07004f0678004f05be004f04be004f
:1013dc0000000600e8874700889fbe008a9fbe0079
:1013ec008c9fbe008e1f7800840278000004be0023
:1013fc006033b800e2b79f00f3b79f000606be004b
:10140c0022003700f10f2000088260000e1020002f
:10141c000300320008027800f40fb20004075700f2
:10142c006fb39700ffb397000c0153008d815b00e5
:10143c006170b800800f5100818f5900010031009c
:10144c000c075300e00f540004003a000800be00e3
:10145c0085bf9f00b5ff07008fba97006175b80074
:10146c00050278000a01be000800be0085bf9f007f
:10147c00c0ff07008fba97008e8242000804450017
:10148c0089844d000c0645008d864d006fb0970089
:10149c00ffb09700800f5600818f5e00d9ff390096
:1014ac004f0778004f06be004f05be004f04be002c
:1014bc008f00b10000000600889fbe000004be0033
:1014cc00040378008000eb000202be000801be009d
:1014dc0030c0b30029ff07004f04be000000060017
:1014ec0004002800753a8000050262008002eb00bf
:1014fc00850f520004003a007667a90004102800fa
:10150c00743a8800150020006322a800c402a900c8
:10151c000080fb0040138800481bde000700200001
:10152c00461388000382fb0044138800c81bde00ae
:10153c00481add004813de0006037200060278002c
:10154c00f40fb20044138800f20fb200421388006b
:10155c0060a2ab00feff3a004413800060a2ab0017
:10156c00feff3a004613800060a2ab00feff3a007b
:10157c004313800060a2ab00feff3a0042138000d0
:10158c00041380000402b200fdff3a0040138000f7
:10159c00c402a800e08f520002003200743a8800a6
:1015ac007667a9006322a900e08f50001200320078
:1015bc00cfb3de00c833dd0006002000611ab9008d
:1015cc00c022dd00040020000603420087834a008d
:1015dc006102b9000603420087834a00cf91de0006
:1015ec00481add00c812de00850272004812dd00c8
:1015fc008418430085904b0000000600881f78007b
:10160c00010478004400200005408000e08f520067
:10161c000600320088007800b1ff0700240020008b
:10162c00e00f540001003a00080278000400780032
:10163c004f04780000000600f2ff2f00f303200097
:10164c008000eb0010c0b300ecff0700f2ff2f008e
:10165c00f30320008000eb0020c0b300e7ff37004d
:10166c001628ef005a28ef0024002000c4428800fe
:10167c007667a90004102800743a8800a29520000f
:10168c0012417800e1c0b3000040eb00e80e070007
:10169c00344a8000e00f52000a00320002e12700b9
:1016ac00030020008000eb0000c6b300d3ff07004e
:1016bc0042e12700030020008000eb0000c6b300cd
:1016cc00ceff0700dcff07004e27ef007667a9006e
:1016dc0025fc3700c04380004500de00630060003d
:1016ec00e10f500007003200f2ff2f00f30320003f
:1016fc00e10f500018003900e20f500019003a00b9
:10170c000f00370092418000a3418000f443800019
:10171c00054480000401410085814900040020003b
:10172c00050c20000201420083814a00b441800074
:10173c0004014100e08149008000eb000800370003
:10174c00f2ff2f00f3072000f443800005448000d3
:10175c0004014100858149008000eb0010c0b300fa
:10176c00a6ff0700c04380004700de006300600056
:10177c00e10f500007003200f2ff2f00f3032000ae
:10178c00e10f500010003900e20f500019003a0030
:10179c001000370092418000a3418000d4438000a8
:1017ac00e5438000040141008581490004002000cc
:1017bc00050c20000201420083814a00b4418000e4
:1017cc0004014100e08149008000eb0020c0b3001f
:1017dc008aff3700f2ff2f00f3072000d44380006c
:1017ec00e543800004014100858149008000eb0045
:1017fc0082ff070000000600c44380008400d10073
:10180c00e3806000f2ff2f00f3032000e08f500014
:10181c0012003200e28f500012003a000500200046
:10182c004f2bdd00c123de00870373004f23dd0047
:10183c000400200005302000078362000700200010
:10184c00c033dd0006002000f2ff2f00f30720005c
:10185c0006014100878149008400780010c0b30064
:10186c0066ff0700c04380004300de006300600099
:10187c0003003200e20f50000e003a000500370062
:10188c00f2ff2f00f30320008000780020c0b3008b
:10189c005aff3700f2ff2f00f3072000d4438000db
:1018ac00e543800004014100858149008000eb0084
:1018bc0052ff0700000006003600f800809fbe00b3
:1018cc00829fbe00849fbe00869fbe00889fbe0084
:1018dc008680a9009680a900441f2000145a880015
:1018ec000004eb00080888008460a8009460a8003d
:1018fc0019002000794c8800a84c880061e2a800ef
:10190c00c022a90004712200e442880088007800fb
:10191c0008407800b80f070088007800094078006c
:10192c00b50f0700b4ff0700783a88007667a90066
:10193c004f04be004f03be004f02be004f01be005d
:10194c004f00be003600f900004006000200fa000d
:10195c00881f780001047800c0ff9f0070e7a90081
:10196c00540220002410880004042900341088003c
:10197c009620a80071e7a900743e2000e4088800b6
:10198c0021e1a8009780a800130020000301780033
:10199c00e480570060c3b300c7100700e00f50008d
:1019ac0005003a008001780022002000e4805700f6
:1019bc0060c3b300d01007009780a90021e1a900f3
:1019cc0071e7a8009620a9000622ef0070e7a80096
:1019dc00cffa97000582fb004822dd00dffa970062
:1019ec008582fb000502420005002000048cbe002d
:1019fc0044002000e00f500001003a0024002000b9
:101a0c00040078004f0478000080fa000000060003
:101a1c003600f800809fbe00829fbe00849fbe00ef
:101a2c00869fbe0084e0a90014002000844d88002d
:101a3c00245a8000e00f520006003a00819a2000e0
:101a4c0020c0b300c1ff0700c19a200040c0b30002
:101a5c00beff0700245a8000e10f52000f003a002d
:101a6c0097a0a900000000002422ef00444d800044
:101a7c00554d800004037800f60fb2002611880043
:101a8c00482bdd004822de0004027300c82ade0069
:101a9c00f40fb2002411880097a0a800245a8000eb
:101aac00e20f520010003a0097a0a90000000000bd
:101abc001400200024118800644d8000754d8000b6
:101acc0004037800f60fb20026118800482bdd00c5
:101adc004822de0004027300c82ade00f40fb200b4
:101aec002411880097a0a800245a80000402e80062
:101afc00245a8800f40f52000c003200644d800010
:101b0c00754d8000f60f2000860f5200e08f5a00b2
:101b1c0006003600444d8000554d8000f61f200015
:101b2c00860f5200e08f5a0001003e00442bef005c
:101b3c00b029ef0044418000e00f520002003a004f
:101b4c0094e0a90070a7a8004f03be004f02be008e
:101b5c004f01be004f00be003600f90000400600e9
:101b6c000200fa00000278000408b20019003a00e2
:101b7c00f4c3b300844060004600de00e6cf5000a2
:101b8c0003003a006140600043002000060037006b
:101b9c00e3cf500007003a003a2aef003c2aef004e
:101bac006140600023002000a2a320007e0d0700ee
:101bbc000600370061406000310d07000080fb001b
:101bcc0001002000d0518800e15188003000200035
:101bdc00b7013700f00fb2006102b8000408b10081
:101bec000580b100f6072000860f5200e08f5a00e6
:101bfc00ae013e00046001007f003700800037001a
:101c0c00830037008d003700a8013700a70137008b
:101c1c008d0037008e00370091003700a30137008c
:101c2c00a2013700a1013700a00137009f01370046
:101c3c008f00370091003700950037009700370070
:101c4c009a01370099013700980037009a00370045
:101c5c009c003700a6003700940137009301370031
:101c6c009201370091013700900137008f01370046
:101c7c00a2003700b7003700b9003700ba003700b0
:101c8c00cd003700ce003700d20037008701370077
:101c9c00860137008501370084013700ec003700de
:101cac00ee003700f0003700f2003700f400370088
:101cbc00f6003700f8003700fa0037007b013700d8
:101ccc00fb003700fc003700fe0037000101370035
:101cdc000301370075013700060137007301370027
:101cec007201370071013700700137006f01370046
:101cfc006e0137006d01370000013700ff0037001f
:101d0c00fe003700fd00370068013700670137001f
:101d1c006601370065013700640137006301370045
:101d2c006201370061013700600137005f01370045
:101d3c005e0137005d013700f60037000c013700fb
:101d4c005a01370059013700580137005701370045
:101d5c005601370055013700540137005301370045
:101d6c005201370051013700500137004f01370045
:101d7c004e0137004d0137000001370001013700db
:101d8c000201370003013700050137004701370016
:101d9c0046013700040137000501370043013700c5
:101dac004201370041013700400137003f01370045
:101dbc003e0137003d0137003c0137003b01370045
:101dcc003a013700fc0037003801370008013700b2
:101ddc00090137000e0137001601370018013700d2
:101dec001a0137001c0137001e0137002001370093
:101dfc0022013700270137001440800071003700a2
:101e0c00e0052000d05188003c2aef006fff37001e
:101e1c00040020000482fb0005002000c022dd002d
:101e2c00040020000600250006024200e0824a0061
:101e3c000402420085824a0063003700a44d8000f2
:101e4c00b54d800060003700244080005d003700f5
:101e5c0015002000d55188003c2aef005bff3700ad
:101e6c006011b800a1a3200090c8b3000c0137008a
:101e7c00a49520001442780002003700b49520008d
:101e8c00144278000482fb00050020004e0037004d
:101e9c00c495200014427800faff370044168000e5
:101eac004c22de0061426200f6ff3700404d80009c
:101ebc00514d800043ff3700644d8000754d80000c
:101ecc00410037006011b800a1a3200050c8b30036
:101edc00cafd07000002780030002000e40f520019
:101eec00f3003a003a2aef003c2aef00f0003700ea
:101efc00c04d8000d14d800032ff3700c962a80070
:101f0c00f00f2e00c626b600e2f907000f83e90099
:101f1c008000eb0014002000050020006011b800c8
:101f2c00b0cab30095fc0700440620000000000076
:101f3c000402e900fdff3a00a4a3200042002000a7
:101f4c0003002000c04d8000d14d80005afd0700d9
:101f5c001eff3700b44a8000c54a80001a003700c3
:101f6c00644a80001700370014b420001442780033
:101f7c0084cf500007003200744a80000402e8004d
:101f8c00744a8800654a8000850f520001003600b3
:101f9c004e29ef00744a800050002000e00f5200e0
:101fac00c300350025882000e5427a008582fb00bd
:101fbc004822dd008b003700844a80000100370086
:101fcc00944a800005002000d4518800e551880017
:101fdc00fefe370014b420001442780084cf500069
:101fec0006003200344180000402e80034418800cd
:101ffc00ea0f5200010034002628ef003441800023
:10200c0050002000e00f5200a900350004034200ec
:10201c00259c200065417b000281fb000300200011
:10202c006120b900c000dd0000002000020040006b
:10203c00838048000603e80065437b004833dd00dd
:10204c00cfb3de000002430081824b00deff37007d
:10205c007041800081418000dafe3700f44180003d
:10206c0005428000d8ff37001042800021428000da
:10207c00d4fe37003442800045428000d2ff370046
:10208c005042800061428000cefe370074428000d6
:10209c0085428000ccff370090428000a142800036
:1020ac00c8fe3700d4418000e5418000c6ff3700f0
:1020bc00c4438000c3ff3700504180006141800061
:1020cc00c0fe37006011b800a1a3200010cab300f5
:1020dc0073003700e49b20001442780069ff37003e
:1020ec0000c8b300be49b4006011b800a1a3200021
:1020fc006b003700b4418000b2ff3700000cb10018
:10210c004200dd0064802000000042001002be008e
:10211c00adff37007643800007002000c833dd0098
:10212c00060020006443800005002000c022dd0072
:10213c000400200004027300858273004643800073
:10214c000700200006027200878272005043800054
:10215c0001002000480bdd00c803de00870373007c
:10216c004803dd00060272008782720096ff37007a
:10217c00804380009143800092fe3700e44c800045
:10218c0019003700140880008eff370004438000cc
:10219c0015003700f44c800044a2de00120037001a
:1021ac001443800010003700244380000e003700d9
:1021bc00344380000c003700a44b8000954b80000a
:1021cc00e2036200c23bdd0062836200060343004f
:1021dc0006834300e18262008502430061026200d3
:1021ec000402420004824200cfa2de0076ff3700d8
:1021fc00244b800073ff3700464b80000700200003
:10220c00c033dd0006002000344b80000500370091
:10221c00664b800007002000c033dd000600200064
:10222c00544b8000050020000600420087804a00c5
:10223c0064fe3700b44b8000c54b800062ff370052
:10224c00d04b8000e14b80005efe3700f44b8000e9
:10225c00054c80005cff3700104c8000214c800046
:10226c0058fe3700344c8000454c800056ff370038
:10227c00504c8000614c800052fe3700864b800031
:10228c0007002000c033dd0006002000744b8000e6
:10229c00e4ff37006011b800a1a3200090ccb3007c
:1022ac00d6fc07000000a000010037005000200001
:1022bc000080fa00000006000600fa00889fbe00ad
:1022cc008a1f78008c9fbe0001047800820478007d
:1022dc00ba408000e00f550005003a0080027800fb
:1022ec00f50fb200c40b2000848f520077033a0024
:1022fc00000278000408b20013003a00f4c3b300e3
:10230c00844060004600de00e6cf500003003a0037
:10231c00614060004300200004003700e3cf500010
:10232c0005003a006140600023002000080178009d
:10233c00000c07005d033700614060001841780015
:10234c00bb0b070059033700f00fb2006102b80055
:10235c000408b1000580b100f6072000860f52007a
:10236c00e08f5a0058033e00046001007f003700e4
:10237c0055033700540337008200370085003700bf
:10238c004a033700af0037004f0337004e033700c6
:10239c004d033700b4003700440337004a033700bd
:1023ac0049033700b2003700bd003700bf003700cb
:1023bc00c1003700440337004303370042033700a2
:1023cc004103370040033700c8003700cc0037000a
:1023dc00fe0037003c0337003b0337003a0337005d
:1023ec0039033700380337000e013700110137006d
:1023fc0018013700280137002a0137004401370043
:10240c0031033700300337002f0337005c013700ee
:10241c0062013700810137008401370087013700e2
:10242c008b0137008e013700910137009401370082
:10243c00970137009a013700be013700220337009d
:10244c00bf013700c10137001f033700c30137003c
:10245c001d0337001c033700c5013700d1013700bd
:10246c00dc013700de01370017033700e1013700cc
:10247c00e0013700df013700de01370012033700bf
:10248c0011033700100337000f0337000e0337001a
:10249c000d0337000c0337000b0337000a0337001a
:1024ac00090337000803370007033700dc01370046
:1024bc00e801370004033700030337000203370039
:1024cc000103370000033700ff023700fe0237001c
:1024dc00fd023700fc023700fb023700fa0237001e
:1024ec00f9023700f8023700f7023700f60237001e
:1024fc00f5023700de013700f3023700df01370049
:10250c00f1023700f0023700e0013700e701370035
:10251c00ed023700ec023700eb023700ea0237001d
:10252c00e9023700e8023700e7023700ed01370017
:10253c00f0013700190237001c0237002602370061
:10254c0029023700310237004a0237005b0237009c
:10255c0060023700690237006e02370073023700e1
:10256c007c0237008102370099023700180478008a
:10257c00184088001af80700114080000040eb005a
:10258c00450037001802be00a44d8800b54d8800e8
:10259c00c60237001a00200014b420001442780040
:1025ac0084cf5100c9023200a64d8000b74d800087
:1025bc00e10f4300e08f4b0009003a00000e2000b1
:1025cc004220b70088017800090178000600be009f
:1025dc00a5080700e80907000000fe0011003700fd
:1025ec001a0280004555de0067456500000e20008c
:1025fc004220b7008700d1000680d3008801780004
:10260c000901780005090700670265004522dd0015
:10261c00faf12f0015028000050565000405750010
:10262c001a028800614ab900a64d8000b74d80009f
:10263c000603420087834a00a64d8800b74d8800e8
:10264c009a023700980078006f8260006302520093
:10265c005a002000e20f52009c023e0021408800ec
:10266c0010c0b3000c0037000000fe008f023700d2
:10267c00980290005a00200044232100848f5200bd
:10268c0092023a0098007800014078005ae9b700ad
:10269c008180fb00a0c0b300540f070083023700f9
:1026ac00184078005be9b7008002370018407800ca
:1026bc005ce9b7007d02370018427800e142620005
:1026cc00e1826200cc2add004416800004c0a10027
:1026dc000502720044168800184478008880fb00bc
:1026ec00e1806000b0c0b300ebff3700cdc2a900a1
:1026fc001803be00c64d8800d74d88006b0237000a
:10270c001a00200014b420001442780084cf510029
:10271c006e023200c24d8000d34d8000e00f51009c
:10272c00e08f590008003200f40f20000500200053
:10273c00c04d800080036200d6a3200006834300b6
:10274c000502780015003700c962a800f00f2e00b2
:10275c00c626b60092bf9f00a3bf9f00cdf707000f
:10276c00708357008000eb0014002000050020004f
:10277c001fb99700afb99700b0cab3007ffa070032
:10278c0044062000000000000402e900fdff3a00ae
:10279c00e5ff3700386b78000402e800890f52001f
:1027ac00fcff3500614ab900c64d8000d74d800052
:1027bc000603420087834a00c64d8800d74d880027
:1027cc001a002000ea4d8800400237001a00200051
:1027dc0014b420001442780084cf51003b02320024
:1027ec00e44d8000e00f520038023200c64d8000ec
:1027fc00d74d800064025300e0825b0006f02f008e
:10280c0004036300060278000400be00e4a3200069
:10281c000210200003002000eefa0700bc29ef0094
:10282c002a0237001802be00b44a8800c54a880044
:10283c001e0237001802be005a002000ff0f520083
:10284c00e08f5a0021023e0018047800684a880084
:10285c001602370008027800544378008682fb0089
:10286c005a002000664a8000868f520017023e00f4
:10287c0018437800e14f4300020032002788200003
:10288c0086f37a00144278000482fb000402e9000b
:10289c00744a88000502370018047800884a8800ba
:1028ac000202370018027800944a88005429ef007d
:1028bc00e10f52000b003200e30f520002003a000d
:1028cc002400200007003700e70f520002003a00f6
:1028dc003400200003003700ef0f520002003a00d2
:1028ec0044002000a44a8800744180008541800087
:1028fc00a64a80000603e9000300330004024200ec
:10290c0085824a00fbff3700c4418800e70137008d
:10291c008884e800194278005a002000e94f5200e0
:10292c00ea013e00b8429000e1cf42000f003200b5
:10293c000482fb0004024200259c2000984378008e
:10294c0087727a00194078000082fb000402420072
:10295c008502e8001843900086727a00994378004b
:10296c0074c0430098007800a00e070099447800ca
:10297c000982fb000402e90034418800cb013700d6
:10298c005a002000341f2000155a8000848f5200fa
:10299c00ce0134008a4c8800c40137001804be00f4
:1029ac007841880089418800e00f5400e08f5c007a
:1029bc00100032000801be0000fa200001002000c7
:1029cc00e7f6070061025000e0825800c022dd00eb
:1029dc000400200005027800f403b200050020007a
:1029ec00c022dd000400200094418800a54188002d
:1029fc000200370098418800a9418800a44a800051
:102a0c000402e900030033000804440089844c00ec
:102a1c00fbff3700c8418800a40137001802be0034
:102a2c00f441880005428800a00137001803be005d
:102a3c001642880027428800030037001802be00a7
:102a4c0034428800454288002ff90700970137006f
:102a5c001803be005642880067428800faff370010
:102a6c001802be0074428800854288008f0137002e
:102a7c001803be0096428800a74288008b013700dd
:102a8c001802be00d4418800e54188008701370058
:102a9c001803be00064b8800174b88000600370051
:102aac001802be00e00f5200e08f5a0005003a00f9
:102abc00044b8800154b880054002000944c88006f
:102acc007a013700610362001a0020007f01320096
:102adc00c44388006120b8004d0bdd00c303de0049
:102aec00870373004d03dd0005302000078362006f
:102afc0007002000c033dd0006002000d64388000c
:102b0c00e74388004f0bdd00c103de008703730031
:102b1c004f03dd000782620005002000c022dd00ab
:102b2c0004002000f44388000544880032fb0700b1
:102b3c00660137001a002000ca4c88006301370078
:102b4c0018407800bee9b700580137001801be00e4
:102b5c008000eb00bec9bf001901370018027800d5
:102b6c00b44188009800780040c2b300cafe370018
:102b7c00e4012000e44088001840780006eeb7001d
:102b8c001840900007eeb7002842900061026200e6
:102b9c002441880018fb070054002000f44a8800e8
:102bac00420137001a002000ba408800e4012000de
:102bbc00e440880018027800c44088002842900045
:102bcc0063426200044078001ae8b700d9f60700a7
:102bdc003e01370034002000f440880033013700f8
:102bec001840780020e8b7005400200014418800f9
:102bfc002e013700000cb1001801be004202dd00ae
:102c0c006580200004824200028abe000040e80079
:102c1c00004040008040e8001a0e070023013700f6
:102c2c00984278000582fb004443880018429000cb
:102c3c000482fb0054438800284290000482fb006d
:102c4c0064438800384290000482fb00744388007f
:102c5c00160137001802be00844388009543880093
:102c6c00a543880044002000444a88000f01370027
:102c7c0018047800084388000c013700980078008d
:102c8c0011438800f0c0b30083fe3700184478006d
:102c9c000882fb0061026200244388006121b900b4
:102cac008000eb00f0c4b300c50037001844780076
:102cbc000882fb0061026200344388006121b90084
:102ccc008000eb00e0c4b3004cfa0700000578006c
:102cdc000a00a0003143800050c2b300c30d0700ae
:102cec00fa0037001801be008000eb0000c4b300ee
:102cfc00b3003700244080004822de006f026200df
:102d0c00e50f520021003a0038409000610060004d
:102d1c00980078004af607000001780003002000b4
:102d2c000c002000fdff2f001802be00612ab80025
:102d3c00c022dd00040020000401710085817100b7
:102d4c008c00780010c4b3002cfa070080047800c3
:102d5c001800780025f60700000178000300200019
:102d6c001802be00612ab800c022dd000400200059
:102d7c0004017100858171008c007800f0c3b300f0
:102d8c001efa0700008574008f0037001801be0082
:102d9c008000eb0010c4b300890037001801be009e
:102dac008000eb0020c4b30085003700384290004f
:102dbc006102620004024200259720000482420056
:102dcc0018037800630a63001801be008000eb0052
:102ddc0030c4b3007a0037001801be008000eb004d
:102dec0040c4b3007600370098037800274b880066
:102dfc0098007800c0c0b3007c0d07001801be001d
:102e0c008000eb0050c4b3006d0037006302440037
:102e1c00144078008082fb00e182620085824200cf
:102e2c006696200018b37a00144278006140620064
:102e3c006d404000980078006c0d07002440800025
:102e4c004822de006f026200e50f520005003a00d6
:102e5c001802be006129b800c011dd00020020007c
:102e6c00010037001801be008000eb0060c4b30005
:102e7c0053003700244080004822de006f026200bd
:102e8c005a0020008a0f520090003a00630244005e
:102e9c00144378008682fb00e18262008582420046
:102eac00a696200018b37a001442780061406200a4
:102ebc007040400098007800f7fd37001802be0003
:102ecc00b44b8800c54b880098007800e0c1b30073
:102edc00f1fd37001803be00d64b8800e74b880085
:102eec001800be00823e2000030020009cf5070065
:102efc0080007800f0c1b300e7fd37001802be0077
:102f0c00f44b8800054c88009800780000c2b30090
:102f1c00e1fd37001803be00164c8800274c8800d2
:102f2c009800780010c2b300dbfd37001802be0019
:102f3c00344c8800454c88001800be004206200026
:102f4c000300200086f507008000780020c2b30043
:102f5c00d1fd37001803be00564c8800674c880022
:102f6c009800780030c2b300cbfd370024408000bd
:102f7c004822de006f0262005a0020008a0f5200c5
:102f8c0052003a0063024400944378008782fb00ad
:102f9c00e182620085824200e696200018b37a0036
:102fac001442780061406200724040009800780042
:102fbc000e0d07001801be008000eb00a0c4b3008a
:102fcc008ef90700000578000a00a0003f003700ca
:102fdc00244080004822de00ef026200e58f5200a0
:102fec0005003200c40eb2005a0020000506200075
:102ffc00850f520035003a00384290000482fb00e5
:10300c00050020005a002000e30f5200e08f5a0008
:10301c002e003e000460010003003700070037005b
:10302c000b00370023003700124a800003002000f9
:10303c008000eb0060c0b30021003700224a800002
:10304c00030020008000eb0060c0b30014003700c8
:10305c002843900063036300040020000510200047
:10306c00e10f530005003200040020000520200071
:10307c00e20f5300010032006022b80018419000aa
:10308c004811dd00184478000883fb00060141005c
:10309c0002014200e0814a008000eb0070c4b300e2
:1030ac0056f9070084382100e44288001a002000f9
:1030bc00060037006011b8008000eb0090c4b3002c
:1030cc004ef90700f9ff37005a0020000a0078007b
:1030dc004f06be004f0578004f04be000080fa007a
:1030ec00000006000200fa00889fbe008a1f7800cc
:1030fc0000447800f4ff2000c4bf9f0001cdb30052
:10310c00084078001d09070001ceb3000840780084
:10311c001a09070041e020000840780094080700d5
:10312c00230020006881570031c0b30008407800ac
:10313c00800807004fba97008404e800c9bf9f00bd
:10314c0004042000848f54000100340084047800af
:10315c0052c3b300b1c0b300084078003408070074
:10316c0024002000110009008404d800859f200051
:10317c000002eb0002003700802aeb000402e8009a
:10318c00800f5200fcff350089017800a29f2000bf
:10319c0051c0b30008407800660807004fba97008a
:1031ac0009025200c4bf9f000a0320001e00370012
:1031bc00e04f540003003a00ca82ab00feff32001d
:1031cc00030037009b090700e00f5000fdff3200a1
:1031dc00cfbc97008a8f54000100340009032000f3
:1031ec0024002000110009008404d800859f2000d1
:1031fc000002eb0002003700802aeb000402e8001a
:10320c00800f5200fcff350089017800a29f20003e
:10321c0051c0b30008407800460807004fba970029
:10322c0009025200c4bf9f004fba9700e00f520032
:10323c00dfff3a0012c0b300b1c0b3000840780001
:10324c00fb070700e04f540003003a00ca82ab00b2
:10325c00feff3a000300370076090700e10f50002b
:10326c00fdff32004f0578004f04be000080fa00cd
:10327c00000006000200fa00889fbe008a9fbe0074
:10328c008c1f78000044780044002000a4bf9f00ed
:10329c00b4408000e00f52000b003a0065002000a3
:1032ac00a5bf9f0080c0b3004cebb7000440780072
:1032bc004debb7000208f8004e0bf9000408f800bb
:1032cc00500bf900120037004c6bef001ac8bf000e
:1032dc004debb7001808f8004e0bf900044e8000b7
:1032ec00e00f52000a003200044078004cebb700ab
:1032fc00e30f520006003a0084002000a4bf9f0098
:10330c00d4518000e5518000845a8800955a880079
:10331c00c029ef00afba97008502e900a5bf9f0056
:10332c0001cdb300084078009408070001ceb3002b
:10333c000840780091080700b440800062026200e7
:10334c0041e0200001003a0081e0200008407800b4
:10335c0007080700230020006c81570031c0b30020
:10336c0008407800f30707002fb897008004e800a6
:10337c00a9bf9f0004042000848f54000100340076
:10338c008404780052c3b300b1c0b3000840780085
:10339c00a707070089017800c2b4200051c0b30010
:1033ac0008407800e30707002fba97000902520083
:1033bc00a4bf9f000c032000cbb4200015003700e5
:1033cc00e04f540003003a00ca82ab00feff32000b
:1033dc000300370017090700e00f5000fdff320013
:1033ec002fbd97008c0f5500010034000a032000fc
:1033fc000b8144008a01780051c0b300084078006a
:10340c00cc070700afba97008a825200a5bf9f0075
:10341c008a8444002fb89700e00f5000e8ff3a0070
:10342c0012c0b300b1c0b300084078008007070099
:10343c00e04f540003003a00ca82ab00feff3a0092
:10344c0003003700fb080700e10f5000fdff3200be
:10345c0001ccb300084078004808070001cfb30046
:10346c000840780045080700c1e0200008407800bb
:10347c00bf07070052c0b300b1c0b30008407800ca
:10348c006b07070009192000e04f540003003a00b5
:10349c00ca82ab000400320007003700e5080700c1
:1034ac00e10f5000040032008904e900f6ff3a00f5
:1034bc000905780040003700230020006c8157007c
:1034cc0031c0b30008407800370707002fba9700c7
:1034dc008404e8000005eb0044102000ec032000fd
:1034ec00cbb42000848f5400160034003200370017
:1034fc0052c3b300b1c0b300084078004c070700ba
:10350c00e04f540003003a00ca82ab00feff3200c9
:10351c0003003700c7080700e00f5000fdff320022
:10352c000b0145000303200051c0b3000840780094
:10353c001d070700afba97000503b100a5bf9f0098
:10354c000a03b0002fba97008c0f5200e8ff3c0022
:10355c0012c0b300b1c0b3000840780034070700b4
:10356c00e04f540003003a00ca82ab00feff3a0061
:10357c0003003700af080700e10f5000fdff3200d9
:10358c00c2b4200002014500afba97008501e800e3
:10359c0051c0b30008407800030707008040eb00df
:1035ac0008407800b60607000002b2001a0020009e
:1035bc00010032000005eb0001c8b30008407800a0
:1035cc00ee070700e00f550051003200e401200027
:1035dc00e4408800c4b42000144278000482fb004c
:1035ec00e102620017003200620262000900320040
:1035fc00b4408000e00f52003b003200d1b42000f8
:10360c0091407800705a800055f90700004e8800f0
:10361c000900370064815400d3b420009341780032
:10362c0001b52000705a800023fb0700004e880073
:10363c00e00f50002c00320094012000b44c8800a4
:10364c0029003700244d8000e00f52002500320085
:10365c00755a80000502780016f82f00868f5200ec
:10366c0001003d0006027800f6072000860f52008c
:10367c000100340006027800f64c8000060342007c
:10368c00f64c880007802000870f530003003c0095
:10369c0007802f00870f530001003d00f74c880076
:1036ac004322dd00e44c880004712200848f520018
:1036bc000b003c00048f2d00848f52000800350055
:1036cc00c61220000503430084252000840f5300fc
:1036dc0002003e000002eb000100370005027800fa
:1036ec00344d8800c029ef004dcbbf0041ebb70033
:1036fc00244d8000e00f520005003200f609f8005e
:10370c000e01f900f809f8000a01f9008500a9007a
:10371c00a429ef004f0678004f05be004f04be00f1
:10372c000080fa00000006003600f800809fbe0002
:10373c00829fbe00849fbe00869fbe00889fbe00f5
:10374c008a1f78000200fa0087a0a900744c800040
:10375c00e00f52006b0032007667a90004102800bd
:10376c00743a8800284d80000040eb00c1fe070031
:10377c00e00f540056003200944d80000402e80023
:10378c00944d8800c043800005022000850f520034
:10379c0019003600b229ef000000d1006300600070
:1037ac00e10f500008003a00f2ff2f00f307200051
:1037bc00f4438000054480000401410085814900e8
:1037cc008000eb008df70700c44380004322de002d
:1037dc0063026200e10f520019003a00f2ff2f0061
:1037ec00f3072000d4438000e5438000040141002e
:1037fc00858149000f0037000000d1006300600094
:10380c00e10f500004003a00f2ff2f00f3032000f8
:10381c008000eb0079f70700c44380004322de00f0
:10382c0063026200e10f520005003a00f2ff2f0024
:10383c00f30320008000eb0020c0b3006ff70700fb
:10384c00414a8000e08f500021003200a8438000e4
:10385c00e00f5400130032008100e900414a880057
:10386c0012b0260003002000e38f50000400320049
:10387c00e28f500006003a0012e1270003002000fe
:10388c008000eb0000c6b3005cf7070010003700a7
:10389c0052e1270003002000e08f50000c003a009a
:1038ac00f8ff370002e127000300200088007800b1
:1038bc0000c6b30051f7070042e1270003002000c7
:1038cc008800780000c6b3004cf70700484a88000f
:1038dc004e27ef007667a900b44c8000e00f520031
:1038ec00080032000402e900b44c8800f40f5200c6
:1038fc000400340024418000e00f520001003a0023
:10390c0087a0a800f84a8000e00f54000f00320096
:10391c000804e900f84a88000c003a003400200042
:10392c00b44088007667a90004102800743a880017
:10393c00b295200012417800e1c0b3000840780035
:10394c003b060700783a88007667a900844c800013
:10395c00e00f5200320132000402e900844c88006e
:10396c00e10f52001d013a005209ec000100200049
:10397c00724180008341800009f307000001be0002
:10398c0000902000d1032000e6f2070014428000d2
:10399c000402e900030033008180d1000080d300d1
:1039ac00fbff370094428000a54280006101420079
:1039bc00e0814a00eaf20700f04288007667a9002d
:1039cc0004102800743a88002422ef00444d800033
:1039dc00554d800004037800f60fb20026118800c4
:1039ec00482bdd004822de0004027300c82ade00ea
:1039fc00f40fb200241188002302ab00feff32004a
:103a0c001800200028118800644d8000754d80003e
:103a1c0004037800f60fb20026118800482bdd0055
:103a2c004822de0004027300c82ade00f40fb20044
:103a3c0024118800c295200012417800e1c0b30027
:103a4c0008407800fa050700114380000040eb00a5
:103a5c0069070700114380000840780066070700db
:103a6c00f441800008024200f4bf9f0023002000b4
:103a7c000f81e90031c0b300084078002d06070023
:103a8c00230020000f81e90031c0b3000040eb009f
:103a9c002806070072418000834180008000eb0003
:103aac0020c2b300d5f60700d2418000e34180006c
:103abc008000eb0060c3b300d0f60700f241800039
:103acc00034280008000eb0030c2b300cbf607004d
:103adc0012428000234280008000eb0040c2b30001
:103aec00c6f6070032428000434280008000eb00a3
:103afc0050c2b300c1f607005242800063428000fe
:103b0c008000eb0060c2b300bcf607006011b80087
:103b1c008000eb0070c2b300b8f607009242800040
:103b2c00a34280008000eb0080c2b300b3f6070014
:103b3c00f2428000cf91de008000eb0050c3b30056
:103b4c00aef60700344a8000e00f52000500320048
:103b5c0082438000934380008000eb0010c6b300ca
:103b6c00a6f60700624a8000030020008000eb00ec
:103b7c0000c3b300a1f60700644a8000e30f5200b3
:103b8c002100360072002000030020008000eb00b2
:103b9c0020c3b30099f607000004eb004841dd0098
:103bac0008014100cf91de008000eb0030c3b30070
:103bbc0092f607000804e800e80f5400f7ff3a00fb
:103bcc00198820000004eb000a0220004842dd00a6
:103bdc00594378008682fb00669d200066c17a00fe
:103bec000281fb0002014200cf91de008000eb005d
:103bfc0010c3b30081f607000804e8008a0f5400d4
:103c0c00f2ff3a00270037003200200003002000aa
:103c1c008000eb0020c3b30078f607000004eb0033
:103c2c00630264002588200065427a000482fb0050
:103c3c00659d200065417a00670161004842dd0006
:103c4c0004014100cf91de008000eb0030c3b300d3
:103c5c006af607000804e800e60f5400f0ff3a008b
:103c6c00198820000004eb00d94278000582fb0083
:103c7c00659d200065417a00820fb200020144006c
:103c8c004842dd0004014100cf91de008000eb00d2
:103c9c0010c3b30059f607000804e800e40f540001
:103cac00f1ff3a00a281200012417800630161000b
:103cbc004211dd00cf91de00b44a8000c54a80007d
:103ccc0004017100858171008000eb0000c1b3001c
:103cdc004af60700824a8000030020008000eb00b7
:103cec0010c1b30045f60700924a80000300200083
:103cfc008000eb0020c1b30040f60700a24a800010
:103d0c00030020008000eb0030c1b3003bf607003d
:103d1c0070f6070022708000337080008000eb008a
:103d2c0070c0b30035f607006270800073708000bd
:103d3c008000eb0080c0b30030f60700224a800000
:103d4c00030020008000eb0060c0b3002bf60700de
:103d5c00a4438000e00f52001c003200000024003d
:103d6c006808b40000017800030020008000eb001c
:103d7c0000c6b30021f60700001024006a08b40046
:103d8c0000017800030020008000eb0000c6b300a7
:103d9c001af60700002024006c08b400000178001b
:103dac00030020008000eb0000c6b30013f60700f0
:103dbc00003024006e08b4000001780003002000dd
:103dcc008000eb0000c6b3000cf6070014002000c6
:103ddc00a44c88008e29ef0011003700e00f520030
:103dec000f003a008500ab00010032008500a900ed
:103dfc008500ab00feff3200021020000300200003
:103e0c008000eb0040c0b300fcf5070061e2a900a4
:103e1c00c022a8008680a9009680a8009460a90002
:103e2c00944c8000e00f5200360032000402e9008e
:103e3c00944c880033003a0041e2a90061e2a900e9
:103e4c00c022a800743a88007667a900c482a90031
:103e5c00cdc2a900c962a800ccc2a90021e2a90068
:103e6c00341088009540a9009820a9009460a900fe
:103e7c0094e0a9009780a9009620a9009680a9003b
:103e8c0097a0a900064b8000174b8000e00f530051
:103e9c00e08f5b001900320040a7a8001400fc0062
:103eac00a60920008507200037742000854b780078
:103ebc00864b7800844b7800750520001600200096
:103ecc006404200027742000844b7800854b780014
:103edc00864b78004207ab00feff3a00044b800093
:103eec00154b80000040fe0061025200e0825a0037
:103efc00fcff3a000000fe00faff37000040fe0015
:103f0c00feff3700a44c8000e00f520007003a007f
:103f1c00e4408000e00f5200040032000402e9008b
:103f2c00e440880001003a00cdf50700f440800021
:103f3c00e00f5200040032000402e900f440880053
:103f4c0001003a00c6f5070018418000e00f54004c
:103f5c001f0032000804e900184188001c003a00d8
:103f6c007667a90004102800743a8800a2a02000eb
:103f7c00430e20008800780020c0b3009ff5070096
:103f8c00c295200012417800e1c0b30010c0b3000c
:103f9c00a7040700f4ff2000f4bf9f0023002000bb
:103fac000f81e90031c0b30010c0b300e104070079
:103fbc00230020000f81e90031c0b30008407800d5
:103fcc00dc04070020c8bf0046fc0700fdff3700db
:103fdc000080fa004f0578004f04be004f03be006e
:103fec004f02be004f01be004f00be003600f9006c
:103ffc00004006003600f800809fbe00829fbe0085
:10400c00849fbe00869fbe00889fbe008a9fbe0014
:10401c008460a900d04c80009e09b400e44c800060
:10402c00040040004a83de00f03fb200d04c880010
:10403c000508800074382100848f52000c003e006b
:10404c00354d800004438000e08f520005003200a3
:10405c000402e9008502520015088800a629ef0029
:10406c00030037000402e90006025200140888001d
:10407c00145a80000402e800145a8800e20f52001f
:10408c0005003a00c482a800c022a900462bef000c
:10409c00cdc2a90083013700ea0f52000d003a008f
:1040ac007667a90004102800743a88000040eb00e1
:1040bc00c7050700a295200012417800e1c0b300ab
:1040cc000040eb005a0407004e27ef007667a9006a
:1040dc0074013700eb0f520030003a00b4408000fe
:1040ec00e00f52001a0032001f0037007667a9005b
:1040fc007a3a8800084078005efc0700783a88001d
:10410c007667a9002ef10700630060000080e800cc
:10411c0091f30700000000000804e800f40f5400bd
:10412c00fcff3a00345a80000402e800345a88003c
:10413c00e70f520003003a00c44c8000e00f52001d
:10414c00140032008460a800195a8800020037005d
:10415c000a102800a9002000b8408000e00f54008d
:10416c00e2ff32004f01370014002000244d88007c
:10417c0087a0a800345a80000402e800345a880052
:10418c00e70f520047013a00c44c8000e00f520088
:10419c0044013a00a405200041013700b5428000db
:1041ac006a834200860f520002003a00a4002000ed
:1041bc003b013700f6052000860f520002003a0042
:1041cc00cdc2a80037013700461f2000860f5200d1
:1041dc0075003a007667a90004102800743a88002c
:1041ec006011b800a182200010cab300bcf4070013
:1041fc004e27ef007667a9000400280055168000b2
:10420c0005026200e00f52000a00320044632500f0
:10421c00d5bc2a005641800067418000840f5300b2
:10422c00858f5b0003003a001400200004408800d6
:10423c0001003700cdc2a90004408000e00f5200fd
:10424c0018013200c962a900cd62a8007667a900e6
:10425c0004102800743a880010c0b3005c050700f5
:10426c00214b8000c0c0b30056080700204b8800cb
:10427c006101b8008000eb0050c4b300dff407000c
:10428c0032438000cf91de008000eb00e0c4b3002d
:10429c00daf40700244080004822de006f0262003e
:1042ac00e50f520007003a006011b8008000eb00e7
:1042bc0060c4b300d1f407000200200003102000fa
:1042cc000a003700324b8000030020008000eb0016
:1042dc0060c4b300c9f407000400200005102000de
:1042ec00424b800002014200e0814a008000eb005a
:1042fc0060c4b300c1f40700724b800003002000bf
:10430c008000eb00a0c4b300bcf407000400200044
:10431c0005102000824b800002014200e0814a001f
:10432c008000eb00a0c4b300b4f40700124a800074
:10433c00030020008000eb0060c0b300aff4070066
:10434c00244080004822de00f40eb2002506200036
:10435c00850f520002003a00c4082000544a88001d
:10436c00344a8000e00f52000a00320012b02600de
:10437c00030020008000eb0000c6b3009ff4070090
:10438c00b4408000e00f52000200320044002000d4
:10439c00444a88004e27ef007667a90024002000cd
:1043ac00b4438800bf003700561f2000860f520010
:1043bc0092003a00554a8000e08f52002a003200e9
:1043cc007667a90004102800743a88000502e900f9
:1043dc00544a880003003a00743a88007667a900b2
:1043ec00ae0037000503b10016032000868f520083
:1043fc0015003e0022eb2f0002a1b90024d52700a6
:10440c0002014200cf91de008000eb0070c4b300cb
:10441c007af40700e4142000524a80000491b90099
:10442c00e42a2c0002014200cf91de00040024009b
:10443c00051020000201520083815a008000eb001d
:10444c0070c4b3000600370045062000850f5200eb
:10445c0092003a006011b8008000eb00a0c0b300dd
:10446c0066f407008d003700b4408000e00f520066
:10447c004700320054003700884d8000e00f540094
:10448c0049003a007667a900793a8800084078001c
:10449c0078fb0700b0438000e00f5000150032009d
:1044ac000000e900b0438800e10f50000d003a0015
:1044bc00f4438000054480000401450085814d00d3
:1044cc00880078004df40700d4438000e543800059
:1044dc000401450085814d008800780020c0b300a0
:1044ec0046f40700b4438000e00f520001003a008c
:1044fc0051f4070032f0070063046000c4428000ee
:10450c0004044400e5428000e08f52000b003400ac
:10451c0006ff2f0006c3b90006824200e442880061
:10452c004240a90005003c00124a80000300200014
:10453c008000eb0060c0b30030f407004e27ef00a2
:10454c007667a9000800780083f20700d442800047
:10455c00350b2000850f520007003c000402e800d8
:10456c00d44288008502e800850f520002003a0010
:10457c00c4032000c44288000002eb0000000000cd
:10458c000402e800f40f5200fcff3a00030037006d
:10459c0009102800faff2f00fb072000b440800010
:1045ac00e00f5200b4ff3200441f2000145a880060
:1045bc00344a8000e00f52003a00320044002000e0
:1045cc00444a880037003700b4438000e00f5200a3
:1045dc00070032007667a90004102800743a88009e
:1045ec0085f407004e27ef007667a9007628ef00c8
:1045fc0014002000244d880023003700b74c8000a5
:10460c00e08f530022003200860f5200200034004d
:10461c00361f200005034300840f53001c00350097
:10462c0025418000e08f520017003200c541800008
:10463c0006fa2000868f520003003a0061026200e5
:10464c001800320010003700067d2000868f5200c3
:10465c000300320006322000868f520004003a001c
:10466c0063026200e10f52000e003a0006003700b0
:10467c0006192000868f520003003a0055202000b6
:10468c00850f520007003a0087a0a80005003700ec
:10469c00451fb000850f520002003a00441f200055
:1046ac00145a8800e8428000e00f54000d003400da
:1046bc000804e900e84288000a003a007667a9007d
:1046cc0004102800743a8800124a8000030020006d
:1046dc008800780060c0b300c8f30700783a8800ff
:1046ec007667a9004f05be004f04be004f03be0005
:1046fc004f02be004f01be004f00be003600f90055
:10470c000040060002034000e08348000c00370024
:10471c00910188009002ba001082ba008549780095
:10472c00c82ade0095419800a44198004822de007a
:10473c00b4419800e481410062004000e0804800f0
:10474c00860f5000878f5800f1ff390000000600db
:10475c00889fbe008a9fbe008c1f78000002be009e
:10476c004008de0000037800900188000000eb0098
:10477c008000780004047800fb0f20000a40200021
:10478c0088037800880440001906ba009984ba009e
:10479c00e10f460003003a00f90fb2008b8f540072
:1047ac0001003200110020000080e8008a0f500048
:1047bc00f3ff3a00e08f50000c003200200424007c
:1047cc00003b880096018800040abb000700fc002f
:1047dc0050052000303b8800a00a2000303b8800a8
:1047ec0061e7a80000000000000000000282e90060
:1047fc00e13f20008280400002815100150024001e
:10480c009601880004044100840178000004200013
:10481c00d304780058057800890bbb008a9bbb0039
:10482c000000e900faff3a00053b88000700fc0095
:10483c0050052000303b8800a00a2000303b880047
:10484c0061e7a80000000000000000000408b000b0
:10485c00810f5200eaff3a004f0678004f05be0068
:10486c004f04be0000000600889fbe008a9fbe0059
:10487c008c9fbe008e1f78000005be00820678005b
:10488c000306780006c02f00000363008b0278003b
:10489c00060278000404be00d06f8000e16f800037
:1048ac00880f5000898f58001d003200e00f500017
:1048bc00e08f580004003500002eec0043e120008e
:1048cc0042212100a2ff0700e00f5400e08f5c00a2
:1048dc0011003500fe2dec00990188000803be0084
:1048ec000002eb004221210041e1200000202000c9
:1048fc001607ba009681ba00840242000eb17a0003
:10490c0083b07a000402e80062034300e0834b00aa
:10491c00800f5200f6ff3a00d86f8800e96f8800cc
:10492c00fa3fb2000a05d1000002eb00472121003a
:10493c0046e1200011003700fa1fb2008a02450040
:10494c00058043001c4190004811dd009c4178001b
:10495c008380fb000108410085024300bc409000ad
:10496c00c808dd002c4090000080fb00808a4000cd
:10497c00640242000a05e800640646008d0f5200ee
:10498c00edff39004f0778004f06be004f05be0003
:10499c004f04be0000000600889fbe008a9fbe0028
:1049ac008c9fbe008e1f78000005be0002067800aa
:1049bc00030778000004eb000d40200010003700c6
:1049cc008a047800f93fb200898456000802560028
:1049dc0089844400848f54000100360084047800dc
:1049ec0088014700090178000a00be009eff0700fd
:1049fc000902d10004054500e0854d00090444007e
:104a0c008c0f5400eeff39004f0778004f06be00a4
:104a1c004f05be004f04be0000000600040020003d
:104a2c000482fb0005002000c022dd0004002000f1
:104a3c000600250006024200e0824a00840f500066
:104a4c00858f5800020031000000420081804a002e
:104a5c00e6bf2a000700200062034300e0834b00fe
:104a6c00040020000482fb0005002000c022dd00b1
:104a7c00040020000602420087824a00840f500086
:104a8c00858f580001003100c3ff070000000600ad
:104a9c00f40f200006002000040363000700200030
:104aac00c033dd000600200005002500050343008f
:104abc00e0834b000603430087834b0062035300e3
:104acc00e0835b00970188009602ba001683ba0057
:104adc0007002000c033dd00060020000503430062
:104aec00e0834b0007026200840278000602780023
:104afc000400be0000000600889fbe008a9fbe0016
:104b0c00f00f2000010020000400200000026200d1
:104b1c0005002000c022dd00040020000600250056
:104b2c0006024200e0824a000401420085814a00ec
:104b3c0062015100e08159006033b8000f0037006a
:104b4c00950188009400ba001484ba008084600037
:104b5c00c808de00610db80009054500e0854d0070
:104b6c000a0343008b834b00800064000103430065
:104b7c00e0834b0062024200e0824a00820f520046
:104b8c00838f5a00eeff39000782fb008402780005
:104b9c00060278000400be004f05be004f04be00a4
:104bac0000000600ea874700889fbe008a9fbe006f
:104bbc008c9fbe008e1f7800060020000683fb0031
:104bcc0007002000c033dd00060020000200250095
:104bdc000300200006044100878449006022b800cd
:104bec00370037000200420083804a000000430077
:104bfc0081804b00910188000c4020000d002000aa
:104c0c000006460081864e00dcb79f00edb79f0082
:104c1c00fe0f2000f0b79f0081bf9f005fb697008a
:104c2c00efb69700d6b79f00e7b79f000403be000e
:104c3c001002ba009082ba00e10f42000c003a0058
:104c4c00f50fb2008e8f520009003a00620040004e
:104c5c00e08048008c0f50008d8f5800f4ff3a0014
:104c6c000602be005fb39700efb397001000370049
:104c7c000602be007fb597008fbd97005fb397000b
:104c8c00efb3970020042400003b88000a0dbb0002
:104c9c000700fc0050052000303b8800a00a2000d3
:104cac00303b880061e7a800000000000000000015
:104cbc0000402000010020000402400085824800d2
:104ccc00880f5200898f5a00c6ff39004f077800b1
:104cdc004f06be004f05be004f04be00af00b10032
:104cec0000000600889fbe00f70f20000400200083
:104cfc000702620005002000c022dd000400200035
:104d0c000600250006024200e0824a009501880058
:104d1c001403ba001482ba00e10f430004003a00f5
:104d2c00f40fb200870f52000e003a000e0037004d
:104d3c0005202000850f53000a003a00e44f520072
:104d4c0008003a006cff07000004be0050ff07008b
:104d5c001400200005002000800f5400818f5c009f
:104d6c00020032008fff07006022b8000400be0072
:104d7c004f04be0000000600f2874700889fbe006b
:104d8c008a9fbe008c9fbe008e1f78005aff0700c2
:104d9c000004be003eff0700800f5400818f5c00b2
:104dac00020032007fff0700950037000800250045
:104dbc000900200004c0240004045400e0845c00ba
:104dcc000600200007002000f20f20000300200046
:104ddc000600610001002000c000dd000000200082
:104dec000804400089844800000020000200600094
:104dfc0001002000c000dd00000020000002540073
:104e0c0081825c00b4b79f00c5b79f006022b800d8
:104e1c0002077800d0b79f00e1b79f0096b79f00bc
:104e2c00a7b79f007100370002c0240003002000c8
:104e3c000000250000004100e08049000000420015
:104e4c0081804a005fb39700efb3970000004300e6
:104e5c0081804b009fb39700070367000700200079
:104e6c00c033dd00060020000003430081834b00ab
:104e7c000201420083814a005fb69700efb69700ab
:104e8c000201460083814e00830078000000eb0095
:104e9c0009402000f4b79f0085bf9f000606be00a6
:104eac00070378000205be00960188008c034000c1
:104ebc001704ba009783ba00910188008a02400057
:104ecc009501ba009582ba00830f540008003a008d
:104edc00858f530006003a000080e800890f5000cf
:104eec00f1ff3a007fb297008fba97003b00370072
:104efc007fb297008fba97000c03be0020042400e9
:104f0c00003b8800910188000a0dbb000700fc00e3
:104f1c0050052000303b8800a00a2000303b880060
:104f2c0061e7a8000000000000000000084020001d
:104f3c00090020000c0444008d844c000c01550029
:104f4c008d815d001b0024001e003700910188003c
:104f5c001002ba009082ba00020640008386480014
:104f6c009d018800040ebb00058ebb000a05e900fc
:104f7c0062004000e0804800e00f5500f3ff3a006b
:104f8c000602be007fb397008fbb97000b3b8800d7
:104f9c000700fc0050052000303b8800a00a2000d0
:104fac00303b880061e7a800000000000000000012
:104fbc000608b0000780b000880f5300898f5b0093
:104fcc00060032000600be000a042000f6b79f005f
:104fdc0087bf9f000403be00dcff370006402000a3
:104fec00070020000402430085824b003fb097006d
:104ffc00cfb09700800f5200818f5a008aff350086
:10500c004f0778004f06be004f05be004f04be0090
:10501c002f01b10000000600c422a9000064a0000a
:10502c000080fb00401388006822ef0060a2ab00f8
:10503c00feff3a004413800060a2ab00feff3a0072
:10504c0040138000c422a80000000600cd62a90015
:10505c000064a0000080fb00401388006822ef0071
:10506c0060a2ab00feff3a004413800060a2ab00cc
:10507c00feff3a0040138000cd62a800000006003d
:10508c000042780001407800e04f520001003a00e5
:10509c00e1ff3700edff3700c422a9000064a00037
:1050ac000080fb0040138800051380000502b2004d
:1050bc00fdff3a004413800002027800e00f51001b
:1050cc000c0032000613800062036300fdff3a00ff
:1050dc00461388000201e90060a2ab00f7ff3a001a
:1050ec004613800086f07a000402e9008502e8008d
:1050fc00f2ff370085804000e00f520006003200be
:10510c0060a2ab00feff3a00451380008558780082
:10511c000402e900f8ff3700c422a80000000600d2
:10512c00cd62a9000064a0000080fb004013880041
:10513c00051380000502b200fdff3a004413800005
:10514c0002027800e00f51000c00320006138000c0
:10515c0062036300fdff3a00461388000201e90078
:10516c0060a2ab00f7ff3a004613800086f07a008d
:10517c000402e9008502e800f2ff37008580400058
:10518c00e00f52000600320060a2ab00feff3a00b6
:10519c0045138000855878000402e900f8ff3700b9
:1051ac00cd62a800000006000042780001407800a3
:1051bc008200780003017800e04f520001003a00b1
:1051cc00b5ff3700d6ff3700c422a9000080fb00d2
:1051dc00401388008180fb004113880060a2ab0063
:1051ec00feff3a004413800060a2ab00feff3a00c1
:1051fc0044138000c422a80000000600cd62a90060
:10520c000080fb00401388008180fb004113880064
:10521c0060a2ab00feff3a004413800060a2ab001a
:10522c00feff3a0044138000cd62a8000000060087
:10523c00004278000140780082407800e04f520034
:10524c0001003a00e0ff3700ecff3700c422a90050
:10525c000080fb004013880060a2ab00feff3a0008
:10526c004413800002027800e00f51000b00320062
:10527c006022ab00feff3a00314378008682fb00cf
:10528c00451388000201e90060a2ab00f6ff3a006a
:10529c00451380000402e900f3ff3700e00f5200d1
:1052ac000500320060a2ab00feff3a0045138000ff
:1052bc000402e900f9ff3700c422a8000000060030
:1052cc00cd62a9000080fb004013880060a2ab00f7
:1052dc00feff3a004413800002027800e00f5100f8
:1052ec000b0032006022ab00feff3a003143780025
:1052fc008682fb00451388000201e90060a2ab0026
:10530c00f6ff3a00451380000402e900f3ff370072
:10531c00e00f52000500320060a2ab00feff3a0025
:10532c00451380000402e900f9ff3700cd62a800a4
:10533c0000000600004278000140780082007800ee
:10534c0003017800e04f520001003a00bfff370024
:10535c00dbff37000041eb0082407800b4ff3700e0
:10536c004300200022de200061c0b3008eff370016
:10537c00430020000101780061c0b300edff37004d
:10538c00889fbe0000447800814478000281fb00b5
:10539c0014dd20006441790094db2000144171007d
:1053ac0051c3b30008407800a1ff07008940780082
:1053bc000840780032ff07004f04be0000000600d2
:1053cc00889fbe008a1f78000044780081447800d2
:1053dc00024578008381fb0014dd200064c1790054
:1053ec0094db20001441710051c3b30008407800d5
:1053fc008fff07000a417800894078000840780048
:10540c008bff07004f0578004f04be00000006001c
:10541c00889fbe008a9fbe00004478004ad82000b6
:10542c0019c0b3005a4178008940780008407800d0
:10543c007fff07008944e800e5cf5400f9ff3a00ec
:10544c00aad8200079c0b300abc2b3005a4178008f
:10545c00894078000840780075ff07008944e8000f
:10546c008bcf5400f9ff3a003adc20008044eb006b
:10547c00894178005a417800a1c2b30008407800f5
:10548c00cfff07008944e800e8cf5400f8ff3a004a
:10549c00eada2000b9c2b3006bc3b3005a417800fa
:1054ac00894078000840780061ff07008944e800d3
:1054bc008bcf5400f9ff3a00b2db20001241780088
:1054cc0071c3b3000840780059ff0700badc200014
:1054dc008044eb00894178005a41780081c3b300c5
:1054ec0008407800b6ff07008944e800e5cf540077
:1054fc00f8ff3a00cadb200099c3b300dbc3b3004a
:10550c005a417800894078000840780048ff07002d
:10551c008944e8008bcf5400f9ff3a0022dc2000cc
:10552c0012417800e1c3b3000840780040ff070047
:10553c004f05be004f04be0000000600c422a900a7
:10554c000080fb004013880060a2ab00feff3a0015
:10555c0044138000c422a80000000600cd62a900fc
:10556c000080fb004013880060a2ab00feff3a00f5
:10557c0044138000cd62a8000000060000427800b1
:10558c0001407800e04f520001003a00ebff370079
:10559c00f2ff3700881f7800004478000141780042
:1055ac00e1c0b3000840780021ff0700c2c0b3007f
:1055bc0021c0b300084078001dff070021c0b300d4
:1055cc0008407800aefe07006c406000fbff3a001c
:1055dc0061c2b30008407800a9fe07008042780041
:1055ec0067c2620004407800e6edb7004328de0095
:1055fc0061006000e7edb70081c2b300084078009d
:10560c009ffe0700e8edb70091c2b3000840780098
:10561c009bfe0700e9edb700e7cdbf0001003200ab
:10562c0030c0b3004f04780000000600889fbe0015
:10563c000044780001cbb30008407800cfff07008e
:10564c00d2c1b300c1c1b30008407800f8fe070016
:10565c008044eb0022c0b300824078000840780000
:10566c00f3fe070021c0b3000840780084fe070059
:10567c0062406000fbff3a0031c2b3000840780082
:10568c007ffe07006f406000eaedb70064405000f9
:10569c00e44f5000030036008944e800eacf540080
:1056ac00ecff3a00d2c3b300c1c1b300084078008c
:1056bc00dffe070012c1b30021c0b3000840780020
:1056cc00dbfe070021c0b300084078006cfe070029
:1056dc0071406000fbff3a00e1c1b3000840780064
:1056ec00acff070080447800a1c5b30008407800e7
:1056fc00a8ff07008944700061c9b3000840780016
:10570c00a4ff070080c4740001c8b30008407800ef
:10571c009aff0700e0cf54002a003a0031c2b300d0
:10572c000840780056fe0700804278006fc2620085
:10573c0004407800eaedb7004428de006100600008
:10574c00ebedb70041c2b300084078004cfe0700f7
:10575c007f406000ecedb70051c2b3000840780008
:10576c0047fe0700804278006fc262000440780058
:10577c00ededb7007f8062004400de00eeedb70077
:10578c00b1c1b300084078003dfe0700efedb70053
:10579c00c1c1b3000840780039fe0700f0edb70036
:1057ac00b4de200014427800e04f520004003a00ae
:1057bc00e4de200014427800e04f52000100320079
:1057cc0029c0b300094078004f04be000000060059
:1057dc00881f78000044780008407800ddfe070040
:1057ec00084078000aff0700084078008fff070088
:1057fc004f04780000000600889fbe00004478002b
:10580c00e384600094dd200064c17c0041c2b300dd
:10581c000840780086fe0700d4dd200064c17c00bf
:10582c00d1c2b3000840780081fe07004f04be00cf
:10583c0000000600c402a9003408200044138800ac
:10584c006822ef006822ef006822ef006822ef0068
:10585c0060a2ab00feff3a004413800060a2ab00d4
:10586c00feff3a004413800060a2ab00feff3a003a
:10587c004413800060a2ab00feff3a00441380008a
:10588c00041380000402b200fdff3a0040138000b4
:10589c00c402a8004413880060a2ab00feff3a00cb
:1058ac004413800061006000000006000002eb0061
:1058bc0005c520004223dd0006834200000beb00ef
:1058cc0036137800740342004233dd000683420035
:1058dc00000beb00361378000402e800f40f5200c2
:1058ec00f4ff3a00000006003600f800809fbe006e
:1058fc00829fbe00849fbe00869fbe003400f800cd
:10590c0000002000a0018800f4678000e00f520026
:10591c0003003a0014002000f4678800e3ff07003e
:10592c0024df200014427800e14f52000b003a00b3
:10593c000862ab0007003a00fc2ced00e467800025
:10594c00e00f520005003a0004407800f2edb70079
:10595c0002003700a4002000e467880024df200048
:10596c0014427800e34f52000400320024df200080
:10597c0014427800e74f520023003a00f42dec005b
:10598c00a56f800044062000848f5200080034006c
:10599c00f42def00e4648000f564800061024200a5
:1059ac00e0824a00e4648800f56488000642a8009e
:1059bc000862ab0003003200c46f8000e00f52009d
:1059cc0011003200f42def0024df20001442780087
:1059dc00e34f520002003a0044c0b300010037000c
:1059ec0084c0b30004407800f2edb700c46f8000af
:1059fc00e00f520003003200f82def000622a80041
:105a0c00010037000602a8008780a9003400f900c5
:105a1c004f03be004f02be004f01be004f00be0040
:105a2c003600f90000400600801f7800849fbe00fd
:105a3c00869fbe003400f80000002000a001880002
:105a4c000200fa008620a9000440200040108000cb
:105a5c0000026200e00f5200270032000942a90048
:105a6c0024df2000144278000482fb004222dd0077
:105a7c0005c520000482420016002000070020000b
:105a8c00140a430054924b00fa0cf800f40cf90081
:105a9c00f80cf800f20cf90024df20001442780016
:105aac000482fb000500200064025200e0825a00d0
